{
  "contractName": "Test",
  "abi": [
    {
      "inputs": [],
      "stateMutability": "nonpayable",
      "type": "constructor"
    },
    {
      "anonymous": false,
      "inputs": [
        {
          "indexed": false,
          "internalType": "uint256",
          "name": "index",
          "type": "uint256"
        },
        {
          "indexed": false,
          "internalType": "address",
          "name": "bettor",
          "type": "address"
        },
        {
          "indexed": false,
          "internalType": "uint256",
          "name": "amount",
          "type": "uint256"
        },
        {
          "indexed": false,
          "internalType": "bytes1",
          "name": "challenges",
          "type": "bytes1"
        },
        {
          "indexed": false,
          "internalType": "uint256",
          "name": "answerBlockNumber",
          "type": "uint256"
        }
      ],
      "name": "BET",
      "type": "event"
    },
    {
      "inputs": [],
      "name": "owner",
      "outputs": [
        {
          "internalType": "address",
          "name": "",
          "type": "address"
        }
      ],
      "stateMutability": "view",
      "type": "function"
    },
    {
      "inputs": [],
      "name": "getSomeValue",
      "outputs": [
        {
          "internalType": "uint256",
          "name": "value",
          "type": "uint256"
        }
      ],
      "stateMutability": "pure",
      "type": "function"
    },
    {
      "inputs": [],
      "name": "getPot",
      "outputs": [
        {
          "internalType": "uint256",
          "name": "pot",
          "type": "uint256"
        }
      ],
      "stateMutability": "view",
      "type": "function"
    },
    {
      "inputs": [
        {
          "internalType": "bytes1",
          "name": "challenges",
          "type": "bytes1"
        }
      ],
      "name": "bet",
      "outputs": [
        {
          "internalType": "bool",
          "name": "result",
          "type": "bool"
        }
      ],
      "stateMutability": "payable",
      "type": "function"
    },
    {
      "inputs": [
        {
          "internalType": "uint256",
          "name": "index",
          "type": "uint256"
        }
      ],
      "name": "getBetInfo",
      "outputs": [
        {
          "internalType": "uint256",
          "name": "answerBlockNumber",
          "type": "uint256"
        },
        {
          "internalType": "address",
          "name": "bettor",
          "type": "address"
        },
        {
          "internalType": "bytes1",
          "name": "challenges",
          "type": "bytes1"
        }
      ],
      "stateMutability": "view",
      "type": "function"
    },
    {
      "inputs": [
        {
          "internalType": "bytes1",
          "name": "challenges",
          "type": "bytes1"
        }
      ],
      "name": "pushBet",
      "outputs": [
        {
          "internalType": "bool",
          "name": "",
          "type": "bool"
        }
      ],
      "stateMutability": "nonpayable",
      "type": "function"
    },
    {
      "inputs": [
        {
          "internalType": "uint256",
          "name": "index",
          "type": "uint256"
        }
      ],
      "name": "popBet",
      "outputs": [
        {
          "internalType": "bool",
          "name": "",
          "type": "bool"
        }
      ],
      "stateMutability": "nonpayable",
      "type": "function"
    }
  ],
  "bytecode": "0x608060405234801561001057600080fd5b50336000806101000a81548173ffffffffffffffffffffffffffffffffffffffff021916908373ffffffffffffffffffffffffffffffffffffffff160217905550610a7d806100606000396000f3fe6080604052600436106100705760003560e01c80638da5cb5b1161004e5780638da5cb5b1461011c578063a40674b714610147578063d04c9a8c14610172578063f4b46f5b146101af57610070565b80630328209614610075578063403c9fa8146100b257806379141f80146100dd575b600080fd5b34801561008157600080fd5b5061009c60048036038101906100979190610678565b6101df565b6040516100a991906106c0565b60405180910390f35b3480156100be57600080fd5b506100c7610334565b6040516100d491906106f4565b60405180910390f35b3480156100e957600080fd5b5061010460048036038101906100ff919061073b565b61033e565b604051610113939291906107b8565b60405180910390f35b34801561012857600080fd5b5061013161043c565b60405161013e91906107ef565b60405180910390f35b34801561015357600080fd5b5061015c610460565b60405161016991906106f4565b60405180910390f35b34801561017e57600080fd5b506101996004803603810190610194919061073b565b610469565b6040516101a691906106c0565b60405180910390f35b6101c960048036038101906101c49190610678565b6104cd565b6040516101d691906106c0565b60405180910390f35b60006101e96105c2565b33816020019073ffffffffffffffffffffffffffffffffffffffff16908173ffffffffffffffffffffffffffffffffffffffff168152505060034361022e9190610839565b8160000181815250508281604001907effffffffffffffffffffffffffffffffffffffffffffffffffffffffffffff191690817effffffffffffffffffffffffffffffffffffffffffffffffffffffffffffff191681525050806004600060025481526020019081526020016000206000820151816000015560208201518160010160006101000a81548173ffffffffffffffffffffffffffffffffffffffff021916908373ffffffffffffffffffffffffffffffffffffffff16021790555060408201518160010160146101000a81548160ff021916908360f81c0217905550905050600260008154809291906103259061088f565b91905055506001915050919050565b6000600154905090565b60008060008060046000868152602001908152602001600020604051806060016040529081600082015481526020016001820160009054906101000a900473ffffffffffffffffffffffffffffffffffffffff1673ffffffffffffffffffffffffffffffffffffffff1673ffffffffffffffffffffffffffffffffffffffff1681526020016001820160149054906101000a900460f81b7effffffffffffffffffffffffffffffffffffffffffffffffffffffffffffff19167effffffffffffffffffffffffffffffffffffffffffffffffffffffffffffff1916815250509050806000015193508060200151925080604001519150509193909250565b60008054906101000a900473ffffffffffffffffffffffffffffffffffffffff1681565b60006005905090565b6000600460008381526020019081526020016000206000808201600090556001820160006101000a81549073ffffffffffffffffffffffffffffffffffffffff02191690556001820160146101000a81549060ff0219169055505060019050919050565b60006611c37937e080003414610518576040517f08c379a000000000000000000000000000000000000000000000000000000000815260040161050f90610934565b60405180910390fd5b610521826101df565b610560576040517f08c379a0000000000000000000000000000000000000000000000000000000008152600401610557906109a0565b60405180910390fd5b7f100791de9f40bf2d56ffa6dc5597d2fd0b2703ea70bc7548cd74c04f5d215ab7600160025461059091906109c0565b3334856003436105a09190610839565b6040516105b19594939291906109f4565b60405180910390a160019050919050565b604051806060016040528060008152602001600073ffffffffffffffffffffffffffffffffffffffff16815260200160007effffffffffffffffffffffffffffffffffffffffffffffffffffffffffffff191681525090565b600080fd5b60007fff0000000000000000000000000000000000000000000000000000000000000082169050919050565b61065581610620565b811461066057600080fd5b50565b6000813590506106728161064c565b92915050565b60006020828403121561068e5761068d61061b565b5b600061069c84828501610663565b91505092915050565b60008115159050919050565b6106ba816106a5565b82525050565b60006020820190506106d560008301846106b1565b92915050565b6000819050919050565b6106ee816106db565b82525050565b600060208201905061070960008301846106e5565b92915050565b610718816106db565b811461072357600080fd5b50565b6000813590506107358161070f565b92915050565b6000602082840312156107515761075061061b565b5b600061075f84828501610726565b91505092915050565b600073ffffffffffffffffffffffffffffffffffffffff82169050919050565b600061079382610768565b9050919050565b6107a381610788565b82525050565b6107b281610620565b82525050565b60006060820190506107cd60008301866106e5565b6107da602083018561079a565b6107e760408301846107a9565b949350505050565b6000602082019050610804600083018461079a565b92915050565b7f4e487b7100000000000000000000000000000000000000000000000000000000600052601160045260246000fd5b6000610844826106db565b915061084f836106db565b9250827fffffffffffffffffffffffffffffffffffffffffffffffffffffffffffffffff038211156108845761088361080a565b5b828201905092915050565b600061089a826106db565b91507fffffffffffffffffffffffffffffffffffffffffffffffffffffffffffffffff82036108cc576108cb61080a565b5b600182019050919050565b600082825260208201905092915050565b7f73686f77206d6520746865206d6f6e6579000000000000000000000000000000600082015250565b600061091e6011836108d7565b9150610929826108e8565b602082019050919050565b6000602082019050818103600083015261094d81610911565b9050919050565b7f6661696c65642062657400000000000000000000000000000000000000000000600082015250565b600061098a600a836108d7565b915061099582610954565b602082019050919050565b600060208201905081810360008301526109b98161097d565b9050919050565b60006109cb826106db565b91506109d6836106db565b9250828210156109e9576109e861080a565b5b828203905092915050565b600060a082019050610a0960008301886106e5565b610a16602083018761079a565b610a2360408301866106e5565b610a3060608301856107a9565b610a3d60808301846106e5565b969550505050505056fea2646970667358221220753ab154d5fa96a4d1fba1092f0c7fbf0b9cdd226f703ec6b37c1fa93120e32b64736f6c634300080d0033",
  "immutableReferences": {},
  "source": "// SPDX-License-Identifier: MIT\r\npragma solidity ^0.8.10;\r\n\r\ncontract Test {\r\n    struct BetInfo{\r\n        uint256 answerBlockNumber;\r\n        address payable bettor;\r\n        bytes1 challenges;  //Prior to version 0.8.0, byte used to be an alias for bytes1.\r\n    }\r\n    address public owner;\r\n    uint256 private _pot;\r\n    uint256 private _tail;\r\n    uint256 private _hand;\r\n\r\n    mapping (uint256=>BetInfo) private _bets;\r\n    uint256 constant internal BET_LIMIT = 256;\r\n    uint256 constant internal BET_BLOCK_INTERVAL = 3;\r\n    uint256 constant internal BET_AMOUNT = 5* 10 ** 15;\r\n\r\n    event BET(uint256 index, address bettor, uint256 amount, bytes1 challenges, uint256 answerBlockNumber);\r\n\r\n    constructor(){\r\n        owner = msg.sender;\r\n    }\r\n\r\n    function getSomeValue() public pure returns (uint256 value){\r\n        return 5;\r\n    }\r\n\r\n    function getPot() public view returns (uint256 pot) {\r\n        return _pot;\r\n    }\r\n\r\n    // bet\r\n    function bet(bytes1 challenges) public payable returns (bool result){\r\n        require(msg.value == BET_AMOUNT, \"show me the money\");\r\n        require(pushBet(challenges), \"failed bet\");\r\n\r\n        emit BET(_tail -1, msg.sender, msg.value, challenges, block.number + BET_BLOCK_INTERVAL);\r\n\r\n        return true;\r\n    }\r\n        //save queue\r\n    // dist\r\n        //check value\r\n\r\n    function getBetInfo(uint256 index) public view returns (uint256 answerBlockNumber, address bettor, bytes1 challenges){\r\n        BetInfo memory b = _bets[index];\r\n        answerBlockNumber = b.answerBlockNumber;\r\n        bettor = b.bettor;\r\n        challenges = b.challenges;\r\n    }\r\n\r\n    function pushBet(bytes1 challenges) public returns (bool) {\r\n        BetInfo memory b;\r\n        b.bettor = payable(msg.sender);\r\n        b.answerBlockNumber = block.number + BET_BLOCK_INTERVAL;\r\n        b.challenges = challenges;\r\n        \r\n        _bets[_tail] = b;\r\n        _tail++;\r\n\r\n        return true;\r\n    }\r\n\r\n    function popBet(uint256 index) public returns (bool){\r\n        delete _bets[index];\r\n        return true;\r\n    }\r\n}",
  "sourcePath": "D:\\developer\\solidity\\solidity_test\\truffle-test\\contracts\\Test.sol",
  "compiler": {
    "name": "solc",
    "version": "0.8.13+commit.abaa5c0e.Emscripten.clang"
  },
  "schemaVersion": "3.4.7",
  "updatedAt": "2022-04-10T13:38:13.575Z",
  "devdoc": {
    "kind": "dev",
    "methods": {},
    "version": 1
  },
  "userdoc": {
    "kind": "user",
    "methods": {},
    "version": 1
  }
}