{
  "contractName": "Test",
  "abi": [
    {
      "inputs": [],
      "stateMutability": "nonpayable",
      "type": "constructor"
    },
    {
      "anonymous": false,
      "inputs": [
        {
          "indexed": false,
          "internalType": "uint256",
          "name": "index",
          "type": "uint256"
        },
        {
          "indexed": false,
          "internalType": "address",
          "name": "bettor",
          "type": "address"
        },
        {
          "indexed": false,
          "internalType": "uint256",
          "name": "amount",
          "type": "uint256"
        },
        {
          "indexed": false,
          "internalType": "bytes1",
          "name": "challenges",
          "type": "bytes1"
        },
        {
          "indexed": false,
          "internalType": "uint256",
          "name": "answerBlockNumber",
          "type": "uint256"
        }
      ],
      "name": "BET",
      "type": "event"
    },
    {
      "anonymous": false,
      "inputs": [
        {
          "indexed": false,
          "internalType": "uint256",
          "name": "index",
          "type": "uint256"
        },
        {
          "indexed": false,
          "internalType": "address",
          "name": "bettor",
          "type": "address"
        },
        {
          "indexed": false,
          "internalType": "uint256",
          "name": "amount",
          "type": "uint256"
        },
        {
          "indexed": false,
          "internalType": "bytes1",
          "name": "challenges",
          "type": "bytes1"
        },
        {
          "indexed": false,
          "internalType": "uint256",
          "name": "answerBlockNumber",
          "type": "uint256"
        }
      ],
      "name": "DRAW",
      "type": "event"
    },
    {
      "anonymous": false,
      "inputs": [
        {
          "indexed": false,
          "internalType": "uint256",
          "name": "index",
          "type": "uint256"
        },
        {
          "indexed": false,
          "internalType": "address",
          "name": "bettor",
          "type": "address"
        },
        {
          "indexed": false,
          "internalType": "uint256",
          "name": "amount",
          "type": "uint256"
        },
        {
          "indexed": false,
          "internalType": "bytes1",
          "name": "challenges",
          "type": "bytes1"
        },
        {
          "indexed": false,
          "internalType": "uint256",
          "name": "answerBlockNumber",
          "type": "uint256"
        }
      ],
      "name": "FAIL",
      "type": "event"
    },
    {
      "anonymous": false,
      "inputs": [
        {
          "indexed": false,
          "internalType": "uint256",
          "name": "index",
          "type": "uint256"
        },
        {
          "indexed": false,
          "internalType": "address",
          "name": "bettor",
          "type": "address"
        },
        {
          "indexed": false,
          "internalType": "uint256",
          "name": "amount",
          "type": "uint256"
        },
        {
          "indexed": false,
          "internalType": "bytes1",
          "name": "challenges",
          "type": "bytes1"
        },
        {
          "indexed": false,
          "internalType": "uint256",
          "name": "answerBlockNumber",
          "type": "uint256"
        }
      ],
      "name": "REFUND",
      "type": "event"
    },
    {
      "anonymous": false,
      "inputs": [
        {
          "indexed": false,
          "internalType": "uint256",
          "name": "index",
          "type": "uint256"
        },
        {
          "indexed": false,
          "internalType": "address",
          "name": "bettor",
          "type": "address"
        },
        {
          "indexed": false,
          "internalType": "uint256",
          "name": "amount",
          "type": "uint256"
        },
        {
          "indexed": false,
          "internalType": "bytes1",
          "name": "challenges",
          "type": "bytes1"
        },
        {
          "indexed": false,
          "internalType": "uint256",
          "name": "answerBlockNumber",
          "type": "uint256"
        }
      ],
      "name": "WIN",
      "type": "event"
    },
    {
      "inputs": [],
      "name": "owner",
      "outputs": [
        {
          "internalType": "address payable",
          "name": "",
          "type": "address"
        }
      ],
      "stateMutability": "view",
      "type": "function"
    },
    {
      "inputs": [],
      "name": "getSomeValue",
      "outputs": [
        {
          "internalType": "uint256",
          "name": "value",
          "type": "uint256"
        }
      ],
      "stateMutability": "pure",
      "type": "function"
    },
    {
      "inputs": [],
      "name": "getPot",
      "outputs": [
        {
          "internalType": "uint256",
          "name": "pot",
          "type": "uint256"
        }
      ],
      "stateMutability": "view",
      "type": "function"
    },
    {
      "inputs": [
        {
          "internalType": "bytes1",
          "name": "challenges",
          "type": "bytes1"
        }
      ],
      "name": "bet",
      "outputs": [
        {
          "internalType": "bool",
          "name": "result",
          "type": "bool"
        }
      ],
      "stateMutability": "payable",
      "type": "function"
    },
    {
      "inputs": [],
      "name": "distribute",
      "outputs": [],
      "stateMutability": "nonpayable",
      "type": "function"
    },
    {
      "inputs": [
        {
          "internalType": "bytes32",
          "name": "answer",
          "type": "bytes32"
        }
      ],
      "name": "setAnswerForTest",
      "outputs": [
        {
          "internalType": "bool",
          "name": "result",
          "type": "bool"
        }
      ],
      "stateMutability": "nonpayable",
      "type": "function"
    },
    {
      "inputs": [
        {
          "internalType": "bytes1",
          "name": "challenges",
          "type": "bytes1"
        },
        {
          "internalType": "bytes32",
          "name": "answer",
          "type": "bytes32"
        }
      ],
      "name": "isMatch",
      "outputs": [
        {
          "internalType": "enum Test.BettingResult",
          "name": "",
          "type": "uint8"
        }
      ],
      "stateMutability": "pure",
      "type": "function"
    },
    {
      "inputs": [
        {
          "internalType": "uint256",
          "name": "index",
          "type": "uint256"
        }
      ],
      "name": "getBetInfo",
      "outputs": [
        {
          "internalType": "uint256",
          "name": "answerBlockNumber",
          "type": "uint256"
        },
        {
          "internalType": "address",
          "name": "bettor",
          "type": "address"
        },
        {
          "internalType": "bytes1",
          "name": "challenges",
          "type": "bytes1"
        }
      ],
      "stateMutability": "view",
      "type": "function"
    },
    {
      "inputs": [
        {
          "internalType": "bytes1",
          "name": "challenges",
          "type": "bytes1"
        }
      ],
      "name": "pushBet",
      "outputs": [
        {
          "internalType": "bool",
          "name": "",
          "type": "bool"
        }
      ],
      "stateMutability": "nonpayable",
      "type": "function"
    }
  ],
  "bytecode": "0x60806040526001600460006101000a81548160ff02191690831515021790555034801561002b57600080fd5b50336000806101000a81548173ffffffffffffffffffffffffffffffffffffffff021916908373ffffffffffffffffffffffffffffffffffffffff16021790555061160e8061007b6000396000f3fe6080604052600436106100865760003560e01c80638da5cb5b116100595780638da5cb5b1461016f57806399a167d71461019a578063a40674b7146101d7578063e4fc6b6d14610202578063f4b46f5b1461021957610086565b8063032820961461008b578063403c9fa8146100c85780637009fa36146100f357806379141f8014610130575b600080fd5b34801561009757600080fd5b506100b260048036038101906100ad9190610f06565b610249565b6040516100bf9190610f4e565b60405180910390f35b3480156100d457600080fd5b506100dd61039e565b6040516100ea9190610f82565b60405180910390f35b3480156100ff57600080fd5b5061011a60048036038101906101159190610fd3565b6103a8565b6040516101279190610f4e565b60405180910390f35b34801561013c57600080fd5b506101576004803603810190610152919061102c565b610449565b604051610166939291906110a9565b60405180910390f35b34801561017b57600080fd5b50610184610547565b6040516101919190611101565b60405180910390f35b3480156101a657600080fd5b506101c160048036038101906101bc919061111c565b61056b565b6040516101ce91906111d3565b60405180910390f35b3480156101e357600080fd5b506101ec610854565b6040516101f99190610f82565b60405180910390f35b34801561020e57600080fd5b5061021761085d565b005b610233600480360381019061022e9190610f06565b610b92565b6040516102409190610f4e565b60405180910390f35b6000610253610e50565b33816020019073ffffffffffffffffffffffffffffffffffffffff16908173ffffffffffffffffffffffffffffffffffffffff1681525050600343610298919061121d565b8160000181815250508281604001907effffffffffffffffffffffffffffffffffffffffffffffffffffffffffffff191690817effffffffffffffffffffffffffffffffffffffffffffffffffffffffffffff191681525050806006600060025481526020019081526020016000206000820151816000015560208201518160010160006101000a81548173ffffffffffffffffffffffffffffffffffffffff021916908373ffffffffffffffffffffffffffffffffffffffff16021790555060408201518160010160146101000a81548160ff021916908360f81c02179055509050506002600081548092919061038f90611273565b91905055506001915050919050565b6000600154905090565b60008060009054906101000a900473ffffffffffffffffffffffffffffffffffffffff1673ffffffffffffffffffffffffffffffffffffffff163373ffffffffffffffffffffffffffffffffffffffff1614610439576040517f08c379a000000000000000000000000000000000000000000000000000000000815260040161043090611318565b60405180910390fd5b8160058190555060019050919050565b60008060008060066000868152602001908152602001600020604051806060016040529081600082015481526020016001820160009054906101000a900473ffffffffffffffffffffffffffffffffffffffff1673ffffffffffffffffffffffffffffffffffffffff1673ffffffffffffffffffffffffffffffffffffffff1681526020016001820160149054906101000a900460f81b7effffffffffffffffffffffffffffffffffffffffffffffffffffffffffffff19167effffffffffffffffffffffffffffffffffffffffffffffffffffffffffffff1916815250509050806000015193508060200151925080604001519150509193909250565b60008054906101000a900473ffffffffffffffffffffffffffffffffffffffff1681565b600080839050600084905060008460006020811061058c5761058b611338565b5b1a60f81b90506000856000602081106105a8576105a7611338565b5b1a60f81b90506004847effffffffffffffffffffffffffffffffffffffffffffffffffffffffffffff1916901c93506004847effffffffffffffffffffffffffffffffffffffffffffffffffffffffffffff1916901b93506004827effffffffffffffffffffffffffffffffffffffffffffffffffffffffffffff1916901c91506004827effffffffffffffffffffffffffffffffffffffffffffffffffffffffffffff1916901b91506004837effffffffffffffffffffffffffffffffffffffffffffffffffffffffffffff1916901b92506004837effffffffffffffffffffffffffffffffffffffffffffffffffffffffffffff1916901c92506004817effffffffffffffffffffffffffffffffffffffffffffffffffffffffffffff1916901b90506004817effffffffffffffffffffffffffffffffffffffffffffffffffffffffffffff1916901c9050837effffffffffffffffffffffffffffffffffffffffffffffffffffffffffffff1916827effffffffffffffffffffffffffffffffffffffffffffffffffffffffffffff191614801561078c5750827effffffffffffffffffffffffffffffffffffffffffffffffffffffffffffff1916817effffffffffffffffffffffffffffffffffffffffffffffffffffffffffffff1916145b1561079e57600194505050505061084e565b837effffffffffffffffffffffffffffffffffffffffffffffffffffffffffffff1916827effffffffffffffffffffffffffffffffffffffffffffffffffffffffffffff191614806108335750827effffffffffffffffffffffffffffffffffffffffffffffffffffffffffffff1916817effffffffffffffffffffffffffffffffffffffffffffffffffffffffffffff1916145b1561084557600294505050505061084e565b60009450505050505b92915050565b60006005905090565b600080600061086a610e50565b600060035494505b600254851015610b845760066000868152602001908152602001600020604051806060016040529081600082015481526020016001820160009054906101000a900473ffffffffffffffffffffffffffffffffffffffff1673ffffffffffffffffffffffffffffffffffffffff1673ffffffffffffffffffffffffffffffffffffffff1681526020016001820160149054906101000a900460f81b7effffffffffffffffffffffffffffffffffffffffffffffffffffffffffffff19167effffffffffffffffffffffffffffffffffffffffffffffffffffffffffffff19168152505091506109648260000151610c87565b90506000600281111561097a5761097961115c565b5b81600281111561098d5761098c61115c565b5b03610aab5760006109a18360000151610ce9565b90506109b183604001518261056b565b9350600160028111156109c7576109c661115c565b5b8460028111156109da576109d961115c565b5b03610a0f57610a0183602001516611c37937e080006001546109fc919061121d565b610d11565b506000600181905550610aa5565b60006002811115610a2357610a2261115c565b5b846002811115610a3657610a3561115c565b5b03610a60576611c37937e0800060016000828254610a549190611367565b92505081905550610aa4565b600280811115610a7357610a7261115c565b5b846002811115610a8657610a8561115c565b5b03610aa357610aa083602001516611c37937e08000610d11565b94505b5b5b50610b67565b60016002811115610abf57610abe61115c565b5b816002811115610ad257610ad161115c565b5b0315610b8457600280811115610aeb57610aea61115c565b5b816002811115610afe57610afd61115c565b5b03610b6657610b1882602001516611c37937e08000610d11565b93507f59c0185881271a0f53d43e6ab9310091408f9e0ff9ae2512613de800f26b8de48583602001518685604001518660000151604051610b5d9594939291906113fa565b60405180910390a15b5b610b7085610dec565b508480610b7c90611273565b955050610872565b846003819055505050505050565b60006611c37937e080003414610bdd576040517f08c379a0000000000000000000000000000000000000000000000000000000008152600401610bd490611499565b60405180910390fd5b610be682610249565b610c25576040517f08c379a0000000000000000000000000000000000000000000000000000000008152600401610c1c90611505565b60405180910390fd5b7f100791de9f40bf2d56ffa6dc5597d2fd0b2703ea70bc7548cd74c04f5d215ab76001600254610c559190611367565b333485600343610c65919061121d565b604051610c76959493929190611525565b60405180910390a160019050919050565b60008143118015610ca4575081610100610ca1919061121d565b43105b15610cb25760009050610ce4565b814311610cc25760019050610ce4565b61010082610cd0919061121d565b4310610cdf5760029050610ce4565b600290505b919050565b6000600460009054906101000a900460ff16610d06578140610d0a565b6005545b9050919050565b600080606483610d2191906115a7565b905060008184610d319190611367565b90508473ffffffffffffffffffffffffffffffffffffffff166108fc829081150290604051600060405180830381858888f19350505050158015610d79573d6000803e3d6000fd5b5060008054906101000a900473ffffffffffffffffffffffffffffffffffffffff1673ffffffffffffffffffffffffffffffffffffffff166108fc839081150290604051600060405180830381858888f19350505050158015610de0573d6000803e3d6000fd5b50809250505092915050565b6000600660008381526020019081526020016000206000808201600090556001820160006101000a81549073ffffffffffffffffffffffffffffffffffffffff02191690556001820160146101000a81549060ff0219169055505060019050919050565b604051806060016040528060008152602001600073ffffffffffffffffffffffffffffffffffffffff16815260200160007effffffffffffffffffffffffffffffffffffffffffffffffffffffffffffff191681525090565b600080fd5b60007fff0000000000000000000000000000000000000000000000000000000000000082169050919050565b610ee381610eae565b8114610eee57600080fd5b50565b600081359050610f0081610eda565b92915050565b600060208284031215610f1c57610f1b610ea9565b5b6000610f2a84828501610ef1565b91505092915050565b60008115159050919050565b610f4881610f33565b82525050565b6000602082019050610f636000830184610f3f565b92915050565b6000819050919050565b610f7c81610f69565b82525050565b6000602082019050610f976000830184610f73565b92915050565b6000819050919050565b610fb081610f9d565b8114610fbb57600080fd5b50565b600081359050610fcd81610fa7565b92915050565b600060208284031215610fe957610fe8610ea9565b5b6000610ff784828501610fbe565b91505092915050565b61100981610f69565b811461101457600080fd5b50565b60008135905061102681611000565b92915050565b60006020828403121561104257611041610ea9565b5b600061105084828501611017565b91505092915050565b600073ffffffffffffffffffffffffffffffffffffffff82169050919050565b600061108482611059565b9050919050565b61109481611079565b82525050565b6110a381610eae565b82525050565b60006060820190506110be6000830186610f73565b6110cb602083018561108b565b6110d8604083018461109a565b949350505050565b60006110eb82611059565b9050919050565b6110fb816110e0565b82525050565b600060208201905061111660008301846110f2565b92915050565b6000806040838503121561113357611132610ea9565b5b600061114185828601610ef1565b925050602061115285828601610fbe565b9150509250929050565b7f4e487b7100000000000000000000000000000000000000000000000000000000600052602160045260246000fd5b6003811061119c5761119b61115c565b5b50565b60008190506111ad8261118b565b919050565b60006111bd8261119f565b9050919050565b6111cd816111b2565b82525050565b60006020820190506111e860008301846111c4565b92915050565b7f4e487b7100000000000000000000000000000000000000000000000000000000600052601160045260246000fd5b600061122882610f69565b915061123383610f69565b9250827fffffffffffffffffffffffffffffffffffffffffffffffffffffffffffffffff03821115611268576112676111ee565b5b828201905092915050565b600061127e82610f69565b91507fffffffffffffffffffffffffffffffffffffffffffffffffffffffffffffffff82036112b0576112af6111ee565b5b600182019050919050565b600082825260208201905092915050565b7f6f6e6c79206d6173746572000000000000000000000000000000000000000000600082015250565b6000611302600b836112bb565b915061130d826112cc565b602082019050919050565b60006020820190508181036000830152611331816112f5565b9050919050565b7f4e487b7100000000000000000000000000000000000000000000000000000000600052603260045260246000fd5b600061137282610f69565b915061137d83610f69565b9250828210156113905761138f6111ee565b5b828203905092915050565b6000819050919050565b60006113c06113bb6113b684611059565b61139b565b611059565b9050919050565b60006113d2826113a5565b9050919050565b60006113e4826113c7565b9050919050565b6113f4816113d9565b82525050565b600060a08201905061140f6000830188610f73565b61141c60208301876113eb565b6114296040830186610f73565b611436606083018561109a565b6114436080830184610f73565b9695505050505050565b7f73686f77206d6520746865206d6f6e6579000000000000000000000000000000600082015250565b60006114836011836112bb565b915061148e8261144d565b602082019050919050565b600060208201905081810360008301526114b281611476565b9050919050565b7f6661696c65642062657400000000000000000000000000000000000000000000600082015250565b60006114ef600a836112bb565b91506114fa826114b9565b602082019050919050565b6000602082019050818103600083015261151e816114e2565b9050919050565b600060a08201905061153a6000830188610f73565b611547602083018761108b565b6115546040830186610f73565b611561606083018561109a565b61156e6080830184610f73565b9695505050505050565b7f4e487b7100000000000000000000000000000000000000000000000000000000600052601260045260246000fd5b60006115b282610f69565b91506115bd83610f69565b9250826115cd576115cc611578565b5b82820490509291505056fea2646970667358221220d97d22b4d25f4a616b2a759b41ff0a128d452f8acc7dd48a1a2c92b8fbd685d164736f6c634300080d0033",
  "immutableReferences": {},
  "source": "// SPDX-License-Identifier: MIT\r\npragma solidity ^0.8.10;\r\n\r\ncontract Test {\r\n    struct BetInfo{\r\n        uint256 answerBlockNumber;\r\n        address payable bettor;\r\n        bytes1 challenges;  //Prior to version 0.8.0, byte used to be an alias for bytes1.\r\n    }\r\n    address payable public owner;\r\n    uint256 private _pot;\r\n    uint256 private _tail;\r\n    uint256 private _head;\r\n\r\n    bool private develop = true;\r\n    bytes32 answerForTest;\r\n\r\n    mapping (uint256=>BetInfo) private _bets;\r\n    uint256 constant internal BET_LIMIT = 256;\r\n    uint256 constant internal BET_BLOCK_INTERVAL = 3;\r\n    uint256 constant internal BET_AMOUNT = 5* 10 ** 15;\r\n\r\n    enum BlockStatus { checkable, NotRevealed, BlockLimitPassed }\r\n    enum BettingResult {Fail, Win, Draw}\r\n\r\n    event BET(uint256 index, address bettor, uint256 amount, bytes1 challenges, uint256 answerBlockNumber);\r\n    event WIN(uint256 index, address bettor, uint256 amount, bytes1 challenges, uint256 answerBlockNumber);\r\n    event DRAW(uint256 index, address bettor, uint256 amount, bytes1 challenges, uint256 answerBlockNumber);\r\n    event FAIL(uint256 index, address bettor, uint256 amount, bytes1 challenges, uint256 answerBlockNumber);\r\n    event REFUND(uint256 index, address bettor, uint256 amount, bytes1 challenges, uint256 answerBlockNumber);\r\n    constructor(){\r\n        // payable(msg.sender);\r\n\r\n        owner = payable(msg.sender);\r\n    }\r\n\r\n    function getSomeValue() public pure returns (uint256 value){\r\n        return 5;\r\n    }\r\n\r\n    function getPot() public view returns (uint256 pot) {\r\n        return _pot;\r\n    }\r\n\r\n    // bet\r\n    function bet(bytes1 challenges) public payable returns (bool result){\r\n        require(msg.value == BET_AMOUNT, \"show me the money\");\r\n        require(pushBet(challenges), \"failed bet\");\r\n\r\n        emit BET(_tail -1, msg.sender, msg.value, challenges, block.number + BET_BLOCK_INTERVAL);\r\n\r\n        return true;\r\n    }\r\n        //save queue\r\n    // dist\r\n    function distribute() public {\r\n        uint256 cur;\r\n        uint transferAmount;\r\n\r\n        BettingResult currentBlockResult;\r\n        BetInfo memory b;\r\n        BlockStatus currentBlockStatus;\r\n        for(cur=_head; cur<_tail; cur++){\r\n            b = _bets[cur];\r\n            currentBlockStatus = getBlockStatus(b.answerBlockNumber);\r\n\r\n\r\n            if(currentBlockStatus == BlockStatus.checkable){\r\n\r\n                bytes32 answerBlockHash = getAnswerBlockHash(b.answerBlockNumber);\r\n                currentBlockResult = isMatch(b.challenges, answerBlockHash);\r\n\r\n\r\n                if(currentBlockResult == BettingResult.Win){\r\n                    transferAfterPayingFee(b.bettor, _pot + BET_AMOUNT);\r\n                    _pot = 0;\r\n\r\n                    // emit WIN(cur, b.bettor, transferAmount, b.challenges, answerBlockHash[0], b.answerBlockNumber);\r\n\r\n                }else if (currentBlockResult == BettingResult.Fail){\r\n                    _pot -= BET_AMOUNT;\r\n                    // emit FAIL(cur, b.bettor, 0, b.challenges, answerBlockHash[0], b.answerBlockNumber);\r\n\r\n                }else if (currentBlockResult == BettingResult.Draw){\r\n\r\n                    transferAmount = transferAfterPayingFee(b.bettor, BET_AMOUNT);\r\n                    // emit DRAW(cur, b.bettor, transferAmount, b.challenges, answerBlockHash[0], b.answerBlockNumber);\r\n\r\n                }\r\n            } else if(currentBlockStatus == BlockStatus.NotRevealed){\r\n                break;\r\n            } else if(currentBlockStatus == BlockStatus.BlockLimitPassed){\r\n                transferAmount = transferAfterPayingFee(b.bettor, BET_AMOUNT);\r\n                    emit REFUND(cur, b.bettor, transferAmount, b.challenges, b.answerBlockNumber);\r\n            }\r\n\r\n            popBet(cur);\r\n        }\r\n        _head = cur;\r\n\r\n        //check value\r\n    }\r\n    function transferAfterPayingFee(address payable addr, uint amount) internal returns (uint256){\r\n        uint256 fee = amount / 100;\r\n        uint256 amountFee= amount - fee;\r\n\r\n        addr.transfer(amountFee);\r\n        owner.transfer(fee);\r\n\r\n        return amountFee;\r\n\r\n    }\r\n\r\n    function setAnswerForTest(bytes32 answer) public returns (bool result){\r\n        require(msg.sender == owner, \"only master\");\r\n        answerForTest = answer;\r\n        return true;\r\n    }\r\n    function getAnswerBlockHash(uint256 answerBlockNumber) internal view returns(bytes32 answer){\r\n        return develop ? answerForTest : blockhash(answerBlockNumber);\r\n    }\r\n    function isMatch(bytes1 challenges, bytes32 answer) public pure returns (BettingResult){\r\n        bytes1 c1 = challenges;\r\n        bytes1 c2 = challenges;\r\n\r\n        bytes1 a1 = answer[0];\r\n        bytes1 a2 = answer[0];\r\n\r\n        c1 = c1 >> 4;\r\n        c1 = c1 << 4;\r\n\r\n        a1 = a1 >> 4;\r\n        a1 = a1 << 4;\r\n\r\n        c2 = c2 << 4;\r\n        c2 = c2 >> 4;\r\n\r\n        a2 = a2 << 4;\r\n        a2 = a2 >> 4;\r\n\r\n        if (a1 == c1 && a2 == c2){\r\n            return BettingResult.Win;\r\n        } else if(a1 == c1 || a2 == c2){\r\n            return BettingResult.Draw;\r\n        } else {\r\n            return BettingResult.Fail;\r\n        }\r\n\r\n\r\n\r\n    }\r\n    function getBlockStatus(uint256 answerBlockNumber) internal view returns(BlockStatus){\r\n        if(block.number > answerBlockNumber && block.number < BET_LIMIT + answerBlockNumber){\r\n            return BlockStatus.checkable;\r\n        } else if(block.number <= answerBlockNumber){\r\n            return BlockStatus.NotRevealed;\r\n        } else if(block.number >= answerBlockNumber + BET_LIMIT){\r\n            return BlockStatus.BlockLimitPassed;\r\n        } \r\n\r\n        return BlockStatus.BlockLimitPassed;\r\n    }\r\n\r\n    function getBetInfo(uint256 index) public view returns (uint256 answerBlockNumber, address bettor, bytes1 challenges){\r\n        BetInfo memory b = _bets[index];\r\n        answerBlockNumber = b.answerBlockNumber;\r\n        bettor = b.bettor;\r\n        challenges = b.challenges;\r\n    }\r\n\r\n    function pushBet(bytes1 challenges) public returns (bool) {\r\n        BetInfo memory b;\r\n        b.bettor = payable(msg.sender);\r\n        b.answerBlockNumber = block.number + BET_BLOCK_INTERVAL;\r\n        b.challenges = challenges;\r\n        \r\n        _bets[_tail] = b;\r\n        _tail++;\r\n\r\n        return true;\r\n    }\r\n\r\n    function popBet(uint256 index) internal returns (bool){\r\n        delete _bets[index];\r\n        return true;\r\n    }\r\n}",
  "sourcePath": "D:\\developer\\solidity\\solidity_test\\truffle-test\\contracts\\Test.sol",
  "compiler": {
    "name": "solc",
    "version": "0.8.13+commit.abaa5c0e.Emscripten.clang"
  },
  "schemaVersion": "3.4.7",
  "updatedAt": "2022-05-17T14:20:04.681Z",
  "devdoc": {
    "kind": "dev",
    "methods": {},
    "version": 1
  },
  "userdoc": {
    "kind": "user",
    "methods": {},
    "version": 1
  }
}