{
  "contractName": "Test",
  "abi": [
    {
      "inputs": [],
      "stateMutability": "nonpayable",
      "type": "constructor"
    },
    {
      "anonymous": false,
      "inputs": [
        {
          "indexed": false,
          "internalType": "uint256",
          "name": "index",
          "type": "uint256"
        },
        {
          "indexed": false,
          "internalType": "address",
          "name": "bettor",
          "type": "address"
        },
        {
          "indexed": false,
          "internalType": "uint256",
          "name": "amount",
          "type": "uint256"
        },
        {
          "indexed": false,
          "internalType": "bytes1",
          "name": "challenges",
          "type": "bytes1"
        },
        {
          "indexed": false,
          "internalType": "uint256",
          "name": "answerBlockNumber",
          "type": "uint256"
        }
      ],
      "name": "BET",
      "type": "event"
    },
    {
      "inputs": [],
      "name": "owner",
      "outputs": [
        {
          "internalType": "address",
          "name": "",
          "type": "address"
        }
      ],
      "stateMutability": "view",
      "type": "function"
    },
    {
      "inputs": [],
      "name": "getSomeValue",
      "outputs": [
        {
          "internalType": "uint256",
          "name": "value",
          "type": "uint256"
        }
      ],
      "stateMutability": "pure",
      "type": "function"
    },
    {
      "inputs": [],
      "name": "getPot",
      "outputs": [
        {
          "internalType": "uint256",
          "name": "pot",
          "type": "uint256"
        }
      ],
      "stateMutability": "view",
      "type": "function"
    },
    {
      "inputs": [
        {
          "internalType": "bytes1",
          "name": "challenges",
          "type": "bytes1"
        }
      ],
      "name": "bet",
      "outputs": [
        {
          "internalType": "bool",
          "name": "result",
          "type": "bool"
        }
      ],
      "stateMutability": "payable",
      "type": "function"
    },
    {
      "inputs": [],
      "name": "distribute",
      "outputs": [],
      "stateMutability": "nonpayable",
      "type": "function"
    },
    {
      "inputs": [
        {
          "internalType": "bytes1",
          "name": "challenges",
          "type": "bytes1"
        },
        {
          "internalType": "bytes32",
          "name": "answer",
          "type": "bytes32"
        }
      ],
      "name": "isMatch",
      "outputs": [
        {
          "internalType": "enum Test.BettingResult",
          "name": "",
          "type": "uint8"
        }
      ],
      "stateMutability": "pure",
      "type": "function"
    },
    {
      "inputs": [
        {
          "internalType": "uint256",
          "name": "index",
          "type": "uint256"
        }
      ],
      "name": "getBetInfo",
      "outputs": [
        {
          "internalType": "uint256",
          "name": "answerBlockNumber",
          "type": "uint256"
        },
        {
          "internalType": "address",
          "name": "bettor",
          "type": "address"
        },
        {
          "internalType": "bytes1",
          "name": "challenges",
          "type": "bytes1"
        }
      ],
      "stateMutability": "view",
      "type": "function"
    },
    {
      "inputs": [
        {
          "internalType": "bytes1",
          "name": "challenges",
          "type": "bytes1"
        }
      ],
      "name": "pushBet",
      "outputs": [
        {
          "internalType": "bool",
          "name": "",
          "type": "bool"
        }
      ],
      "stateMutability": "nonpayable",
      "type": "function"
    }
  ],
  "bytecode": "0x608060405234801561001057600080fd5b50336000806101000a81548173ffffffffffffffffffffffffffffffffffffffff021916908373ffffffffffffffffffffffffffffffffffffffff1602179055506110cc806100606000396000f3fe60806040526004361061007b5760003560e01c806399a167d71161004e57806399a167d714610152578063a40674b71461018f578063e4fc6b6d146101ba578063f4b46f5b146101d15761007b565b80630328209614610080578063403c9fa8146100bd57806379141f80146100e85780638da5cb5b14610127575b600080fd5b34801561008c57600080fd5b506100a760048036038101906100a29190610b90565b610201565b6040516100b49190610bd8565b60405180910390f35b3480156100c957600080fd5b506100d2610356565b6040516100df9190610c0c565b60405180910390f35b3480156100f457600080fd5b5061010f600480360381019061010a9190610c53565b610360565b60405161011e93929190610cd0565b60405180910390f35b34801561013357600080fd5b5061013c61045e565b6040516101499190610d07565b60405180910390f35b34801561015e57600080fd5b5061017960048036038101906101749190610d58565b610482565b6040516101869190610e0f565b60405180910390f35b34801561019b57600080fd5b506101a461076b565b6040516101b19190610c0c565b60405180910390f35b3480156101c657600080fd5b506101cf610774565b005b6101eb60048036038101906101e69190610b90565b61091f565b6040516101f89190610bd8565b60405180910390f35b600061020b610ada565b33816020019073ffffffffffffffffffffffffffffffffffffffff16908173ffffffffffffffffffffffffffffffffffffffff16815250506003436102509190610e59565b8160000181815250508281604001907effffffffffffffffffffffffffffffffffffffffffffffffffffffffffffff191690817effffffffffffffffffffffffffffffffffffffffffffffffffffffffffffff191681525050806004600060025481526020019081526020016000206000820151816000015560208201518160010160006101000a81548173ffffffffffffffffffffffffffffffffffffffff021916908373ffffffffffffffffffffffffffffffffffffffff16021790555060408201518160010160146101000a81548160ff021916908360f81c02179055509050506002600081548092919061034790610eaf565b91905055506001915050919050565b6000600154905090565b60008060008060046000868152602001908152602001600020604051806060016040529081600082015481526020016001820160009054906101000a900473ffffffffffffffffffffffffffffffffffffffff1673ffffffffffffffffffffffffffffffffffffffff1673ffffffffffffffffffffffffffffffffffffffff1681526020016001820160149054906101000a900460f81b7effffffffffffffffffffffffffffffffffffffffffffffffffffffffffffff19167effffffffffffffffffffffffffffffffffffffffffffffffffffffffffffff1916815250509050806000015193508060200151925080604001519150509193909250565b60008054906101000a900473ffffffffffffffffffffffffffffffffffffffff1681565b60008083905060008490506000846000602081106104a3576104a2610ef7565b5b1a60f81b90506000856000602081106104bf576104be610ef7565b5b1a60f81b90506004847effffffffffffffffffffffffffffffffffffffffffffffffffffffffffffff1916901c93506004847effffffffffffffffffffffffffffffffffffffffffffffffffffffffffffff1916901b93506004827effffffffffffffffffffffffffffffffffffffffffffffffffffffffffffff1916901c91506004827effffffffffffffffffffffffffffffffffffffffffffffffffffffffffffff1916901b91506004837effffffffffffffffffffffffffffffffffffffffffffffffffffffffffffff1916901b92506004837effffffffffffffffffffffffffffffffffffffffffffffffffffffffffffff1916901c92506004817effffffffffffffffffffffffffffffffffffffffffffffffffffffffffffff1916901b90506004817effffffffffffffffffffffffffffffffffffffffffffffffffffffffffffff1916901c9050837effffffffffffffffffffffffffffffffffffffffffffffffffffffffffffff1916827effffffffffffffffffffffffffffffffffffffffffffffffffffffffffffff19161480156106a35750827effffffffffffffffffffffffffffffffffffffffffffffffffffffffffffff1916817effffffffffffffffffffffffffffffffffffffffffffffffffffffffffffff1916145b156106b5576001945050505050610765565b837effffffffffffffffffffffffffffffffffffffffffffffffffffffffffffff1916827effffffffffffffffffffffffffffffffffffffffffffffffffffffffffffff1916148061074a5750827effffffffffffffffffffffffffffffffffffffffffffffffffffffffffffff1916817effffffffffffffffffffffffffffffffffffffffffffffffffffffffffffff1916145b1561075c576002945050505050610765565b60009450505050505b92915050565b60006005905090565b600061077e610ada565b600060035492505b60025483101561091a5760046000848152602001908152602001600020604051806060016040529081600082015481526020016001820160009054906101000a900473ffffffffffffffffffffffffffffffffffffffff1673ffffffffffffffffffffffffffffffffffffffff1673ffffffffffffffffffffffffffffffffffffffff1681526020016001820160149054906101000a900460f81b7effffffffffffffffffffffffffffffffffffffffffffffffffffffffffffff19167effffffffffffffffffffffffffffffffffffffffffffffffffffffffffffff19168152505091506108788260000151610a14565b90506000600281111561088e5761088d610d98565b5b8160028111156108a1576108a0610d98565b5b03156108fd57600160028111156108bb576108ba610d98565b5b8160028111156108ce576108cd610d98565b5b031561091a576002808111156108e7576108e6610d98565b5b8160028111156108fa576108f9610d98565b5b50505b61090683610a76565b50828061091290610eaf565b935050610786565b505050565b60006611c37937e08000341461096a576040517f08c379a000000000000000000000000000000000000000000000000000000000815260040161096190610f83565b60405180910390fd5b61097382610201565b6109b2576040517f08c379a00000000000000000000000000000000000000000000000000000000081526004016109a990610fef565b60405180910390fd5b7f100791de9f40bf2d56ffa6dc5597d2fd0b2703ea70bc7548cd74c04f5d215ab760016002546109e2919061100f565b3334856003436109f29190610e59565b604051610a03959493929190611043565b60405180910390a160019050919050565b60008143118015610a31575081610100610a2e9190610e59565b43105b15610a3f5760009050610a71565b814311610a4f5760019050610a71565b61010082610a5d9190610e59565b4310610a6c5760029050610a71565b600290505b919050565b6000600460008381526020019081526020016000206000808201600090556001820160006101000a81549073ffffffffffffffffffffffffffffffffffffffff02191690556001820160146101000a81549060ff0219169055505060019050919050565b604051806060016040528060008152602001600073ffffffffffffffffffffffffffffffffffffffff16815260200160007effffffffffffffffffffffffffffffffffffffffffffffffffffffffffffff191681525090565b600080fd5b60007fff0000000000000000000000000000000000000000000000000000000000000082169050919050565b610b6d81610b38565b8114610b7857600080fd5b50565b600081359050610b8a81610b64565b92915050565b600060208284031215610ba657610ba5610b33565b5b6000610bb484828501610b7b565b91505092915050565b60008115159050919050565b610bd281610bbd565b82525050565b6000602082019050610bed6000830184610bc9565b92915050565b6000819050919050565b610c0681610bf3565b82525050565b6000602082019050610c216000830184610bfd565b92915050565b610c3081610bf3565b8114610c3b57600080fd5b50565b600081359050610c4d81610c27565b92915050565b600060208284031215610c6957610c68610b33565b5b6000610c7784828501610c3e565b91505092915050565b600073ffffffffffffffffffffffffffffffffffffffff82169050919050565b6000610cab82610c80565b9050919050565b610cbb81610ca0565b82525050565b610cca81610b38565b82525050565b6000606082019050610ce56000830186610bfd565b610cf26020830185610cb2565b610cff6040830184610cc1565b949350505050565b6000602082019050610d1c6000830184610cb2565b92915050565b6000819050919050565b610d3581610d22565b8114610d4057600080fd5b50565b600081359050610d5281610d2c565b92915050565b60008060408385031215610d6f57610d6e610b33565b5b6000610d7d85828601610b7b565b9250506020610d8e85828601610d43565b9150509250929050565b7f4e487b7100000000000000000000000000000000000000000000000000000000600052602160045260246000fd5b60038110610dd857610dd7610d98565b5b50565b6000819050610de982610dc7565b919050565b6000610df982610ddb565b9050919050565b610e0981610dee565b82525050565b6000602082019050610e246000830184610e00565b92915050565b7f4e487b7100000000000000000000000000000000000000000000000000000000600052601160045260246000fd5b6000610e6482610bf3565b9150610e6f83610bf3565b9250827fffffffffffffffffffffffffffffffffffffffffffffffffffffffffffffffff03821115610ea457610ea3610e2a565b5b828201905092915050565b6000610eba82610bf3565b91507fffffffffffffffffffffffffffffffffffffffffffffffffffffffffffffffff8203610eec57610eeb610e2a565b5b600182019050919050565b7f4e487b7100000000000000000000000000000000000000000000000000000000600052603260045260246000fd5b600082825260208201905092915050565b7f73686f77206d6520746865206d6f6e6579000000000000000000000000000000600082015250565b6000610f6d601183610f26565b9150610f7882610f37565b602082019050919050565b60006020820190508181036000830152610f9c81610f60565b9050919050565b7f6661696c65642062657400000000000000000000000000000000000000000000600082015250565b6000610fd9600a83610f26565b9150610fe482610fa3565b602082019050919050565b6000602082019050818103600083015261100881610fcc565b9050919050565b600061101a82610bf3565b915061102583610bf3565b92508282101561103857611037610e2a565b5b828203905092915050565b600060a0820190506110586000830188610bfd565b6110656020830187610cb2565b6110726040830186610bfd565b61107f6060830185610cc1565b61108c6080830184610bfd565b969550505050505056fea264697066735822122070903b5306203ea3fb56474f7b0a68689251151719158c3c6557b96f19418e3764736f6c634300080d0033",
  "immutableReferences": {},
  "source": "// SPDX-License-Identifier: MIT\r\npragma solidity ^0.8.10;\r\n\r\ncontract Test {\r\n    struct BetInfo{\r\n        uint256 answerBlockNumber;\r\n        address payable bettor;\r\n        bytes1 challenges;  //Prior to version 0.8.0, byte used to be an alias for bytes1.\r\n    }\r\n    address public owner;\r\n    uint256 private _pot;\r\n    uint256 private _tail;\r\n    uint256 private _head;\r\n\r\n    mapping (uint256=>BetInfo) private _bets;\r\n    uint256 constant internal BET_LIMIT = 256;\r\n    uint256 constant internal BET_BLOCK_INTERVAL = 3;\r\n    uint256 constant internal BET_AMOUNT = 5* 10 ** 15;\r\n\r\n    enum BlockStatus { checkable, NotRevealed, BlockLimitPassed }\r\n    enum BettingResult {Fail, Win, Draw}\r\n\r\n    event BET(uint256 index, address bettor, uint256 amount, bytes1 challenges, uint256 answerBlockNumber);\r\n\r\n    constructor(){\r\n        owner = msg.sender;\r\n    }\r\n\r\n    function getSomeValue() public pure returns (uint256 value){\r\n        return 5;\r\n    }\r\n\r\n    function getPot() public view returns (uint256 pot) {\r\n        return _pot;\r\n    }\r\n\r\n    // bet\r\n    function bet(bytes1 challenges) public payable returns (bool result){\r\n        require(msg.value == BET_AMOUNT, \"show me the money\");\r\n        require(pushBet(challenges), \"failed bet\");\r\n\r\n        emit BET(_tail -1, msg.sender, msg.value, challenges, block.number + BET_BLOCK_INTERVAL);\r\n\r\n        return true;\r\n    }\r\n        //save queue\r\n    // dist\r\n    function distribute() public {\r\n        uint cur;\r\n        BetInfo memory b;\r\n        BlockStatus currentBlockStatus;\r\n        for(cur=_head; cur<_tail; cur++){\r\n            b = _bets[cur];\r\n            currentBlockStatus = getBlockStatus(b.answerBlockNumber);\r\n\r\n            if(currentBlockStatus == BlockStatus.checkable){\r\n\r\n            } else if(currentBlockStatus == BlockStatus.NotRevealed){\r\n                break;\r\n            } else if(currentBlockStatus == BlockStatus.BlockLimitPassed){\r\n\r\n            }\r\n\r\n            popBet(cur);\r\n        }\r\n\r\n        //check value\r\n    }\r\n\r\n    function isMatch(bytes1 challenges, bytes32 answer) public pure returns (BettingResult){\r\n        bytes1 c1 = challenges;\r\n        bytes1 c2 = challenges;\r\n\r\n        bytes1 a1 = answer[0];\r\n        bytes1 a2 = answer[0];\r\n\r\n        c1 = c1 >> 4;\r\n        c1 = c1 << 4;\r\n\r\n        a1 = a1 >> 4;\r\n        a1 = a1 << 4;\r\n\r\n        c2 = c2 << 4;\r\n        c2 = c2 >> 4;\r\n\r\n        a2 = a2 << 4;\r\n        a2 = a2 >> 4;\r\n\r\n        if (a1 == c1 && a2 == c2){\r\n            return BettingResult.Win;\r\n        } else if(a1 == c1 || a2 == c2){\r\n            return BettingResult.Draw;\r\n        } else {\r\n            return BettingResult.Fail;\r\n        }\r\n\r\n\r\n\r\n    }\r\n    function getBlockStatus(uint256 answerBlockNumber) internal view returns(BlockStatus){\r\n        if(block.number > answerBlockNumber && block.number < BET_LIMIT + answerBlockNumber){\r\n            return BlockStatus.checkable;\r\n        } else if(block.number <= answerBlockNumber){\r\n            return BlockStatus.NotRevealed;\r\n        } else if(block.number >= answerBlockNumber + BET_LIMIT){\r\n            return BlockStatus.BlockLimitPassed;\r\n        } \r\n\r\n        return BlockStatus.BlockLimitPassed;\r\n    }\r\n\r\n    function getBetInfo(uint256 index) public view returns (uint256 answerBlockNumber, address bettor, bytes1 challenges){\r\n        BetInfo memory b = _bets[index];\r\n        answerBlockNumber = b.answerBlockNumber;\r\n        bettor = b.bettor;\r\n        challenges = b.challenges;\r\n    }\r\n\r\n    function pushBet(bytes1 challenges) public returns (bool) {\r\n        BetInfo memory b;\r\n        b.bettor = payable(msg.sender);\r\n        b.answerBlockNumber = block.number + BET_BLOCK_INTERVAL;\r\n        b.challenges = challenges;\r\n        \r\n        _bets[_tail] = b;\r\n        _tail++;\r\n\r\n        return true;\r\n    }\r\n\r\n    function popBet(uint256 index) internal returns (bool){\r\n        delete _bets[index];\r\n        return true;\r\n    }\r\n}",
  "sourcePath": "D:\\developer\\solidity\\solidity_test\\truffle-test\\contracts\\Test.sol",
  "compiler": {
    "name": "solc",
    "version": "0.8.13+commit.abaa5c0e.Emscripten.clang"
  },
  "schemaVersion": "3.4.7",
  "updatedAt": "2022-04-12T11:58:47.927Z",
  "devdoc": {
    "kind": "dev",
    "methods": {},
    "version": 1
  },
  "userdoc": {
    "kind": "user",
    "methods": {},
    "version": 1
  }
}