{
	"default_workspace/test/simplecoin/mynft.sol": {
		"pptestNFT": {
			"abi": [
				{
					"inputs": [],
					"stateMutability": "nonpayable",
					"type": "constructor"
				},
				{
					"anonymous": false,
					"inputs": [
						{
							"indexed": true,
							"internalType": "address",
							"name": "owner",
							"type": "address"
						},
						{
							"indexed": true,
							"internalType": "address",
							"name": "approved",
							"type": "address"
						},
						{
							"indexed": true,
							"internalType": "uint256",
							"name": "tokenId",
							"type": "uint256"
						}
					],
					"name": "Approval",
					"type": "event"
				},
				{
					"anonymous": false,
					"inputs": [
						{
							"indexed": true,
							"internalType": "address",
							"name": "owner",
							"type": "address"
						},
						{
							"indexed": true,
							"internalType": "address",
							"name": "operator",
							"type": "address"
						},
						{
							"indexed": false,
							"internalType": "bool",
							"name": "approved",
							"type": "bool"
						}
					],
					"name": "ApprovalForAll",
					"type": "event"
				},
				{
					"anonymous": false,
					"inputs": [
						{
							"indexed": true,
							"internalType": "address",
							"name": "from",
							"type": "address"
						},
						{
							"indexed": true,
							"internalType": "address",
							"name": "to",
							"type": "address"
						},
						{
							"indexed": true,
							"internalType": "uint256",
							"name": "tokenId",
							"type": "uint256"
						}
					],
					"name": "Transfer",
					"type": "event"
				},
				{
					"inputs": [
						{
							"internalType": "address",
							"name": "to",
							"type": "address"
						},
						{
							"internalType": "uint256",
							"name": "tokenId",
							"type": "uint256"
						}
					],
					"name": "approve",
					"outputs": [],
					"stateMutability": "nonpayable",
					"type": "function"
				},
				{
					"inputs": [
						{
							"internalType": "address",
							"name": "owner",
							"type": "address"
						}
					],
					"name": "balanceOf",
					"outputs": [
						{
							"internalType": "uint256",
							"name": "",
							"type": "uint256"
						}
					],
					"stateMutability": "view",
					"type": "function"
				},
				{
					"inputs": [
						{
							"internalType": "address",
							"name": "to",
							"type": "address"
						},
						{
							"internalType": "string",
							"name": "_tokenURI",
							"type": "string"
						}
					],
					"name": "create",
					"outputs": [
						{
							"internalType": "uint256",
							"name": "",
							"type": "uint256"
						}
					],
					"stateMutability": "nonpayable",
					"type": "function"
				},
				{
					"inputs": [
						{
							"internalType": "uint256",
							"name": "tokenId",
							"type": "uint256"
						}
					],
					"name": "getApproved",
					"outputs": [
						{
							"internalType": "address",
							"name": "",
							"type": "address"
						}
					],
					"stateMutability": "view",
					"type": "function"
				},
				{
					"inputs": [
						{
							"internalType": "address",
							"name": "owner",
							"type": "address"
						},
						{
							"internalType": "address",
							"name": "operator",
							"type": "address"
						}
					],
					"name": "isApprovedForAll",
					"outputs": [
						{
							"internalType": "bool",
							"name": "",
							"type": "bool"
						}
					],
					"stateMutability": "view",
					"type": "function"
				},
				{
					"inputs": [],
					"name": "name",
					"outputs": [
						{
							"internalType": "string",
							"name": "",
							"type": "string"
						}
					],
					"stateMutability": "view",
					"type": "function"
				},
				{
					"inputs": [
						{
							"internalType": "uint256",
							"name": "tokenId",
							"type": "uint256"
						}
					],
					"name": "ownerOf",
					"outputs": [
						{
							"internalType": "address",
							"name": "",
							"type": "address"
						}
					],
					"stateMutability": "view",
					"type": "function"
				},
				{
					"inputs": [
						{
							"internalType": "address",
							"name": "from",
							"type": "address"
						},
						{
							"internalType": "address",
							"name": "to",
							"type": "address"
						},
						{
							"internalType": "uint256",
							"name": "tokenId",
							"type": "uint256"
						}
					],
					"name": "safeTransferFrom",
					"outputs": [],
					"stateMutability": "nonpayable",
					"type": "function"
				},
				{
					"inputs": [
						{
							"internalType": "address",
							"name": "from",
							"type": "address"
						},
						{
							"internalType": "address",
							"name": "to",
							"type": "address"
						},
						{
							"internalType": "uint256",
							"name": "tokenId",
							"type": "uint256"
						},
						{
							"internalType": "bytes",
							"name": "_data",
							"type": "bytes"
						}
					],
					"name": "safeTransferFrom",
					"outputs": [],
					"stateMutability": "nonpayable",
					"type": "function"
				},
				{
					"inputs": [
						{
							"internalType": "address",
							"name": "operator",
							"type": "address"
						},
						{
							"internalType": "bool",
							"name": "approved",
							"type": "bool"
						}
					],
					"name": "setApprovalForAll",
					"outputs": [],
					"stateMutability": "nonpayable",
					"type": "function"
				},
				{
					"inputs": [
						{
							"internalType": "bytes4",
							"name": "interfaceId",
							"type": "bytes4"
						}
					],
					"name": "supportsInterface",
					"outputs": [
						{
							"internalType": "bool",
							"name": "",
							"type": "bool"
						}
					],
					"stateMutability": "view",
					"type": "function"
				},
				{
					"inputs": [],
					"name": "symbol",
					"outputs": [
						{
							"internalType": "string",
							"name": "",
							"type": "string"
						}
					],
					"stateMutability": "view",
					"type": "function"
				},
				{
					"inputs": [
						{
							"internalType": "uint256",
							"name": "tokenId",
							"type": "uint256"
						}
					],
					"name": "tokenURI",
					"outputs": [
						{
							"internalType": "string",
							"name": "",
							"type": "string"
						}
					],
					"stateMutability": "view",
					"type": "function"
				},
				{
					"inputs": [
						{
							"internalType": "address",
							"name": "from",
							"type": "address"
						},
						{
							"internalType": "address",
							"name": "to",
							"type": "address"
						},
						{
							"internalType": "uint256",
							"name": "tokenId",
							"type": "uint256"
						}
					],
					"name": "transferFrom",
					"outputs": [],
					"stateMutability": "nonpayable",
					"type": "function"
				}
			],
			"devdoc": {
				"kind": "dev",
				"methods": {
					"approve(address,uint256)": {
						"details": "See {IERC721-approve}."
					},
					"balanceOf(address)": {
						"details": "See {IERC721-balanceOf}."
					},
					"getApproved(uint256)": {
						"details": "See {IERC721-getApproved}."
					},
					"isApprovedForAll(address,address)": {
						"details": "See {IERC721-isApprovedForAll}."
					},
					"name()": {
						"details": "See {IERC721Metadata-name}."
					},
					"ownerOf(uint256)": {
						"details": "See {IERC721-ownerOf}."
					},
					"safeTransferFrom(address,address,uint256)": {
						"details": "See {IERC721-safeTransferFrom}."
					},
					"safeTransferFrom(address,address,uint256,bytes)": {
						"details": "See {IERC721-safeTransferFrom}."
					},
					"setApprovalForAll(address,bool)": {
						"details": "See {IERC721-setApprovalForAll}."
					},
					"supportsInterface(bytes4)": {
						"details": "See {IERC165-supportsInterface}."
					},
					"symbol()": {
						"details": "See {IERC721Metadata-symbol}."
					},
					"tokenURI(uint256)": {
						"details": "See {IERC721Metadata-tokenURI}."
					},
					"transferFrom(address,address,uint256)": {
						"details": "See {IERC721-transferFrom}."
					}
				},
				"version": 1
			},
			"evm": {
				"assembly": "    /* \"default_workspace/test/simplecoin/mynft.sol\":175:832  contract pptestNFT is ERC721 {\r... */\n  mstore(0x40, 0x80)\n    /* \"default_workspace/test/simplecoin/mynft.sol\":296:345  constructor() ERC721(\"ppTestNFT\", \"DPTESTNFT\") {} */\n  callvalue\n  dup1\n  iszero\n  tag_1\n  jumpi\n  0x00\n  dup1\n  revert\ntag_1:\n  pop\n    /* \"@openzeppelin/contracts/token/ERC721/ERC721.sol\":1390:1503  constructor(string memory name_, string memory symbol_) {... */\n  mload(0x40)\n  dup1\n  0x40\n  add\n  0x40\n  mstore\n  dup1\n  0x09\n  dup2\n  mstore\n  0x20\n  add\n  0x7070546573744e46540000000000000000000000000000000000000000000000\n  dup2\n  mstore\n  pop\n  mload(0x40)\n  dup1\n  0x40\n  add\n  0x40\n  mstore\n  dup1\n  0x09\n  dup2\n  mstore\n  0x20\n  add\n  0x4450544553544e46540000000000000000000000000000000000000000000000\n  dup2\n  mstore\n  pop\n    /* \"@openzeppelin/contracts/token/ERC721/ERC721.sol\":1464:1469  name_ */\n  dup2\n    /* \"@openzeppelin/contracts/token/ERC721/ERC721.sol\":1456:1461  _name */\n  0x00\n    /* \"@openzeppelin/contracts/token/ERC721/ERC721.sol\":1456:1469  _name = name_ */\n  swap1\n  dup1\n  mload\n  swap1\n  0x20\n  add\n  swap1\n  tag_5\n  swap3\n  swap2\n  swap1\n  tag_6\n  jump\t// in\ntag_5:\n  pop\n    /* \"@openzeppelin/contracts/token/ERC721/ERC721.sol\":1489:1496  symbol_ */\n  dup1\n    /* \"@openzeppelin/contracts/token/ERC721/ERC721.sol\":1479:1486  _symbol */\n  0x01\n    /* \"@openzeppelin/contracts/token/ERC721/ERC721.sol\":1479:1496  _symbol = symbol_ */\n  swap1\n  dup1\n  mload\n  swap1\n  0x20\n  add\n  swap1\n  tag_7\n  swap3\n  swap2\n  swap1\n  tag_6\n  jump\t// in\ntag_7:\n  pop\n    /* \"@openzeppelin/contracts/token/ERC721/ERC721.sol\":1390:1503  constructor(string memory name_, string memory symbol_) {... */\n  pop\n  pop\n    /* \"default_workspace/test/simplecoin/mynft.sol\":175:832  contract pptestNFT is ERC721 {\r... */\n  jump(tag_9)\ntag_6:\n  dup3\n  dup1\n  sload\n  tag_10\n  swap1\n  tag_11\n  jump\t// in\ntag_10:\n  swap1\n  0x00\n  mstore\n  keccak256(0x00, 0x20)\n  swap1\n  0x1f\n  add\n  0x20\n  swap1\n  div\n  dup2\n  add\n  swap3\n  dup3\n  tag_13\n  jumpi\n  0x00\n  dup6\n  sstore\n  jump(tag_12)\ntag_13:\n  dup3\n  0x1f\n  lt\n  tag_14\n  jumpi\n  dup1\n  mload\n  not(0xff)\n  and\n  dup4\n  dup1\n  add\n  or\n  dup6\n  sstore\n  jump(tag_12)\ntag_14:\n  dup3\n  dup1\n  add\n  0x01\n  add\n  dup6\n  sstore\n  dup3\n  iszero\n  tag_12\n  jumpi\n  swap2\n  dup3\n  add\ntag_15:\n  dup3\n  dup2\n  gt\n  iszero\n  tag_16\n  jumpi\n  dup3\n  mload\n  dup3\n  sstore\n  swap2\n  0x20\n  add\n  swap2\n  swap1\n  0x01\n  add\n  swap1\n  jump(tag_15)\ntag_16:\ntag_12:\n  pop\n  swap1\n  pop\n  tag_17\n  swap2\n  swap1\n  tag_18\n  jump\t// in\ntag_17:\n  pop\n  swap1\n  jump\t// out\ntag_18:\ntag_19:\n  dup1\n  dup3\n  gt\n  iszero\n  tag_20\n  jumpi\n  0x00\n  dup2\n  0x00\n  swap1\n  sstore\n  pop\n  0x01\n  add\n  jump(tag_19)\ntag_20:\n  pop\n  swap1\n  jump\t// out\n    /* \"#utility.yul\":7:327   */\ntag_11:\n    /* \"#utility.yul\":51:57   */\n  0x00\n    /* \"#utility.yul\":88:89   */\n  0x02\n    /* \"#utility.yul\":82:86   */\n  dup3\n    /* \"#utility.yul\":78:90   */\n  div\n    /* \"#utility.yul\":68:90   */\n  swap1\n  pop\n    /* \"#utility.yul\":135:136   */\n  0x01\n    /* \"#utility.yul\":129:133   */\n  dup3\n    /* \"#utility.yul\":125:137   */\n  and\n    /* \"#utility.yul\":156:174   */\n  dup1\n    /* \"#utility.yul\":146:227   */\n  tag_23\n  jumpi\n    /* \"#utility.yul\":212:216   */\n  0x7f\n    /* \"#utility.yul\":204:210   */\n  dup3\n    /* \"#utility.yul\":200:217   */\n  and\n    /* \"#utility.yul\":190:217   */\n  swap2\n  pop\n    /* \"#utility.yul\":146:227   */\ntag_23:\n    /* \"#utility.yul\":274:276   */\n  0x20\n    /* \"#utility.yul\":266:272   */\n  dup3\n    /* \"#utility.yul\":263:277   */\n  lt\n    /* \"#utility.yul\":243:261   */\n  dup2\n    /* \"#utility.yul\":240:278   */\n  eq\n    /* \"#utility.yul\":237:321   */\n  iszero\n  tag_24\n  jumpi\n    /* \"#utility.yul\":293:311   */\n  tag_25\n  tag_26\n  jump\t// in\ntag_25:\n    /* \"#utility.yul\":237:321   */\ntag_24:\n    /* \"#utility.yul\":58:327   */\n  pop\n    /* \"#utility.yul\":7:327   */\n  swap2\n  swap1\n  pop\n  jump\t// out\n    /* \"#utility.yul\":333:513   */\ntag_26:\n    /* \"#utility.yul\":381:458   */\n  0x4e487b7100000000000000000000000000000000000000000000000000000000\n    /* \"#utility.yul\":378:379   */\n  0x00\n    /* \"#utility.yul\":371:459   */\n  mstore\n    /* \"#utility.yul\":478:482   */\n  0x22\n    /* \"#utility.yul\":475:476   */\n  0x04\n    /* \"#utility.yul\":468:483   */\n  mstore\n    /* \"#utility.yul\":502:506   */\n  0x24\n    /* \"#utility.yul\":499:500   */\n  0x00\n    /* \"#utility.yul\":492:507   */\n  revert\n    /* \"default_workspace/test/simplecoin/mynft.sol\":175:832  contract pptestNFT is ERC721 {\r... */\ntag_9:\n  dataSize(sub_0)\n  dup1\n  dataOffset(sub_0)\n  0x00\n  codecopy\n  0x00\n  return\nstop\n\nsub_0: assembly {\n        /* \"default_workspace/test/simplecoin/mynft.sol\":175:832  contract pptestNFT is ERC721 {\r... */\n      mstore(0x40, 0x80)\n      callvalue\n      dup1\n      iszero\n      tag_1\n      jumpi\n      0x00\n      dup1\n      revert\n    tag_1:\n      pop\n      jumpi(tag_2, lt(calldatasize, 0x04))\n      shr(0xe0, calldataload(0x00))\n      dup1\n      0x70a08231\n      gt\n      tag_17\n      jumpi\n      dup1\n      0xa22cb465\n      gt\n      tag_18\n      jumpi\n      dup1\n      0xa22cb465\n      eq\n      tag_13\n      jumpi\n      dup1\n      0xb88d4fde\n      eq\n      tag_14\n      jumpi\n      dup1\n      0xc87b56dd\n      eq\n      tag_15\n      jumpi\n      dup1\n      0xe985e9c5\n      eq\n      tag_16\n      jumpi\n      jump(tag_2)\n    tag_18:\n      dup1\n      0x70a08231\n      eq\n      tag_10\n      jumpi\n      dup1\n      0x95d89b41\n      eq\n      tag_11\n      jumpi\n      dup1\n      0xa15ab08d\n      eq\n      tag_12\n      jumpi\n      jump(tag_2)\n    tag_17:\n      dup1\n      0x095ea7b3\n      gt\n      tag_19\n      jumpi\n      dup1\n      0x095ea7b3\n      eq\n      tag_6\n      jumpi\n      dup1\n      0x23b872dd\n      eq\n      tag_7\n      jumpi\n      dup1\n      0x42842e0e\n      eq\n      tag_8\n      jumpi\n      dup1\n      0x6352211e\n      eq\n      tag_9\n      jumpi\n      jump(tag_2)\n    tag_19:\n      dup1\n      0x01ffc9a7\n      eq\n      tag_3\n      jumpi\n      dup1\n      0x06fdde03\n      eq\n      tag_4\n      jumpi\n      dup1\n      0x081812fc\n      eq\n      tag_5\n      jumpi\n    tag_2:\n      0x00\n      dup1\n      revert\n        /* \"@openzeppelin/contracts/token/ERC721/ERC721.sol\":1570:1870  function supportsInterface(bytes4 interfaceId) public view virtual override(ERC165, IERC165) returns (bool) {... */\n    tag_3:\n      tag_20\n      0x04\n      dup1\n      calldatasize\n      sub\n      dup2\n      add\n      swap1\n      tag_21\n      swap2\n      swap1\n      tag_22\n      jump\t// in\n    tag_21:\n      tag_23\n      jump\t// in\n    tag_20:\n      mload(0x40)\n      tag_24\n      swap2\n      swap1\n      tag_25\n      jump\t// in\n    tag_24:\n      mload(0x40)\n      dup1\n      swap2\n      sub\n      swap1\n      return\n        /* \"@openzeppelin/contracts/token/ERC721/ERC721.sol\":2488:2586  function name() public view virtual override returns (string memory) {... */\n    tag_4:\n      tag_26\n      tag_27\n      jump\t// in\n    tag_26:\n      mload(0x40)\n      tag_28\n      swap2\n      swap1\n      tag_29\n      jump\t// in\n    tag_28:\n      mload(0x40)\n      dup1\n      swap2\n      sub\n      swap1\n      return\n        /* \"@openzeppelin/contracts/token/ERC721/ERC721.sol\":3999:4216  function getApproved(uint256 tokenId) public view virtual override returns (address) {... */\n    tag_5:\n      tag_30\n      0x04\n      dup1\n      calldatasize\n      sub\n      dup2\n      add\n      swap1\n      tag_31\n      swap2\n      swap1\n      tag_32\n      jump\t// in\n    tag_31:\n      tag_33\n      jump\t// in\n    tag_30:\n      mload(0x40)\n      tag_34\n      swap2\n      swap1\n      tag_35\n      jump\t// in\n    tag_34:\n      mload(0x40)\n      dup1\n      swap2\n      sub\n      swap1\n      return\n        /* \"@openzeppelin/contracts/token/ERC721/ERC721.sol\":3537:3938  function approve(address to, uint256 tokenId) public virtual override {... */\n    tag_6:\n      tag_36\n      0x04\n      dup1\n      calldatasize\n      sub\n      dup2\n      add\n      swap1\n      tag_37\n      swap2\n      swap1\n      tag_38\n      jump\t// in\n    tag_37:\n      tag_39\n      jump\t// in\n    tag_36:\n      stop\n        /* \"@openzeppelin/contracts/token/ERC721/ERC721.sol\":4726:5056  function transferFrom(... */\n    tag_7:\n      tag_40\n      0x04\n      dup1\n      calldatasize\n      sub\n      dup2\n      add\n      swap1\n      tag_41\n      swap2\n      swap1\n      tag_42\n      jump\t// in\n    tag_41:\n      tag_43\n      jump\t// in\n    tag_40:\n      stop\n        /* \"@openzeppelin/contracts/token/ERC721/ERC721.sol\":5122:5301  function safeTransferFrom(... */\n    tag_8:\n      tag_44\n      0x04\n      dup1\n      calldatasize\n      sub\n      dup2\n      add\n      swap1\n      tag_45\n      swap2\n      swap1\n      tag_42\n      jump\t// in\n    tag_45:\n      tag_46\n      jump\t// in\n    tag_44:\n      stop\n        /* \"@openzeppelin/contracts/token/ERC721/ERC721.sol\":2191:2426  function ownerOf(uint256 tokenId) public view virtual override returns (address) {... */\n    tag_9:\n      tag_47\n      0x04\n      dup1\n      calldatasize\n      sub\n      dup2\n      add\n      swap1\n      tag_48\n      swap2\n      swap1\n      tag_32\n      jump\t// in\n    tag_48:\n      tag_49\n      jump\t// in\n    tag_47:\n      mload(0x40)\n      tag_50\n      swap2\n      swap1\n      tag_35\n      jump\t// in\n    tag_50:\n      mload(0x40)\n      dup1\n      swap2\n      sub\n      swap1\n      return\n        /* \"@openzeppelin/contracts/token/ERC721/ERC721.sol\":1929:2134  function balanceOf(address owner) public view virtual override returns (uint256) {... */\n    tag_10:\n      tag_51\n      0x04\n      dup1\n      calldatasize\n      sub\n      dup2\n      add\n      swap1\n      tag_52\n      swap2\n      swap1\n      tag_53\n      jump\t// in\n    tag_52:\n      tag_54\n      jump\t// in\n    tag_51:\n      mload(0x40)\n      tag_55\n      swap2\n      swap1\n      tag_56\n      jump\t// in\n    tag_55:\n      mload(0x40)\n      dup1\n      swap2\n      sub\n      swap1\n      return\n        /* \"@openzeppelin/contracts/token/ERC721/ERC721.sol\":2650:2752  function symbol() public view virtual override returns (string memory) {... */\n    tag_11:\n      tag_57\n      tag_58\n      jump\t// in\n    tag_57:\n      mload(0x40)\n      tag_59\n      swap2\n      swap1\n      tag_29\n      jump\t// in\n    tag_59:\n      mload(0x40)\n      dup1\n      swap2\n      sub\n      swap1\n      return\n        /* \"default_workspace/test/simplecoin/mynft.sol\":533:829  function create(address to, string memory _tokenURI)\r... */\n    tag_12:\n      tag_60\n      0x04\n      dup1\n      calldatasize\n      sub\n      dup2\n      add\n      swap1\n      tag_61\n      swap2\n      swap1\n      tag_62\n      jump\t// in\n    tag_61:\n      tag_63\n      jump\t// in\n    tag_60:\n      mload(0x40)\n      tag_64\n      swap2\n      swap1\n      tag_56\n      jump\t// in\n    tag_64:\n      mload(0x40)\n      dup1\n      swap2\n      sub\n      swap1\n      return\n        /* \"@openzeppelin/contracts/token/ERC721/ERC721.sol\":4283:4436  function setApprovalForAll(address operator, bool approved) public virtual override {... */\n    tag_13:\n      tag_65\n      0x04\n      dup1\n      calldatasize\n      sub\n      dup2\n      add\n      swap1\n      tag_66\n      swap2\n      swap1\n      tag_67\n      jump\t// in\n    tag_66:\n      tag_68\n      jump\t// in\n    tag_65:\n      stop\n        /* \"@openzeppelin/contracts/token/ERC721/ERC721.sol\":5367:5687  function safeTransferFrom(... */\n    tag_14:\n      tag_69\n      0x04\n      dup1\n      calldatasize\n      sub\n      dup2\n      add\n      swap1\n      tag_70\n      swap2\n      swap1\n      tag_71\n      jump\t// in\n    tag_70:\n      tag_72\n      jump\t// in\n    tag_69:\n      stop\n        /* \"default_workspace/test/simplecoin/mynft.sol\":395:525  function tokenURI(uint256 tokenId) public view virtual override returns (string memory) {\r... */\n    tag_15:\n      tag_73\n      0x04\n      dup1\n      calldatasize\n      sub\n      dup2\n      add\n      swap1\n      tag_74\n      swap2\n      swap1\n      tag_32\n      jump\t// in\n    tag_74:\n      tag_75\n      jump\t// in\n    tag_73:\n      mload(0x40)\n      tag_76\n      swap2\n      swap1\n      tag_29\n      jump\t// in\n    tag_76:\n      mload(0x40)\n      dup1\n      swap2\n      sub\n      swap1\n      return\n        /* \"@openzeppelin/contracts/token/ERC721/ERC721.sol\":4502:4664  function isApprovedForAll(address owner, address operator) public view virtual override returns (bool) {... */\n    tag_16:\n      tag_77\n      0x04\n      dup1\n      calldatasize\n      sub\n      dup2\n      add\n      swap1\n      tag_78\n      swap2\n      swap1\n      tag_79\n      jump\t// in\n    tag_78:\n      tag_80\n      jump\t// in\n    tag_77:\n      mload(0x40)\n      tag_81\n      swap2\n      swap1\n      tag_25\n      jump\t// in\n    tag_81:\n      mload(0x40)\n      dup1\n      swap2\n      sub\n      swap1\n      return\n        /* \"@openzeppelin/contracts/token/ERC721/ERC721.sol\":1570:1870  function supportsInterface(bytes4 interfaceId) public view virtual override(ERC165, IERC165) returns (bool) {... */\n    tag_23:\n        /* \"@openzeppelin/contracts/token/ERC721/ERC721.sol\":1672:1676  bool */\n      0x00\n        /* \"@openzeppelin/contracts/token/ERC721/ERC721.sol\":1722:1747  type(IERC721).interfaceId */\n      0x80ac58cd00000000000000000000000000000000000000000000000000000000\n        /* \"@openzeppelin/contracts/token/ERC721/ERC721.sol\":1707:1747  interfaceId == type(IERC721).interfaceId */\n      not(0xffffffffffffffffffffffffffffffffffffffffffffffffffffffff)\n      and\n        /* \"@openzeppelin/contracts/token/ERC721/ERC721.sol\":1707:1718  interfaceId */\n      dup3\n        /* \"@openzeppelin/contracts/token/ERC721/ERC721.sol\":1707:1747  interfaceId == type(IERC721).interfaceId */\n      not(0xffffffffffffffffffffffffffffffffffffffffffffffffffffffff)\n      and\n      eq\n        /* \"@openzeppelin/contracts/token/ERC721/ERC721.sol\":1707:1811  interfaceId == type(IERC721).interfaceId ||... */\n      dup1\n      tag_83\n      jumpi\n      pop\n        /* \"@openzeppelin/contracts/token/ERC721/ERC721.sol\":1778:1811  type(IERC721Metadata).interfaceId */\n      0x5b5e139f00000000000000000000000000000000000000000000000000000000\n        /* \"@openzeppelin/contracts/token/ERC721/ERC721.sol\":1763:1811  interfaceId == type(IERC721Metadata).interfaceId */\n      not(0xffffffffffffffffffffffffffffffffffffffffffffffffffffffff)\n      and\n        /* \"@openzeppelin/contracts/token/ERC721/ERC721.sol\":1763:1774  interfaceId */\n      dup3\n        /* \"@openzeppelin/contracts/token/ERC721/ERC721.sol\":1763:1811  interfaceId == type(IERC721Metadata).interfaceId */\n      not(0xffffffffffffffffffffffffffffffffffffffffffffffffffffffff)\n      and\n      eq\n        /* \"@openzeppelin/contracts/token/ERC721/ERC721.sol\":1707:1811  interfaceId == type(IERC721).interfaceId ||... */\n    tag_83:\n        /* \"@openzeppelin/contracts/token/ERC721/ERC721.sol\":1707:1863  interfaceId == type(IERC721).interfaceId ||... */\n      dup1\n      tag_84\n      jumpi\n      pop\n        /* \"@openzeppelin/contracts/token/ERC721/ERC721.sol\":1827:1863  super.supportsInterface(interfaceId) */\n      tag_85\n        /* \"@openzeppelin/contracts/token/ERC721/ERC721.sol\":1851:1862  interfaceId */\n      dup3\n        /* \"@openzeppelin/contracts/token/ERC721/ERC721.sol\":1827:1850  super.supportsInterface */\n      tag_86\n        /* \"@openzeppelin/contracts/token/ERC721/ERC721.sol\":1827:1863  super.supportsInterface(interfaceId) */\n      jump\t// in\n    tag_85:\n        /* \"@openzeppelin/contracts/token/ERC721/ERC721.sol\":1707:1863  interfaceId == type(IERC721).interfaceId ||... */\n    tag_84:\n        /* \"@openzeppelin/contracts/token/ERC721/ERC721.sol\":1688:1863  return... */\n      swap1\n      pop\n        /* \"@openzeppelin/contracts/token/ERC721/ERC721.sol\":1570:1870  function supportsInterface(bytes4 interfaceId) public view virtual override(ERC165, IERC165) returns (bool) {... */\n      swap2\n      swap1\n      pop\n      jump\t// out\n        /* \"@openzeppelin/contracts/token/ERC721/ERC721.sol\":2488:2586  function name() public view virtual override returns (string memory) {... */\n    tag_27:\n        /* \"@openzeppelin/contracts/token/ERC721/ERC721.sol\":2542:2555  string memory */\n      0x60\n        /* \"@openzeppelin/contracts/token/ERC721/ERC721.sol\":2574:2579  _name */\n      0x00\n        /* \"@openzeppelin/contracts/token/ERC721/ERC721.sol\":2567:2579  return _name */\n      dup1\n      sload\n      tag_88\n      swap1\n      tag_89\n      jump\t// in\n    tag_88:\n      dup1\n      0x1f\n      add\n      0x20\n      dup1\n      swap2\n      div\n      mul\n      0x20\n      add\n      mload(0x40)\n      swap1\n      dup2\n      add\n      0x40\n      mstore\n      dup1\n      swap3\n      swap2\n      swap1\n      dup2\n      dup2\n      mstore\n      0x20\n      add\n      dup3\n      dup1\n      sload\n      tag_90\n      swap1\n      tag_89\n      jump\t// in\n    tag_90:\n      dup1\n      iszero\n      tag_91\n      jumpi\n      dup1\n      0x1f\n      lt\n      tag_92\n      jumpi\n      0x0100\n      dup1\n      dup4\n      sload\n      div\n      mul\n      dup4\n      mstore\n      swap2\n      0x20\n      add\n      swap2\n      jump(tag_91)\n    tag_92:\n      dup3\n      add\n      swap2\n      swap1\n      0x00\n      mstore\n      keccak256(0x00, 0x20)\n      swap1\n    tag_93:\n      dup2\n      sload\n      dup2\n      mstore\n      swap1\n      0x01\n      add\n      swap1\n      0x20\n      add\n      dup1\n      dup4\n      gt\n      tag_93\n      jumpi\n      dup3\n      swap1\n      sub\n      0x1f\n      and\n      dup3\n      add\n      swap2\n    tag_91:\n      pop\n      pop\n      pop\n      pop\n      pop\n      swap1\n      pop\n        /* \"@openzeppelin/contracts/token/ERC721/ERC721.sol\":2488:2586  function name() public view virtual override returns (string memory) {... */\n      swap1\n      jump\t// out\n        /* \"@openzeppelin/contracts/token/ERC721/ERC721.sol\":3999:4216  function getApproved(uint256 tokenId) public view virtual override returns (address) {... */\n    tag_33:\n        /* \"@openzeppelin/contracts/token/ERC721/ERC721.sol\":4075:4082  address */\n      0x00\n        /* \"@openzeppelin/contracts/token/ERC721/ERC721.sol\":4102:4118  _exists(tokenId) */\n      tag_95\n        /* \"@openzeppelin/contracts/token/ERC721/ERC721.sol\":4110:4117  tokenId */\n      dup3\n        /* \"@openzeppelin/contracts/token/ERC721/ERC721.sol\":4102:4109  _exists */\n      tag_96\n        /* \"@openzeppelin/contracts/token/ERC721/ERC721.sol\":4102:4118  _exists(tokenId) */\n      jump\t// in\n    tag_95:\n        /* \"@openzeppelin/contracts/token/ERC721/ERC721.sol\":4094:4167  require(_exists(tokenId), \"ERC721: approved query for nonexistent token\") */\n      tag_97\n      jumpi\n      mload(0x40)\n      0x08c379a000000000000000000000000000000000000000000000000000000000\n      dup2\n      mstore\n      0x04\n      add\n      tag_98\n      swap1\n      tag_99\n      jump\t// in\n    tag_98:\n      mload(0x40)\n      dup1\n      swap2\n      sub\n      swap1\n      revert\n    tag_97:\n        /* \"@openzeppelin/contracts/token/ERC721/ERC721.sol\":4185:4200  _tokenApprovals */\n      0x04\n        /* \"@openzeppelin/contracts/token/ERC721/ERC721.sol\":4185:4209  _tokenApprovals[tokenId] */\n      0x00\n        /* \"@openzeppelin/contracts/token/ERC721/ERC721.sol\":4201:4208  tokenId */\n      dup4\n        /* \"@openzeppelin/contracts/token/ERC721/ERC721.sol\":4185:4209  _tokenApprovals[tokenId] */\n      dup2\n      mstore\n      0x20\n      add\n      swap1\n      dup2\n      mstore\n      0x20\n      add\n      0x00\n      keccak256\n      0x00\n      swap1\n      sload\n      swap1\n      0x0100\n      exp\n      swap1\n      div\n      0xffffffffffffffffffffffffffffffffffffffff\n      and\n        /* \"@openzeppelin/contracts/token/ERC721/ERC721.sol\":4178:4209  return _tokenApprovals[tokenId] */\n      swap1\n      pop\n        /* \"@openzeppelin/contracts/token/ERC721/ERC721.sol\":3999:4216  function getApproved(uint256 tokenId) public view virtual override returns (address) {... */\n      swap2\n      swap1\n      pop\n      jump\t// out\n        /* \"@openzeppelin/contracts/token/ERC721/ERC721.sol\":3537:3938  function approve(address to, uint256 tokenId) public virtual override {... */\n    tag_39:\n        /* \"@openzeppelin/contracts/token/ERC721/ERC721.sol\":3617:3630  address owner */\n      0x00\n        /* \"@openzeppelin/contracts/token/ERC721/ERC721.sol\":3633:3656  ERC721.ownerOf(tokenId) */\n      tag_101\n        /* \"@openzeppelin/contracts/token/ERC721/ERC721.sol\":3648:3655  tokenId */\n      dup3\n        /* \"@openzeppelin/contracts/token/ERC721/ERC721.sol\":3633:3647  ERC721.ownerOf */\n      tag_49\n        /* \"@openzeppelin/contracts/token/ERC721/ERC721.sol\":3633:3656  ERC721.ownerOf(tokenId) */\n      jump\t// in\n    tag_101:\n        /* \"@openzeppelin/contracts/token/ERC721/ERC721.sol\":3617:3656  address owner = ERC721.ownerOf(tokenId) */\n      swap1\n      pop\n        /* \"@openzeppelin/contracts/token/ERC721/ERC721.sol\":3680:3685  owner */\n      dup1\n        /* \"@openzeppelin/contracts/token/ERC721/ERC721.sol\":3674:3685  to != owner */\n      0xffffffffffffffffffffffffffffffffffffffff\n      and\n        /* \"@openzeppelin/contracts/token/ERC721/ERC721.sol\":3674:3676  to */\n      dup4\n        /* \"@openzeppelin/contracts/token/ERC721/ERC721.sol\":3674:3685  to != owner */\n      0xffffffffffffffffffffffffffffffffffffffff\n      and\n      eq\n      iszero\n        /* \"@openzeppelin/contracts/token/ERC721/ERC721.sol\":3666:3723  require(to != owner, \"ERC721: approval to current owner\") */\n      tag_102\n      jumpi\n      mload(0x40)\n      0x08c379a000000000000000000000000000000000000000000000000000000000\n      dup2\n      mstore\n      0x04\n      add\n      tag_103\n      swap1\n      tag_104\n      jump\t// in\n    tag_103:\n      mload(0x40)\n      dup1\n      swap2\n      sub\n      swap1\n      revert\n    tag_102:\n        /* \"@openzeppelin/contracts/token/ERC721/ERC721.sol\":3771:3776  owner */\n      dup1\n        /* \"@openzeppelin/contracts/token/ERC721/ERC721.sol\":3755:3776  _msgSender() == owner */\n      0xffffffffffffffffffffffffffffffffffffffff\n      and\n        /* \"@openzeppelin/contracts/token/ERC721/ERC721.sol\":3755:3767  _msgSender() */\n      tag_105\n        /* \"@openzeppelin/contracts/token/ERC721/ERC721.sol\":3755:3765  _msgSender */\n      tag_106\n        /* \"@openzeppelin/contracts/token/ERC721/ERC721.sol\":3755:3767  _msgSender() */\n      jump\t// in\n    tag_105:\n        /* \"@openzeppelin/contracts/token/ERC721/ERC721.sol\":3755:3776  _msgSender() == owner */\n      0xffffffffffffffffffffffffffffffffffffffff\n      and\n      eq\n        /* \"@openzeppelin/contracts/token/ERC721/ERC721.sol\":3755:3817  _msgSender() == owner || isApprovedForAll(owner, _msgSender()) */\n      dup1\n      tag_107\n      jumpi\n      pop\n        /* \"@openzeppelin/contracts/token/ERC721/ERC721.sol\":3780:3817  isApprovedForAll(owner, _msgSender()) */\n      tag_108\n        /* \"@openzeppelin/contracts/token/ERC721/ERC721.sol\":3797:3802  owner */\n      dup2\n        /* \"@openzeppelin/contracts/token/ERC721/ERC721.sol\":3804:3816  _msgSender() */\n      tag_109\n        /* \"@openzeppelin/contracts/token/ERC721/ERC721.sol\":3804:3814  _msgSender */\n      tag_106\n        /* \"@openzeppelin/contracts/token/ERC721/ERC721.sol\":3804:3816  _msgSender() */\n      jump\t// in\n    tag_109:\n        /* \"@openzeppelin/contracts/token/ERC721/ERC721.sol\":3780:3796  isApprovedForAll */\n      tag_80\n        /* \"@openzeppelin/contracts/token/ERC721/ERC721.sol\":3780:3817  isApprovedForAll(owner, _msgSender()) */\n      jump\t// in\n    tag_108:\n        /* \"@openzeppelin/contracts/token/ERC721/ERC721.sol\":3755:3817  _msgSender() == owner || isApprovedForAll(owner, _msgSender()) */\n    tag_107:\n        /* \"@openzeppelin/contracts/token/ERC721/ERC721.sol\":3734:3899  require(... */\n      tag_110\n      jumpi\n      mload(0x40)\n      0x08c379a000000000000000000000000000000000000000000000000000000000\n      dup2\n      mstore\n      0x04\n      add\n      tag_111\n      swap1\n      tag_112\n      jump\t// in\n    tag_111:\n      mload(0x40)\n      dup1\n      swap2\n      sub\n      swap1\n      revert\n    tag_110:\n        /* \"@openzeppelin/contracts/token/ERC721/ERC721.sol\":3910:3931  _approve(to, tokenId) */\n      tag_113\n        /* \"@openzeppelin/contracts/token/ERC721/ERC721.sol\":3919:3921  to */\n      dup4\n        /* \"@openzeppelin/contracts/token/ERC721/ERC721.sol\":3923:3930  tokenId */\n      dup4\n        /* \"@openzeppelin/contracts/token/ERC721/ERC721.sol\":3910:3918  _approve */\n      tag_114\n        /* \"@openzeppelin/contracts/token/ERC721/ERC721.sol\":3910:3931  _approve(to, tokenId) */\n      jump\t// in\n    tag_113:\n        /* \"@openzeppelin/contracts/token/ERC721/ERC721.sol\":3607:3938  {... */\n      pop\n        /* \"@openzeppelin/contracts/token/ERC721/ERC721.sol\":3537:3938  function approve(address to, uint256 tokenId) public virtual override {... */\n      pop\n      pop\n      jump\t// out\n        /* \"@openzeppelin/contracts/token/ERC721/ERC721.sol\":4726:5056  function transferFrom(... */\n    tag_43:\n        /* \"@openzeppelin/contracts/token/ERC721/ERC721.sol\":4915:4956  _isApprovedOrOwner(_msgSender(), tokenId) */\n      tag_116\n        /* \"@openzeppelin/contracts/token/ERC721/ERC721.sol\":4934:4946  _msgSender() */\n      tag_117\n        /* \"@openzeppelin/contracts/token/ERC721/ERC721.sol\":4934:4944  _msgSender */\n      tag_106\n        /* \"@openzeppelin/contracts/token/ERC721/ERC721.sol\":4934:4946  _msgSender() */\n      jump\t// in\n    tag_117:\n        /* \"@openzeppelin/contracts/token/ERC721/ERC721.sol\":4948:4955  tokenId */\n      dup3\n        /* \"@openzeppelin/contracts/token/ERC721/ERC721.sol\":4915:4933  _isApprovedOrOwner */\n      tag_118\n        /* \"@openzeppelin/contracts/token/ERC721/ERC721.sol\":4915:4956  _isApprovedOrOwner(_msgSender(), tokenId) */\n      jump\t// in\n    tag_116:\n        /* \"@openzeppelin/contracts/token/ERC721/ERC721.sol\":4907:5010  require(_isApprovedOrOwner(_msgSender(), tokenId), \"ERC721: transfer caller is not owner nor approved\") */\n      tag_119\n      jumpi\n      mload(0x40)\n      0x08c379a000000000000000000000000000000000000000000000000000000000\n      dup2\n      mstore\n      0x04\n      add\n      tag_120\n      swap1\n      tag_121\n      jump\t// in\n    tag_120:\n      mload(0x40)\n      dup1\n      swap2\n      sub\n      swap1\n      revert\n    tag_119:\n        /* \"@openzeppelin/contracts/token/ERC721/ERC721.sol\":5021:5049  _transfer(from, to, tokenId) */\n      tag_122\n        /* \"@openzeppelin/contracts/token/ERC721/ERC721.sol\":5031:5035  from */\n      dup4\n        /* \"@openzeppelin/contracts/token/ERC721/ERC721.sol\":5037:5039  to */\n      dup4\n        /* \"@openzeppelin/contracts/token/ERC721/ERC721.sol\":5041:5048  tokenId */\n      dup4\n        /* \"@openzeppelin/contracts/token/ERC721/ERC721.sol\":5021:5030  _transfer */\n      tag_123\n        /* \"@openzeppelin/contracts/token/ERC721/ERC721.sol\":5021:5049  _transfer(from, to, tokenId) */\n      jump\t// in\n    tag_122:\n        /* \"@openzeppelin/contracts/token/ERC721/ERC721.sol\":4726:5056  function transferFrom(... */\n      pop\n      pop\n      pop\n      jump\t// out\n        /* \"@openzeppelin/contracts/token/ERC721/ERC721.sol\":5122:5301  function safeTransferFrom(... */\n    tag_46:\n        /* \"@openzeppelin/contracts/token/ERC721/ERC721.sol\":5255:5294  safeTransferFrom(from, to, tokenId, \"\") */\n      tag_125\n        /* \"@openzeppelin/contracts/token/ERC721/ERC721.sol\":5272:5276  from */\n      dup4\n        /* \"@openzeppelin/contracts/token/ERC721/ERC721.sol\":5278:5280  to */\n      dup4\n        /* \"@openzeppelin/contracts/token/ERC721/ERC721.sol\":5282:5289  tokenId */\n      dup4\n        /* \"@openzeppelin/contracts/token/ERC721/ERC721.sol\":5255:5294  safeTransferFrom(from, to, tokenId, \"\") */\n      mload(0x40)\n      dup1\n      0x20\n      add\n      0x40\n      mstore\n      dup1\n      0x00\n      dup2\n      mstore\n      pop\n        /* \"@openzeppelin/contracts/token/ERC721/ERC721.sol\":5255:5271  safeTransferFrom */\n      tag_72\n        /* \"@openzeppelin/contracts/token/ERC721/ERC721.sol\":5255:5294  safeTransferFrom(from, to, tokenId, \"\") */\n      jump\t// in\n    tag_125:\n        /* \"@openzeppelin/contracts/token/ERC721/ERC721.sol\":5122:5301  function safeTransferFrom(... */\n      pop\n      pop\n      pop\n      jump\t// out\n        /* \"@openzeppelin/contracts/token/ERC721/ERC721.sol\":2191:2426  function ownerOf(uint256 tokenId) public view virtual override returns (address) {... */\n    tag_49:\n        /* \"@openzeppelin/contracts/token/ERC721/ERC721.sol\":2263:2270  address */\n      0x00\n        /* \"@openzeppelin/contracts/token/ERC721/ERC721.sol\":2282:2295  address owner */\n      dup1\n        /* \"@openzeppelin/contracts/token/ERC721/ERC721.sol\":2298:2305  _owners */\n      0x02\n        /* \"@openzeppelin/contracts/token/ERC721/ERC721.sol\":2298:2314  _owners[tokenId] */\n      0x00\n        /* \"@openzeppelin/contracts/token/ERC721/ERC721.sol\":2306:2313  tokenId */\n      dup5\n        /* \"@openzeppelin/contracts/token/ERC721/ERC721.sol\":2298:2314  _owners[tokenId] */\n      dup2\n      mstore\n      0x20\n      add\n      swap1\n      dup2\n      mstore\n      0x20\n      add\n      0x00\n      keccak256\n      0x00\n      swap1\n      sload\n      swap1\n      0x0100\n      exp\n      swap1\n      div\n      0xffffffffffffffffffffffffffffffffffffffff\n      and\n        /* \"@openzeppelin/contracts/token/ERC721/ERC721.sol\":2282:2314  address owner = _owners[tokenId] */\n      swap1\n      pop\n        /* \"@openzeppelin/contracts/token/ERC721/ERC721.sol\":2349:2350  0 */\n      0x00\n        /* \"@openzeppelin/contracts/token/ERC721/ERC721.sol\":2332:2351  owner != address(0) */\n      0xffffffffffffffffffffffffffffffffffffffff\n      and\n        /* \"@openzeppelin/contracts/token/ERC721/ERC721.sol\":2332:2337  owner */\n      dup2\n        /* \"@openzeppelin/contracts/token/ERC721/ERC721.sol\":2332:2351  owner != address(0) */\n      0xffffffffffffffffffffffffffffffffffffffff\n      and\n      eq\n      iszero\n        /* \"@openzeppelin/contracts/token/ERC721/ERC721.sol\":2324:2397  require(owner != address(0), \"ERC721: owner query for nonexistent token\") */\n      tag_127\n      jumpi\n      mload(0x40)\n      0x08c379a000000000000000000000000000000000000000000000000000000000\n      dup2\n      mstore\n      0x04\n      add\n      tag_128\n      swap1\n      tag_129\n      jump\t// in\n    tag_128:\n      mload(0x40)\n      dup1\n      swap2\n      sub\n      swap1\n      revert\n    tag_127:\n        /* \"@openzeppelin/contracts/token/ERC721/ERC721.sol\":2414:2419  owner */\n      dup1\n        /* \"@openzeppelin/contracts/token/ERC721/ERC721.sol\":2407:2419  return owner */\n      swap2\n      pop\n      pop\n        /* \"@openzeppelin/contracts/token/ERC721/ERC721.sol\":2191:2426  function ownerOf(uint256 tokenId) public view virtual override returns (address) {... */\n      swap2\n      swap1\n      pop\n      jump\t// out\n        /* \"@openzeppelin/contracts/token/ERC721/ERC721.sol\":1929:2134  function balanceOf(address owner) public view virtual override returns (uint256) {... */\n    tag_54:\n        /* \"@openzeppelin/contracts/token/ERC721/ERC721.sol\":2001:2008  uint256 */\n      0x00\n        /* \"@openzeppelin/contracts/token/ERC721/ERC721.sol\":2045:2046  0 */\n      dup1\n        /* \"@openzeppelin/contracts/token/ERC721/ERC721.sol\":2028:2047  owner != address(0) */\n      0xffffffffffffffffffffffffffffffffffffffff\n      and\n        /* \"@openzeppelin/contracts/token/ERC721/ERC721.sol\":2028:2033  owner */\n      dup3\n        /* \"@openzeppelin/contracts/token/ERC721/ERC721.sol\":2028:2047  owner != address(0) */\n      0xffffffffffffffffffffffffffffffffffffffff\n      and\n      eq\n      iszero\n        /* \"@openzeppelin/contracts/token/ERC721/ERC721.sol\":2020:2094  require(owner != address(0), \"ERC721: balance query for the zero address\") */\n      tag_131\n      jumpi\n      mload(0x40)\n      0x08c379a000000000000000000000000000000000000000000000000000000000\n      dup2\n      mstore\n      0x04\n      add\n      tag_132\n      swap1\n      tag_133\n      jump\t// in\n    tag_132:\n      mload(0x40)\n      dup1\n      swap2\n      sub\n      swap1\n      revert\n    tag_131:\n        /* \"@openzeppelin/contracts/token/ERC721/ERC721.sol\":2111:2120  _balances */\n      0x03\n        /* \"@openzeppelin/contracts/token/ERC721/ERC721.sol\":2111:2127  _balances[owner] */\n      0x00\n        /* \"@openzeppelin/contracts/token/ERC721/ERC721.sol\":2121:2126  owner */\n      dup4\n        /* \"@openzeppelin/contracts/token/ERC721/ERC721.sol\":2111:2127  _balances[owner] */\n      0xffffffffffffffffffffffffffffffffffffffff\n      and\n      0xffffffffffffffffffffffffffffffffffffffff\n      and\n      dup2\n      mstore\n      0x20\n      add\n      swap1\n      dup2\n      mstore\n      0x20\n      add\n      0x00\n      keccak256\n      sload\n        /* \"@openzeppelin/contracts/token/ERC721/ERC721.sol\":2104:2127  return _balances[owner] */\n      swap1\n      pop\n        /* \"@openzeppelin/contracts/token/ERC721/ERC721.sol\":1929:2134  function balanceOf(address owner) public view virtual override returns (uint256) {... */\n      swap2\n      swap1\n      pop\n      jump\t// out\n        /* \"@openzeppelin/contracts/token/ERC721/ERC721.sol\":2650:2752  function symbol() public view virtual override returns (string memory) {... */\n    tag_58:\n        /* \"@openzeppelin/contracts/token/ERC721/ERC721.sol\":2706:2719  string memory */\n      0x60\n        /* \"@openzeppelin/contracts/token/ERC721/ERC721.sol\":2738:2745  _symbol */\n      0x01\n        /* \"@openzeppelin/contracts/token/ERC721/ERC721.sol\":2731:2745  return _symbol */\n      dup1\n      sload\n      tag_135\n      swap1\n      tag_89\n      jump\t// in\n    tag_135:\n      dup1\n      0x1f\n      add\n      0x20\n      dup1\n      swap2\n      div\n      mul\n      0x20\n      add\n      mload(0x40)\n      swap1\n      dup2\n      add\n      0x40\n      mstore\n      dup1\n      swap3\n      swap2\n      swap1\n      dup2\n      dup2\n      mstore\n      0x20\n      add\n      dup3\n      dup1\n      sload\n      tag_136\n      swap1\n      tag_89\n      jump\t// in\n    tag_136:\n      dup1\n      iszero\n      tag_137\n      jumpi\n      dup1\n      0x1f\n      lt\n      tag_138\n      jumpi\n      0x0100\n      dup1\n      dup4\n      sload\n      div\n      mul\n      dup4\n      mstore\n      swap2\n      0x20\n      add\n      swap2\n      jump(tag_137)\n    tag_138:\n      dup3\n      add\n      swap2\n      swap1\n      0x00\n      mstore\n      keccak256(0x00, 0x20)\n      swap1\n    tag_139:\n      dup2\n      sload\n      dup2\n      mstore\n      swap1\n      0x01\n      add\n      swap1\n      0x20\n      add\n      dup1\n      dup4\n      gt\n      tag_139\n      jumpi\n      dup3\n      swap1\n      sub\n      0x1f\n      and\n      dup3\n      add\n      swap2\n    tag_137:\n      pop\n      pop\n      pop\n      pop\n      pop\n      swap1\n      pop\n        /* \"@openzeppelin/contracts/token/ERC721/ERC721.sol\":2650:2752  function symbol() public view virtual override returns (string memory) {... */\n      swap1\n      jump\t// out\n        /* \"default_workspace/test/simplecoin/mynft.sol\":533:829  function create(address to, string memory _tokenURI)\r... */\n    tag_63:\n        /* \"default_workspace/test/simplecoin/mynft.sol\":620:627  uint256 */\n      0x00\n        /* \"default_workspace/test/simplecoin/mynft.sol\":645:666  _tokenIds.increment() */\n      tag_141\n        /* \"default_workspace/test/simplecoin/mynft.sol\":645:654  _tokenIds */\n      0x06\n        /* \"default_workspace/test/simplecoin/mynft.sol\":645:664  _tokenIds.increment */\n      tag_142\n        /* \"default_workspace/test/simplecoin/mynft.sol\":645:666  _tokenIds.increment() */\n      jump\t// in\n    tag_141:\n        /* \"default_workspace/test/simplecoin/mynft.sol\":679:696  uint256 newItemId */\n      0x00\n        /* \"default_workspace/test/simplecoin/mynft.sol\":699:718  _tokenIds.current() */\n      tag_143\n        /* \"default_workspace/test/simplecoin/mynft.sol\":699:708  _tokenIds */\n      0x06\n        /* \"default_workspace/test/simplecoin/mynft.sol\":699:716  _tokenIds.current */\n      tag_144\n        /* \"default_workspace/test/simplecoin/mynft.sol\":699:718  _tokenIds.current() */\n      jump\t// in\n    tag_143:\n        /* \"default_workspace/test/simplecoin/mynft.sol\":679:718  uint256 newItemId = _tokenIds.current() */\n      swap1\n      pop\n        /* \"default_workspace/test/simplecoin/mynft.sol\":729:749  _mint(to, newItemId) */\n      tag_145\n        /* \"default_workspace/test/simplecoin/mynft.sol\":735:737  to */\n      dup5\n        /* \"default_workspace/test/simplecoin/mynft.sol\":739:748  newItemId */\n      dup3\n        /* \"default_workspace/test/simplecoin/mynft.sol\":729:734  _mint */\n      tag_146\n        /* \"default_workspace/test/simplecoin/mynft.sol\":729:749  _mint(to, newItemId) */\n      jump\t// in\n    tag_145:\n        /* \"default_workspace/test/simplecoin/mynft.sol\":783:792  _tokenURI */\n      dup3\n        /* \"default_workspace/test/simplecoin/mynft.sol\":760:769  tokenURIs */\n      0x07\n        /* \"default_workspace/test/simplecoin/mynft.sol\":760:780  tokenURIs[newItemId] */\n      0x00\n        /* \"default_workspace/test/simplecoin/mynft.sol\":770:779  newItemId */\n      dup4\n        /* \"default_workspace/test/simplecoin/mynft.sol\":760:780  tokenURIs[newItemId] */\n      dup2\n      mstore\n      0x20\n      add\n      swap1\n      dup2\n      mstore\n      0x20\n      add\n      0x00\n      keccak256\n        /* \"default_workspace/test/simplecoin/mynft.sol\":760:792  tokenURIs[newItemId] = _tokenURI */\n      swap1\n      dup1\n      mload\n      swap1\n      0x20\n      add\n      swap1\n      tag_147\n      swap3\n      swap2\n      swap1\n      tag_148\n      jump\t// in\n    tag_147:\n      pop\n        /* \"default_workspace/test/simplecoin/mynft.sol\":812:821  newItemId */\n      dup1\n        /* \"default_workspace/test/simplecoin/mynft.sol\":805:821  return newItemId */\n      swap2\n      pop\n      pop\n        /* \"default_workspace/test/simplecoin/mynft.sol\":533:829  function create(address to, string memory _tokenURI)\r... */\n      swap3\n      swap2\n      pop\n      pop\n      jump\t// out\n        /* \"@openzeppelin/contracts/token/ERC721/ERC721.sol\":4283:4436  function setApprovalForAll(address operator, bool approved) public virtual override {... */\n    tag_68:\n        /* \"@openzeppelin/contracts/token/ERC721/ERC721.sol\":4377:4429  _setApprovalForAll(_msgSender(), operator, approved) */\n      tag_150\n        /* \"@openzeppelin/contracts/token/ERC721/ERC721.sol\":4396:4408  _msgSender() */\n      tag_151\n        /* \"@openzeppelin/contracts/token/ERC721/ERC721.sol\":4396:4406  _msgSender */\n      tag_106\n        /* \"@openzeppelin/contracts/token/ERC721/ERC721.sol\":4396:4408  _msgSender() */\n      jump\t// in\n    tag_151:\n        /* \"@openzeppelin/contracts/token/ERC721/ERC721.sol\":4410:4418  operator */\n      dup4\n        /* \"@openzeppelin/contracts/token/ERC721/ERC721.sol\":4420:4428  approved */\n      dup4\n        /* \"@openzeppelin/contracts/token/ERC721/ERC721.sol\":4377:4395  _setApprovalForAll */\n      tag_152\n        /* \"@openzeppelin/contracts/token/ERC721/ERC721.sol\":4377:4429  _setApprovalForAll(_msgSender(), operator, approved) */\n      jump\t// in\n    tag_150:\n        /* \"@openzeppelin/contracts/token/ERC721/ERC721.sol\":4283:4436  function setApprovalForAll(address operator, bool approved) public virtual override {... */\n      pop\n      pop\n      jump\t// out\n        /* \"@openzeppelin/contracts/token/ERC721/ERC721.sol\":5367:5687  function safeTransferFrom(... */\n    tag_72:\n        /* \"@openzeppelin/contracts/token/ERC721/ERC721.sol\":5536:5577  _isApprovedOrOwner(_msgSender(), tokenId) */\n      tag_154\n        /* \"@openzeppelin/contracts/token/ERC721/ERC721.sol\":5555:5567  _msgSender() */\n      tag_155\n        /* \"@openzeppelin/contracts/token/ERC721/ERC721.sol\":5555:5565  _msgSender */\n      tag_106\n        /* \"@openzeppelin/contracts/token/ERC721/ERC721.sol\":5555:5567  _msgSender() */\n      jump\t// in\n    tag_155:\n        /* \"@openzeppelin/contracts/token/ERC721/ERC721.sol\":5569:5576  tokenId */\n      dup4\n        /* \"@openzeppelin/contracts/token/ERC721/ERC721.sol\":5536:5554  _isApprovedOrOwner */\n      tag_118\n        /* \"@openzeppelin/contracts/token/ERC721/ERC721.sol\":5536:5577  _isApprovedOrOwner(_msgSender(), tokenId) */\n      jump\t// in\n    tag_154:\n        /* \"@openzeppelin/contracts/token/ERC721/ERC721.sol\":5528:5631  require(_isApprovedOrOwner(_msgSender(), tokenId), \"ERC721: transfer caller is not owner nor approved\") */\n      tag_156\n      jumpi\n      mload(0x40)\n      0x08c379a000000000000000000000000000000000000000000000000000000000\n      dup2\n      mstore\n      0x04\n      add\n      tag_157\n      swap1\n      tag_121\n      jump\t// in\n    tag_157:\n      mload(0x40)\n      dup1\n      swap2\n      sub\n      swap1\n      revert\n    tag_156:\n        /* \"@openzeppelin/contracts/token/ERC721/ERC721.sol\":5641:5680  _safeTransfer(from, to, tokenId, _data) */\n      tag_158\n        /* \"@openzeppelin/contracts/token/ERC721/ERC721.sol\":5655:5659  from */\n      dup5\n        /* \"@openzeppelin/contracts/token/ERC721/ERC721.sol\":5661:5663  to */\n      dup5\n        /* \"@openzeppelin/contracts/token/ERC721/ERC721.sol\":5665:5672  tokenId */\n      dup5\n        /* \"@openzeppelin/contracts/token/ERC721/ERC721.sol\":5674:5679  _data */\n      dup5\n        /* \"@openzeppelin/contracts/token/ERC721/ERC721.sol\":5641:5654  _safeTransfer */\n      tag_159\n        /* \"@openzeppelin/contracts/token/ERC721/ERC721.sol\":5641:5680  _safeTransfer(from, to, tokenId, _data) */\n      jump\t// in\n    tag_158:\n        /* \"@openzeppelin/contracts/token/ERC721/ERC721.sol\":5367:5687  function safeTransferFrom(... */\n      pop\n      pop\n      pop\n      pop\n      jump\t// out\n        /* \"default_workspace/test/simplecoin/mynft.sol\":395:525  function tokenURI(uint256 tokenId) public view virtual override returns (string memory) {\r... */\n    tag_75:\n        /* \"default_workspace/test/simplecoin/mynft.sol\":468:481  string memory */\n      0x60\n        /* \"default_workspace/test/simplecoin/mynft.sol\":499:508  tokenURIs */\n      0x07\n        /* \"default_workspace/test/simplecoin/mynft.sol\":499:517  tokenURIs[tokenId] */\n      0x00\n        /* \"default_workspace/test/simplecoin/mynft.sol\":509:516  tokenId */\n      dup4\n        /* \"default_workspace/test/simplecoin/mynft.sol\":499:517  tokenURIs[tokenId] */\n      dup2\n      mstore\n      0x20\n      add\n      swap1\n      dup2\n      mstore\n      0x20\n      add\n      0x00\n      keccak256\n        /* \"default_workspace/test/simplecoin/mynft.sol\":492:517  return tokenURIs[tokenId] */\n      dup1\n      sload\n      tag_161\n      swap1\n      tag_89\n      jump\t// in\n    tag_161:\n      dup1\n      0x1f\n      add\n      0x20\n      dup1\n      swap2\n      div\n      mul\n      0x20\n      add\n      mload(0x40)\n      swap1\n      dup2\n      add\n      0x40\n      mstore\n      dup1\n      swap3\n      swap2\n      swap1\n      dup2\n      dup2\n      mstore\n      0x20\n      add\n      dup3\n      dup1\n      sload\n      tag_162\n      swap1\n      tag_89\n      jump\t// in\n    tag_162:\n      dup1\n      iszero\n      tag_163\n      jumpi\n      dup1\n      0x1f\n      lt\n      tag_164\n      jumpi\n      0x0100\n      dup1\n      dup4\n      sload\n      div\n      mul\n      dup4\n      mstore\n      swap2\n      0x20\n      add\n      swap2\n      jump(tag_163)\n    tag_164:\n      dup3\n      add\n      swap2\n      swap1\n      0x00\n      mstore\n      keccak256(0x00, 0x20)\n      swap1\n    tag_165:\n      dup2\n      sload\n      dup2\n      mstore\n      swap1\n      0x01\n      add\n      swap1\n      0x20\n      add\n      dup1\n      dup4\n      gt\n      tag_165\n      jumpi\n      dup3\n      swap1\n      sub\n      0x1f\n      and\n      dup3\n      add\n      swap2\n    tag_163:\n      pop\n      pop\n      pop\n      pop\n      pop\n      swap1\n      pop\n        /* \"default_workspace/test/simplecoin/mynft.sol\":395:525  function tokenURI(uint256 tokenId) public view virtual override returns (string memory) {\r... */\n      swap2\n      swap1\n      pop\n      jump\t// out\n        /* \"@openzeppelin/contracts/token/ERC721/ERC721.sol\":4502:4664  function isApprovedForAll(address owner, address operator) public view virtual override returns (bool) {... */\n    tag_80:\n        /* \"@openzeppelin/contracts/token/ERC721/ERC721.sol\":4599:4603  bool */\n      0x00\n        /* \"@openzeppelin/contracts/token/ERC721/ERC721.sol\":4622:4640  _operatorApprovals */\n      0x05\n        /* \"@openzeppelin/contracts/token/ERC721/ERC721.sol\":4622:4647  _operatorApprovals[owner] */\n      0x00\n        /* \"@openzeppelin/contracts/token/ERC721/ERC721.sol\":4641:4646  owner */\n      dup5\n        /* \"@openzeppelin/contracts/token/ERC721/ERC721.sol\":4622:4647  _operatorApprovals[owner] */\n      0xffffffffffffffffffffffffffffffffffffffff\n      and\n      0xffffffffffffffffffffffffffffffffffffffff\n      and\n      dup2\n      mstore\n      0x20\n      add\n      swap1\n      dup2\n      mstore\n      0x20\n      add\n      0x00\n      keccak256\n        /* \"@openzeppelin/contracts/token/ERC721/ERC721.sol\":4622:4657  _operatorApprovals[owner][operator] */\n      0x00\n        /* \"@openzeppelin/contracts/token/ERC721/ERC721.sol\":4648:4656  operator */\n      dup4\n        /* \"@openzeppelin/contracts/token/ERC721/ERC721.sol\":4622:4657  _operatorApprovals[owner][operator] */\n      0xffffffffffffffffffffffffffffffffffffffff\n      and\n      0xffffffffffffffffffffffffffffffffffffffff\n      and\n      dup2\n      mstore\n      0x20\n      add\n      swap1\n      dup2\n      mstore\n      0x20\n      add\n      0x00\n      keccak256\n      0x00\n      swap1\n      sload\n      swap1\n      0x0100\n      exp\n      swap1\n      div\n      0xff\n      and\n        /* \"@openzeppelin/contracts/token/ERC721/ERC721.sol\":4615:4657  return _operatorApprovals[owner][operator] */\n      swap1\n      pop\n        /* \"@openzeppelin/contracts/token/ERC721/ERC721.sol\":4502:4664  function isApprovedForAll(address owner, address operator) public view virtual override returns (bool) {... */\n      swap3\n      swap2\n      pop\n      pop\n      jump\t// out\n        /* \"@openzeppelin/contracts/utils/introspection/ERC165.sol\":829:984  function supportsInterface(bytes4 interfaceId) public view virtual override returns (bool) {... */\n    tag_86:\n        /* \"@openzeppelin/contracts/utils/introspection/ERC165.sol\":914:918  bool */\n      0x00\n        /* \"@openzeppelin/contracts/utils/introspection/ERC165.sol\":952:977  type(IERC165).interfaceId */\n      0x01ffc9a700000000000000000000000000000000000000000000000000000000\n        /* \"@openzeppelin/contracts/utils/introspection/ERC165.sol\":937:977  interfaceId == type(IERC165).interfaceId */\n      not(0xffffffffffffffffffffffffffffffffffffffffffffffffffffffff)\n      and\n        /* \"@openzeppelin/contracts/utils/introspection/ERC165.sol\":937:948  interfaceId */\n      dup3\n        /* \"@openzeppelin/contracts/utils/introspection/ERC165.sol\":937:977  interfaceId == type(IERC165).interfaceId */\n      not(0xffffffffffffffffffffffffffffffffffffffffffffffffffffffff)\n      and\n      eq\n        /* \"@openzeppelin/contracts/utils/introspection/ERC165.sol\":930:977  return interfaceId == type(IERC165).interfaceId */\n      swap1\n      pop\n        /* \"@openzeppelin/contracts/utils/introspection/ERC165.sol\":829:984  function supportsInterface(bytes4 interfaceId) public view virtual override returns (bool) {... */\n      swap2\n      swap1\n      pop\n      jump\t// out\n        /* \"@openzeppelin/contracts/token/ERC721/ERC721.sol\":7159:7284  function _exists(uint256 tokenId) internal view virtual returns (bool) {... */\n    tag_96:\n        /* \"@openzeppelin/contracts/token/ERC721/ERC721.sol\":7224:7228  bool */\n      0x00\n        /* \"@openzeppelin/contracts/token/ERC721/ERC721.sol\":7275:7276  0 */\n      dup1\n        /* \"@openzeppelin/contracts/token/ERC721/ERC721.sol\":7247:7277  _owners[tokenId] != address(0) */\n      0xffffffffffffffffffffffffffffffffffffffff\n      and\n        /* \"@openzeppelin/contracts/token/ERC721/ERC721.sol\":7247:7254  _owners */\n      0x02\n        /* \"@openzeppelin/contracts/token/ERC721/ERC721.sol\":7247:7263  _owners[tokenId] */\n      0x00\n        /* \"@openzeppelin/contracts/token/ERC721/ERC721.sol\":7255:7262  tokenId */\n      dup5\n        /* \"@openzeppelin/contracts/token/ERC721/ERC721.sol\":7247:7263  _owners[tokenId] */\n      dup2\n      mstore\n      0x20\n      add\n      swap1\n      dup2\n      mstore\n      0x20\n      add\n      0x00\n      keccak256\n      0x00\n      swap1\n      sload\n      swap1\n      0x0100\n      exp\n      swap1\n      div\n      0xffffffffffffffffffffffffffffffffffffffff\n      and\n        /* \"@openzeppelin/contracts/token/ERC721/ERC721.sol\":7247:7277  _owners[tokenId] != address(0) */\n      0xffffffffffffffffffffffffffffffffffffffff\n      and\n      eq\n      iszero\n        /* \"@openzeppelin/contracts/token/ERC721/ERC721.sol\":7240:7277  return _owners[tokenId] != address(0) */\n      swap1\n      pop\n        /* \"@openzeppelin/contracts/token/ERC721/ERC721.sol\":7159:7284  function _exists(uint256 tokenId) internal view virtual returns (bool) {... */\n      swap2\n      swap1\n      pop\n      jump\t// out\n        /* \"@openzeppelin/contracts/utils/Context.sol\":640:736  function _msgSender() internal view virtual returns (address) {... */\n    tag_106:\n        /* \"@openzeppelin/contracts/utils/Context.sol\":693:700  address */\n      0x00\n        /* \"@openzeppelin/contracts/utils/Context.sol\":719:729  msg.sender */\n      caller\n        /* \"@openzeppelin/contracts/utils/Context.sol\":712:729  return msg.sender */\n      swap1\n      pop\n        /* \"@openzeppelin/contracts/utils/Context.sol\":640:736  function _msgSender() internal view virtual returns (address) {... */\n      swap1\n      jump\t// out\n        /* \"@openzeppelin/contracts/token/ERC721/ERC721.sol\":11168:11339  function _approve(address to, uint256 tokenId) internal virtual {... */\n    tag_114:\n        /* \"@openzeppelin/contracts/token/ERC721/ERC721.sol\":11269:11271  to */\n      dup2\n        /* \"@openzeppelin/contracts/token/ERC721/ERC721.sol\":11242:11257  _tokenApprovals */\n      0x04\n        /* \"@openzeppelin/contracts/token/ERC721/ERC721.sol\":11242:11266  _tokenApprovals[tokenId] */\n      0x00\n        /* \"@openzeppelin/contracts/token/ERC721/ERC721.sol\":11258:11265  tokenId */\n      dup4\n        /* \"@openzeppelin/contracts/token/ERC721/ERC721.sol\":11242:11266  _tokenApprovals[tokenId] */\n      dup2\n      mstore\n      0x20\n      add\n      swap1\n      dup2\n      mstore\n      0x20\n      add\n      0x00\n      keccak256\n      0x00\n        /* \"@openzeppelin/contracts/token/ERC721/ERC721.sol\":11242:11271  _tokenApprovals[tokenId] = to */\n      0x0100\n      exp\n      dup2\n      sload\n      dup2\n      0xffffffffffffffffffffffffffffffffffffffff\n      mul\n      not\n      and\n      swap1\n      dup4\n      0xffffffffffffffffffffffffffffffffffffffff\n      and\n      mul\n      or\n      swap1\n      sstore\n      pop\n        /* \"@openzeppelin/contracts/token/ERC721/ERC721.sol\":11324:11331  tokenId */\n      dup1\n        /* \"@openzeppelin/contracts/token/ERC721/ERC721.sol\":11320:11322  to */\n      dup3\n        /* \"@openzeppelin/contracts/token/ERC721/ERC721.sol\":11286:11332  Approval(ERC721.ownerOf(tokenId), to, tokenId) */\n      0xffffffffffffffffffffffffffffffffffffffff\n      and\n        /* \"@openzeppelin/contracts/token/ERC721/ERC721.sol\":11295:11318  ERC721.ownerOf(tokenId) */\n      tag_171\n        /* \"@openzeppelin/contracts/token/ERC721/ERC721.sol\":11310:11317  tokenId */\n      dup4\n        /* \"@openzeppelin/contracts/token/ERC721/ERC721.sol\":11295:11309  ERC721.ownerOf */\n      tag_49\n        /* \"@openzeppelin/contracts/token/ERC721/ERC721.sol\":11295:11318  ERC721.ownerOf(tokenId) */\n      jump\t// in\n    tag_171:\n        /* \"@openzeppelin/contracts/token/ERC721/ERC721.sol\":11286:11332  Approval(ERC721.ownerOf(tokenId), to, tokenId) */\n      0xffffffffffffffffffffffffffffffffffffffff\n      and\n      0x8c5be1e5ebec7d5bd14f71427d1e84f3dd0314c0f7b2291e5b200ac8c7c3b925\n      mload(0x40)\n      mload(0x40)\n      dup1\n      swap2\n      sub\n      swap1\n      log4\n        /* \"@openzeppelin/contracts/token/ERC721/ERC721.sol\":11168:11339  function _approve(address to, uint256 tokenId) internal virtual {... */\n      pop\n      pop\n      jump\t// out\n        /* \"@openzeppelin/contracts/token/ERC721/ERC721.sol\":7442:7786  function _isApprovedOrOwner(address spender, uint256 tokenId) internal view virtual returns (bool) {... */\n    tag_118:\n        /* \"@openzeppelin/contracts/token/ERC721/ERC721.sol\":7535:7539  bool */\n      0x00\n        /* \"@openzeppelin/contracts/token/ERC721/ERC721.sol\":7559:7575  _exists(tokenId) */\n      tag_173\n        /* \"@openzeppelin/contracts/token/ERC721/ERC721.sol\":7567:7574  tokenId */\n      dup3\n        /* \"@openzeppelin/contracts/token/ERC721/ERC721.sol\":7559:7566  _exists */\n      tag_96\n        /* \"@openzeppelin/contracts/token/ERC721/ERC721.sol\":7559:7575  _exists(tokenId) */\n      jump\t// in\n    tag_173:\n        /* \"@openzeppelin/contracts/token/ERC721/ERC721.sol\":7551:7624  require(_exists(tokenId), \"ERC721: operator query for nonexistent token\") */\n      tag_174\n      jumpi\n      mload(0x40)\n      0x08c379a000000000000000000000000000000000000000000000000000000000\n      dup2\n      mstore\n      0x04\n      add\n      tag_175\n      swap1\n      tag_176\n      jump\t// in\n    tag_175:\n      mload(0x40)\n      dup1\n      swap2\n      sub\n      swap1\n      revert\n    tag_174:\n        /* \"@openzeppelin/contracts/token/ERC721/ERC721.sol\":7634:7647  address owner */\n      0x00\n        /* \"@openzeppelin/contracts/token/ERC721/ERC721.sol\":7650:7673  ERC721.ownerOf(tokenId) */\n      tag_177\n        /* \"@openzeppelin/contracts/token/ERC721/ERC721.sol\":7665:7672  tokenId */\n      dup4\n        /* \"@openzeppelin/contracts/token/ERC721/ERC721.sol\":7650:7664  ERC721.ownerOf */\n      tag_49\n        /* \"@openzeppelin/contracts/token/ERC721/ERC721.sol\":7650:7673  ERC721.ownerOf(tokenId) */\n      jump\t// in\n    tag_177:\n        /* \"@openzeppelin/contracts/token/ERC721/ERC721.sol\":7634:7673  address owner = ERC721.ownerOf(tokenId) */\n      swap1\n      pop\n        /* \"@openzeppelin/contracts/token/ERC721/ERC721.sol\":7702:7707  owner */\n      dup1\n        /* \"@openzeppelin/contracts/token/ERC721/ERC721.sol\":7691:7707  spender == owner */\n      0xffffffffffffffffffffffffffffffffffffffff\n      and\n        /* \"@openzeppelin/contracts/token/ERC721/ERC721.sol\":7691:7698  spender */\n      dup5\n        /* \"@openzeppelin/contracts/token/ERC721/ERC721.sol\":7691:7707  spender == owner */\n      0xffffffffffffffffffffffffffffffffffffffff\n      and\n      eq\n        /* \"@openzeppelin/contracts/token/ERC721/ERC721.sol\":7691:7742  spender == owner || getApproved(tokenId) == spender */\n      dup1\n      tag_178\n      jumpi\n      pop\n        /* \"@openzeppelin/contracts/token/ERC721/ERC721.sol\":7735:7742  spender */\n      dup4\n        /* \"@openzeppelin/contracts/token/ERC721/ERC721.sol\":7711:7742  getApproved(tokenId) == spender */\n      0xffffffffffffffffffffffffffffffffffffffff\n      and\n        /* \"@openzeppelin/contracts/token/ERC721/ERC721.sol\":7711:7731  getApproved(tokenId) */\n      tag_179\n        /* \"@openzeppelin/contracts/token/ERC721/ERC721.sol\":7723:7730  tokenId */\n      dup5\n        /* \"@openzeppelin/contracts/token/ERC721/ERC721.sol\":7711:7722  getApproved */\n      tag_33\n        /* \"@openzeppelin/contracts/token/ERC721/ERC721.sol\":7711:7731  getApproved(tokenId) */\n      jump\t// in\n    tag_179:\n        /* \"@openzeppelin/contracts/token/ERC721/ERC721.sol\":7711:7742  getApproved(tokenId) == spender */\n      0xffffffffffffffffffffffffffffffffffffffff\n      and\n      eq\n        /* \"@openzeppelin/contracts/token/ERC721/ERC721.sol\":7691:7742  spender == owner || getApproved(tokenId) == spender */\n    tag_178:\n        /* \"@openzeppelin/contracts/token/ERC721/ERC721.sol\":7691:7778  spender == owner || getApproved(tokenId) == spender || isApprovedForAll(owner, spender) */\n      dup1\n      tag_180\n      jumpi\n      pop\n        /* \"@openzeppelin/contracts/token/ERC721/ERC721.sol\":7746:7778  isApprovedForAll(owner, spender) */\n      tag_181\n        /* \"@openzeppelin/contracts/token/ERC721/ERC721.sol\":7763:7768  owner */\n      dup2\n        /* \"@openzeppelin/contracts/token/ERC721/ERC721.sol\":7770:7777  spender */\n      dup6\n        /* \"@openzeppelin/contracts/token/ERC721/ERC721.sol\":7746:7762  isApprovedForAll */\n      tag_80\n        /* \"@openzeppelin/contracts/token/ERC721/ERC721.sol\":7746:7778  isApprovedForAll(owner, spender) */\n      jump\t// in\n    tag_181:\n        /* \"@openzeppelin/contracts/token/ERC721/ERC721.sol\":7691:7778  spender == owner || getApproved(tokenId) == spender || isApprovedForAll(owner, spender) */\n    tag_180:\n        /* \"@openzeppelin/contracts/token/ERC721/ERC721.sol\":7683:7779  return (spender == owner || getApproved(tokenId) == spender || isApprovedForAll(owner, spender)) */\n      swap2\n      pop\n      pop\n        /* \"@openzeppelin/contracts/token/ERC721/ERC721.sol\":7442:7786  function _isApprovedOrOwner(address spender, uint256 tokenId) internal view virtual returns (bool) {... */\n      swap3\n      swap2\n      pop\n      pop\n      jump\t// out\n        /* \"@openzeppelin/contracts/token/ERC721/ERC721.sol\":10452:11057  function _transfer(... */\n    tag_123:\n        /* \"@openzeppelin/contracts/token/ERC721/ERC721.sol\":10606:10610  from */\n      dup3\n        /* \"@openzeppelin/contracts/token/ERC721/ERC721.sol\":10579:10610  ERC721.ownerOf(tokenId) == from */\n      0xffffffffffffffffffffffffffffffffffffffff\n      and\n        /* \"@openzeppelin/contracts/token/ERC721/ERC721.sol\":10579:10602  ERC721.ownerOf(tokenId) */\n      tag_183\n        /* \"@openzeppelin/contracts/token/ERC721/ERC721.sol\":10594:10601  tokenId */\n      dup3\n        /* \"@openzeppelin/contracts/token/ERC721/ERC721.sol\":10579:10593  ERC721.ownerOf */\n      tag_49\n        /* \"@openzeppelin/contracts/token/ERC721/ERC721.sol\":10579:10602  ERC721.ownerOf(tokenId) */\n      jump\t// in\n    tag_183:\n        /* \"@openzeppelin/contracts/token/ERC721/ERC721.sol\":10579:10610  ERC721.ownerOf(tokenId) == from */\n      0xffffffffffffffffffffffffffffffffffffffff\n      and\n      eq\n        /* \"@openzeppelin/contracts/token/ERC721/ERC721.sol\":10571:10652  require(ERC721.ownerOf(tokenId) == from, \"ERC721: transfer from incorrect owner\") */\n      tag_184\n      jumpi\n      mload(0x40)\n      0x08c379a000000000000000000000000000000000000000000000000000000000\n      dup2\n      mstore\n      0x04\n      add\n      tag_185\n      swap1\n      tag_186\n      jump\t// in\n    tag_185:\n      mload(0x40)\n      dup1\n      swap2\n      sub\n      swap1\n      revert\n    tag_184:\n        /* \"@openzeppelin/contracts/token/ERC721/ERC721.sol\":10684:10685  0 */\n      0x00\n        /* \"@openzeppelin/contracts/token/ERC721/ERC721.sol\":10670:10686  to != address(0) */\n      0xffffffffffffffffffffffffffffffffffffffff\n      and\n        /* \"@openzeppelin/contracts/token/ERC721/ERC721.sol\":10670:10672  to */\n      dup3\n        /* \"@openzeppelin/contracts/token/ERC721/ERC721.sol\":10670:10686  to != address(0) */\n      0xffffffffffffffffffffffffffffffffffffffff\n      and\n      eq\n      iszero\n        /* \"@openzeppelin/contracts/token/ERC721/ERC721.sol\":10662:10727  require(to != address(0), \"ERC721: transfer to the zero address\") */\n      tag_187\n      jumpi\n      mload(0x40)\n      0x08c379a000000000000000000000000000000000000000000000000000000000\n      dup2\n      mstore\n      0x04\n      add\n      tag_188\n      swap1\n      tag_189\n      jump\t// in\n    tag_188:\n      mload(0x40)\n      dup1\n      swap2\n      sub\n      swap1\n      revert\n    tag_187:\n        /* \"@openzeppelin/contracts/token/ERC721/ERC721.sol\":10738:10777  _beforeTokenTransfer(from, to, tokenId) */\n      tag_190\n        /* \"@openzeppelin/contracts/token/ERC721/ERC721.sol\":10759:10763  from */\n      dup4\n        /* \"@openzeppelin/contracts/token/ERC721/ERC721.sol\":10765:10767  to */\n      dup4\n        /* \"@openzeppelin/contracts/token/ERC721/ERC721.sol\":10769:10776  tokenId */\n      dup4\n        /* \"@openzeppelin/contracts/token/ERC721/ERC721.sol\":10738:10758  _beforeTokenTransfer */\n      tag_191\n        /* \"@openzeppelin/contracts/token/ERC721/ERC721.sol\":10738:10777  _beforeTokenTransfer(from, to, tokenId) */\n      jump\t// in\n    tag_190:\n        /* \"@openzeppelin/contracts/token/ERC721/ERC721.sol\":10839:10868  _approve(address(0), tokenId) */\n      tag_192\n        /* \"@openzeppelin/contracts/token/ERC721/ERC721.sol\":10856:10857  0 */\n      0x00\n        /* \"@openzeppelin/contracts/token/ERC721/ERC721.sol\":10860:10867  tokenId */\n      dup3\n        /* \"@openzeppelin/contracts/token/ERC721/ERC721.sol\":10839:10847  _approve */\n      tag_114\n        /* \"@openzeppelin/contracts/token/ERC721/ERC721.sol\":10839:10868  _approve(address(0), tokenId) */\n      jump\t// in\n    tag_192:\n        /* \"@openzeppelin/contracts/token/ERC721/ERC721.sol\":10898:10899  1 */\n      0x01\n        /* \"@openzeppelin/contracts/token/ERC721/ERC721.sol\":10879:10888  _balances */\n      0x03\n        /* \"@openzeppelin/contracts/token/ERC721/ERC721.sol\":10879:10894  _balances[from] */\n      0x00\n        /* \"@openzeppelin/contracts/token/ERC721/ERC721.sol\":10889:10893  from */\n      dup6\n        /* \"@openzeppelin/contracts/token/ERC721/ERC721.sol\":10879:10894  _balances[from] */\n      0xffffffffffffffffffffffffffffffffffffffff\n      and\n      0xffffffffffffffffffffffffffffffffffffffff\n      and\n      dup2\n      mstore\n      0x20\n      add\n      swap1\n      dup2\n      mstore\n      0x20\n      add\n      0x00\n      keccak256\n      0x00\n        /* \"@openzeppelin/contracts/token/ERC721/ERC721.sol\":10879:10899  _balances[from] -= 1 */\n      dup3\n      dup3\n      sload\n      tag_193\n      swap2\n      swap1\n      tag_194\n      jump\t// in\n    tag_193:\n      swap3\n      pop\n      pop\n      dup2\n      swap1\n      sstore\n      pop\n        /* \"@openzeppelin/contracts/token/ERC721/ERC721.sol\":10926:10927  1 */\n      0x01\n        /* \"@openzeppelin/contracts/token/ERC721/ERC721.sol\":10909:10918  _balances */\n      0x03\n        /* \"@openzeppelin/contracts/token/ERC721/ERC721.sol\":10909:10922  _balances[to] */\n      0x00\n        /* \"@openzeppelin/contracts/token/ERC721/ERC721.sol\":10919:10921  to */\n      dup5\n        /* \"@openzeppelin/contracts/token/ERC721/ERC721.sol\":10909:10922  _balances[to] */\n      0xffffffffffffffffffffffffffffffffffffffff\n      and\n      0xffffffffffffffffffffffffffffffffffffffff\n      and\n      dup2\n      mstore\n      0x20\n      add\n      swap1\n      dup2\n      mstore\n      0x20\n      add\n      0x00\n      keccak256\n      0x00\n        /* \"@openzeppelin/contracts/token/ERC721/ERC721.sol\":10909:10927  _balances[to] += 1 */\n      dup3\n      dup3\n      sload\n      tag_195\n      swap2\n      swap1\n      tag_196\n      jump\t// in\n    tag_195:\n      swap3\n      pop\n      pop\n      dup2\n      swap1\n      sstore\n      pop\n        /* \"@openzeppelin/contracts/token/ERC721/ERC721.sol\":10956:10958  to */\n      dup2\n        /* \"@openzeppelin/contracts/token/ERC721/ERC721.sol\":10937:10944  _owners */\n      0x02\n        /* \"@openzeppelin/contracts/token/ERC721/ERC721.sol\":10937:10953  _owners[tokenId] */\n      0x00\n        /* \"@openzeppelin/contracts/token/ERC721/ERC721.sol\":10945:10952  tokenId */\n      dup4\n        /* \"@openzeppelin/contracts/token/ERC721/ERC721.sol\":10937:10953  _owners[tokenId] */\n      dup2\n      mstore\n      0x20\n      add\n      swap1\n      dup2\n      mstore\n      0x20\n      add\n      0x00\n      keccak256\n      0x00\n        /* \"@openzeppelin/contracts/token/ERC721/ERC721.sol\":10937:10958  _owners[tokenId] = to */\n      0x0100\n      exp\n      dup2\n      sload\n      dup2\n      0xffffffffffffffffffffffffffffffffffffffff\n      mul\n      not\n      and\n      swap1\n      dup4\n      0xffffffffffffffffffffffffffffffffffffffff\n      and\n      mul\n      or\n      swap1\n      sstore\n      pop\n        /* \"@openzeppelin/contracts/token/ERC721/ERC721.sol\":10993:11000  tokenId */\n      dup1\n        /* \"@openzeppelin/contracts/token/ERC721/ERC721.sol\":10989:10991  to */\n      dup3\n        /* \"@openzeppelin/contracts/token/ERC721/ERC721.sol\":10974:11001  Transfer(from, to, tokenId) */\n      0xffffffffffffffffffffffffffffffffffffffff\n      and\n        /* \"@openzeppelin/contracts/token/ERC721/ERC721.sol\":10983:10987  from */\n      dup5\n        /* \"@openzeppelin/contracts/token/ERC721/ERC721.sol\":10974:11001  Transfer(from, to, tokenId) */\n      0xffffffffffffffffffffffffffffffffffffffff\n      and\n      0xddf252ad1be2c89b69c2b068fc378daa952ba7f163c4a11628f55a4df523b3ef\n      mload(0x40)\n      mload(0x40)\n      dup1\n      swap2\n      sub\n      swap1\n      log4\n        /* \"@openzeppelin/contracts/token/ERC721/ERC721.sol\":11012:11050  _afterTokenTransfer(from, to, tokenId) */\n      tag_197\n        /* \"@openzeppelin/contracts/token/ERC721/ERC721.sol\":11032:11036  from */\n      dup4\n        /* \"@openzeppelin/contracts/token/ERC721/ERC721.sol\":11038:11040  to */\n      dup4\n        /* \"@openzeppelin/contracts/token/ERC721/ERC721.sol\":11042:11049  tokenId */\n      dup4\n        /* \"@openzeppelin/contracts/token/ERC721/ERC721.sol\":11012:11031  _afterTokenTransfer */\n      tag_198\n        /* \"@openzeppelin/contracts/token/ERC721/ERC721.sol\":11012:11050  _afterTokenTransfer(from, to, tokenId) */\n      jump\t// in\n    tag_197:\n        /* \"@openzeppelin/contracts/token/ERC721/ERC721.sol\":10452:11057  function _transfer(... */\n      pop\n      pop\n      pop\n      jump\t// out\n        /* \"@openzeppelin/contracts/utils/Counters.sol\":945:1068  function increment(Counter storage counter) internal {... */\n    tag_142:\n        /* \"@openzeppelin/contracts/utils/Counters.sol\":1050:1051  1 */\n      0x01\n        /* \"@openzeppelin/contracts/utils/Counters.sol\":1032:1039  counter */\n      dup2\n        /* \"@openzeppelin/contracts/utils/Counters.sol\":1032:1046  counter._value */\n      0x00\n      add\n      0x00\n        /* \"@openzeppelin/contracts/utils/Counters.sol\":1032:1051  counter._value += 1 */\n      dup3\n      dup3\n      sload\n      add\n      swap3\n      pop\n      pop\n      dup2\n      swap1\n      sstore\n      pop\n        /* \"@openzeppelin/contracts/utils/Counters.sol\":945:1068  function increment(Counter storage counter) internal {... */\n      pop\n      jump\t// out\n        /* \"@openzeppelin/contracts/utils/Counters.sol\":827:939  function current(Counter storage counter) internal view returns (uint256) {... */\n    tag_144:\n        /* \"@openzeppelin/contracts/utils/Counters.sol\":892:899  uint256 */\n      0x00\n        /* \"@openzeppelin/contracts/utils/Counters.sol\":918:925  counter */\n      dup2\n        /* \"@openzeppelin/contracts/utils/Counters.sol\":918:932  counter._value */\n      0x00\n      add\n      sload\n        /* \"@openzeppelin/contracts/utils/Counters.sol\":911:932  return counter._value */\n      swap1\n      pop\n        /* \"@openzeppelin/contracts/utils/Counters.sol\":827:939  function current(Counter storage counter) internal view returns (uint256) {... */\n      swap2\n      swap1\n      pop\n      jump\t// out\n        /* \"@openzeppelin/contracts/token/ERC721/ERC721.sol\":9078:9505  function _mint(address to, uint256 tokenId) internal virtual {... */\n    tag_146:\n        /* \"@openzeppelin/contracts/token/ERC721/ERC721.sol\":9171:9172  0 */\n      0x00\n        /* \"@openzeppelin/contracts/token/ERC721/ERC721.sol\":9157:9173  to != address(0) */\n      0xffffffffffffffffffffffffffffffffffffffff\n      and\n        /* \"@openzeppelin/contracts/token/ERC721/ERC721.sol\":9157:9159  to */\n      dup3\n        /* \"@openzeppelin/contracts/token/ERC721/ERC721.sol\":9157:9173  to != address(0) */\n      0xffffffffffffffffffffffffffffffffffffffff\n      and\n      eq\n      iszero\n        /* \"@openzeppelin/contracts/token/ERC721/ERC721.sol\":9149:9210  require(to != address(0), \"ERC721: mint to the zero address\") */\n      tag_202\n      jumpi\n      mload(0x40)\n      0x08c379a000000000000000000000000000000000000000000000000000000000\n      dup2\n      mstore\n      0x04\n      add\n      tag_203\n      swap1\n      tag_204\n      jump\t// in\n    tag_203:\n      mload(0x40)\n      dup1\n      swap2\n      sub\n      swap1\n      revert\n    tag_202:\n        /* \"@openzeppelin/contracts/token/ERC721/ERC721.sol\":9229:9245  _exists(tokenId) */\n      tag_205\n        /* \"@openzeppelin/contracts/token/ERC721/ERC721.sol\":9237:9244  tokenId */\n      dup2\n        /* \"@openzeppelin/contracts/token/ERC721/ERC721.sol\":9229:9236  _exists */\n      tag_96\n        /* \"@openzeppelin/contracts/token/ERC721/ERC721.sol\":9229:9245  _exists(tokenId) */\n      jump\t// in\n    tag_205:\n        /* \"@openzeppelin/contracts/token/ERC721/ERC721.sol\":9228:9245  !_exists(tokenId) */\n      iszero\n        /* \"@openzeppelin/contracts/token/ERC721/ERC721.sol\":9220:9278  require(!_exists(tokenId), \"ERC721: token already minted\") */\n      tag_206\n      jumpi\n      mload(0x40)\n      0x08c379a000000000000000000000000000000000000000000000000000000000\n      dup2\n      mstore\n      0x04\n      add\n      tag_207\n      swap1\n      tag_208\n      jump\t// in\n    tag_207:\n      mload(0x40)\n      dup1\n      swap2\n      sub\n      swap1\n      revert\n    tag_206:\n        /* \"@openzeppelin/contracts/token/ERC721/ERC721.sol\":9289:9334  _beforeTokenTransfer(address(0), to, tokenId) */\n      tag_209\n        /* \"@openzeppelin/contracts/token/ERC721/ERC721.sol\":9318:9319  0 */\n      0x00\n        /* \"@openzeppelin/contracts/token/ERC721/ERC721.sol\":9322:9324  to */\n      dup4\n        /* \"@openzeppelin/contracts/token/ERC721/ERC721.sol\":9326:9333  tokenId */\n      dup4\n        /* \"@openzeppelin/contracts/token/ERC721/ERC721.sol\":9289:9309  _beforeTokenTransfer */\n      tag_191\n        /* \"@openzeppelin/contracts/token/ERC721/ERC721.sol\":9289:9334  _beforeTokenTransfer(address(0), to, tokenId) */\n      jump\t// in\n    tag_209:\n        /* \"@openzeppelin/contracts/token/ERC721/ERC721.sol\":9362:9363  1 */\n      0x01\n        /* \"@openzeppelin/contracts/token/ERC721/ERC721.sol\":9345:9354  _balances */\n      0x03\n        /* \"@openzeppelin/contracts/token/ERC721/ERC721.sol\":9345:9358  _balances[to] */\n      0x00\n        /* \"@openzeppelin/contracts/token/ERC721/ERC721.sol\":9355:9357  to */\n      dup5\n        /* \"@openzeppelin/contracts/token/ERC721/ERC721.sol\":9345:9358  _balances[to] */\n      0xffffffffffffffffffffffffffffffffffffffff\n      and\n      0xffffffffffffffffffffffffffffffffffffffff\n      and\n      dup2\n      mstore\n      0x20\n      add\n      swap1\n      dup2\n      mstore\n      0x20\n      add\n      0x00\n      keccak256\n      0x00\n        /* \"@openzeppelin/contracts/token/ERC721/ERC721.sol\":9345:9363  _balances[to] += 1 */\n      dup3\n      dup3\n      sload\n      tag_210\n      swap2\n      swap1\n      tag_196\n      jump\t// in\n    tag_210:\n      swap3\n      pop\n      pop\n      dup2\n      swap1\n      sstore\n      pop\n        /* \"@openzeppelin/contracts/token/ERC721/ERC721.sol\":9392:9394  to */\n      dup2\n        /* \"@openzeppelin/contracts/token/ERC721/ERC721.sol\":9373:9380  _owners */\n      0x02\n        /* \"@openzeppelin/contracts/token/ERC721/ERC721.sol\":9373:9389  _owners[tokenId] */\n      0x00\n        /* \"@openzeppelin/contracts/token/ERC721/ERC721.sol\":9381:9388  tokenId */\n      dup4\n        /* \"@openzeppelin/contracts/token/ERC721/ERC721.sol\":9373:9389  _owners[tokenId] */\n      dup2\n      mstore\n      0x20\n      add\n      swap1\n      dup2\n      mstore\n      0x20\n      add\n      0x00\n      keccak256\n      0x00\n        /* \"@openzeppelin/contracts/token/ERC721/ERC721.sol\":9373:9394  _owners[tokenId] = to */\n      0x0100\n      exp\n      dup2\n      sload\n      dup2\n      0xffffffffffffffffffffffffffffffffffffffff\n      mul\n      not\n      and\n      swap1\n      dup4\n      0xffffffffffffffffffffffffffffffffffffffff\n      and\n      mul\n      or\n      swap1\n      sstore\n      pop\n        /* \"@openzeppelin/contracts/token/ERC721/ERC721.sol\":9435:9442  tokenId */\n      dup1\n        /* \"@openzeppelin/contracts/token/ERC721/ERC721.sol\":9431:9433  to */\n      dup3\n        /* \"@openzeppelin/contracts/token/ERC721/ERC721.sol\":9410:9443  Transfer(address(0), to, tokenId) */\n      0xffffffffffffffffffffffffffffffffffffffff\n      and\n        /* \"@openzeppelin/contracts/token/ERC721/ERC721.sol\":9427:9428  0 */\n      0x00\n        /* \"@openzeppelin/contracts/token/ERC721/ERC721.sol\":9410:9443  Transfer(address(0), to, tokenId) */\n      0xffffffffffffffffffffffffffffffffffffffff\n      and\n      0xddf252ad1be2c89b69c2b068fc378daa952ba7f163c4a11628f55a4df523b3ef\n      mload(0x40)\n      mload(0x40)\n      dup1\n      swap2\n      sub\n      swap1\n      log4\n        /* \"@openzeppelin/contracts/token/ERC721/ERC721.sol\":9454:9498  _afterTokenTransfer(address(0), to, tokenId) */\n      tag_211\n        /* \"@openzeppelin/contracts/token/ERC721/ERC721.sol\":9482:9483  0 */\n      0x00\n        /* \"@openzeppelin/contracts/token/ERC721/ERC721.sol\":9486:9488  to */\n      dup4\n        /* \"@openzeppelin/contracts/token/ERC721/ERC721.sol\":9490:9497  tokenId */\n      dup4\n        /* \"@openzeppelin/contracts/token/ERC721/ERC721.sol\":9454:9473  _afterTokenTransfer */\n      tag_198\n        /* \"@openzeppelin/contracts/token/ERC721/ERC721.sol\":9454:9498  _afterTokenTransfer(address(0), to, tokenId) */\n      jump\t// in\n    tag_211:\n        /* \"@openzeppelin/contracts/token/ERC721/ERC721.sol\":9078:9505  function _mint(address to, uint256 tokenId) internal virtual {... */\n      pop\n      pop\n      jump\t// out\n        /* \"@openzeppelin/contracts/token/ERC721/ERC721.sol\":11474:11781  function _setApprovalForAll(... */\n    tag_152:\n        /* \"@openzeppelin/contracts/token/ERC721/ERC721.sol\":11624:11632  operator */\n      dup2\n        /* \"@openzeppelin/contracts/token/ERC721/ERC721.sol\":11615:11632  owner != operator */\n      0xffffffffffffffffffffffffffffffffffffffff\n      and\n        /* \"@openzeppelin/contracts/token/ERC721/ERC721.sol\":11615:11620  owner */\n      dup4\n        /* \"@openzeppelin/contracts/token/ERC721/ERC721.sol\":11615:11632  owner != operator */\n      0xffffffffffffffffffffffffffffffffffffffff\n      and\n      eq\n      iszero\n        /* \"@openzeppelin/contracts/token/ERC721/ERC721.sol\":11607:11662  require(owner != operator, \"ERC721: approve to caller\") */\n      tag_213\n      jumpi\n      mload(0x40)\n      0x08c379a000000000000000000000000000000000000000000000000000000000\n      dup2\n      mstore\n      0x04\n      add\n      tag_214\n      swap1\n      tag_215\n      jump\t// in\n    tag_214:\n      mload(0x40)\n      dup1\n      swap2\n      sub\n      swap1\n      revert\n    tag_213:\n        /* \"@openzeppelin/contracts/token/ERC721/ERC721.sol\":11710:11718  approved */\n      dup1\n        /* \"@openzeppelin/contracts/token/ERC721/ERC721.sol\":11672:11690  _operatorApprovals */\n      0x05\n        /* \"@openzeppelin/contracts/token/ERC721/ERC721.sol\":11672:11697  _operatorApprovals[owner] */\n      0x00\n        /* \"@openzeppelin/contracts/token/ERC721/ERC721.sol\":11691:11696  owner */\n      dup6\n        /* \"@openzeppelin/contracts/token/ERC721/ERC721.sol\":11672:11697  _operatorApprovals[owner] */\n      0xffffffffffffffffffffffffffffffffffffffff\n      and\n      0xffffffffffffffffffffffffffffffffffffffff\n      and\n      dup2\n      mstore\n      0x20\n      add\n      swap1\n      dup2\n      mstore\n      0x20\n      add\n      0x00\n      keccak256\n        /* \"@openzeppelin/contracts/token/ERC721/ERC721.sol\":11672:11707  _operatorApprovals[owner][operator] */\n      0x00\n        /* \"@openzeppelin/contracts/token/ERC721/ERC721.sol\":11698:11706  operator */\n      dup5\n        /* \"@openzeppelin/contracts/token/ERC721/ERC721.sol\":11672:11707  _operatorApprovals[owner][operator] */\n      0xffffffffffffffffffffffffffffffffffffffff\n      and\n      0xffffffffffffffffffffffffffffffffffffffff\n      and\n      dup2\n      mstore\n      0x20\n      add\n      swap1\n      dup2\n      mstore\n      0x20\n      add\n      0x00\n      keccak256\n      0x00\n        /* \"@openzeppelin/contracts/token/ERC721/ERC721.sol\":11672:11718  _operatorApprovals[owner][operator] = approved */\n      0x0100\n      exp\n      dup2\n      sload\n      dup2\n      0xff\n      mul\n      not\n      and\n      swap1\n      dup4\n      iszero\n      iszero\n      mul\n      or\n      swap1\n      sstore\n      pop\n        /* \"@openzeppelin/contracts/token/ERC721/ERC721.sol\":11755:11763  operator */\n      dup2\n        /* \"@openzeppelin/contracts/token/ERC721/ERC721.sol\":11733:11774  ApprovalForAll(owner, operator, approved) */\n      0xffffffffffffffffffffffffffffffffffffffff\n      and\n        /* \"@openzeppelin/contracts/token/ERC721/ERC721.sol\":11748:11753  owner */\n      dup4\n        /* \"@openzeppelin/contracts/token/ERC721/ERC721.sol\":11733:11774  ApprovalForAll(owner, operator, approved) */\n      0xffffffffffffffffffffffffffffffffffffffff\n      and\n      0x17307eab39ab6107e8899845ad3d59bd9653f200f220920489ca2b5937696c31\n        /* \"@openzeppelin/contracts/token/ERC721/ERC721.sol\":11765:11773  approved */\n      dup4\n        /* \"@openzeppelin/contracts/token/ERC721/ERC721.sol\":11733:11774  ApprovalForAll(owner, operator, approved) */\n      mload(0x40)\n      tag_216\n      swap2\n      swap1\n      tag_25\n      jump\t// in\n    tag_216:\n      mload(0x40)\n      dup1\n      swap2\n      sub\n      swap1\n      log3\n        /* \"@openzeppelin/contracts/token/ERC721/ERC721.sol\":11474:11781  function _setApprovalForAll(... */\n      pop\n      pop\n      pop\n      jump\t// out\n        /* \"@openzeppelin/contracts/token/ERC721/ERC721.sol\":6549:6856  function _safeTransfer(... */\n    tag_159:\n        /* \"@openzeppelin/contracts/token/ERC721/ERC721.sol\":6700:6728  _transfer(from, to, tokenId) */\n      tag_218\n        /* \"@openzeppelin/contracts/token/ERC721/ERC721.sol\":6710:6714  from */\n      dup5\n        /* \"@openzeppelin/contracts/token/ERC721/ERC721.sol\":6716:6718  to */\n      dup5\n        /* \"@openzeppelin/contracts/token/ERC721/ERC721.sol\":6720:6727  tokenId */\n      dup5\n        /* \"@openzeppelin/contracts/token/ERC721/ERC721.sol\":6700:6709  _transfer */\n      tag_123\n        /* \"@openzeppelin/contracts/token/ERC721/ERC721.sol\":6700:6728  _transfer(from, to, tokenId) */\n      jump\t// in\n    tag_218:\n        /* \"@openzeppelin/contracts/token/ERC721/ERC721.sol\":6746:6794  _checkOnERC721Received(from, to, tokenId, _data) */\n      tag_219\n        /* \"@openzeppelin/contracts/token/ERC721/ERC721.sol\":6769:6773  from */\n      dup5\n        /* \"@openzeppelin/contracts/token/ERC721/ERC721.sol\":6775:6777  to */\n      dup5\n        /* \"@openzeppelin/contracts/token/ERC721/ERC721.sol\":6779:6786  tokenId */\n      dup5\n        /* \"@openzeppelin/contracts/token/ERC721/ERC721.sol\":6788:6793  _data */\n      dup5\n        /* \"@openzeppelin/contracts/token/ERC721/ERC721.sol\":6746:6768  _checkOnERC721Received */\n      tag_220\n        /* \"@openzeppelin/contracts/token/ERC721/ERC721.sol\":6746:6794  _checkOnERC721Received(from, to, tokenId, _data) */\n      jump\t// in\n    tag_219:\n        /* \"@openzeppelin/contracts/token/ERC721/ERC721.sol\":6738:6849  require(_checkOnERC721Received(from, to, tokenId, _data), \"ERC721: transfer to non ERC721Receiver implementer\") */\n      tag_221\n      jumpi\n      mload(0x40)\n      0x08c379a000000000000000000000000000000000000000000000000000000000\n      dup2\n      mstore\n      0x04\n      add\n      tag_222\n      swap1\n      tag_223\n      jump\t// in\n    tag_222:\n      mload(0x40)\n      dup1\n      swap2\n      sub\n      swap1\n      revert\n    tag_221:\n        /* \"@openzeppelin/contracts/token/ERC721/ERC721.sol\":6549:6856  function _safeTransfer(... */\n      pop\n      pop\n      pop\n      pop\n      jump\t// out\n        /* \"@openzeppelin/contracts/token/ERC721/ERC721.sol\":13668:13790  function _beforeTokenTransfer(... */\n    tag_191:\n      pop\n      pop\n      pop\n      jump\t// out\n        /* \"@openzeppelin/contracts/token/ERC721/ERC721.sol\":14162:14283  function _afterTokenTransfer(... */\n    tag_198:\n      pop\n      pop\n      pop\n      jump\t// out\n        /* \"@openzeppelin/contracts/token/ERC721/ERC721.sol\":12334:13112  function _checkOnERC721Received(... */\n    tag_220:\n        /* \"@openzeppelin/contracts/token/ERC721/ERC721.sol\":12484:12488  bool */\n      0x00\n        /* \"@openzeppelin/contracts/token/ERC721/ERC721.sol\":12504:12519  to.isContract() */\n      tag_227\n        /* \"@openzeppelin/contracts/token/ERC721/ERC721.sol\":12504:12506  to */\n      dup5\n        /* \"@openzeppelin/contracts/token/ERC721/ERC721.sol\":12504:12517  to.isContract */\n      0xffffffffffffffffffffffffffffffffffffffff\n      and\n      tag_228\n        /* \"@openzeppelin/contracts/token/ERC721/ERC721.sol\":12504:12519  to.isContract() */\n      jump\t// in\n    tag_227:\n        /* \"@openzeppelin/contracts/token/ERC721/ERC721.sol\":12500:13106  if (to.isContract()) {... */\n      iszero\n      tag_229\n      jumpi\n        /* \"@openzeppelin/contracts/token/ERC721/ERC721.sol\":12555:12557  to */\n      dup4\n        /* \"@openzeppelin/contracts/token/ERC721/ERC721.sol\":12539:12575  IERC721Receiver(to).onERC721Received */\n      0xffffffffffffffffffffffffffffffffffffffff\n      and\n      0x150b7a02\n        /* \"@openzeppelin/contracts/token/ERC721/ERC721.sol\":12576:12588  _msgSender() */\n      tag_230\n        /* \"@openzeppelin/contracts/token/ERC721/ERC721.sol\":12576:12586  _msgSender */\n      tag_106\n        /* \"@openzeppelin/contracts/token/ERC721/ERC721.sol\":12576:12588  _msgSender() */\n      jump\t// in\n    tag_230:\n        /* \"@openzeppelin/contracts/token/ERC721/ERC721.sol\":12590:12594  from */\n      dup8\n        /* \"@openzeppelin/contracts/token/ERC721/ERC721.sol\":12596:12603  tokenId */\n      dup7\n        /* \"@openzeppelin/contracts/token/ERC721/ERC721.sol\":12605:12610  _data */\n      dup7\n        /* \"@openzeppelin/contracts/token/ERC721/ERC721.sol\":12539:12611  IERC721Receiver(to).onERC721Received(_msgSender(), from, tokenId, _data) */\n      mload(0x40)\n      dup6\n      0xffffffff\n      and\n      0xe0\n      shl\n      dup2\n      mstore\n      0x04\n      add\n      tag_231\n      swap5\n      swap4\n      swap3\n      swap2\n      swap1\n      tag_232\n      jump\t// in\n    tag_231:\n      0x20\n      mload(0x40)\n      dup1\n      dup4\n      sub\n      dup2\n      0x00\n      dup8\n      dup1\n      extcodesize\n      iszero\n      dup1\n      iszero\n      tag_233\n      jumpi\n      0x00\n      dup1\n      revert\n    tag_233:\n      pop\n      gas\n      call\n      swap3\n      pop\n      pop\n      pop\n      dup1\n      iszero\n      tag_234\n      jumpi\n      pop\n      mload(0x40)\n      returndatasize\n      not(0x1f)\n      0x1f\n      dup3\n      add\n      and\n      dup3\n      add\n      dup1\n      0x40\n      mstore\n      pop\n      dup2\n      add\n      swap1\n      tag_235\n      swap2\n      swap1\n      tag_236\n      jump\t// in\n    tag_235:\n      0x01\n    tag_234:\n        /* \"@openzeppelin/contracts/token/ERC721/ERC721.sol\":12535:13054  try IERC721Receiver(to).onERC721Received(_msgSender(), from, tokenId, _data) returns (bytes4 retval) {... */\n      tag_237\n      jumpi\n      returndatasize\n      dup1\n      0x00\n      dup2\n      eq\n      tag_242\n      jumpi\n      mload(0x40)\n      swap2\n      pop\n      and(add(returndatasize, 0x3f), not(0x1f))\n      dup3\n      add\n      0x40\n      mstore\n      returndatasize\n      dup3\n      mstore\n      returndatasize\n      0x00\n      0x20\n      dup5\n      add\n      returndatacopy\n      jump(tag_241)\n    tag_242:\n      0x60\n      swap2\n      pop\n    tag_241:\n      pop\n        /* \"@openzeppelin/contracts/token/ERC721/ERC721.sol\":12795:12796  0 */\n      0x00\n        /* \"@openzeppelin/contracts/token/ERC721/ERC721.sol\":12778:12784  reason */\n      dup2\n        /* \"@openzeppelin/contracts/token/ERC721/ERC721.sol\":12778:12791  reason.length */\n      mload\n        /* \"@openzeppelin/contracts/token/ERC721/ERC721.sol\":12778:12796  reason.length == 0 */\n      eq\n        /* \"@openzeppelin/contracts/token/ERC721/ERC721.sol\":12774:13040  if (reason.length == 0) {... */\n      iszero\n      tag_243\n      jumpi\n        /* \"@openzeppelin/contracts/token/ERC721/ERC721.sol\":12820:12880  revert(\"ERC721: transfer to non ERC721Receiver implementer\") */\n      mload(0x40)\n      0x08c379a000000000000000000000000000000000000000000000000000000000\n      dup2\n      mstore\n      0x04\n      add\n      tag_244\n      swap1\n      tag_223\n      jump\t// in\n    tag_244:\n      mload(0x40)\n      dup1\n      swap2\n      sub\n      swap1\n      revert\n        /* \"@openzeppelin/contracts/token/ERC721/ERC721.sol\":12774:13040  if (reason.length == 0) {... */\n    tag_243:\n        /* \"@openzeppelin/contracts/token/ERC721/ERC721.sol\":12992:12998  reason */\n      dup1\n        /* \"@openzeppelin/contracts/token/ERC721/ERC721.sol\":12986:12999  mload(reason) */\n      mload\n        /* \"@openzeppelin/contracts/token/ERC721/ERC721.sol\":12977:12983  reason */\n      dup2\n        /* \"@openzeppelin/contracts/token/ERC721/ERC721.sol\":12973:12975  32 */\n      0x20\n        /* \"@openzeppelin/contracts/token/ERC721/ERC721.sol\":12969:12984  add(32, reason) */\n      add\n        /* \"@openzeppelin/contracts/token/ERC721/ERC721.sol\":12962:13000  revert(add(32, reason), mload(reason)) */\n      revert\n        /* \"@openzeppelin/contracts/token/ERC721/ERC721.sol\":12535:13054  try IERC721Receiver(to).onERC721Received(_msgSender(), from, tokenId, _data) returns (bytes4 retval) {... */\n    tag_237:\n        /* \"@openzeppelin/contracts/token/ERC721/ERC721.sol\":12671:12712  IERC721Receiver.onERC721Received.selector */\n      shl(0xe0, 0x150b7a02)\n        /* \"@openzeppelin/contracts/token/ERC721/ERC721.sol\":12661:12712  retval == IERC721Receiver.onERC721Received.selector */\n      not(0xffffffffffffffffffffffffffffffffffffffffffffffffffffffff)\n      and\n        /* \"@openzeppelin/contracts/token/ERC721/ERC721.sol\":12661:12667  retval */\n      dup2\n        /* \"@openzeppelin/contracts/token/ERC721/ERC721.sol\":12661:12712  retval == IERC721Receiver.onERC721Received.selector */\n      not(0xffffffffffffffffffffffffffffffffffffffffffffffffffffffff)\n      and\n      eq\n        /* \"@openzeppelin/contracts/token/ERC721/ERC721.sol\":12654:12712  return retval == IERC721Receiver.onERC721Received.selector */\n      swap2\n      pop\n      pop\n      jump(tag_226)\n        /* \"@openzeppelin/contracts/token/ERC721/ERC721.sol\":12500:13106  if (to.isContract()) {... */\n    tag_229:\n        /* \"@openzeppelin/contracts/token/ERC721/ERC721.sol\":13091:13095  true */\n      0x01\n        /* \"@openzeppelin/contracts/token/ERC721/ERC721.sol\":13084:13095  return true */\n      swap1\n      pop\n        /* \"@openzeppelin/contracts/token/ERC721/ERC721.sol\":12334:13112  function _checkOnERC721Received(... */\n    tag_226:\n      swap5\n      swap4\n      pop\n      pop\n      pop\n      pop\n      jump\t// out\n        /* \"@openzeppelin/contracts/utils/Address.sol\":1175:1495  function isContract(address account) internal view returns (bool) {... */\n    tag_228:\n        /* \"@openzeppelin/contracts/utils/Address.sol\":1235:1239  bool */\n      0x00\n        /* \"@openzeppelin/contracts/utils/Address.sol\":1487:1488  0 */\n      dup1\n        /* \"@openzeppelin/contracts/utils/Address.sol\":1465:1472  account */\n      dup3\n        /* \"@openzeppelin/contracts/utils/Address.sol\":1465:1484  account.code.length */\n      0xffffffffffffffffffffffffffffffffffffffff\n      and\n      extcodesize\n        /* \"@openzeppelin/contracts/utils/Address.sol\":1465:1488  account.code.length > 0 */\n      gt\n        /* \"@openzeppelin/contracts/utils/Address.sol\":1458:1488  return account.code.length > 0 */\n      swap1\n      pop\n        /* \"@openzeppelin/contracts/utils/Address.sol\":1175:1495  function isContract(address account) internal view returns (bool) {... */\n      swap2\n      swap1\n      pop\n      jump\t// out\n    tag_148:\n      dup3\n      dup1\n      sload\n      tag_249\n      swap1\n      tag_89\n      jump\t// in\n    tag_249:\n      swap1\n      0x00\n      mstore\n      keccak256(0x00, 0x20)\n      swap1\n      0x1f\n      add\n      0x20\n      swap1\n      div\n      dup2\n      add\n      swap3\n      dup3\n      tag_251\n      jumpi\n      0x00\n      dup6\n      sstore\n      jump(tag_250)\n    tag_251:\n      dup3\n      0x1f\n      lt\n      tag_252\n      jumpi\n      dup1\n      mload\n      not(0xff)\n      and\n      dup4\n      dup1\n      add\n      or\n      dup6\n      sstore\n      jump(tag_250)\n    tag_252:\n      dup3\n      dup1\n      add\n      0x01\n      add\n      dup6\n      sstore\n      dup3\n      iszero\n      tag_250\n      jumpi\n      swap2\n      dup3\n      add\n    tag_253:\n      dup3\n      dup2\n      gt\n      iszero\n      tag_254\n      jumpi\n      dup3\n      mload\n      dup3\n      sstore\n      swap2\n      0x20\n      add\n      swap2\n      swap1\n      0x01\n      add\n      swap1\n      jump(tag_253)\n    tag_254:\n    tag_250:\n      pop\n      swap1\n      pop\n      tag_255\n      swap2\n      swap1\n      tag_256\n      jump\t// in\n    tag_255:\n      pop\n      swap1\n      jump\t// out\n    tag_256:\n    tag_257:\n      dup1\n      dup3\n      gt\n      iszero\n      tag_258\n      jumpi\n      0x00\n      dup2\n      0x00\n      swap1\n      sstore\n      pop\n      0x01\n      add\n      jump(tag_257)\n    tag_258:\n      pop\n      swap1\n      jump\t// out\n        /* \"#utility.yul\":7:417   */\n    tag_260:\n        /* \"#utility.yul\":84:89   */\n      0x00\n        /* \"#utility.yul\":109:174   */\n      tag_262\n        /* \"#utility.yul\":125:173   */\n      tag_263\n        /* \"#utility.yul\":166:172   */\n      dup5\n        /* \"#utility.yul\":125:173   */\n      tag_264\n      jump\t// in\n    tag_263:\n        /* \"#utility.yul\":109:174   */\n      tag_265\n      jump\t// in\n    tag_262:\n        /* \"#utility.yul\":100:174   */\n      swap1\n      pop\n        /* \"#utility.yul\":197:203   */\n      dup3\n        /* \"#utility.yul\":190:195   */\n      dup2\n        /* \"#utility.yul\":183:204   */\n      mstore\n        /* \"#utility.yul\":235:239   */\n      0x20\n        /* \"#utility.yul\":228:233   */\n      dup2\n        /* \"#utility.yul\":224:240   */\n      add\n        /* \"#utility.yul\":273:276   */\n      dup5\n        /* \"#utility.yul\":264:270   */\n      dup5\n        /* \"#utility.yul\":259:262   */\n      dup5\n        /* \"#utility.yul\":255:271   */\n      add\n        /* \"#utility.yul\":252:277   */\n      gt\n        /* \"#utility.yul\":249:361   */\n      iszero\n      tag_266\n      jumpi\n        /* \"#utility.yul\":280:359   */\n      tag_267\n      tag_268\n      jump\t// in\n    tag_267:\n        /* \"#utility.yul\":249:361   */\n    tag_266:\n        /* \"#utility.yul\":370:411   */\n      tag_269\n        /* \"#utility.yul\":404:410   */\n      dup5\n        /* \"#utility.yul\":399:402   */\n      dup3\n        /* \"#utility.yul\":394:397   */\n      dup6\n        /* \"#utility.yul\":370:411   */\n      tag_270\n      jump\t// in\n    tag_269:\n        /* \"#utility.yul\":90:417   */\n      pop\n        /* \"#utility.yul\":7:417   */\n      swap4\n      swap3\n      pop\n      pop\n      pop\n      jump\t// out\n        /* \"#utility.yul\":423:835   */\n    tag_271:\n        /* \"#utility.yul\":501:506   */\n      0x00\n        /* \"#utility.yul\":526:592   */\n      tag_273\n        /* \"#utility.yul\":542:591   */\n      tag_274\n        /* \"#utility.yul\":584:590   */\n      dup5\n        /* \"#utility.yul\":542:591   */\n      tag_275\n      jump\t// in\n    tag_274:\n        /* \"#utility.yul\":526:592   */\n      tag_265\n      jump\t// in\n    tag_273:\n        /* \"#utility.yul\":517:592   */\n      swap1\n      pop\n        /* \"#utility.yul\":615:621   */\n      dup3\n        /* \"#utility.yul\":608:613   */\n      dup2\n        /* \"#utility.yul\":601:622   */\n      mstore\n        /* \"#utility.yul\":653:657   */\n      0x20\n        /* \"#utility.yul\":646:651   */\n      dup2\n        /* \"#utility.yul\":642:658   */\n      add\n        /* \"#utility.yul\":691:694   */\n      dup5\n        /* \"#utility.yul\":682:688   */\n      dup5\n        /* \"#utility.yul\":677:680   */\n      dup5\n        /* \"#utility.yul\":673:689   */\n      add\n        /* \"#utility.yul\":670:695   */\n      gt\n        /* \"#utility.yul\":667:779   */\n      iszero\n      tag_276\n      jumpi\n        /* \"#utility.yul\":698:777   */\n      tag_277\n      tag_268\n      jump\t// in\n    tag_277:\n        /* \"#utility.yul\":667:779   */\n    tag_276:\n        /* \"#utility.yul\":788:829   */\n      tag_278\n        /* \"#utility.yul\":822:828   */\n      dup5\n        /* \"#utility.yul\":817:820   */\n      dup3\n        /* \"#utility.yul\":812:815   */\n      dup6\n        /* \"#utility.yul\":788:829   */\n      tag_270\n      jump\t// in\n    tag_278:\n        /* \"#utility.yul\":507:835   */\n      pop\n        /* \"#utility.yul\":423:835   */\n      swap4\n      swap3\n      pop\n      pop\n      pop\n      jump\t// out\n        /* \"#utility.yul\":841:980   */\n    tag_279:\n        /* \"#utility.yul\":887:892   */\n      0x00\n        /* \"#utility.yul\":925:931   */\n      dup2\n        /* \"#utility.yul\":912:932   */\n      calldataload\n        /* \"#utility.yul\":903:932   */\n      swap1\n      pop\n        /* \"#utility.yul\":941:974   */\n      tag_281\n        /* \"#utility.yul\":968:973   */\n      dup2\n        /* \"#utility.yul\":941:974   */\n      tag_282\n      jump\t// in\n    tag_281:\n        /* \"#utility.yul\":841:980   */\n      swap3\n      swap2\n      pop\n      pop\n      jump\t// out\n        /* \"#utility.yul\":986:1119   */\n    tag_283:\n        /* \"#utility.yul\":1029:1034   */\n      0x00\n        /* \"#utility.yul\":1067:1073   */\n      dup2\n        /* \"#utility.yul\":1054:1074   */\n      calldataload\n        /* \"#utility.yul\":1045:1074   */\n      swap1\n      pop\n        /* \"#utility.yul\":1083:1113   */\n      tag_285\n        /* \"#utility.yul\":1107:1112   */\n      dup2\n        /* \"#utility.yul\":1083:1113   */\n      tag_286\n      jump\t// in\n    tag_285:\n        /* \"#utility.yul\":986:1119   */\n      swap3\n      swap2\n      pop\n      pop\n      jump\t// out\n        /* \"#utility.yul\":1125:1262   */\n    tag_287:\n        /* \"#utility.yul\":1170:1175   */\n      0x00\n        /* \"#utility.yul\":1208:1214   */\n      dup2\n        /* \"#utility.yul\":1195:1215   */\n      calldataload\n        /* \"#utility.yul\":1186:1215   */\n      swap1\n      pop\n        /* \"#utility.yul\":1224:1256   */\n      tag_289\n        /* \"#utility.yul\":1250:1255   */\n      dup2\n        /* \"#utility.yul\":1224:1256   */\n      tag_290\n      jump\t// in\n    tag_289:\n        /* \"#utility.yul\":1125:1262   */\n      swap3\n      swap2\n      pop\n      pop\n      jump\t// out\n        /* \"#utility.yul\":1268:1409   */\n    tag_291:\n        /* \"#utility.yul\":1324:1329   */\n      0x00\n        /* \"#utility.yul\":1355:1361   */\n      dup2\n        /* \"#utility.yul\":1349:1362   */\n      mload\n        /* \"#utility.yul\":1340:1362   */\n      swap1\n      pop\n        /* \"#utility.yul\":1371:1403   */\n      tag_293\n        /* \"#utility.yul\":1397:1402   */\n      dup2\n        /* \"#utility.yul\":1371:1403   */\n      tag_290\n      jump\t// in\n    tag_293:\n        /* \"#utility.yul\":1268:1409   */\n      swap3\n      swap2\n      pop\n      pop\n      jump\t// out\n        /* \"#utility.yul\":1428:1766   */\n    tag_294:\n        /* \"#utility.yul\":1483:1488   */\n      0x00\n        /* \"#utility.yul\":1532:1535   */\n      dup3\n        /* \"#utility.yul\":1525:1529   */\n      0x1f\n        /* \"#utility.yul\":1517:1523   */\n      dup4\n        /* \"#utility.yul\":1513:1530   */\n      add\n        /* \"#utility.yul\":1509:1536   */\n      slt\n        /* \"#utility.yul\":1499:1621   */\n      tag_296\n      jumpi\n        /* \"#utility.yul\":1540:1619   */\n      tag_297\n      tag_298\n      jump\t// in\n    tag_297:\n        /* \"#utility.yul\":1499:1621   */\n    tag_296:\n        /* \"#utility.yul\":1657:1663   */\n      dup2\n        /* \"#utility.yul\":1644:1664   */\n      calldataload\n        /* \"#utility.yul\":1682:1760   */\n      tag_299\n        /* \"#utility.yul\":1756:1759   */\n      dup5\n        /* \"#utility.yul\":1748:1754   */\n      dup3\n        /* \"#utility.yul\":1741:1745   */\n      0x20\n        /* \"#utility.yul\":1733:1739   */\n      dup7\n        /* \"#utility.yul\":1729:1746   */\n      add\n        /* \"#utility.yul\":1682:1760   */\n      tag_260\n      jump\t// in\n    tag_299:\n        /* \"#utility.yul\":1673:1760   */\n      swap2\n      pop\n        /* \"#utility.yul\":1489:1766   */\n      pop\n        /* \"#utility.yul\":1428:1766   */\n      swap3\n      swap2\n      pop\n      pop\n      jump\t// out\n        /* \"#utility.yul\":1786:2126   */\n    tag_300:\n        /* \"#utility.yul\":1842:1847   */\n      0x00\n        /* \"#utility.yul\":1891:1894   */\n      dup3\n        /* \"#utility.yul\":1884:1888   */\n      0x1f\n        /* \"#utility.yul\":1876:1882   */\n      dup4\n        /* \"#utility.yul\":1872:1889   */\n      add\n        /* \"#utility.yul\":1868:1895   */\n      slt\n        /* \"#utility.yul\":1858:1980   */\n      tag_302\n      jumpi\n        /* \"#utility.yul\":1899:1978   */\n      tag_303\n      tag_298\n      jump\t// in\n    tag_303:\n        /* \"#utility.yul\":1858:1980   */\n    tag_302:\n        /* \"#utility.yul\":2016:2022   */\n      dup2\n        /* \"#utility.yul\":2003:2023   */\n      calldataload\n        /* \"#utility.yul\":2041:2120   */\n      tag_304\n        /* \"#utility.yul\":2116:2119   */\n      dup5\n        /* \"#utility.yul\":2108:2114   */\n      dup3\n        /* \"#utility.yul\":2101:2105   */\n      0x20\n        /* \"#utility.yul\":2093:2099   */\n      dup7\n        /* \"#utility.yul\":2089:2106   */\n      add\n        /* \"#utility.yul\":2041:2120   */\n      tag_271\n      jump\t// in\n    tag_304:\n        /* \"#utility.yul\":2032:2120   */\n      swap2\n      pop\n        /* \"#utility.yul\":1848:2126   */\n      pop\n        /* \"#utility.yul\":1786:2126   */\n      swap3\n      swap2\n      pop\n      pop\n      jump\t// out\n        /* \"#utility.yul\":2132:2271   */\n    tag_305:\n        /* \"#utility.yul\":2178:2183   */\n      0x00\n        /* \"#utility.yul\":2216:2222   */\n      dup2\n        /* \"#utility.yul\":2203:2223   */\n      calldataload\n        /* \"#utility.yul\":2194:2223   */\n      swap1\n      pop\n        /* \"#utility.yul\":2232:2265   */\n      tag_307\n        /* \"#utility.yul\":2259:2264   */\n      dup2\n        /* \"#utility.yul\":2232:2265   */\n      tag_308\n      jump\t// in\n    tag_307:\n        /* \"#utility.yul\":2132:2271   */\n      swap3\n      swap2\n      pop\n      pop\n      jump\t// out\n        /* \"#utility.yul\":2277:2606   */\n    tag_53:\n        /* \"#utility.yul\":2336:2342   */\n      0x00\n        /* \"#utility.yul\":2385:2387   */\n      0x20\n        /* \"#utility.yul\":2373:2382   */\n      dup3\n        /* \"#utility.yul\":2364:2371   */\n      dup5\n        /* \"#utility.yul\":2360:2383   */\n      sub\n        /* \"#utility.yul\":2356:2388   */\n      slt\n        /* \"#utility.yul\":2353:2472   */\n      iszero\n      tag_310\n      jumpi\n        /* \"#utility.yul\":2391:2470   */\n      tag_311\n      tag_312\n      jump\t// in\n    tag_311:\n        /* \"#utility.yul\":2353:2472   */\n    tag_310:\n        /* \"#utility.yul\":2511:2512   */\n      0x00\n        /* \"#utility.yul\":2536:2589   */\n      tag_313\n        /* \"#utility.yul\":2581:2588   */\n      dup5\n        /* \"#utility.yul\":2572:2578   */\n      dup3\n        /* \"#utility.yul\":2561:2570   */\n      dup6\n        /* \"#utility.yul\":2557:2579   */\n      add\n        /* \"#utility.yul\":2536:2589   */\n      tag_279\n      jump\t// in\n    tag_313:\n        /* \"#utility.yul\":2526:2589   */\n      swap2\n      pop\n        /* \"#utility.yul\":2482:2599   */\n      pop\n        /* \"#utility.yul\":2277:2606   */\n      swap3\n      swap2\n      pop\n      pop\n      jump\t// out\n        /* \"#utility.yul\":2612:3086   */\n    tag_79:\n        /* \"#utility.yul\":2680:2686   */\n      0x00\n        /* \"#utility.yul\":2688:2694   */\n      dup1\n        /* \"#utility.yul\":2737:2739   */\n      0x40\n        /* \"#utility.yul\":2725:2734   */\n      dup4\n        /* \"#utility.yul\":2716:2723   */\n      dup6\n        /* \"#utility.yul\":2712:2735   */\n      sub\n        /* \"#utility.yul\":2708:2740   */\n      slt\n        /* \"#utility.yul\":2705:2824   */\n      iszero\n      tag_315\n      jumpi\n        /* \"#utility.yul\":2743:2822   */\n      tag_316\n      tag_312\n      jump\t// in\n    tag_316:\n        /* \"#utility.yul\":2705:2824   */\n    tag_315:\n        /* \"#utility.yul\":2863:2864   */\n      0x00\n        /* \"#utility.yul\":2888:2941   */\n      tag_317\n        /* \"#utility.yul\":2933:2940   */\n      dup6\n        /* \"#utility.yul\":2924:2930   */\n      dup3\n        /* \"#utility.yul\":2913:2922   */\n      dup7\n        /* \"#utility.yul\":2909:2931   */\n      add\n        /* \"#utility.yul\":2888:2941   */\n      tag_279\n      jump\t// in\n    tag_317:\n        /* \"#utility.yul\":2878:2941   */\n      swap3\n      pop\n        /* \"#utility.yul\":2834:2951   */\n      pop\n        /* \"#utility.yul\":2990:2992   */\n      0x20\n        /* \"#utility.yul\":3016:3069   */\n      tag_318\n        /* \"#utility.yul\":3061:3068   */\n      dup6\n        /* \"#utility.yul\":3052:3058   */\n      dup3\n        /* \"#utility.yul\":3041:3050   */\n      dup7\n        /* \"#utility.yul\":3037:3059   */\n      add\n        /* \"#utility.yul\":3016:3069   */\n      tag_279\n      jump\t// in\n    tag_318:\n        /* \"#utility.yul\":3006:3069   */\n      swap2\n      pop\n        /* \"#utility.yul\":2961:3079   */\n      pop\n        /* \"#utility.yul\":2612:3086   */\n      swap3\n      pop\n      swap3\n      swap1\n      pop\n      jump\t// out\n        /* \"#utility.yul\":3092:3711   */\n    tag_42:\n        /* \"#utility.yul\":3169:3175   */\n      0x00\n        /* \"#utility.yul\":3177:3183   */\n      dup1\n        /* \"#utility.yul\":3185:3191   */\n      0x00\n        /* \"#utility.yul\":3234:3236   */\n      0x60\n        /* \"#utility.yul\":3222:3231   */\n      dup5\n        /* \"#utility.yul\":3213:3220   */\n      dup7\n        /* \"#utility.yul\":3209:3232   */\n      sub\n        /* \"#utility.yul\":3205:3237   */\n      slt\n        /* \"#utility.yul\":3202:3321   */\n      iszero\n      tag_320\n      jumpi\n        /* \"#utility.yul\":3240:3319   */\n      tag_321\n      tag_312\n      jump\t// in\n    tag_321:\n        /* \"#utility.yul\":3202:3321   */\n    tag_320:\n        /* \"#utility.yul\":3360:3361   */\n      0x00\n        /* \"#utility.yul\":3385:3438   */\n      tag_322\n        /* \"#utility.yul\":3430:3437   */\n      dup7\n        /* \"#utility.yul\":3421:3427   */\n      dup3\n        /* \"#utility.yul\":3410:3419   */\n      dup8\n        /* \"#utility.yul\":3406:3428   */\n      add\n        /* \"#utility.yul\":3385:3438   */\n      tag_279\n      jump\t// in\n    tag_322:\n        /* \"#utility.yul\":3375:3438   */\n      swap4\n      pop\n        /* \"#utility.yul\":3331:3448   */\n      pop\n        /* \"#utility.yul\":3487:3489   */\n      0x20\n        /* \"#utility.yul\":3513:3566   */\n      tag_323\n        /* \"#utility.yul\":3558:3565   */\n      dup7\n        /* \"#utility.yul\":3549:3555   */\n      dup3\n        /* \"#utility.yul\":3538:3547   */\n      dup8\n        /* \"#utility.yul\":3534:3556   */\n      add\n        /* \"#utility.yul\":3513:3566   */\n      tag_279\n      jump\t// in\n    tag_323:\n        /* \"#utility.yul\":3503:3566   */\n      swap3\n      pop\n        /* \"#utility.yul\":3458:3576   */\n      pop\n        /* \"#utility.yul\":3615:3617   */\n      0x40\n        /* \"#utility.yul\":3641:3694   */\n      tag_324\n        /* \"#utility.yul\":3686:3693   */\n      dup7\n        /* \"#utility.yul\":3677:3683   */\n      dup3\n        /* \"#utility.yul\":3666:3675   */\n      dup8\n        /* \"#utility.yul\":3662:3684   */\n      add\n        /* \"#utility.yul\":3641:3694   */\n      tag_305\n      jump\t// in\n    tag_324:\n        /* \"#utility.yul\":3631:3694   */\n      swap2\n      pop\n        /* \"#utility.yul\":3586:3704   */\n      pop\n        /* \"#utility.yul\":3092:3711   */\n      swap3\n      pop\n      swap3\n      pop\n      swap3\n      jump\t// out\n        /* \"#utility.yul\":3717:4660   */\n    tag_71:\n        /* \"#utility.yul\":3812:3818   */\n      0x00\n        /* \"#utility.yul\":3820:3826   */\n      dup1\n        /* \"#utility.yul\":3828:3834   */\n      0x00\n        /* \"#utility.yul\":3836:3842   */\n      dup1\n        /* \"#utility.yul\":3885:3888   */\n      0x80\n        /* \"#utility.yul\":3873:3882   */\n      dup6\n        /* \"#utility.yul\":3864:3871   */\n      dup8\n        /* \"#utility.yul\":3860:3883   */\n      sub\n        /* \"#utility.yul\":3856:3889   */\n      slt\n        /* \"#utility.yul\":3853:3973   */\n      iszero\n      tag_326\n      jumpi\n        /* \"#utility.yul\":3892:3971   */\n      tag_327\n      tag_312\n      jump\t// in\n    tag_327:\n        /* \"#utility.yul\":3853:3973   */\n    tag_326:\n        /* \"#utility.yul\":4012:4013   */\n      0x00\n        /* \"#utility.yul\":4037:4090   */\n      tag_328\n        /* \"#utility.yul\":4082:4089   */\n      dup8\n        /* \"#utility.yul\":4073:4079   */\n      dup3\n        /* \"#utility.yul\":4062:4071   */\n      dup9\n        /* \"#utility.yul\":4058:4080   */\n      add\n        /* \"#utility.yul\":4037:4090   */\n      tag_279\n      jump\t// in\n    tag_328:\n        /* \"#utility.yul\":4027:4090   */\n      swap5\n      pop\n        /* \"#utility.yul\":3983:4100   */\n      pop\n        /* \"#utility.yul\":4139:4141   */\n      0x20\n        /* \"#utility.yul\":4165:4218   */\n      tag_329\n        /* \"#utility.yul\":4210:4217   */\n      dup8\n        /* \"#utility.yul\":4201:4207   */\n      dup3\n        /* \"#utility.yul\":4190:4199   */\n      dup9\n        /* \"#utility.yul\":4186:4208   */\n      add\n        /* \"#utility.yul\":4165:4218   */\n      tag_279\n      jump\t// in\n    tag_329:\n        /* \"#utility.yul\":4155:4218   */\n      swap4\n      pop\n        /* \"#utility.yul\":4110:4228   */\n      pop\n        /* \"#utility.yul\":4267:4269   */\n      0x40\n        /* \"#utility.yul\":4293:4346   */\n      tag_330\n        /* \"#utility.yul\":4338:4345   */\n      dup8\n        /* \"#utility.yul\":4329:4335   */\n      dup3\n        /* \"#utility.yul\":4318:4327   */\n      dup9\n        /* \"#utility.yul\":4314:4336   */\n      add\n        /* \"#utility.yul\":4293:4346   */\n      tag_305\n      jump\t// in\n    tag_330:\n        /* \"#utility.yul\":4283:4346   */\n      swap3\n      pop\n        /* \"#utility.yul\":4238:4356   */\n      pop\n        /* \"#utility.yul\":4423:4425   */\n      0x60\n        /* \"#utility.yul\":4412:4421   */\n      dup6\n        /* \"#utility.yul\":4408:4426   */\n      add\n        /* \"#utility.yul\":4395:4427   */\n      calldataload\n        /* \"#utility.yul\":4454:4472   */\n      0xffffffffffffffff\n        /* \"#utility.yul\":4446:4452   */\n      dup2\n        /* \"#utility.yul\":4443:4473   */\n      gt\n        /* \"#utility.yul\":4440:4557   */\n      iszero\n      tag_331\n      jumpi\n        /* \"#utility.yul\":4476:4555   */\n      tag_332\n      tag_333\n      jump\t// in\n    tag_332:\n        /* \"#utility.yul\":4440:4557   */\n    tag_331:\n        /* \"#utility.yul\":4581:4643   */\n      tag_334\n        /* \"#utility.yul\":4635:4642   */\n      dup8\n        /* \"#utility.yul\":4626:4632   */\n      dup3\n        /* \"#utility.yul\":4615:4624   */\n      dup9\n        /* \"#utility.yul\":4611:4633   */\n      add\n        /* \"#utility.yul\":4581:4643   */\n      tag_294\n      jump\t// in\n    tag_334:\n        /* \"#utility.yul\":4571:4643   */\n      swap2\n      pop\n        /* \"#utility.yul\":4366:4653   */\n      pop\n        /* \"#utility.yul\":3717:4660   */\n      swap3\n      swap6\n      swap2\n      swap5\n      pop\n      swap3\n      pop\n      jump\t// out\n        /* \"#utility.yul\":4666:5134   */\n    tag_67:\n        /* \"#utility.yul\":4731:4737   */\n      0x00\n        /* \"#utility.yul\":4739:4745   */\n      dup1\n        /* \"#utility.yul\":4788:4790   */\n      0x40\n        /* \"#utility.yul\":4776:4785   */\n      dup4\n        /* \"#utility.yul\":4767:4774   */\n      dup6\n        /* \"#utility.yul\":4763:4786   */\n      sub\n        /* \"#utility.yul\":4759:4791   */\n      slt\n        /* \"#utility.yul\":4756:4875   */\n      iszero\n      tag_336\n      jumpi\n        /* \"#utility.yul\":4794:4873   */\n      tag_337\n      tag_312\n      jump\t// in\n    tag_337:\n        /* \"#utility.yul\":4756:4875   */\n    tag_336:\n        /* \"#utility.yul\":4914:4915   */\n      0x00\n        /* \"#utility.yul\":4939:4992   */\n      tag_338\n        /* \"#utility.yul\":4984:4991   */\n      dup6\n        /* \"#utility.yul\":4975:4981   */\n      dup3\n        /* \"#utility.yul\":4964:4973   */\n      dup7\n        /* \"#utility.yul\":4960:4982   */\n      add\n        /* \"#utility.yul\":4939:4992   */\n      tag_279\n      jump\t// in\n    tag_338:\n        /* \"#utility.yul\":4929:4992   */\n      swap3\n      pop\n        /* \"#utility.yul\":4885:5002   */\n      pop\n        /* \"#utility.yul\":5041:5043   */\n      0x20\n        /* \"#utility.yul\":5067:5117   */\n      tag_339\n        /* \"#utility.yul\":5109:5116   */\n      dup6\n        /* \"#utility.yul\":5100:5106   */\n      dup3\n        /* \"#utility.yul\":5089:5098   */\n      dup7\n        /* \"#utility.yul\":5085:5107   */\n      add\n        /* \"#utility.yul\":5067:5117   */\n      tag_283\n      jump\t// in\n    tag_339:\n        /* \"#utility.yul\":5057:5117   */\n      swap2\n      pop\n        /* \"#utility.yul\":5012:5127   */\n      pop\n        /* \"#utility.yul\":4666:5134   */\n      swap3\n      pop\n      swap3\n      swap1\n      pop\n      jump\t// out\n        /* \"#utility.yul\":5140:5794   */\n    tag_62:\n        /* \"#utility.yul\":5218:5224   */\n      0x00\n        /* \"#utility.yul\":5226:5232   */\n      dup1\n        /* \"#utility.yul\":5275:5277   */\n      0x40\n        /* \"#utility.yul\":5263:5272   */\n      dup4\n        /* \"#utility.yul\":5254:5261   */\n      dup6\n        /* \"#utility.yul\":5250:5273   */\n      sub\n        /* \"#utility.yul\":5246:5278   */\n      slt\n        /* \"#utility.yul\":5243:5362   */\n      iszero\n      tag_341\n      jumpi\n        /* \"#utility.yul\":5281:5360   */\n      tag_342\n      tag_312\n      jump\t// in\n    tag_342:\n        /* \"#utility.yul\":5243:5362   */\n    tag_341:\n        /* \"#utility.yul\":5401:5402   */\n      0x00\n        /* \"#utility.yul\":5426:5479   */\n      tag_343\n        /* \"#utility.yul\":5471:5478   */\n      dup6\n        /* \"#utility.yul\":5462:5468   */\n      dup3\n        /* \"#utility.yul\":5451:5460   */\n      dup7\n        /* \"#utility.yul\":5447:5469   */\n      add\n        /* \"#utility.yul\":5426:5479   */\n      tag_279\n      jump\t// in\n    tag_343:\n        /* \"#utility.yul\":5416:5479   */\n      swap3\n      pop\n        /* \"#utility.yul\":5372:5489   */\n      pop\n        /* \"#utility.yul\":5556:5558   */\n      0x20\n        /* \"#utility.yul\":5545:5554   */\n      dup4\n        /* \"#utility.yul\":5541:5559   */\n      add\n        /* \"#utility.yul\":5528:5560   */\n      calldataload\n        /* \"#utility.yul\":5587:5605   */\n      0xffffffffffffffff\n        /* \"#utility.yul\":5579:5585   */\n      dup2\n        /* \"#utility.yul\":5576:5606   */\n      gt\n        /* \"#utility.yul\":5573:5690   */\n      iszero\n      tag_344\n      jumpi\n        /* \"#utility.yul\":5609:5688   */\n      tag_345\n      tag_333\n      jump\t// in\n    tag_345:\n        /* \"#utility.yul\":5573:5690   */\n    tag_344:\n        /* \"#utility.yul\":5714:5777   */\n      tag_346\n        /* \"#utility.yul\":5769:5776   */\n      dup6\n        /* \"#utility.yul\":5760:5766   */\n      dup3\n        /* \"#utility.yul\":5749:5758   */\n      dup7\n        /* \"#utility.yul\":5745:5767   */\n      add\n        /* \"#utility.yul\":5714:5777   */\n      tag_300\n      jump\t// in\n    tag_346:\n        /* \"#utility.yul\":5704:5777   */\n      swap2\n      pop\n        /* \"#utility.yul\":5499:5787   */\n      pop\n        /* \"#utility.yul\":5140:5794   */\n      swap3\n      pop\n      swap3\n      swap1\n      pop\n      jump\t// out\n        /* \"#utility.yul\":5800:6274   */\n    tag_38:\n        /* \"#utility.yul\":5868:5874   */\n      0x00\n        /* \"#utility.yul\":5876:5882   */\n      dup1\n        /* \"#utility.yul\":5925:5927   */\n      0x40\n        /* \"#utility.yul\":5913:5922   */\n      dup4\n        /* \"#utility.yul\":5904:5911   */\n      dup6\n        /* \"#utility.yul\":5900:5923   */\n      sub\n        /* \"#utility.yul\":5896:5928   */\n      slt\n        /* \"#utility.yul\":5893:6012   */\n      iszero\n      tag_348\n      jumpi\n        /* \"#utility.yul\":5931:6010   */\n      tag_349\n      tag_312\n      jump\t// in\n    tag_349:\n        /* \"#utility.yul\":5893:6012   */\n    tag_348:\n        /* \"#utility.yul\":6051:6052   */\n      0x00\n        /* \"#utility.yul\":6076:6129   */\n      tag_350\n        /* \"#utility.yul\":6121:6128   */\n      dup6\n        /* \"#utility.yul\":6112:6118   */\n      dup3\n        /* \"#utility.yul\":6101:6110   */\n      dup7\n        /* \"#utility.yul\":6097:6119   */\n      add\n        /* \"#utility.yul\":6076:6129   */\n      tag_279\n      jump\t// in\n    tag_350:\n        /* \"#utility.yul\":6066:6129   */\n      swap3\n      pop\n        /* \"#utility.yul\":6022:6139   */\n      pop\n        /* \"#utility.yul\":6178:6180   */\n      0x20\n        /* \"#utility.yul\":6204:6257   */\n      tag_351\n        /* \"#utility.yul\":6249:6256   */\n      dup6\n        /* \"#utility.yul\":6240:6246   */\n      dup3\n        /* \"#utility.yul\":6229:6238   */\n      dup7\n        /* \"#utility.yul\":6225:6247   */\n      add\n        /* \"#utility.yul\":6204:6257   */\n      tag_305\n      jump\t// in\n    tag_351:\n        /* \"#utility.yul\":6194:6257   */\n      swap2\n      pop\n        /* \"#utility.yul\":6149:6267   */\n      pop\n        /* \"#utility.yul\":5800:6274   */\n      swap3\n      pop\n      swap3\n      swap1\n      pop\n      jump\t// out\n        /* \"#utility.yul\":6280:6607   */\n    tag_22:\n        /* \"#utility.yul\":6338:6344   */\n      0x00\n        /* \"#utility.yul\":6387:6389   */\n      0x20\n        /* \"#utility.yul\":6375:6384   */\n      dup3\n        /* \"#utility.yul\":6366:6373   */\n      dup5\n        /* \"#utility.yul\":6362:6385   */\n      sub\n        /* \"#utility.yul\":6358:6390   */\n      slt\n        /* \"#utility.yul\":6355:6474   */\n      iszero\n      tag_353\n      jumpi\n        /* \"#utility.yul\":6393:6472   */\n      tag_354\n      tag_312\n      jump\t// in\n    tag_354:\n        /* \"#utility.yul\":6355:6474   */\n    tag_353:\n        /* \"#utility.yul\":6513:6514   */\n      0x00\n        /* \"#utility.yul\":6538:6590   */\n      tag_355\n        /* \"#utility.yul\":6582:6589   */\n      dup5\n        /* \"#utility.yul\":6573:6579   */\n      dup3\n        /* \"#utility.yul\":6562:6571   */\n      dup6\n        /* \"#utility.yul\":6558:6580   */\n      add\n        /* \"#utility.yul\":6538:6590   */\n      tag_287\n      jump\t// in\n    tag_355:\n        /* \"#utility.yul\":6528:6590   */\n      swap2\n      pop\n        /* \"#utility.yul\":6484:6600   */\n      pop\n        /* \"#utility.yul\":6280:6607   */\n      swap3\n      swap2\n      pop\n      pop\n      jump\t// out\n        /* \"#utility.yul\":6613:6962   */\n    tag_236:\n        /* \"#utility.yul\":6682:6688   */\n      0x00\n        /* \"#utility.yul\":6731:6733   */\n      0x20\n        /* \"#utility.yul\":6719:6728   */\n      dup3\n        /* \"#utility.yul\":6710:6717   */\n      dup5\n        /* \"#utility.yul\":6706:6729   */\n      sub\n        /* \"#utility.yul\":6702:6734   */\n      slt\n        /* \"#utility.yul\":6699:6818   */\n      iszero\n      tag_357\n      jumpi\n        /* \"#utility.yul\":6737:6816   */\n      tag_358\n      tag_312\n      jump\t// in\n    tag_358:\n        /* \"#utility.yul\":6699:6818   */\n    tag_357:\n        /* \"#utility.yul\":6857:6858   */\n      0x00\n        /* \"#utility.yul\":6882:6945   */\n      tag_359\n        /* \"#utility.yul\":6937:6944   */\n      dup5\n        /* \"#utility.yul\":6928:6934   */\n      dup3\n        /* \"#utility.yul\":6917:6926   */\n      dup6\n        /* \"#utility.yul\":6913:6935   */\n      add\n        /* \"#utility.yul\":6882:6945   */\n      tag_291\n      jump\t// in\n    tag_359:\n        /* \"#utility.yul\":6872:6945   */\n      swap2\n      pop\n        /* \"#utility.yul\":6828:6955   */\n      pop\n        /* \"#utility.yul\":6613:6962   */\n      swap3\n      swap2\n      pop\n      pop\n      jump\t// out\n        /* \"#utility.yul\":6968:7297   */\n    tag_32:\n        /* \"#utility.yul\":7027:7033   */\n      0x00\n        /* \"#utility.yul\":7076:7078   */\n      0x20\n        /* \"#utility.yul\":7064:7073   */\n      dup3\n        /* \"#utility.yul\":7055:7062   */\n      dup5\n        /* \"#utility.yul\":7051:7074   */\n      sub\n        /* \"#utility.yul\":7047:7079   */\n      slt\n        /* \"#utility.yul\":7044:7163   */\n      iszero\n      tag_361\n      jumpi\n        /* \"#utility.yul\":7082:7161   */\n      tag_362\n      tag_312\n      jump\t// in\n    tag_362:\n        /* \"#utility.yul\":7044:7163   */\n    tag_361:\n        /* \"#utility.yul\":7202:7203   */\n      0x00\n        /* \"#utility.yul\":7227:7280   */\n      tag_363\n        /* \"#utility.yul\":7272:7279   */\n      dup5\n        /* \"#utility.yul\":7263:7269   */\n      dup3\n        /* \"#utility.yul\":7252:7261   */\n      dup6\n        /* \"#utility.yul\":7248:7270   */\n      add\n        /* \"#utility.yul\":7227:7280   */\n      tag_305\n      jump\t// in\n    tag_363:\n        /* \"#utility.yul\":7217:7280   */\n      swap2\n      pop\n        /* \"#utility.yul\":7173:7290   */\n      pop\n        /* \"#utility.yul\":6968:7297   */\n      swap3\n      swap2\n      pop\n      pop\n      jump\t// out\n        /* \"#utility.yul\":7303:7421   */\n    tag_364:\n        /* \"#utility.yul\":7390:7414   */\n      tag_366\n        /* \"#utility.yul\":7408:7413   */\n      dup2\n        /* \"#utility.yul\":7390:7414   */\n      tag_367\n      jump\t// in\n    tag_366:\n        /* \"#utility.yul\":7385:7388   */\n      dup3\n        /* \"#utility.yul\":7378:7415   */\n      mstore\n        /* \"#utility.yul\":7303:7421   */\n      pop\n      pop\n      jump\t// out\n        /* \"#utility.yul\":7427:7536   */\n    tag_368:\n        /* \"#utility.yul\":7508:7529   */\n      tag_370\n        /* \"#utility.yul\":7523:7528   */\n      dup2\n        /* \"#utility.yul\":7508:7529   */\n      tag_371\n      jump\t// in\n    tag_370:\n        /* \"#utility.yul\":7503:7506   */\n      dup3\n        /* \"#utility.yul\":7496:7530   */\n      mstore\n        /* \"#utility.yul\":7427:7536   */\n      pop\n      pop\n      jump\t// out\n        /* \"#utility.yul\":7542:7902   */\n    tag_372:\n        /* \"#utility.yul\":7628:7631   */\n      0x00\n        /* \"#utility.yul\":7656:7694   */\n      tag_374\n        /* \"#utility.yul\":7688:7693   */\n      dup3\n        /* \"#utility.yul\":7656:7694   */\n      tag_375\n      jump\t// in\n    tag_374:\n        /* \"#utility.yul\":7710:7780   */\n      tag_376\n        /* \"#utility.yul\":7773:7779   */\n      dup2\n        /* \"#utility.yul\":7768:7771   */\n      dup6\n        /* \"#utility.yul\":7710:7780   */\n      tag_377\n      jump\t// in\n    tag_376:\n        /* \"#utility.yul\":7703:7780   */\n      swap4\n      pop\n        /* \"#utility.yul\":7789:7841   */\n      tag_378\n        /* \"#utility.yul\":7834:7840   */\n      dup2\n        /* \"#utility.yul\":7829:7832   */\n      dup6\n        /* \"#utility.yul\":7822:7826   */\n      0x20\n        /* \"#utility.yul\":7815:7820   */\n      dup7\n        /* \"#utility.yul\":7811:7827   */\n      add\n        /* \"#utility.yul\":7789:7841   */\n      tag_379\n      jump\t// in\n    tag_378:\n        /* \"#utility.yul\":7866:7895   */\n      tag_380\n        /* \"#utility.yul\":7888:7894   */\n      dup2\n        /* \"#utility.yul\":7866:7895   */\n      tag_381\n      jump\t// in\n    tag_380:\n        /* \"#utility.yul\":7861:7864   */\n      dup5\n        /* \"#utility.yul\":7857:7896   */\n      add\n        /* \"#utility.yul\":7850:7896   */\n      swap2\n      pop\n        /* \"#utility.yul\":7632:7902   */\n      pop\n        /* \"#utility.yul\":7542:7902   */\n      swap3\n      swap2\n      pop\n      pop\n      jump\t// out\n        /* \"#utility.yul\":7908:8272   */\n    tag_382:\n        /* \"#utility.yul\":7996:7999   */\n      0x00\n        /* \"#utility.yul\":8024:8063   */\n      tag_384\n        /* \"#utility.yul\":8057:8062   */\n      dup3\n        /* \"#utility.yul\":8024:8063   */\n      tag_385\n      jump\t// in\n    tag_384:\n        /* \"#utility.yul\":8079:8150   */\n      tag_386\n        /* \"#utility.yul\":8143:8149   */\n      dup2\n        /* \"#utility.yul\":8138:8141   */\n      dup6\n        /* \"#utility.yul\":8079:8150   */\n      tag_387\n      jump\t// in\n    tag_386:\n        /* \"#utility.yul\":8072:8150   */\n      swap4\n      pop\n        /* \"#utility.yul\":8159:8211   */\n      tag_388\n        /* \"#utility.yul\":8204:8210   */\n      dup2\n        /* \"#utility.yul\":8199:8202   */\n      dup6\n        /* \"#utility.yul\":8192:8196   */\n      0x20\n        /* \"#utility.yul\":8185:8190   */\n      dup7\n        /* \"#utility.yul\":8181:8197   */\n      add\n        /* \"#utility.yul\":8159:8211   */\n      tag_379\n      jump\t// in\n    tag_388:\n        /* \"#utility.yul\":8236:8265   */\n      tag_389\n        /* \"#utility.yul\":8258:8264   */\n      dup2\n        /* \"#utility.yul\":8236:8265   */\n      tag_381\n      jump\t// in\n    tag_389:\n        /* \"#utility.yul\":8231:8234   */\n      dup5\n        /* \"#utility.yul\":8227:8266   */\n      add\n        /* \"#utility.yul\":8220:8266   */\n      swap2\n      pop\n        /* \"#utility.yul\":8000:8272   */\n      pop\n        /* \"#utility.yul\":7908:8272   */\n      swap3\n      swap2\n      pop\n      pop\n      jump\t// out\n        /* \"#utility.yul\":8278:8644   */\n    tag_390:\n        /* \"#utility.yul\":8420:8423   */\n      0x00\n        /* \"#utility.yul\":8441:8508   */\n      tag_392\n        /* \"#utility.yul\":8505:8507   */\n      0x32\n        /* \"#utility.yul\":8500:8503   */\n      dup4\n        /* \"#utility.yul\":8441:8508   */\n      tag_387\n      jump\t// in\n    tag_392:\n        /* \"#utility.yul\":8434:8508   */\n      swap2\n      pop\n        /* \"#utility.yul\":8517:8610   */\n      tag_393\n        /* \"#utility.yul\":8606:8609   */\n      dup3\n        /* \"#utility.yul\":8517:8610   */\n      tag_394\n      jump\t// in\n    tag_393:\n        /* \"#utility.yul\":8635:8637   */\n      0x40\n        /* \"#utility.yul\":8630:8633   */\n      dup3\n        /* \"#utility.yul\":8626:8638   */\n      add\n        /* \"#utility.yul\":8619:8638   */\n      swap1\n      pop\n        /* \"#utility.yul\":8278:8644   */\n      swap2\n      swap1\n      pop\n      jump\t// out\n        /* \"#utility.yul\":8650:9016   */\n    tag_395:\n        /* \"#utility.yul\":8792:8795   */\n      0x00\n        /* \"#utility.yul\":8813:8880   */\n      tag_397\n        /* \"#utility.yul\":8877:8879   */\n      0x25\n        /* \"#utility.yul\":8872:8875   */\n      dup4\n        /* \"#utility.yul\":8813:8880   */\n      tag_387\n      jump\t// in\n    tag_397:\n        /* \"#utility.yul\":8806:8880   */\n      swap2\n      pop\n        /* \"#utility.yul\":8889:8982   */\n      tag_398\n        /* \"#utility.yul\":8978:8981   */\n      dup3\n        /* \"#utility.yul\":8889:8982   */\n      tag_399\n      jump\t// in\n    tag_398:\n        /* \"#utility.yul\":9007:9009   */\n      0x40\n        /* \"#utility.yul\":9002:9005   */\n      dup3\n        /* \"#utility.yul\":8998:9010   */\n      add\n        /* \"#utility.yul\":8991:9010   */\n      swap1\n      pop\n        /* \"#utility.yul\":8650:9016   */\n      swap2\n      swap1\n      pop\n      jump\t// out\n        /* \"#utility.yul\":9022:9388   */\n    tag_400:\n        /* \"#utility.yul\":9164:9167   */\n      0x00\n        /* \"#utility.yul\":9185:9252   */\n      tag_402\n        /* \"#utility.yul\":9249:9251   */\n      0x1c\n        /* \"#utility.yul\":9244:9247   */\n      dup4\n        /* \"#utility.yul\":9185:9252   */\n      tag_387\n      jump\t// in\n    tag_402:\n        /* \"#utility.yul\":9178:9252   */\n      swap2\n      pop\n        /* \"#utility.yul\":9261:9354   */\n      tag_403\n        /* \"#utility.yul\":9350:9353   */\n      dup3\n        /* \"#utility.yul\":9261:9354   */\n      tag_404\n      jump\t// in\n    tag_403:\n        /* \"#utility.yul\":9379:9381   */\n      0x20\n        /* \"#utility.yul\":9374:9377   */\n      dup3\n        /* \"#utility.yul\":9370:9382   */\n      add\n        /* \"#utility.yul\":9363:9382   */\n      swap1\n      pop\n        /* \"#utility.yul\":9022:9388   */\n      swap2\n      swap1\n      pop\n      jump\t// out\n        /* \"#utility.yul\":9394:9760   */\n    tag_405:\n        /* \"#utility.yul\":9536:9539   */\n      0x00\n        /* \"#utility.yul\":9557:9624   */\n      tag_407\n        /* \"#utility.yul\":9621:9623   */\n      0x24\n        /* \"#utility.yul\":9616:9619   */\n      dup4\n        /* \"#utility.yul\":9557:9624   */\n      tag_387\n      jump\t// in\n    tag_407:\n        /* \"#utility.yul\":9550:9624   */\n      swap2\n      pop\n        /* \"#utility.yul\":9633:9726   */\n      tag_408\n        /* \"#utility.yul\":9722:9725   */\n      dup3\n        /* \"#utility.yul\":9633:9726   */\n      tag_409\n      jump\t// in\n    tag_408:\n        /* \"#utility.yul\":9751:9753   */\n      0x40\n        /* \"#utility.yul\":9746:9749   */\n      dup3\n        /* \"#utility.yul\":9742:9754   */\n      add\n        /* \"#utility.yul\":9735:9754   */\n      swap1\n      pop\n        /* \"#utility.yul\":9394:9760   */\n      swap2\n      swap1\n      pop\n      jump\t// out\n        /* \"#utility.yul\":9766:10132   */\n    tag_410:\n        /* \"#utility.yul\":9908:9911   */\n      0x00\n        /* \"#utility.yul\":9929:9996   */\n      tag_412\n        /* \"#utility.yul\":9993:9995   */\n      0x19\n        /* \"#utility.yul\":9988:9991   */\n      dup4\n        /* \"#utility.yul\":9929:9996   */\n      tag_387\n      jump\t// in\n    tag_412:\n        /* \"#utility.yul\":9922:9996   */\n      swap2\n      pop\n        /* \"#utility.yul\":10005:10098   */\n      tag_413\n        /* \"#utility.yul\":10094:10097   */\n      dup3\n        /* \"#utility.yul\":10005:10098   */\n      tag_414\n      jump\t// in\n    tag_413:\n        /* \"#utility.yul\":10123:10125   */\n      0x20\n        /* \"#utility.yul\":10118:10121   */\n      dup3\n        /* \"#utility.yul\":10114:10126   */\n      add\n        /* \"#utility.yul\":10107:10126   */\n      swap1\n      pop\n        /* \"#utility.yul\":9766:10132   */\n      swap2\n      swap1\n      pop\n      jump\t// out\n        /* \"#utility.yul\":10138:10504   */\n    tag_415:\n        /* \"#utility.yul\":10280:10283   */\n      0x00\n        /* \"#utility.yul\":10301:10368   */\n      tag_417\n        /* \"#utility.yul\":10365:10367   */\n      0x2c\n        /* \"#utility.yul\":10360:10363   */\n      dup4\n        /* \"#utility.yul\":10301:10368   */\n      tag_387\n      jump\t// in\n    tag_417:\n        /* \"#utility.yul\":10294:10368   */\n      swap2\n      pop\n        /* \"#utility.yul\":10377:10470   */\n      tag_418\n        /* \"#utility.yul\":10466:10469   */\n      dup3\n        /* \"#utility.yul\":10377:10470   */\n      tag_419\n      jump\t// in\n    tag_418:\n        /* \"#utility.yul\":10495:10497   */\n      0x40\n        /* \"#utility.yul\":10490:10493   */\n      dup3\n        /* \"#utility.yul\":10486:10498   */\n      add\n        /* \"#utility.yul\":10479:10498   */\n      swap1\n      pop\n        /* \"#utility.yul\":10138:10504   */\n      swap2\n      swap1\n      pop\n      jump\t// out\n        /* \"#utility.yul\":10510:10876   */\n    tag_420:\n        /* \"#utility.yul\":10652:10655   */\n      0x00\n        /* \"#utility.yul\":10673:10740   */\n      tag_422\n        /* \"#utility.yul\":10737:10739   */\n      0x38\n        /* \"#utility.yul\":10732:10735   */\n      dup4\n        /* \"#utility.yul\":10673:10740   */\n      tag_387\n      jump\t// in\n    tag_422:\n        /* \"#utility.yul\":10666:10740   */\n      swap2\n      pop\n        /* \"#utility.yul\":10749:10842   */\n      tag_423\n        /* \"#utility.yul\":10838:10841   */\n      dup3\n        /* \"#utility.yul\":10749:10842   */\n      tag_424\n      jump\t// in\n    tag_423:\n        /* \"#utility.yul\":10867:10869   */\n      0x40\n        /* \"#utility.yul\":10862:10865   */\n      dup3\n        /* \"#utility.yul\":10858:10870   */\n      add\n        /* \"#utility.yul\":10851:10870   */\n      swap1\n      pop\n        /* \"#utility.yul\":10510:10876   */\n      swap2\n      swap1\n      pop\n      jump\t// out\n        /* \"#utility.yul\":10882:11248   */\n    tag_425:\n        /* \"#utility.yul\":11024:11027   */\n      0x00\n        /* \"#utility.yul\":11045:11112   */\n      tag_427\n        /* \"#utility.yul\":11109:11111   */\n      0x2a\n        /* \"#utility.yul\":11104:11107   */\n      dup4\n        /* \"#utility.yul\":11045:11112   */\n      tag_387\n      jump\t// in\n    tag_427:\n        /* \"#utility.yul\":11038:11112   */\n      swap2\n      pop\n        /* \"#utility.yul\":11121:11214   */\n      tag_428\n        /* \"#utility.yul\":11210:11213   */\n      dup3\n        /* \"#utility.yul\":11121:11214   */\n      tag_429\n      jump\t// in\n    tag_428:\n        /* \"#utility.yul\":11239:11241   */\n      0x40\n        /* \"#utility.yul\":11234:11237   */\n      dup3\n        /* \"#utility.yul\":11230:11242   */\n      add\n        /* \"#utility.yul\":11223:11242   */\n      swap1\n      pop\n        /* \"#utility.yul\":10882:11248   */\n      swap2\n      swap1\n      pop\n      jump\t// out\n        /* \"#utility.yul\":11254:11620   */\n    tag_430:\n        /* \"#utility.yul\":11396:11399   */\n      0x00\n        /* \"#utility.yul\":11417:11484   */\n      tag_432\n        /* \"#utility.yul\":11481:11483   */\n      0x29\n        /* \"#utility.yul\":11476:11479   */\n      dup4\n        /* \"#utility.yul\":11417:11484   */\n      tag_387\n      jump\t// in\n    tag_432:\n        /* \"#utility.yul\":11410:11484   */\n      swap2\n      pop\n        /* \"#utility.yul\":11493:11586   */\n      tag_433\n        /* \"#utility.yul\":11582:11585   */\n      dup3\n        /* \"#utility.yul\":11493:11586   */\n      tag_434\n      jump\t// in\n    tag_433:\n        /* \"#utility.yul\":11611:11613   */\n      0x40\n        /* \"#utility.yul\":11606:11609   */\n      dup3\n        /* \"#utility.yul\":11602:11614   */\n      add\n        /* \"#utility.yul\":11595:11614   */\n      swap1\n      pop\n        /* \"#utility.yul\":11254:11620   */\n      swap2\n      swap1\n      pop\n      jump\t// out\n        /* \"#utility.yul\":11626:11992   */\n    tag_435:\n        /* \"#utility.yul\":11768:11771   */\n      0x00\n        /* \"#utility.yul\":11789:11856   */\n      tag_437\n        /* \"#utility.yul\":11853:11855   */\n      0x20\n        /* \"#utility.yul\":11848:11851   */\n      dup4\n        /* \"#utility.yul\":11789:11856   */\n      tag_387\n      jump\t// in\n    tag_437:\n        /* \"#utility.yul\":11782:11856   */\n      swap2\n      pop\n        /* \"#utility.yul\":11865:11958   */\n      tag_438\n        /* \"#utility.yul\":11954:11957   */\n      dup3\n        /* \"#utility.yul\":11865:11958   */\n      tag_439\n      jump\t// in\n    tag_438:\n        /* \"#utility.yul\":11983:11985   */\n      0x20\n        /* \"#utility.yul\":11978:11981   */\n      dup3\n        /* \"#utility.yul\":11974:11986   */\n      add\n        /* \"#utility.yul\":11967:11986   */\n      swap1\n      pop\n        /* \"#utility.yul\":11626:11992   */\n      swap2\n      swap1\n      pop\n      jump\t// out\n        /* \"#utility.yul\":11998:12364   */\n    tag_440:\n        /* \"#utility.yul\":12140:12143   */\n      0x00\n        /* \"#utility.yul\":12161:12228   */\n      tag_442\n        /* \"#utility.yul\":12225:12227   */\n      0x2c\n        /* \"#utility.yul\":12220:12223   */\n      dup4\n        /* \"#utility.yul\":12161:12228   */\n      tag_387\n      jump\t// in\n    tag_442:\n        /* \"#utility.yul\":12154:12228   */\n      swap2\n      pop\n        /* \"#utility.yul\":12237:12330   */\n      tag_443\n        /* \"#utility.yul\":12326:12329   */\n      dup3\n        /* \"#utility.yul\":12237:12330   */\n      tag_444\n      jump\t// in\n    tag_443:\n        /* \"#utility.yul\":12355:12357   */\n      0x40\n        /* \"#utility.yul\":12350:12353   */\n      dup3\n        /* \"#utility.yul\":12346:12358   */\n      add\n        /* \"#utility.yul\":12339:12358   */\n      swap1\n      pop\n        /* \"#utility.yul\":11998:12364   */\n      swap2\n      swap1\n      pop\n      jump\t// out\n        /* \"#utility.yul\":12370:12736   */\n    tag_445:\n        /* \"#utility.yul\":12512:12515   */\n      0x00\n        /* \"#utility.yul\":12533:12600   */\n      tag_447\n        /* \"#utility.yul\":12597:12599   */\n      0x21\n        /* \"#utility.yul\":12592:12595   */\n      dup4\n        /* \"#utility.yul\":12533:12600   */\n      tag_387\n      jump\t// in\n    tag_447:\n        /* \"#utility.yul\":12526:12600   */\n      swap2\n      pop\n        /* \"#utility.yul\":12609:12702   */\n      tag_448\n        /* \"#utility.yul\":12698:12701   */\n      dup3\n        /* \"#utility.yul\":12609:12702   */\n      tag_449\n      jump\t// in\n    tag_448:\n        /* \"#utility.yul\":12727:12729   */\n      0x40\n        /* \"#utility.yul\":12722:12725   */\n      dup3\n        /* \"#utility.yul\":12718:12730   */\n      add\n        /* \"#utility.yul\":12711:12730   */\n      swap1\n      pop\n        /* \"#utility.yul\":12370:12736   */\n      swap2\n      swap1\n      pop\n      jump\t// out\n        /* \"#utility.yul\":12742:13108   */\n    tag_450:\n        /* \"#utility.yul\":12884:12887   */\n      0x00\n        /* \"#utility.yul\":12905:12972   */\n      tag_452\n        /* \"#utility.yul\":12969:12971   */\n      0x31\n        /* \"#utility.yul\":12964:12967   */\n      dup4\n        /* \"#utility.yul\":12905:12972   */\n      tag_387\n      jump\t// in\n    tag_452:\n        /* \"#utility.yul\":12898:12972   */\n      swap2\n      pop\n        /* \"#utility.yul\":12981:13074   */\n      tag_453\n        /* \"#utility.yul\":13070:13073   */\n      dup3\n        /* \"#utility.yul\":12981:13074   */\n      tag_454\n      jump\t// in\n    tag_453:\n        /* \"#utility.yul\":13099:13101   */\n      0x40\n        /* \"#utility.yul\":13094:13097   */\n      dup3\n        /* \"#utility.yul\":13090:13102   */\n      add\n        /* \"#utility.yul\":13083:13102   */\n      swap1\n      pop\n        /* \"#utility.yul\":12742:13108   */\n      swap2\n      swap1\n      pop\n      jump\t// out\n        /* \"#utility.yul\":13114:13232   */\n    tag_455:\n        /* \"#utility.yul\":13201:13225   */\n      tag_457\n        /* \"#utility.yul\":13219:13224   */\n      dup2\n        /* \"#utility.yul\":13201:13225   */\n      tag_458\n      jump\t// in\n    tag_457:\n        /* \"#utility.yul\":13196:13199   */\n      dup3\n        /* \"#utility.yul\":13189:13226   */\n      mstore\n        /* \"#utility.yul\":13114:13232   */\n      pop\n      pop\n      jump\t// out\n        /* \"#utility.yul\":13238:13460   */\n    tag_35:\n        /* \"#utility.yul\":13331:13335   */\n      0x00\n        /* \"#utility.yul\":13369:13371   */\n      0x20\n        /* \"#utility.yul\":13358:13367   */\n      dup3\n        /* \"#utility.yul\":13354:13372   */\n      add\n        /* \"#utility.yul\":13346:13372   */\n      swap1\n      pop\n        /* \"#utility.yul\":13382:13453   */\n      tag_460\n        /* \"#utility.yul\":13450:13451   */\n      0x00\n        /* \"#utility.yul\":13439:13448   */\n      dup4\n        /* \"#utility.yul\":13435:13452   */\n      add\n        /* \"#utility.yul\":13426:13432   */\n      dup5\n        /* \"#utility.yul\":13382:13453   */\n      tag_364\n      jump\t// in\n    tag_460:\n        /* \"#utility.yul\":13238:13460   */\n      swap3\n      swap2\n      pop\n      pop\n      jump\t// out\n        /* \"#utility.yul\":13466:14106   */\n    tag_232:\n        /* \"#utility.yul\":13661:13665   */\n      0x00\n        /* \"#utility.yul\":13699:13702   */\n      0x80\n        /* \"#utility.yul\":13688:13697   */\n      dup3\n        /* \"#utility.yul\":13684:13703   */\n      add\n        /* \"#utility.yul\":13676:13703   */\n      swap1\n      pop\n        /* \"#utility.yul\":13713:13784   */\n      tag_462\n        /* \"#utility.yul\":13781:13782   */\n      0x00\n        /* \"#utility.yul\":13770:13779   */\n      dup4\n        /* \"#utility.yul\":13766:13783   */\n      add\n        /* \"#utility.yul\":13757:13763   */\n      dup8\n        /* \"#utility.yul\":13713:13784   */\n      tag_364\n      jump\t// in\n    tag_462:\n        /* \"#utility.yul\":13794:13866   */\n      tag_463\n        /* \"#utility.yul\":13862:13864   */\n      0x20\n        /* \"#utility.yul\":13851:13860   */\n      dup4\n        /* \"#utility.yul\":13847:13865   */\n      add\n        /* \"#utility.yul\":13838:13844   */\n      dup7\n        /* \"#utility.yul\":13794:13866   */\n      tag_364\n      jump\t// in\n    tag_463:\n        /* \"#utility.yul\":13876:13948   */\n      tag_464\n        /* \"#utility.yul\":13944:13946   */\n      0x40\n        /* \"#utility.yul\":13933:13942   */\n      dup4\n        /* \"#utility.yul\":13929:13947   */\n      add\n        /* \"#utility.yul\":13920:13926   */\n      dup6\n        /* \"#utility.yul\":13876:13948   */\n      tag_455\n      jump\t// in\n    tag_464:\n        /* \"#utility.yul\":13995:14004   */\n      dup2\n        /* \"#utility.yul\":13989:13993   */\n      dup2\n        /* \"#utility.yul\":13985:14005   */\n      sub\n        /* \"#utility.yul\":13980:13982   */\n      0x60\n        /* \"#utility.yul\":13969:13978   */\n      dup4\n        /* \"#utility.yul\":13965:13983   */\n      add\n        /* \"#utility.yul\":13958:14006   */\n      mstore\n        /* \"#utility.yul\":14023:14099   */\n      tag_465\n        /* \"#utility.yul\":14094:14098   */\n      dup2\n        /* \"#utility.yul\":14085:14091   */\n      dup5\n        /* \"#utility.yul\":14023:14099   */\n      tag_372\n      jump\t// in\n    tag_465:\n        /* \"#utility.yul\":14015:14099   */\n      swap1\n      pop\n        /* \"#utility.yul\":13466:14106   */\n      swap6\n      swap5\n      pop\n      pop\n      pop\n      pop\n      pop\n      jump\t// out\n        /* \"#utility.yul\":14112:14322   */\n    tag_25:\n        /* \"#utility.yul\":14199:14203   */\n      0x00\n        /* \"#utility.yul\":14237:14239   */\n      0x20\n        /* \"#utility.yul\":14226:14235   */\n      dup3\n        /* \"#utility.yul\":14222:14240   */\n      add\n        /* \"#utility.yul\":14214:14240   */\n      swap1\n      pop\n        /* \"#utility.yul\":14250:14315   */\n      tag_467\n        /* \"#utility.yul\":14312:14313   */\n      0x00\n        /* \"#utility.yul\":14301:14310   */\n      dup4\n        /* \"#utility.yul\":14297:14314   */\n      add\n        /* \"#utility.yul\":14288:14294   */\n      dup5\n        /* \"#utility.yul\":14250:14315   */\n      tag_368\n      jump\t// in\n    tag_467:\n        /* \"#utility.yul\":14112:14322   */\n      swap3\n      swap2\n      pop\n      pop\n      jump\t// out\n        /* \"#utility.yul\":14328:14641   */\n    tag_29:\n        /* \"#utility.yul\":14441:14445   */\n      0x00\n        /* \"#utility.yul\":14479:14481   */\n      0x20\n        /* \"#utility.yul\":14468:14477   */\n      dup3\n        /* \"#utility.yul\":14464:14482   */\n      add\n        /* \"#utility.yul\":14456:14482   */\n      swap1\n      pop\n        /* \"#utility.yul\":14528:14537   */\n      dup2\n        /* \"#utility.yul\":14522:14526   */\n      dup2\n        /* \"#utility.yul\":14518:14538   */\n      sub\n        /* \"#utility.yul\":14514:14515   */\n      0x00\n        /* \"#utility.yul\":14503:14512   */\n      dup4\n        /* \"#utility.yul\":14499:14516   */\n      add\n        /* \"#utility.yul\":14492:14539   */\n      mstore\n        /* \"#utility.yul\":14556:14634   */\n      tag_469\n        /* \"#utility.yul\":14629:14633   */\n      dup2\n        /* \"#utility.yul\":14620:14626   */\n      dup5\n        /* \"#utility.yul\":14556:14634   */\n      tag_382\n      jump\t// in\n    tag_469:\n        /* \"#utility.yul\":14548:14634   */\n      swap1\n      pop\n        /* \"#utility.yul\":14328:14641   */\n      swap3\n      swap2\n      pop\n      pop\n      jump\t// out\n        /* \"#utility.yul\":14647:15066   */\n    tag_223:\n        /* \"#utility.yul\":14813:14817   */\n      0x00\n        /* \"#utility.yul\":14851:14853   */\n      0x20\n        /* \"#utility.yul\":14840:14849   */\n      dup3\n        /* \"#utility.yul\":14836:14854   */\n      add\n        /* \"#utility.yul\":14828:14854   */\n      swap1\n      pop\n        /* \"#utility.yul\":14900:14909   */\n      dup2\n        /* \"#utility.yul\":14894:14898   */\n      dup2\n        /* \"#utility.yul\":14890:14910   */\n      sub\n        /* \"#utility.yul\":14886:14887   */\n      0x00\n        /* \"#utility.yul\":14875:14884   */\n      dup4\n        /* \"#utility.yul\":14871:14888   */\n      add\n        /* \"#utility.yul\":14864:14911   */\n      mstore\n        /* \"#utility.yul\":14928:15059   */\n      tag_471\n        /* \"#utility.yul\":15054:15058   */\n      dup2\n        /* \"#utility.yul\":14928:15059   */\n      tag_390\n      jump\t// in\n    tag_471:\n        /* \"#utility.yul\":14920:15059   */\n      swap1\n      pop\n        /* \"#utility.yul\":14647:15066   */\n      swap2\n      swap1\n      pop\n      jump\t// out\n        /* \"#utility.yul\":15072:15491   */\n    tag_186:\n        /* \"#utility.yul\":15238:15242   */\n      0x00\n        /* \"#utility.yul\":15276:15278   */\n      0x20\n        /* \"#utility.yul\":15265:15274   */\n      dup3\n        /* \"#utility.yul\":15261:15279   */\n      add\n        /* \"#utility.yul\":15253:15279   */\n      swap1\n      pop\n        /* \"#utility.yul\":15325:15334   */\n      dup2\n        /* \"#utility.yul\":15319:15323   */\n      dup2\n        /* \"#utility.yul\":15315:15335   */\n      sub\n        /* \"#utility.yul\":15311:15312   */\n      0x00\n        /* \"#utility.yul\":15300:15309   */\n      dup4\n        /* \"#utility.yul\":15296:15313   */\n      add\n        /* \"#utility.yul\":15289:15336   */\n      mstore\n        /* \"#utility.yul\":15353:15484   */\n      tag_473\n        /* \"#utility.yul\":15479:15483   */\n      dup2\n        /* \"#utility.yul\":15353:15484   */\n      tag_395\n      jump\t// in\n    tag_473:\n        /* \"#utility.yul\":15345:15484   */\n      swap1\n      pop\n        /* \"#utility.yul\":15072:15491   */\n      swap2\n      swap1\n      pop\n      jump\t// out\n        /* \"#utility.yul\":15497:15916   */\n    tag_208:\n        /* \"#utility.yul\":15663:15667   */\n      0x00\n        /* \"#utility.yul\":15701:15703   */\n      0x20\n        /* \"#utility.yul\":15690:15699   */\n      dup3\n        /* \"#utility.yul\":15686:15704   */\n      add\n        /* \"#utility.yul\":15678:15704   */\n      swap1\n      pop\n        /* \"#utility.yul\":15750:15759   */\n      dup2\n        /* \"#utility.yul\":15744:15748   */\n      dup2\n        /* \"#utility.yul\":15740:15760   */\n      sub\n        /* \"#utility.yul\":15736:15737   */\n      0x00\n        /* \"#utility.yul\":15725:15734   */\n      dup4\n        /* \"#utility.yul\":15721:15738   */\n      add\n        /* \"#utility.yul\":15714:15761   */\n      mstore\n        /* \"#utility.yul\":15778:15909   */\n      tag_475\n        /* \"#utility.yul\":15904:15908   */\n      dup2\n        /* \"#utility.yul\":15778:15909   */\n      tag_400\n      jump\t// in\n    tag_475:\n        /* \"#utility.yul\":15770:15909   */\n      swap1\n      pop\n        /* \"#utility.yul\":15497:15916   */\n      swap2\n      swap1\n      pop\n      jump\t// out\n        /* \"#utility.yul\":15922:16341   */\n    tag_189:\n        /* \"#utility.yul\":16088:16092   */\n      0x00\n        /* \"#utility.yul\":16126:16128   */\n      0x20\n        /* \"#utility.yul\":16115:16124   */\n      dup3\n        /* \"#utility.yul\":16111:16129   */\n      add\n        /* \"#utility.yul\":16103:16129   */\n      swap1\n      pop\n        /* \"#utility.yul\":16175:16184   */\n      dup2\n        /* \"#utility.yul\":16169:16173   */\n      dup2\n        /* \"#utility.yul\":16165:16185   */\n      sub\n        /* \"#utility.yul\":16161:16162   */\n      0x00\n        /* \"#utility.yul\":16150:16159   */\n      dup4\n        /* \"#utility.yul\":16146:16163   */\n      add\n        /* \"#utility.yul\":16139:16186   */\n      mstore\n        /* \"#utility.yul\":16203:16334   */\n      tag_477\n        /* \"#utility.yul\":16329:16333   */\n      dup2\n        /* \"#utility.yul\":16203:16334   */\n      tag_405\n      jump\t// in\n    tag_477:\n        /* \"#utility.yul\":16195:16334   */\n      swap1\n      pop\n        /* \"#utility.yul\":15922:16341   */\n      swap2\n      swap1\n      pop\n      jump\t// out\n        /* \"#utility.yul\":16347:16766   */\n    tag_215:\n        /* \"#utility.yul\":16513:16517   */\n      0x00\n        /* \"#utility.yul\":16551:16553   */\n      0x20\n        /* \"#utility.yul\":16540:16549   */\n      dup3\n        /* \"#utility.yul\":16536:16554   */\n      add\n        /* \"#utility.yul\":16528:16554   */\n      swap1\n      pop\n        /* \"#utility.yul\":16600:16609   */\n      dup2\n        /* \"#utility.yul\":16594:16598   */\n      dup2\n        /* \"#utility.yul\":16590:16610   */\n      sub\n        /* \"#utility.yul\":16586:16587   */\n      0x00\n        /* \"#utility.yul\":16575:16584   */\n      dup4\n        /* \"#utility.yul\":16571:16588   */\n      add\n        /* \"#utility.yul\":16564:16611   */\n      mstore\n        /* \"#utility.yul\":16628:16759   */\n      tag_479\n        /* \"#utility.yul\":16754:16758   */\n      dup2\n        /* \"#utility.yul\":16628:16759   */\n      tag_410\n      jump\t// in\n    tag_479:\n        /* \"#utility.yul\":16620:16759   */\n      swap1\n      pop\n        /* \"#utility.yul\":16347:16766   */\n      swap2\n      swap1\n      pop\n      jump\t// out\n        /* \"#utility.yul\":16772:17191   */\n    tag_176:\n        /* \"#utility.yul\":16938:16942   */\n      0x00\n        /* \"#utility.yul\":16976:16978   */\n      0x20\n        /* \"#utility.yul\":16965:16974   */\n      dup3\n        /* \"#utility.yul\":16961:16979   */\n      add\n        /* \"#utility.yul\":16953:16979   */\n      swap1\n      pop\n        /* \"#utility.yul\":17025:17034   */\n      dup2\n        /* \"#utility.yul\":17019:17023   */\n      dup2\n        /* \"#utility.yul\":17015:17035   */\n      sub\n        /* \"#utility.yul\":17011:17012   */\n      0x00\n        /* \"#utility.yul\":17000:17009   */\n      dup4\n        /* \"#utility.yul\":16996:17013   */\n      add\n        /* \"#utility.yul\":16989:17036   */\n      mstore\n        /* \"#utility.yul\":17053:17184   */\n      tag_481\n        /* \"#utility.yul\":17179:17183   */\n      dup2\n        /* \"#utility.yul\":17053:17184   */\n      tag_415\n      jump\t// in\n    tag_481:\n        /* \"#utility.yul\":17045:17184   */\n      swap1\n      pop\n        /* \"#utility.yul\":16772:17191   */\n      swap2\n      swap1\n      pop\n      jump\t// out\n        /* \"#utility.yul\":17197:17616   */\n    tag_112:\n        /* \"#utility.yul\":17363:17367   */\n      0x00\n        /* \"#utility.yul\":17401:17403   */\n      0x20\n        /* \"#utility.yul\":17390:17399   */\n      dup3\n        /* \"#utility.yul\":17386:17404   */\n      add\n        /* \"#utility.yul\":17378:17404   */\n      swap1\n      pop\n        /* \"#utility.yul\":17450:17459   */\n      dup2\n        /* \"#utility.yul\":17444:17448   */\n      dup2\n        /* \"#utility.yul\":17440:17460   */\n      sub\n        /* \"#utility.yul\":17436:17437   */\n      0x00\n        /* \"#utility.yul\":17425:17434   */\n      dup4\n        /* \"#utility.yul\":17421:17438   */\n      add\n        /* \"#utility.yul\":17414:17461   */\n      mstore\n        /* \"#utility.yul\":17478:17609   */\n      tag_483\n        /* \"#utility.yul\":17604:17608   */\n      dup2\n        /* \"#utility.yul\":17478:17609   */\n      tag_420\n      jump\t// in\n    tag_483:\n        /* \"#utility.yul\":17470:17609   */\n      swap1\n      pop\n        /* \"#utility.yul\":17197:17616   */\n      swap2\n      swap1\n      pop\n      jump\t// out\n        /* \"#utility.yul\":17622:18041   */\n    tag_133:\n        /* \"#utility.yul\":17788:17792   */\n      0x00\n        /* \"#utility.yul\":17826:17828   */\n      0x20\n        /* \"#utility.yul\":17815:17824   */\n      dup3\n        /* \"#utility.yul\":17811:17829   */\n      add\n        /* \"#utility.yul\":17803:17829   */\n      swap1\n      pop\n        /* \"#utility.yul\":17875:17884   */\n      dup2\n        /* \"#utility.yul\":17869:17873   */\n      dup2\n        /* \"#utility.yul\":17865:17885   */\n      sub\n        /* \"#utility.yul\":17861:17862   */\n      0x00\n        /* \"#utility.yul\":17850:17859   */\n      dup4\n        /* \"#utility.yul\":17846:17863   */\n      add\n        /* \"#utility.yul\":17839:17886   */\n      mstore\n        /* \"#utility.yul\":17903:18034   */\n      tag_485\n        /* \"#utility.yul\":18029:18033   */\n      dup2\n        /* \"#utility.yul\":17903:18034   */\n      tag_425\n      jump\t// in\n    tag_485:\n        /* \"#utility.yul\":17895:18034   */\n      swap1\n      pop\n        /* \"#utility.yul\":17622:18041   */\n      swap2\n      swap1\n      pop\n      jump\t// out\n        /* \"#utility.yul\":18047:18466   */\n    tag_129:\n        /* \"#utility.yul\":18213:18217   */\n      0x00\n        /* \"#utility.yul\":18251:18253   */\n      0x20\n        /* \"#utility.yul\":18240:18249   */\n      dup3\n        /* \"#utility.yul\":18236:18254   */\n      add\n        /* \"#utility.yul\":18228:18254   */\n      swap1\n      pop\n        /* \"#utility.yul\":18300:18309   */\n      dup2\n        /* \"#utility.yul\":18294:18298   */\n      dup2\n        /* \"#utility.yul\":18290:18310   */\n      sub\n        /* \"#utility.yul\":18286:18287   */\n      0x00\n        /* \"#utility.yul\":18275:18284   */\n      dup4\n        /* \"#utility.yul\":18271:18288   */\n      add\n        /* \"#utility.yul\":18264:18311   */\n      mstore\n        /* \"#utility.yul\":18328:18459   */\n      tag_487\n        /* \"#utility.yul\":18454:18458   */\n      dup2\n        /* \"#utility.yul\":18328:18459   */\n      tag_430\n      jump\t// in\n    tag_487:\n        /* \"#utility.yul\":18320:18459   */\n      swap1\n      pop\n        /* \"#utility.yul\":18047:18466   */\n      swap2\n      swap1\n      pop\n      jump\t// out\n        /* \"#utility.yul\":18472:18891   */\n    tag_204:\n        /* \"#utility.yul\":18638:18642   */\n      0x00\n        /* \"#utility.yul\":18676:18678   */\n      0x20\n        /* \"#utility.yul\":18665:18674   */\n      dup3\n        /* \"#utility.yul\":18661:18679   */\n      add\n        /* \"#utility.yul\":18653:18679   */\n      swap1\n      pop\n        /* \"#utility.yul\":18725:18734   */\n      dup2\n        /* \"#utility.yul\":18719:18723   */\n      dup2\n        /* \"#utility.yul\":18715:18735   */\n      sub\n        /* \"#utility.yul\":18711:18712   */\n      0x00\n        /* \"#utility.yul\":18700:18709   */\n      dup4\n        /* \"#utility.yul\":18696:18713   */\n      add\n        /* \"#utility.yul\":18689:18736   */\n      mstore\n        /* \"#utility.yul\":18753:18884   */\n      tag_489\n        /* \"#utility.yul\":18879:18883   */\n      dup2\n        /* \"#utility.yul\":18753:18884   */\n      tag_435\n      jump\t// in\n    tag_489:\n        /* \"#utility.yul\":18745:18884   */\n      swap1\n      pop\n        /* \"#utility.yul\":18472:18891   */\n      swap2\n      swap1\n      pop\n      jump\t// out\n        /* \"#utility.yul\":18897:19316   */\n    tag_99:\n        /* \"#utility.yul\":19063:19067   */\n      0x00\n        /* \"#utility.yul\":19101:19103   */\n      0x20\n        /* \"#utility.yul\":19090:19099   */\n      dup3\n        /* \"#utility.yul\":19086:19104   */\n      add\n        /* \"#utility.yul\":19078:19104   */\n      swap1\n      pop\n        /* \"#utility.yul\":19150:19159   */\n      dup2\n        /* \"#utility.yul\":19144:19148   */\n      dup2\n        /* \"#utility.yul\":19140:19160   */\n      sub\n        /* \"#utility.yul\":19136:19137   */\n      0x00\n        /* \"#utility.yul\":19125:19134   */\n      dup4\n        /* \"#utility.yul\":19121:19138   */\n      add\n        /* \"#utility.yul\":19114:19161   */\n      mstore\n        /* \"#utility.yul\":19178:19309   */\n      tag_491\n        /* \"#utility.yul\":19304:19308   */\n      dup2\n        /* \"#utility.yul\":19178:19309   */\n      tag_440\n      jump\t// in\n    tag_491:\n        /* \"#utility.yul\":19170:19309   */\n      swap1\n      pop\n        /* \"#utility.yul\":18897:19316   */\n      swap2\n      swap1\n      pop\n      jump\t// out\n        /* \"#utility.yul\":19322:19741   */\n    tag_104:\n        /* \"#utility.yul\":19488:19492   */\n      0x00\n        /* \"#utility.yul\":19526:19528   */\n      0x20\n        /* \"#utility.yul\":19515:19524   */\n      dup3\n        /* \"#utility.yul\":19511:19529   */\n      add\n        /* \"#utility.yul\":19503:19529   */\n      swap1\n      pop\n        /* \"#utility.yul\":19575:19584   */\n      dup2\n        /* \"#utility.yul\":19569:19573   */\n      dup2\n        /* \"#utility.yul\":19565:19585   */\n      sub\n        /* \"#utility.yul\":19561:19562   */\n      0x00\n        /* \"#utility.yul\":19550:19559   */\n      dup4\n        /* \"#utility.yul\":19546:19563   */\n      add\n        /* \"#utility.yul\":19539:19586   */\n      mstore\n        /* \"#utility.yul\":19603:19734   */\n      tag_493\n        /* \"#utility.yul\":19729:19733   */\n      dup2\n        /* \"#utility.yul\":19603:19734   */\n      tag_445\n      jump\t// in\n    tag_493:\n        /* \"#utility.yul\":19595:19734   */\n      swap1\n      pop\n        /* \"#utility.yul\":19322:19741   */\n      swap2\n      swap1\n      pop\n      jump\t// out\n        /* \"#utility.yul\":19747:20166   */\n    tag_121:\n        /* \"#utility.yul\":19913:19917   */\n      0x00\n        /* \"#utility.yul\":19951:19953   */\n      0x20\n        /* \"#utility.yul\":19940:19949   */\n      dup3\n        /* \"#utility.yul\":19936:19954   */\n      add\n        /* \"#utility.yul\":19928:19954   */\n      swap1\n      pop\n        /* \"#utility.yul\":20000:20009   */\n      dup2\n        /* \"#utility.yul\":19994:19998   */\n      dup2\n        /* \"#utility.yul\":19990:20010   */\n      sub\n        /* \"#utility.yul\":19986:19987   */\n      0x00\n        /* \"#utility.yul\":19975:19984   */\n      dup4\n        /* \"#utility.yul\":19971:19988   */\n      add\n        /* \"#utility.yul\":19964:20011   */\n      mstore\n        /* \"#utility.yul\":20028:20159   */\n      tag_495\n        /* \"#utility.yul\":20154:20158   */\n      dup2\n        /* \"#utility.yul\":20028:20159   */\n      tag_450\n      jump\t// in\n    tag_495:\n        /* \"#utility.yul\":20020:20159   */\n      swap1\n      pop\n        /* \"#utility.yul\":19747:20166   */\n      swap2\n      swap1\n      pop\n      jump\t// out\n        /* \"#utility.yul\":20172:20394   */\n    tag_56:\n        /* \"#utility.yul\":20265:20269   */\n      0x00\n        /* \"#utility.yul\":20303:20305   */\n      0x20\n        /* \"#utility.yul\":20292:20301   */\n      dup3\n        /* \"#utility.yul\":20288:20306   */\n      add\n        /* \"#utility.yul\":20280:20306   */\n      swap1\n      pop\n        /* \"#utility.yul\":20316:20387   */\n      tag_497\n        /* \"#utility.yul\":20384:20385   */\n      0x00\n        /* \"#utility.yul\":20373:20382   */\n      dup4\n        /* \"#utility.yul\":20369:20386   */\n      add\n        /* \"#utility.yul\":20360:20366   */\n      dup5\n        /* \"#utility.yul\":20316:20387   */\n      tag_455\n      jump\t// in\n    tag_497:\n        /* \"#utility.yul\":20172:20394   */\n      swap3\n      swap2\n      pop\n      pop\n      jump\t// out\n        /* \"#utility.yul\":20400:20529   */\n    tag_265:\n        /* \"#utility.yul\":20434:20440   */\n      0x00\n        /* \"#utility.yul\":20461:20481   */\n      tag_499\n      tag_500\n      jump\t// in\n    tag_499:\n        /* \"#utility.yul\":20451:20481   */\n      swap1\n      pop\n        /* \"#utility.yul\":20490:20523   */\n      tag_501\n        /* \"#utility.yul\":20518:20522   */\n      dup3\n        /* \"#utility.yul\":20510:20516   */\n      dup3\n        /* \"#utility.yul\":20490:20523   */\n      tag_502\n      jump\t// in\n    tag_501:\n        /* \"#utility.yul\":20400:20529   */\n      swap2\n      swap1\n      pop\n      jump\t// out\n        /* \"#utility.yul\":20535:20610   */\n    tag_500:\n        /* \"#utility.yul\":20568:20574   */\n      0x00\n        /* \"#utility.yul\":20601:20603   */\n      0x40\n        /* \"#utility.yul\":20595:20604   */\n      mload\n        /* \"#utility.yul\":20585:20604   */\n      swap1\n      pop\n        /* \"#utility.yul\":20535:20610   */\n      swap1\n      jump\t// out\n        /* \"#utility.yul\":20616:20923   */\n    tag_264:\n        /* \"#utility.yul\":20677:20681   */\n      0x00\n        /* \"#utility.yul\":20767:20785   */\n      0xffffffffffffffff\n        /* \"#utility.yul\":20759:20765   */\n      dup3\n        /* \"#utility.yul\":20756:20786   */\n      gt\n        /* \"#utility.yul\":20753:20809   */\n      iszero\n      tag_505\n      jumpi\n        /* \"#utility.yul\":20789:20807   */\n      tag_506\n      tag_507\n      jump\t// in\n    tag_506:\n        /* \"#utility.yul\":20753:20809   */\n    tag_505:\n        /* \"#utility.yul\":20827:20856   */\n      tag_508\n        /* \"#utility.yul\":20849:20855   */\n      dup3\n        /* \"#utility.yul\":20827:20856   */\n      tag_381\n      jump\t// in\n    tag_508:\n        /* \"#utility.yul\":20819:20856   */\n      swap1\n      pop\n        /* \"#utility.yul\":20911:20915   */\n      0x20\n        /* \"#utility.yul\":20905:20909   */\n      dup2\n        /* \"#utility.yul\":20901:20916   */\n      add\n        /* \"#utility.yul\":20893:20916   */\n      swap1\n      pop\n        /* \"#utility.yul\":20616:20923   */\n      swap2\n      swap1\n      pop\n      jump\t// out\n        /* \"#utility.yul\":20929:21237   */\n    tag_275:\n        /* \"#utility.yul\":20991:20995   */\n      0x00\n        /* \"#utility.yul\":21081:21099   */\n      0xffffffffffffffff\n        /* \"#utility.yul\":21073:21079   */\n      dup3\n        /* \"#utility.yul\":21070:21100   */\n      gt\n        /* \"#utility.yul\":21067:21123   */\n      iszero\n      tag_510\n      jumpi\n        /* \"#utility.yul\":21103:21121   */\n      tag_511\n      tag_507\n      jump\t// in\n    tag_511:\n        /* \"#utility.yul\":21067:21123   */\n    tag_510:\n        /* \"#utility.yul\":21141:21170   */\n      tag_512\n        /* \"#utility.yul\":21163:21169   */\n      dup3\n        /* \"#utility.yul\":21141:21170   */\n      tag_381\n      jump\t// in\n    tag_512:\n        /* \"#utility.yul\":21133:21170   */\n      swap1\n      pop\n        /* \"#utility.yul\":21225:21229   */\n      0x20\n        /* \"#utility.yul\":21219:21223   */\n      dup2\n        /* \"#utility.yul\":21215:21230   */\n      add\n        /* \"#utility.yul\":21207:21230   */\n      swap1\n      pop\n        /* \"#utility.yul\":20929:21237   */\n      swap2\n      swap1\n      pop\n      jump\t// out\n        /* \"#utility.yul\":21243:21341   */\n    tag_375:\n        /* \"#utility.yul\":21294:21300   */\n      0x00\n        /* \"#utility.yul\":21328:21333   */\n      dup2\n        /* \"#utility.yul\":21322:21334   */\n      mload\n        /* \"#utility.yul\":21312:21334   */\n      swap1\n      pop\n        /* \"#utility.yul\":21243:21341   */\n      swap2\n      swap1\n      pop\n      jump\t// out\n        /* \"#utility.yul\":21347:21446   */\n    tag_385:\n        /* \"#utility.yul\":21399:21405   */\n      0x00\n        /* \"#utility.yul\":21433:21438   */\n      dup2\n        /* \"#utility.yul\":21427:21439   */\n      mload\n        /* \"#utility.yul\":21417:21439   */\n      swap1\n      pop\n        /* \"#utility.yul\":21347:21446   */\n      swap2\n      swap1\n      pop\n      jump\t// out\n        /* \"#utility.yul\":21452:21620   */\n    tag_377:\n        /* \"#utility.yul\":21535:21546   */\n      0x00\n        /* \"#utility.yul\":21569:21575   */\n      dup3\n        /* \"#utility.yul\":21564:21567   */\n      dup3\n        /* \"#utility.yul\":21557:21576   */\n      mstore\n        /* \"#utility.yul\":21609:21613   */\n      0x20\n        /* \"#utility.yul\":21604:21607   */\n      dup3\n        /* \"#utility.yul\":21600:21614   */\n      add\n        /* \"#utility.yul\":21585:21614   */\n      swap1\n      pop\n        /* \"#utility.yul\":21452:21620   */\n      swap3\n      swap2\n      pop\n      pop\n      jump\t// out\n        /* \"#utility.yul\":21626:21795   */\n    tag_387:\n        /* \"#utility.yul\":21710:21721   */\n      0x00\n        /* \"#utility.yul\":21744:21750   */\n      dup3\n        /* \"#utility.yul\":21739:21742   */\n      dup3\n        /* \"#utility.yul\":21732:21751   */\n      mstore\n        /* \"#utility.yul\":21784:21788   */\n      0x20\n        /* \"#utility.yul\":21779:21782   */\n      dup3\n        /* \"#utility.yul\":21775:21789   */\n      add\n        /* \"#utility.yul\":21760:21789   */\n      swap1\n      pop\n        /* \"#utility.yul\":21626:21795   */\n      swap3\n      swap2\n      pop\n      pop\n      jump\t// out\n        /* \"#utility.yul\":21801:22106   */\n    tag_196:\n        /* \"#utility.yul\":21841:21844   */\n      0x00\n        /* \"#utility.yul\":21860:21880   */\n      tag_518\n        /* \"#utility.yul\":21878:21879   */\n      dup3\n        /* \"#utility.yul\":21860:21880   */\n      tag_458\n      jump\t// in\n    tag_518:\n        /* \"#utility.yul\":21855:21880   */\n      swap2\n      pop\n        /* \"#utility.yul\":21894:21914   */\n      tag_519\n        /* \"#utility.yul\":21912:21913   */\n      dup4\n        /* \"#utility.yul\":21894:21914   */\n      tag_458\n      jump\t// in\n    tag_519:\n        /* \"#utility.yul\":21889:21914   */\n      swap3\n      pop\n        /* \"#utility.yul\":22048:22049   */\n      dup3\n        /* \"#utility.yul\":21980:22046   */\n      0xffffffffffffffffffffffffffffffffffffffffffffffffffffffffffffffff\n        /* \"#utility.yul\":21976:22050   */\n      sub\n        /* \"#utility.yul\":21973:21974   */\n      dup3\n        /* \"#utility.yul\":21970:22051   */\n      gt\n        /* \"#utility.yul\":21967:22074   */\n      iszero\n      tag_520\n      jumpi\n        /* \"#utility.yul\":22054:22072   */\n      tag_521\n      tag_522\n      jump\t// in\n    tag_521:\n        /* \"#utility.yul\":21967:22074   */\n    tag_520:\n        /* \"#utility.yul\":22098:22099   */\n      dup3\n        /* \"#utility.yul\":22095:22096   */\n      dup3\n        /* \"#utility.yul\":22091:22100   */\n      add\n        /* \"#utility.yul\":22084:22100   */\n      swap1\n      pop\n        /* \"#utility.yul\":21801:22106   */\n      swap3\n      swap2\n      pop\n      pop\n      jump\t// out\n        /* \"#utility.yul\":22112:22303   */\n    tag_194:\n        /* \"#utility.yul\":22152:22156   */\n      0x00\n        /* \"#utility.yul\":22172:22192   */\n      tag_524\n        /* \"#utility.yul\":22190:22191   */\n      dup3\n        /* \"#utility.yul\":22172:22192   */\n      tag_458\n      jump\t// in\n    tag_524:\n        /* \"#utility.yul\":22167:22192   */\n      swap2\n      pop\n        /* \"#utility.yul\":22206:22226   */\n      tag_525\n        /* \"#utility.yul\":22224:22225   */\n      dup4\n        /* \"#utility.yul\":22206:22226   */\n      tag_458\n      jump\t// in\n    tag_525:\n        /* \"#utility.yul\":22201:22226   */\n      swap3\n      pop\n        /* \"#utility.yul\":22245:22246   */\n      dup3\n        /* \"#utility.yul\":22242:22243   */\n      dup3\n        /* \"#utility.yul\":22239:22247   */\n      lt\n        /* \"#utility.yul\":22236:22270   */\n      iszero\n      tag_526\n      jumpi\n        /* \"#utility.yul\":22250:22268   */\n      tag_527\n      tag_522\n      jump\t// in\n    tag_527:\n        /* \"#utility.yul\":22236:22270   */\n    tag_526:\n        /* \"#utility.yul\":22295:22296   */\n      dup3\n        /* \"#utility.yul\":22292:22293   */\n      dup3\n        /* \"#utility.yul\":22288:22297   */\n      sub\n        /* \"#utility.yul\":22280:22297   */\n      swap1\n      pop\n        /* \"#utility.yul\":22112:22303   */\n      swap3\n      swap2\n      pop\n      pop\n      jump\t// out\n        /* \"#utility.yul\":22309:22405   */\n    tag_367:\n        /* \"#utility.yul\":22346:22353   */\n      0x00\n        /* \"#utility.yul\":22375:22399   */\n      tag_529\n        /* \"#utility.yul\":22393:22398   */\n      dup3\n        /* \"#utility.yul\":22375:22399   */\n      tag_530\n      jump\t// in\n    tag_529:\n        /* \"#utility.yul\":22364:22399   */\n      swap1\n      pop\n        /* \"#utility.yul\":22309:22405   */\n      swap2\n      swap1\n      pop\n      jump\t// out\n        /* \"#utility.yul\":22411:22501   */\n    tag_371:\n        /* \"#utility.yul\":22445:22452   */\n      0x00\n        /* \"#utility.yul\":22488:22493   */\n      dup2\n        /* \"#utility.yul\":22481:22494   */\n      iszero\n        /* \"#utility.yul\":22474:22495   */\n      iszero\n        /* \"#utility.yul\":22463:22495   */\n      swap1\n      pop\n        /* \"#utility.yul\":22411:22501   */\n      swap2\n      swap1\n      pop\n      jump\t// out\n        /* \"#utility.yul\":22507:22656   */\n    tag_532:\n        /* \"#utility.yul\":22543:22550   */\n      0x00\n        /* \"#utility.yul\":22583:22649   */\n      0xffffffff00000000000000000000000000000000000000000000000000000000\n        /* \"#utility.yul\":22576:22581   */\n      dup3\n        /* \"#utility.yul\":22572:22650   */\n      and\n        /* \"#utility.yul\":22561:22650   */\n      swap1\n      pop\n        /* \"#utility.yul\":22507:22656   */\n      swap2\n      swap1\n      pop\n      jump\t// out\n        /* \"#utility.yul\":22662:22788   */\n    tag_530:\n        /* \"#utility.yul\":22699:22706   */\n      0x00\n        /* \"#utility.yul\":22739:22781   */\n      0xffffffffffffffffffffffffffffffffffffffff\n        /* \"#utility.yul\":22732:22737   */\n      dup3\n        /* \"#utility.yul\":22728:22782   */\n      and\n        /* \"#utility.yul\":22717:22782   */\n      swap1\n      pop\n        /* \"#utility.yul\":22662:22788   */\n      swap2\n      swap1\n      pop\n      jump\t// out\n        /* \"#utility.yul\":22794:22871   */\n    tag_458:\n        /* \"#utility.yul\":22831:22838   */\n      0x00\n        /* \"#utility.yul\":22860:22865   */\n      dup2\n        /* \"#utility.yul\":22849:22865   */\n      swap1\n      pop\n        /* \"#utility.yul\":22794:22871   */\n      swap2\n      swap1\n      pop\n      jump\t// out\n        /* \"#utility.yul\":22877:23031   */\n    tag_270:\n        /* \"#utility.yul\":22961:22967   */\n      dup3\n        /* \"#utility.yul\":22956:22959   */\n      dup2\n        /* \"#utility.yul\":22951:22954   */\n      dup4\n        /* \"#utility.yul\":22938:22968   */\n      calldatacopy\n        /* \"#utility.yul\":23023:23024   */\n      0x00\n        /* \"#utility.yul\":23014:23020   */\n      dup4\n        /* \"#utility.yul\":23009:23012   */\n      dup4\n        /* \"#utility.yul\":23005:23021   */\n      add\n        /* \"#utility.yul\":22998:23025   */\n      mstore\n        /* \"#utility.yul\":22877:23031   */\n      pop\n      pop\n      pop\n      jump\t// out\n        /* \"#utility.yul\":23037:23344   */\n    tag_379:\n        /* \"#utility.yul\":23105:23106   */\n      0x00\n        /* \"#utility.yul\":23115:23228   */\n    tag_538:\n        /* \"#utility.yul\":23129:23135   */\n      dup4\n        /* \"#utility.yul\":23126:23127   */\n      dup2\n        /* \"#utility.yul\":23123:23136   */\n      lt\n        /* \"#utility.yul\":23115:23228   */\n      iszero\n      tag_540\n      jumpi\n        /* \"#utility.yul\":23214:23215   */\n      dup1\n        /* \"#utility.yul\":23209:23212   */\n      dup3\n        /* \"#utility.yul\":23205:23216   */\n      add\n        /* \"#utility.yul\":23199:23217   */\n      mload\n        /* \"#utility.yul\":23195:23196   */\n      dup2\n        /* \"#utility.yul\":23190:23193   */\n      dup5\n        /* \"#utility.yul\":23186:23197   */\n      add\n        /* \"#utility.yul\":23179:23218   */\n      mstore\n        /* \"#utility.yul\":23151:23153   */\n      0x20\n        /* \"#utility.yul\":23148:23149   */\n      dup2\n        /* \"#utility.yul\":23144:23154   */\n      add\n        /* \"#utility.yul\":23139:23154   */\n      swap1\n      pop\n        /* \"#utility.yul\":23115:23228   */\n      jump(tag_538)\n    tag_540:\n        /* \"#utility.yul\":23246:23252   */\n      dup4\n        /* \"#utility.yul\":23243:23244   */\n      dup2\n        /* \"#utility.yul\":23240:23253   */\n      gt\n        /* \"#utility.yul\":23237:23338   */\n      iszero\n      tag_541\n      jumpi\n        /* \"#utility.yul\":23326:23327   */\n      0x00\n        /* \"#utility.yul\":23317:23323   */\n      dup5\n        /* \"#utility.yul\":23312:23315   */\n      dup5\n        /* \"#utility.yul\":23308:23324   */\n      add\n        /* \"#utility.yul\":23301:23328   */\n      mstore\n        /* \"#utility.yul\":23237:23338   */\n    tag_541:\n        /* \"#utility.yul\":23086:23344   */\n      pop\n        /* \"#utility.yul\":23037:23344   */\n      pop\n      pop\n      pop\n      jump\t// out\n        /* \"#utility.yul\":23350:23670   */\n    tag_89:\n        /* \"#utility.yul\":23394:23400   */\n      0x00\n        /* \"#utility.yul\":23431:23432   */\n      0x02\n        /* \"#utility.yul\":23425:23429   */\n      dup3\n        /* \"#utility.yul\":23421:23433   */\n      div\n        /* \"#utility.yul\":23411:23433   */\n      swap1\n      pop\n        /* \"#utility.yul\":23478:23479   */\n      0x01\n        /* \"#utility.yul\":23472:23476   */\n      dup3\n        /* \"#utility.yul\":23468:23480   */\n      and\n        /* \"#utility.yul\":23499:23517   */\n      dup1\n        /* \"#utility.yul\":23489:23570   */\n      tag_543\n      jumpi\n        /* \"#utility.yul\":23555:23559   */\n      0x7f\n        /* \"#utility.yul\":23547:23553   */\n      dup3\n        /* \"#utility.yul\":23543:23560   */\n      and\n        /* \"#utility.yul\":23533:23560   */\n      swap2\n      pop\n        /* \"#utility.yul\":23489:23570   */\n    tag_543:\n        /* \"#utility.yul\":23617:23619   */\n      0x20\n        /* \"#utility.yul\":23609:23615   */\n      dup3\n        /* \"#utility.yul\":23606:23620   */\n      lt\n        /* \"#utility.yul\":23586:23604   */\n      dup2\n        /* \"#utility.yul\":23583:23621   */\n      eq\n        /* \"#utility.yul\":23580:23664   */\n      iszero\n      tag_544\n      jumpi\n        /* \"#utility.yul\":23636:23654   */\n      tag_545\n      tag_546\n      jump\t// in\n    tag_545:\n        /* \"#utility.yul\":23580:23664   */\n    tag_544:\n        /* \"#utility.yul\":23401:23670   */\n      pop\n        /* \"#utility.yul\":23350:23670   */\n      swap2\n      swap1\n      pop\n      jump\t// out\n        /* \"#utility.yul\":23676:23957   */\n    tag_502:\n        /* \"#utility.yul\":23759:23786   */\n      tag_548\n        /* \"#utility.yul\":23781:23785   */\n      dup3\n        /* \"#utility.yul\":23759:23786   */\n      tag_381\n      jump\t// in\n    tag_548:\n        /* \"#utility.yul\":23751:23757   */\n      dup2\n        /* \"#utility.yul\":23747:23787   */\n      add\n        /* \"#utility.yul\":23889:23895   */\n      dup2\n        /* \"#utility.yul\":23877:23887   */\n      dup2\n        /* \"#utility.yul\":23874:23896   */\n      lt\n        /* \"#utility.yul\":23853:23871   */\n      0xffffffffffffffff\n        /* \"#utility.yul\":23841:23851   */\n      dup3\n        /* \"#utility.yul\":23838:23872   */\n      gt\n        /* \"#utility.yul\":23835:23897   */\n      or\n        /* \"#utility.yul\":23832:23920   */\n      iszero\n      tag_549\n      jumpi\n        /* \"#utility.yul\":23900:23918   */\n      tag_550\n      tag_507\n      jump\t// in\n    tag_550:\n        /* \"#utility.yul\":23832:23920   */\n    tag_549:\n        /* \"#utility.yul\":23940:23950   */\n      dup1\n        /* \"#utility.yul\":23936:23938   */\n      0x40\n        /* \"#utility.yul\":23929:23951   */\n      mstore\n        /* \"#utility.yul\":23719:23957   */\n      pop\n        /* \"#utility.yul\":23676:23957   */\n      pop\n      pop\n      jump\t// out\n        /* \"#utility.yul\":23963:24143   */\n    tag_522:\n        /* \"#utility.yul\":24011:24088   */\n      0x4e487b7100000000000000000000000000000000000000000000000000000000\n        /* \"#utility.yul\":24008:24009   */\n      0x00\n        /* \"#utility.yul\":24001:24089   */\n      mstore\n        /* \"#utility.yul\":24108:24112   */\n      0x11\n        /* \"#utility.yul\":24105:24106   */\n      0x04\n        /* \"#utility.yul\":24098:24113   */\n      mstore\n        /* \"#utility.yul\":24132:24136   */\n      0x24\n        /* \"#utility.yul\":24129:24130   */\n      0x00\n        /* \"#utility.yul\":24122:24137   */\n      revert\n        /* \"#utility.yul\":24149:24329   */\n    tag_546:\n        /* \"#utility.yul\":24197:24274   */\n      0x4e487b7100000000000000000000000000000000000000000000000000000000\n        /* \"#utility.yul\":24194:24195   */\n      0x00\n        /* \"#utility.yul\":24187:24275   */\n      mstore\n        /* \"#utility.yul\":24294:24298   */\n      0x22\n        /* \"#utility.yul\":24291:24292   */\n      0x04\n        /* \"#utility.yul\":24284:24299   */\n      mstore\n        /* \"#utility.yul\":24318:24322   */\n      0x24\n        /* \"#utility.yul\":24315:24316   */\n      0x00\n        /* \"#utility.yul\":24308:24323   */\n      revert\n        /* \"#utility.yul\":24335:24515   */\n    tag_507:\n        /* \"#utility.yul\":24383:24460   */\n      0x4e487b7100000000000000000000000000000000000000000000000000000000\n        /* \"#utility.yul\":24380:24381   */\n      0x00\n        /* \"#utility.yul\":24373:24461   */\n      mstore\n        /* \"#utility.yul\":24480:24484   */\n      0x41\n        /* \"#utility.yul\":24477:24478   */\n      0x04\n        /* \"#utility.yul\":24470:24485   */\n      mstore\n        /* \"#utility.yul\":24504:24508   */\n      0x24\n        /* \"#utility.yul\":24501:24502   */\n      0x00\n        /* \"#utility.yul\":24494:24509   */\n      revert\n        /* \"#utility.yul\":24521:24638   */\n    tag_298:\n        /* \"#utility.yul\":24630:24631   */\n      0x00\n        /* \"#utility.yul\":24627:24628   */\n      dup1\n        /* \"#utility.yul\":24620:24632   */\n      revert\n        /* \"#utility.yul\":24644:24761   */\n    tag_268:\n        /* \"#utility.yul\":24753:24754   */\n      0x00\n        /* \"#utility.yul\":24750:24751   */\n      dup1\n        /* \"#utility.yul\":24743:24755   */\n      revert\n        /* \"#utility.yul\":24767:24884   */\n    tag_333:\n        /* \"#utility.yul\":24876:24877   */\n      0x00\n        /* \"#utility.yul\":24873:24874   */\n      dup1\n        /* \"#utility.yul\":24866:24878   */\n      revert\n        /* \"#utility.yul\":24890:25007   */\n    tag_312:\n        /* \"#utility.yul\":24999:25000   */\n      0x00\n        /* \"#utility.yul\":24996:24997   */\n      dup1\n        /* \"#utility.yul\":24989:25001   */\n      revert\n        /* \"#utility.yul\":25013:25115   */\n    tag_381:\n        /* \"#utility.yul\":25054:25060   */\n      0x00\n        /* \"#utility.yul\":25105:25107   */\n      0x1f\n        /* \"#utility.yul\":25101:25108   */\n      not\n        /* \"#utility.yul\":25096:25098   */\n      0x1f\n        /* \"#utility.yul\":25089:25094   */\n      dup4\n        /* \"#utility.yul\":25085:25099   */\n      add\n        /* \"#utility.yul\":25081:25109   */\n      and\n        /* \"#utility.yul\":25071:25109   */\n      swap1\n      pop\n        /* \"#utility.yul\":25013:25115   */\n      swap2\n      swap1\n      pop\n      jump\t// out\n        /* \"#utility.yul\":25121:25358   */\n    tag_394:\n        /* \"#utility.yul\":25261:25295   */\n      0x4552433732313a207472616e7366657220746f206e6f6e204552433732315265\n        /* \"#utility.yul\":25257:25258   */\n      0x00\n        /* \"#utility.yul\":25249:25255   */\n      dup3\n        /* \"#utility.yul\":25245:25259   */\n      add\n        /* \"#utility.yul\":25238:25296   */\n      mstore\n        /* \"#utility.yul\":25330:25350   */\n      0x63656976657220696d706c656d656e7465720000000000000000000000000000\n        /* \"#utility.yul\":25325:25327   */\n      0x20\n        /* \"#utility.yul\":25317:25323   */\n      dup3\n        /* \"#utility.yul\":25313:25328   */\n      add\n        /* \"#utility.yul\":25306:25351   */\n      mstore\n        /* \"#utility.yul\":25121:25358   */\n      pop\n      jump\t// out\n        /* \"#utility.yul\":25364:25588   */\n    tag_399:\n        /* \"#utility.yul\":25504:25538   */\n      0x4552433732313a207472616e736665722066726f6d20696e636f727265637420\n        /* \"#utility.yul\":25500:25501   */\n      0x00\n        /* \"#utility.yul\":25492:25498   */\n      dup3\n        /* \"#utility.yul\":25488:25502   */\n      add\n        /* \"#utility.yul\":25481:25539   */\n      mstore\n        /* \"#utility.yul\":25573:25580   */\n      0x6f776e6572000000000000000000000000000000000000000000000000000000\n        /* \"#utility.yul\":25568:25570   */\n      0x20\n        /* \"#utility.yul\":25560:25566   */\n      dup3\n        /* \"#utility.yul\":25556:25571   */\n      add\n        /* \"#utility.yul\":25549:25581   */\n      mstore\n        /* \"#utility.yul\":25364:25588   */\n      pop\n      jump\t// out\n        /* \"#utility.yul\":25594:25772   */\n    tag_404:\n        /* \"#utility.yul\":25734:25764   */\n      0x4552433732313a20746f6b656e20616c7265616479206d696e74656400000000\n        /* \"#utility.yul\":25730:25731   */\n      0x00\n        /* \"#utility.yul\":25722:25728   */\n      dup3\n        /* \"#utility.yul\":25718:25732   */\n      add\n        /* \"#utility.yul\":25711:25765   */\n      mstore\n        /* \"#utility.yul\":25594:25772   */\n      pop\n      jump\t// out\n        /* \"#utility.yul\":25778:26001   */\n    tag_409:\n        /* \"#utility.yul\":25918:25952   */\n      0x4552433732313a207472616e7366657220746f20746865207a65726f20616464\n        /* \"#utility.yul\":25914:25915   */\n      0x00\n        /* \"#utility.yul\":25906:25912   */\n      dup3\n        /* \"#utility.yul\":25902:25916   */\n      add\n        /* \"#utility.yul\":25895:25953   */\n      mstore\n        /* \"#utility.yul\":25987:25993   */\n      0x7265737300000000000000000000000000000000000000000000000000000000\n        /* \"#utility.yul\":25982:25984   */\n      0x20\n        /* \"#utility.yul\":25974:25980   */\n      dup3\n        /* \"#utility.yul\":25970:25985   */\n      add\n        /* \"#utility.yul\":25963:25994   */\n      mstore\n        /* \"#utility.yul\":25778:26001   */\n      pop\n      jump\t// out\n        /* \"#utility.yul\":26007:26182   */\n    tag_414:\n        /* \"#utility.yul\":26147:26174   */\n      0x4552433732313a20617070726f766520746f2063616c6c657200000000000000\n        /* \"#utility.yul\":26143:26144   */\n      0x00\n        /* \"#utility.yul\":26135:26141   */\n      dup3\n        /* \"#utility.yul\":26131:26145   */\n      add\n        /* \"#utility.yul\":26124:26175   */\n      mstore\n        /* \"#utility.yul\":26007:26182   */\n      pop\n      jump\t// out\n        /* \"#utility.yul\":26188:26419   */\n    tag_419:\n        /* \"#utility.yul\":26328:26362   */\n      0x4552433732313a206f70657261746f7220717565727920666f72206e6f6e6578\n        /* \"#utility.yul\":26324:26325   */\n      0x00\n        /* \"#utility.yul\":26316:26322   */\n      dup3\n        /* \"#utility.yul\":26312:26326   */\n      add\n        /* \"#utility.yul\":26305:26363   */\n      mstore\n        /* \"#utility.yul\":26397:26411   */\n      0x697374656e7420746f6b656e0000000000000000000000000000000000000000\n        /* \"#utility.yul\":26392:26394   */\n      0x20\n        /* \"#utility.yul\":26384:26390   */\n      dup3\n        /* \"#utility.yul\":26380:26395   */\n      add\n        /* \"#utility.yul\":26373:26412   */\n      mstore\n        /* \"#utility.yul\":26188:26419   */\n      pop\n      jump\t// out\n        /* \"#utility.yul\":26425:26668   */\n    tag_424:\n        /* \"#utility.yul\":26565:26599   */\n      0x4552433732313a20617070726f76652063616c6c6572206973206e6f74206f77\n        /* \"#utility.yul\":26561:26562   */\n      0x00\n        /* \"#utility.yul\":26553:26559   */\n      dup3\n        /* \"#utility.yul\":26549:26563   */\n      add\n        /* \"#utility.yul\":26542:26600   */\n      mstore\n        /* \"#utility.yul\":26634:26660   */\n      0x6e6572206e6f7220617070726f76656420666f7220616c6c0000000000000000\n        /* \"#utility.yul\":26629:26631   */\n      0x20\n        /* \"#utility.yul\":26621:26627   */\n      dup3\n        /* \"#utility.yul\":26617:26632   */\n      add\n        /* \"#utility.yul\":26610:26661   */\n      mstore\n        /* \"#utility.yul\":26425:26668   */\n      pop\n      jump\t// out\n        /* \"#utility.yul\":26674:26903   */\n    tag_429:\n        /* \"#utility.yul\":26814:26848   */\n      0x4552433732313a2062616c616e636520717565727920666f7220746865207a65\n        /* \"#utility.yul\":26810:26811   */\n      0x00\n        /* \"#utility.yul\":26802:26808   */\n      dup3\n        /* \"#utility.yul\":26798:26812   */\n      add\n        /* \"#utility.yul\":26791:26849   */\n      mstore\n        /* \"#utility.yul\":26883:26895   */\n      0x726f206164647265737300000000000000000000000000000000000000000000\n        /* \"#utility.yul\":26878:26880   */\n      0x20\n        /* \"#utility.yul\":26870:26876   */\n      dup3\n        /* \"#utility.yul\":26866:26881   */\n      add\n        /* \"#utility.yul\":26859:26896   */\n      mstore\n        /* \"#utility.yul\":26674:26903   */\n      pop\n      jump\t// out\n        /* \"#utility.yul\":26909:27137   */\n    tag_434:\n        /* \"#utility.yul\":27049:27083   */\n      0x4552433732313a206f776e657220717565727920666f72206e6f6e6578697374\n        /* \"#utility.yul\":27045:27046   */\n      0x00\n        /* \"#utility.yul\":27037:27043   */\n      dup3\n        /* \"#utility.yul\":27033:27047   */\n      add\n        /* \"#utility.yul\":27026:27084   */\n      mstore\n        /* \"#utility.yul\":27118:27129   */\n      0x656e7420746f6b656e0000000000000000000000000000000000000000000000\n        /* \"#utility.yul\":27113:27115   */\n      0x20\n        /* \"#utility.yul\":27105:27111   */\n      dup3\n        /* \"#utility.yul\":27101:27116   */\n      add\n        /* \"#utility.yul\":27094:27130   */\n      mstore\n        /* \"#utility.yul\":26909:27137   */\n      pop\n      jump\t// out\n        /* \"#utility.yul\":27143:27325   */\n    tag_439:\n        /* \"#utility.yul\":27283:27317   */\n      0x4552433732313a206d696e7420746f20746865207a65726f2061646472657373\n        /* \"#utility.yul\":27279:27280   */\n      0x00\n        /* \"#utility.yul\":27271:27277   */\n      dup3\n        /* \"#utility.yul\":27267:27281   */\n      add\n        /* \"#utility.yul\":27260:27318   */\n      mstore\n        /* \"#utility.yul\":27143:27325   */\n      pop\n      jump\t// out\n        /* \"#utility.yul\":27331:27562   */\n    tag_444:\n        /* \"#utility.yul\":27471:27505   */\n      0x4552433732313a20617070726f76656420717565727920666f72206e6f6e6578\n        /* \"#utility.yul\":27467:27468   */\n      0x00\n        /* \"#utility.yul\":27459:27465   */\n      dup3\n        /* \"#utility.yul\":27455:27469   */\n      add\n        /* \"#utility.yul\":27448:27506   */\n      mstore\n        /* \"#utility.yul\":27540:27554   */\n      0x697374656e7420746f6b656e0000000000000000000000000000000000000000\n        /* \"#utility.yul\":27535:27537   */\n      0x20\n        /* \"#utility.yul\":27527:27533   */\n      dup3\n        /* \"#utility.yul\":27523:27538   */\n      add\n        /* \"#utility.yul\":27516:27555   */\n      mstore\n        /* \"#utility.yul\":27331:27562   */\n      pop\n      jump\t// out\n        /* \"#utility.yul\":27568:27788   */\n    tag_449:\n        /* \"#utility.yul\":27708:27742   */\n      0x4552433732313a20617070726f76616c20746f2063757272656e74206f776e65\n        /* \"#utility.yul\":27704:27705   */\n      0x00\n        /* \"#utility.yul\":27696:27702   */\n      dup3\n        /* \"#utility.yul\":27692:27706   */\n      add\n        /* \"#utility.yul\":27685:27743   */\n      mstore\n        /* \"#utility.yul\":27777:27780   */\n      0x7200000000000000000000000000000000000000000000000000000000000000\n        /* \"#utility.yul\":27772:27774   */\n      0x20\n        /* \"#utility.yul\":27764:27770   */\n      dup3\n        /* \"#utility.yul\":27760:27775   */\n      add\n        /* \"#utility.yul\":27753:27781   */\n      mstore\n        /* \"#utility.yul\":27568:27788   */\n      pop\n      jump\t// out\n        /* \"#utility.yul\":27794:28030   */\n    tag_454:\n        /* \"#utility.yul\":27934:27968   */\n      0x4552433732313a207472616e736665722063616c6c6572206973206e6f74206f\n        /* \"#utility.yul\":27930:27931   */\n      0x00\n        /* \"#utility.yul\":27922:27928   */\n      dup3\n        /* \"#utility.yul\":27918:27932   */\n      add\n        /* \"#utility.yul\":27911:27969   */\n      mstore\n        /* \"#utility.yul\":28003:28022   */\n      0x776e6572206e6f7220617070726f766564000000000000000000000000000000\n        /* \"#utility.yul\":27998:28000   */\n      0x20\n        /* \"#utility.yul\":27990:27996   */\n      dup3\n        /* \"#utility.yul\":27986:28001   */\n      add\n        /* \"#utility.yul\":27979:28023   */\n      mstore\n        /* \"#utility.yul\":27794:28030   */\n      pop\n      jump\t// out\n        /* \"#utility.yul\":28036:28158   */\n    tag_282:\n        /* \"#utility.yul\":28109:28133   */\n      tag_573\n        /* \"#utility.yul\":28127:28132   */\n      dup2\n        /* \"#utility.yul\":28109:28133   */\n      tag_367\n      jump\t// in\n    tag_573:\n        /* \"#utility.yul\":28102:28107   */\n      dup2\n        /* \"#utility.yul\":28099:28134   */\n      eq\n        /* \"#utility.yul\":28089:28152   */\n      tag_574\n      jumpi\n        /* \"#utility.yul\":28148:28149   */\n      0x00\n        /* \"#utility.yul\":28145:28146   */\n      dup1\n        /* \"#utility.yul\":28138:28150   */\n      revert\n        /* \"#utility.yul\":28089:28152   */\n    tag_574:\n        /* \"#utility.yul\":28036:28158   */\n      pop\n      jump\t// out\n        /* \"#utility.yul\":28164:28280   */\n    tag_286:\n        /* \"#utility.yul\":28234:28255   */\n      tag_576\n        /* \"#utility.yul\":28249:28254   */\n      dup2\n        /* \"#utility.yul\":28234:28255   */\n      tag_371\n      jump\t// in\n    tag_576:\n        /* \"#utility.yul\":28227:28232   */\n      dup2\n        /* \"#utility.yul\":28224:28256   */\n      eq\n        /* \"#utility.yul\":28214:28274   */\n      tag_577\n      jumpi\n        /* \"#utility.yul\":28270:28271   */\n      0x00\n        /* \"#utility.yul\":28267:28268   */\n      dup1\n        /* \"#utility.yul\":28260:28272   */\n      revert\n        /* \"#utility.yul\":28214:28274   */\n    tag_577:\n        /* \"#utility.yul\":28164:28280   */\n      pop\n      jump\t// out\n        /* \"#utility.yul\":28286:28406   */\n    tag_290:\n        /* \"#utility.yul\":28358:28381   */\n      tag_579\n        /* \"#utility.yul\":28375:28380   */\n      dup2\n        /* \"#utility.yul\":28358:28381   */\n      tag_532\n      jump\t// in\n    tag_579:\n        /* \"#utility.yul\":28351:28356   */\n      dup2\n        /* \"#utility.yul\":28348:28382   */\n      eq\n        /* \"#utility.yul\":28338:28400   */\n      tag_580\n      jumpi\n        /* \"#utility.yul\":28396:28397   */\n      0x00\n        /* \"#utility.yul\":28393:28394   */\n      dup1\n        /* \"#utility.yul\":28386:28398   */\n      revert\n        /* \"#utility.yul\":28338:28400   */\n    tag_580:\n        /* \"#utility.yul\":28286:28406   */\n      pop\n      jump\t// out\n        /* \"#utility.yul\":28412:28534   */\n    tag_308:\n        /* \"#utility.yul\":28485:28509   */\n      tag_582\n        /* \"#utility.yul\":28503:28508   */\n      dup2\n        /* \"#utility.yul\":28485:28509   */\n      tag_458\n      jump\t// in\n    tag_582:\n        /* \"#utility.yul\":28478:28483   */\n      dup2\n        /* \"#utility.yul\":28475:28510   */\n      eq\n        /* \"#utility.yul\":28465:28528   */\n      tag_583\n      jumpi\n        /* \"#utility.yul\":28524:28525   */\n      0x00\n        /* \"#utility.yul\":28521:28522   */\n      dup1\n        /* \"#utility.yul\":28514:28526   */\n      revert\n        /* \"#utility.yul\":28465:28528   */\n    tag_583:\n        /* \"#utility.yul\":28412:28534   */\n      pop\n      jump\t// out\n\n    auxdata: 0xa2646970667358221220c06271c05eb1fafac9c90e6f71e1653e0a075f488c09acc68db6c92d074a377d64736f6c63430008070033\n}\n",
				"bytecode": {
					"linkReferences": {},
					"object": "60806040523480156200001157600080fd5b506040518060400160405280600981526020017f7070546573744e465400000000000000000000000000000000000000000000008152506040518060400160405280600981526020017f4450544553544e46540000000000000000000000000000000000000000000000815250816000908051906020019062000096929190620000b8565b508060019080519060200190620000af929190620000b8565b505050620001cd565b828054620000c69062000168565b90600052602060002090601f016020900481019282620000ea576000855562000136565b82601f106200010557805160ff191683800117855562000136565b8280016001018555821562000136579182015b828111156200013557825182559160200191906001019062000118565b5b50905062000145919062000149565b5090565b5b80821115620001645760008160009055506001016200014a565b5090565b600060028204905060018216806200018157607f821691505b602082108114156200019857620001976200019e565b5b50919050565b7f4e487b7100000000000000000000000000000000000000000000000000000000600052602260045260246000fd5b61259080620001dd6000396000f3fe608060405234801561001057600080fd5b50600436106100ea5760003560e01c806370a082311161008c578063a22cb46511610066578063a22cb4651461026f578063b88d4fde1461028b578063c87b56dd146102a7578063e985e9c5146102d7576100ea565b806370a08231146101f157806395d89b4114610221578063a15ab08d1461023f576100ea565b8063095ea7b3116100c8578063095ea7b31461016d57806323b872dd1461018957806342842e0e146101a55780636352211e146101c1576100ea565b806301ffc9a7146100ef57806306fdde031461011f578063081812fc1461013d575b600080fd5b6101096004803603810190610104919061190d565b610307565b6040516101169190611c61565b60405180910390f35b6101276103e9565b6040516101349190611c7c565b60405180910390f35b61015760048036038101906101529190611967565b61047b565b6040516101649190611bfa565b60405180910390f35b610187600480360381019061018291906118cd565b610500565b005b6101a3600480360381019061019e919061175b565b610618565b005b6101bf60048036038101906101ba919061175b565b610678565b005b6101db60048036038101906101d69190611967565b610698565b6040516101e89190611bfa565b60405180910390f35b61020b600480360381019061020691906116ee565b61074a565b6040516102189190611e3e565b60405180910390f35b610229610802565b6040516102369190611c7c565b60405180910390f35b61025960048036038101906102549190611871565b610894565b6040516102669190611e3e565b60405180910390f35b61028960048036038101906102849190611831565b6108ea565b005b6102a560048036038101906102a091906117ae565b610900565b005b6102c160048036038101906102bc9190611967565b610962565b6040516102ce9190611c7c565b60405180910390f35b6102f160048036038101906102ec919061171b565b610a07565b6040516102fe9190611c61565b60405180910390f35b60007f80ac58cd000000000000000000000000000000000000000000000000000000007bffffffffffffffffffffffffffffffffffffffffffffffffffffffff1916827bffffffffffffffffffffffffffffffffffffffffffffffffffffffff191614806103d257507f5b5e139f000000000000000000000000000000000000000000000000000000007bffffffffffffffffffffffffffffffffffffffffffffffffffffffff1916827bffffffffffffffffffffffffffffffffffffffffffffffffffffffff1916145b806103e257506103e182610a9b565b5b9050919050565b6060600080546103f890612058565b80601f016020809104026020016040519081016040528092919081815260200182805461042490612058565b80156104715780601f1061044657610100808354040283529160200191610471565b820191906000526020600020905b81548152906001019060200180831161045457829003601f168201915b5050505050905090565b600061048682610b05565b6104c5576040517f08c379a00000000000000000000000000000000000000000000000000000000081526004016104bc90611dde565b60405180910390fd5b6004600083815260200190815260200160002060009054906101000a900473ffffffffffffffffffffffffffffffffffffffff169050919050565b600061050b82610698565b90508073ffffffffffffffffffffffffffffffffffffffff168373ffffffffffffffffffffffffffffffffffffffff16141561057c576040517f08c379a000000000000000000000000000000000000000000000000000000000815260040161057390611dfe565b60405180910390fd5b8073ffffffffffffffffffffffffffffffffffffffff1661059b610b71565b73ffffffffffffffffffffffffffffffffffffffff1614806105ca57506105c9816105c4610b71565b610a07565b5b610609576040517f08c379a000000000000000000000000000000000000000000000000000000000815260040161060090611d5e565b60405180910390fd5b6106138383610b79565b505050565b610629610623610b71565b82610c32565b610668576040517f08c379a000000000000000000000000000000000000000000000000000000000815260040161065f90611e1e565b60405180910390fd5b610673838383610d10565b505050565b61069383838360405180602001604052806000815250610900565b505050565b6000806002600084815260200190815260200160002060009054906101000a900473ffffffffffffffffffffffffffffffffffffffff169050600073ffffffffffffffffffffffffffffffffffffffff168173ffffffffffffffffffffffffffffffffffffffff161415610741576040517f08c379a000000000000000000000000000000000000000000000000000000000815260040161073890611d9e565b60405180910390fd5b80915050919050565b60008073ffffffffffffffffffffffffffffffffffffffff168273ffffffffffffffffffffffffffffffffffffffff1614156107bb576040517f08c379a00000000000000000000000000000000000000000000000000000000081526004016107b290611d7e565b60405180910390fd5b600360008373ffffffffffffffffffffffffffffffffffffffff1673ffffffffffffffffffffffffffffffffffffffff168152602001908152602001600020549050919050565b60606001805461081190612058565b80601f016020809104026020016040519081016040528092919081815260200182805461083d90612058565b801561088a5780601f1061085f5761010080835404028352916020019161088a565b820191906000526020600020905b81548152906001019060200180831161086d57829003601f168201915b5050505050905090565b60006108a06006610f77565b60006108ac6006610f8d565b90506108b88482610f9b565b826007600083815260200190815260200160002090805190602001906108df929190611502565b508091505092915050565b6108fc6108f5610b71565b8383611175565b5050565b61091161090b610b71565b83610c32565b610950576040517f08c379a000000000000000000000000000000000000000000000000000000000815260040161094790611e1e565b60405180910390fd5b61095c848484846112e2565b50505050565b606060076000838152602001908152602001600020805461098290612058565b80601f01602080910402602001604051908101604052809291908181526020018280546109ae90612058565b80156109fb5780601f106109d0576101008083540402835291602001916109fb565b820191906000526020600020905b8154815290600101906020018083116109de57829003601f168201915b50505050509050919050565b6000600560008473ffffffffffffffffffffffffffffffffffffffff1673ffffffffffffffffffffffffffffffffffffffff16815260200190815260200160002060008373ffffffffffffffffffffffffffffffffffffffff1673ffffffffffffffffffffffffffffffffffffffff16815260200190815260200160002060009054906101000a900460ff16905092915050565b60007f01ffc9a7000000000000000000000000000000000000000000000000000000007bffffffffffffffffffffffffffffffffffffffffffffffffffffffff1916827bffffffffffffffffffffffffffffffffffffffffffffffffffffffff1916149050919050565b60008073ffffffffffffffffffffffffffffffffffffffff166002600084815260200190815260200160002060009054906101000a900473ffffffffffffffffffffffffffffffffffffffff1673ffffffffffffffffffffffffffffffffffffffff1614159050919050565b600033905090565b816004600083815260200190815260200160002060006101000a81548173ffffffffffffffffffffffffffffffffffffffff021916908373ffffffffffffffffffffffffffffffffffffffff160217905550808273ffffffffffffffffffffffffffffffffffffffff16610bec83610698565b73ffffffffffffffffffffffffffffffffffffffff167f8c5be1e5ebec7d5bd14f71427d1e84f3dd0314c0f7b2291e5b200ac8c7c3b92560405160405180910390a45050565b6000610c3d82610b05565b610c7c576040517f08c379a0000000000000000000000000000000000000000000000000000000008152600401610c7390611d3e565b60405180910390fd5b6000610c8783610698565b90508073ffffffffffffffffffffffffffffffffffffffff168473ffffffffffffffffffffffffffffffffffffffff161480610cf657508373ffffffffffffffffffffffffffffffffffffffff16610cde8461047b565b73ffffffffffffffffffffffffffffffffffffffff16145b80610d075750610d068185610a07565b5b91505092915050565b8273ffffffffffffffffffffffffffffffffffffffff16610d3082610698565b73ffffffffffffffffffffffffffffffffffffffff1614610d86576040517f08c379a0000000000000000000000000000000000000000000000000000000008152600401610d7d90611cbe565b60405180910390fd5b600073ffffffffffffffffffffffffffffffffffffffff168273ffffffffffffffffffffffffffffffffffffffff161415610df6576040517f08c379a0000000000000000000000000000000000000000000000000000000008152600401610ded90611cfe565b60405180910390fd5b610e0183838361133e565b610e0c600082610b79565b6001600360008573ffffffffffffffffffffffffffffffffffffffff1673ffffffffffffffffffffffffffffffffffffffff1681526020019081526020016000206000828254610e5c9190611f6e565b925050819055506001600360008473ffffffffffffffffffffffffffffffffffffffff1673ffffffffffffffffffffffffffffffffffffffff1681526020019081526020016000206000828254610eb39190611f18565b92505081905550816002600083815260200190815260200160002060006101000a81548173ffffffffffffffffffffffffffffffffffffffff021916908373ffffffffffffffffffffffffffffffffffffffff160217905550808273ffffffffffffffffffffffffffffffffffffffff168473ffffffffffffffffffffffffffffffffffffffff167fddf252ad1be2c89b69c2b068fc378daa952ba7f163c4a11628f55a4df523b3ef60405160405180910390a4610f72838383611343565b505050565b6001816000016000828254019250508190555050565b600081600001549050919050565b600073ffffffffffffffffffffffffffffffffffffffff168273ffffffffffffffffffffffffffffffffffffffff16141561100b576040517f08c379a000000000000000000000000000000000000000000000000000000000815260040161100290611dbe565b60405180910390fd5b61101481610b05565b15611054576040517f08c379a000000000000000000000000000000000000000000000000000000000815260040161104b90611cde565b60405180910390fd5b6110606000838361133e565b6001600360008473ffffffffffffffffffffffffffffffffffffffff1673ffffffffffffffffffffffffffffffffffffffff16815260200190815260200160002060008282546110b09190611f18565b92505081905550816002600083815260200190815260200160002060006101000a81548173ffffffffffffffffffffffffffffffffffffffff021916908373ffffffffffffffffffffffffffffffffffffffff160217905550808273ffffffffffffffffffffffffffffffffffffffff16600073ffffffffffffffffffffffffffffffffffffffff167fddf252ad1be2c89b69c2b068fc378daa952ba7f163c4a11628f55a4df523b3ef60405160405180910390a461117160008383611343565b5050565b8173ffffffffffffffffffffffffffffffffffffffff168373ffffffffffffffffffffffffffffffffffffffff1614156111e4576040517f08c379a00000000000000000000000000000000000000000000000000000000081526004016111db90611d1e565b60405180910390fd5b80600560008573ffffffffffffffffffffffffffffffffffffffff1673ffffffffffffffffffffffffffffffffffffffff16815260200190815260200160002060008473ffffffffffffffffffffffffffffffffffffffff1673ffffffffffffffffffffffffffffffffffffffff16815260200190815260200160002060006101000a81548160ff0219169083151502179055508173ffffffffffffffffffffffffffffffffffffffff168373ffffffffffffffffffffffffffffffffffffffff167f17307eab39ab6107e8899845ad3d59bd9653f200f220920489ca2b5937696c31836040516112d59190611c61565b60405180910390a3505050565b6112ed848484610d10565b6112f984848484611348565b611338576040517f08c379a000000000000000000000000000000000000000000000000000000000815260040161132f90611c9e565b60405180910390fd5b50505050565b505050565b505050565b60006113698473ffffffffffffffffffffffffffffffffffffffff166114df565b156114d2578373ffffffffffffffffffffffffffffffffffffffff1663150b7a02611392610b71565b8786866040518563ffffffff1660e01b81526004016113b49493929190611c15565b602060405180830381600087803b1580156113ce57600080fd5b505af19250505080156113ff57506040513d601f19601f820116820180604052508101906113fc919061193a565b60015b611482573d806000811461142f576040519150601f19603f3d011682016040523d82523d6000602084013e611434565b606091505b5060008151141561147a576040517f08c379a000000000000000000000000000000000000000000000000000000000815260040161147190611c9e565b60405180910390fd5b805181602001fd5b63150b7a0260e01b7bffffffffffffffffffffffffffffffffffffffffffffffffffffffff1916817bffffffffffffffffffffffffffffffffffffffffffffffffffffffff1916149150506114d7565b600190505b949350505050565b6000808273ffffffffffffffffffffffffffffffffffffffff163b119050919050565b82805461150e90612058565b90600052602060002090601f0160209004810192826115305760008555611577565b82601f1061154957805160ff1916838001178555611577565b82800160010185558215611577579182015b8281111561157657825182559160200191906001019061155b565b5b5090506115849190611588565b5090565b5b808211156115a1576000816000905550600101611589565b5090565b60006115b86115b384611e7e565b611e59565b9050828152602081018484840111156115d4576115d361214d565b5b6115df848285612016565b509392505050565b60006115fa6115f584611eaf565b611e59565b9050828152602081018484840111156116165761161561214d565b5b611621848285612016565b509392505050565b600081359050611638816124fe565b92915050565b60008135905061164d81612515565b92915050565b6000813590506116628161252c565b92915050565b6000815190506116778161252c565b92915050565b600082601f83011261169257611691612148565b5b81356116a28482602086016115a5565b91505092915050565b600082601f8301126116c0576116bf612148565b5b81356116d08482602086016115e7565b91505092915050565b6000813590506116e881612543565b92915050565b60006020828403121561170457611703612157565b5b600061171284828501611629565b91505092915050565b6000806040838503121561173257611731612157565b5b600061174085828601611629565b925050602061175185828601611629565b9150509250929050565b60008060006060848603121561177457611773612157565b5b600061178286828701611629565b935050602061179386828701611629565b92505060406117a4868287016116d9565b9150509250925092565b600080600080608085870312156117c8576117c7612157565b5b60006117d687828801611629565b94505060206117e787828801611629565b93505060406117f8878288016116d9565b925050606085013567ffffffffffffffff81111561181957611818612152565b5b6118258782880161167d565b91505092959194509250565b6000806040838503121561184857611847612157565b5b600061185685828601611629565b92505060206118678582860161163e565b9150509250929050565b6000806040838503121561188857611887612157565b5b600061189685828601611629565b925050602083013567ffffffffffffffff8111156118b7576118b6612152565b5b6118c3858286016116ab565b9150509250929050565b600080604083850312156118e4576118e3612157565b5b60006118f285828601611629565b9250506020611903858286016116d9565b9150509250929050565b60006020828403121561192357611922612157565b5b600061193184828501611653565b91505092915050565b6000602082840312156119505761194f612157565b5b600061195e84828501611668565b91505092915050565b60006020828403121561197d5761197c612157565b5b600061198b848285016116d9565b91505092915050565b61199d81611fa2565b82525050565b6119ac81611fb4565b82525050565b60006119bd82611ee0565b6119c78185611ef6565b93506119d7818560208601612025565b6119e08161215c565b840191505092915050565b60006119f682611eeb565b611a008185611f07565b9350611a10818560208601612025565b611a198161215c565b840191505092915050565b6000611a31603283611f07565b9150611a3c8261216d565b604082019050919050565b6000611a54602583611f07565b9150611a5f826121bc565b604082019050919050565b6000611a77601c83611f07565b9150611a828261220b565b602082019050919050565b6000611a9a602483611f07565b9150611aa582612234565b604082019050919050565b6000611abd601983611f07565b9150611ac882612283565b602082019050919050565b6000611ae0602c83611f07565b9150611aeb826122ac565b604082019050919050565b6000611b03603883611f07565b9150611b0e826122fb565b604082019050919050565b6000611b26602a83611f07565b9150611b318261234a565b604082019050919050565b6000611b49602983611f07565b9150611b5482612399565b604082019050919050565b6000611b6c602083611f07565b9150611b77826123e8565b602082019050919050565b6000611b8f602c83611f07565b9150611b9a82612411565b604082019050919050565b6000611bb2602183611f07565b9150611bbd82612460565b604082019050919050565b6000611bd5603183611f07565b9150611be0826124af565b604082019050919050565b611bf48161200c565b82525050565b6000602082019050611c0f6000830184611994565b92915050565b6000608082019050611c2a6000830187611994565b611c376020830186611994565b611c446040830185611beb565b8181036060830152611c5681846119b2565b905095945050505050565b6000602082019050611c7660008301846119a3565b92915050565b60006020820190508181036000830152611c9681846119eb565b905092915050565b60006020820190508181036000830152611cb781611a24565b9050919050565b60006020820190508181036000830152611cd781611a47565b9050919050565b60006020820190508181036000830152611cf781611a6a565b9050919050565b60006020820190508181036000830152611d1781611a8d565b9050919050565b60006020820190508181036000830152611d3781611ab0565b9050919050565b60006020820190508181036000830152611d5781611ad3565b9050919050565b60006020820190508181036000830152611d7781611af6565b9050919050565b60006020820190508181036000830152611d9781611b19565b9050919050565b60006020820190508181036000830152611db781611b3c565b9050919050565b60006020820190508181036000830152611dd781611b5f565b9050919050565b60006020820190508181036000830152611df781611b82565b9050919050565b60006020820190508181036000830152611e1781611ba5565b9050919050565b60006020820190508181036000830152611e3781611bc8565b9050919050565b6000602082019050611e536000830184611beb565b92915050565b6000611e63611e74565b9050611e6f828261208a565b919050565b6000604051905090565b600067ffffffffffffffff821115611e9957611e98612119565b5b611ea28261215c565b9050602081019050919050565b600067ffffffffffffffff821115611eca57611ec9612119565b5b611ed38261215c565b9050602081019050919050565b600081519050919050565b600081519050919050565b600082825260208201905092915050565b600082825260208201905092915050565b6000611f238261200c565b9150611f2e8361200c565b9250827fffffffffffffffffffffffffffffffffffffffffffffffffffffffffffffffff03821115611f6357611f626120bb565b5b828201905092915050565b6000611f798261200c565b9150611f848361200c565b925082821015611f9757611f966120bb565b5b828203905092915050565b6000611fad82611fec565b9050919050565b60008115159050919050565b60007fffffffff0000000000000000000000000000000000000000000000000000000082169050919050565b600073ffffffffffffffffffffffffffffffffffffffff82169050919050565b6000819050919050565b82818337600083830152505050565b60005b83811015612043578082015181840152602081019050612028565b83811115612052576000848401525b50505050565b6000600282049050600182168061207057607f821691505b60208210811415612084576120836120ea565b5b50919050565b6120938261215c565b810181811067ffffffffffffffff821117156120b2576120b1612119565b5b80604052505050565b7f4e487b7100000000000000000000000000000000000000000000000000000000600052601160045260246000fd5b7f4e487b7100000000000000000000000000000000000000000000000000000000600052602260045260246000fd5b7f4e487b7100000000000000000000000000000000000000000000000000000000600052604160045260246000fd5b600080fd5b600080fd5b600080fd5b600080fd5b6000601f19601f8301169050919050565b7f4552433732313a207472616e7366657220746f206e6f6e20455243373231526560008201527f63656976657220696d706c656d656e7465720000000000000000000000000000602082015250565b7f4552433732313a207472616e736665722066726f6d20696e636f72726563742060008201527f6f776e6572000000000000000000000000000000000000000000000000000000602082015250565b7f4552433732313a20746f6b656e20616c7265616479206d696e74656400000000600082015250565b7f4552433732313a207472616e7366657220746f20746865207a65726f2061646460008201527f7265737300000000000000000000000000000000000000000000000000000000602082015250565b7f4552433732313a20617070726f766520746f2063616c6c657200000000000000600082015250565b7f4552433732313a206f70657261746f7220717565727920666f72206e6f6e657860008201527f697374656e7420746f6b656e0000000000000000000000000000000000000000602082015250565b7f4552433732313a20617070726f76652063616c6c6572206973206e6f74206f7760008201527f6e6572206e6f7220617070726f76656420666f7220616c6c0000000000000000602082015250565b7f4552433732313a2062616c616e636520717565727920666f7220746865207a6560008201527f726f206164647265737300000000000000000000000000000000000000000000602082015250565b7f4552433732313a206f776e657220717565727920666f72206e6f6e657869737460008201527f656e7420746f6b656e0000000000000000000000000000000000000000000000602082015250565b7f4552433732313a206d696e7420746f20746865207a65726f2061646472657373600082015250565b7f4552433732313a20617070726f76656420717565727920666f72206e6f6e657860008201527f697374656e7420746f6b656e0000000000000000000000000000000000000000602082015250565b7f4552433732313a20617070726f76616c20746f2063757272656e74206f776e6560008201527f7200000000000000000000000000000000000000000000000000000000000000602082015250565b7f4552433732313a207472616e736665722063616c6c6572206973206e6f74206f60008201527f776e6572206e6f7220617070726f766564000000000000000000000000000000602082015250565b61250781611fa2565b811461251257600080fd5b50565b61251e81611fb4565b811461252957600080fd5b50565b61253581611fc0565b811461254057600080fd5b50565b61254c8161200c565b811461255757600080fd5b5056fea2646970667358221220c06271c05eb1fafac9c90e6f71e1653e0a075f488c09acc68db6c92d074a377d64736f6c63430008070033",
					"opcodes": "PUSH1 0x80 PUSH1 0x40 MSTORE CALLVALUE DUP1 ISZERO PUSH3 0x11 JUMPI PUSH1 0x0 DUP1 REVERT JUMPDEST POP PUSH1 0x40 MLOAD DUP1 PUSH1 0x40 ADD PUSH1 0x40 MSTORE DUP1 PUSH1 0x9 DUP2 MSTORE PUSH1 0x20 ADD PUSH32 0x7070546573744E46540000000000000000000000000000000000000000000000 DUP2 MSTORE POP PUSH1 0x40 MLOAD DUP1 PUSH1 0x40 ADD PUSH1 0x40 MSTORE DUP1 PUSH1 0x9 DUP2 MSTORE PUSH1 0x20 ADD PUSH32 0x4450544553544E46540000000000000000000000000000000000000000000000 DUP2 MSTORE POP DUP2 PUSH1 0x0 SWAP1 DUP1 MLOAD SWAP1 PUSH1 0x20 ADD SWAP1 PUSH3 0x96 SWAP3 SWAP2 SWAP1 PUSH3 0xB8 JUMP JUMPDEST POP DUP1 PUSH1 0x1 SWAP1 DUP1 MLOAD SWAP1 PUSH1 0x20 ADD SWAP1 PUSH3 0xAF SWAP3 SWAP2 SWAP1 PUSH3 0xB8 JUMP JUMPDEST POP POP POP PUSH3 0x1CD JUMP JUMPDEST DUP3 DUP1 SLOAD PUSH3 0xC6 SWAP1 PUSH3 0x168 JUMP JUMPDEST SWAP1 PUSH1 0x0 MSTORE PUSH1 0x20 PUSH1 0x0 KECCAK256 SWAP1 PUSH1 0x1F ADD PUSH1 0x20 SWAP1 DIV DUP2 ADD SWAP3 DUP3 PUSH3 0xEA JUMPI PUSH1 0x0 DUP6 SSTORE PUSH3 0x136 JUMP JUMPDEST DUP3 PUSH1 0x1F LT PUSH3 0x105 JUMPI DUP1 MLOAD PUSH1 0xFF NOT AND DUP4 DUP1 ADD OR DUP6 SSTORE PUSH3 0x136 JUMP JUMPDEST DUP3 DUP1 ADD PUSH1 0x1 ADD DUP6 SSTORE DUP3 ISZERO PUSH3 0x136 JUMPI SWAP2 DUP3 ADD JUMPDEST DUP3 DUP2 GT ISZERO PUSH3 0x135 JUMPI DUP3 MLOAD DUP3 SSTORE SWAP2 PUSH1 0x20 ADD SWAP2 SWAP1 PUSH1 0x1 ADD SWAP1 PUSH3 0x118 JUMP JUMPDEST JUMPDEST POP SWAP1 POP PUSH3 0x145 SWAP2 SWAP1 PUSH3 0x149 JUMP JUMPDEST POP SWAP1 JUMP JUMPDEST JUMPDEST DUP1 DUP3 GT ISZERO PUSH3 0x164 JUMPI PUSH1 0x0 DUP2 PUSH1 0x0 SWAP1 SSTORE POP PUSH1 0x1 ADD PUSH3 0x14A JUMP JUMPDEST POP SWAP1 JUMP JUMPDEST PUSH1 0x0 PUSH1 0x2 DUP3 DIV SWAP1 POP PUSH1 0x1 DUP3 AND DUP1 PUSH3 0x181 JUMPI PUSH1 0x7F DUP3 AND SWAP2 POP JUMPDEST PUSH1 0x20 DUP3 LT DUP2 EQ ISZERO PUSH3 0x198 JUMPI PUSH3 0x197 PUSH3 0x19E JUMP JUMPDEST JUMPDEST POP SWAP2 SWAP1 POP JUMP JUMPDEST PUSH32 0x4E487B7100000000000000000000000000000000000000000000000000000000 PUSH1 0x0 MSTORE PUSH1 0x22 PUSH1 0x4 MSTORE PUSH1 0x24 PUSH1 0x0 REVERT JUMPDEST PUSH2 0x2590 DUP1 PUSH3 0x1DD PUSH1 0x0 CODECOPY PUSH1 0x0 RETURN INVALID PUSH1 0x80 PUSH1 0x40 MSTORE CALLVALUE DUP1 ISZERO PUSH2 0x10 JUMPI PUSH1 0x0 DUP1 REVERT JUMPDEST POP PUSH1 0x4 CALLDATASIZE LT PUSH2 0xEA JUMPI PUSH1 0x0 CALLDATALOAD PUSH1 0xE0 SHR DUP1 PUSH4 0x70A08231 GT PUSH2 0x8C JUMPI DUP1 PUSH4 0xA22CB465 GT PUSH2 0x66 JUMPI DUP1 PUSH4 0xA22CB465 EQ PUSH2 0x26F JUMPI DUP1 PUSH4 0xB88D4FDE EQ PUSH2 0x28B JUMPI DUP1 PUSH4 0xC87B56DD EQ PUSH2 0x2A7 JUMPI DUP1 PUSH4 0xE985E9C5 EQ PUSH2 0x2D7 JUMPI PUSH2 0xEA JUMP JUMPDEST DUP1 PUSH4 0x70A08231 EQ PUSH2 0x1F1 JUMPI DUP1 PUSH4 0x95D89B41 EQ PUSH2 0x221 JUMPI DUP1 PUSH4 0xA15AB08D EQ PUSH2 0x23F JUMPI PUSH2 0xEA JUMP JUMPDEST DUP1 PUSH4 0x95EA7B3 GT PUSH2 0xC8 JUMPI DUP1 PUSH4 0x95EA7B3 EQ PUSH2 0x16D JUMPI DUP1 PUSH4 0x23B872DD EQ PUSH2 0x189 JUMPI DUP1 PUSH4 0x42842E0E EQ PUSH2 0x1A5 JUMPI DUP1 PUSH4 0x6352211E EQ PUSH2 0x1C1 JUMPI PUSH2 0xEA JUMP JUMPDEST DUP1 PUSH4 0x1FFC9A7 EQ PUSH2 0xEF JUMPI DUP1 PUSH4 0x6FDDE03 EQ PUSH2 0x11F JUMPI DUP1 PUSH4 0x81812FC EQ PUSH2 0x13D JUMPI JUMPDEST PUSH1 0x0 DUP1 REVERT JUMPDEST PUSH2 0x109 PUSH1 0x4 DUP1 CALLDATASIZE SUB DUP2 ADD SWAP1 PUSH2 0x104 SWAP2 SWAP1 PUSH2 0x190D JUMP JUMPDEST PUSH2 0x307 JUMP JUMPDEST PUSH1 0x40 MLOAD PUSH2 0x116 SWAP2 SWAP1 PUSH2 0x1C61 JUMP JUMPDEST PUSH1 0x40 MLOAD DUP1 SWAP2 SUB SWAP1 RETURN JUMPDEST PUSH2 0x127 PUSH2 0x3E9 JUMP JUMPDEST PUSH1 0x40 MLOAD PUSH2 0x134 SWAP2 SWAP1 PUSH2 0x1C7C JUMP JUMPDEST PUSH1 0x40 MLOAD DUP1 SWAP2 SUB SWAP1 RETURN JUMPDEST PUSH2 0x157 PUSH1 0x4 DUP1 CALLDATASIZE SUB DUP2 ADD SWAP1 PUSH2 0x152 SWAP2 SWAP1 PUSH2 0x1967 JUMP JUMPDEST PUSH2 0x47B JUMP JUMPDEST PUSH1 0x40 MLOAD PUSH2 0x164 SWAP2 SWAP1 PUSH2 0x1BFA JUMP JUMPDEST PUSH1 0x40 MLOAD DUP1 SWAP2 SUB SWAP1 RETURN JUMPDEST PUSH2 0x187 PUSH1 0x4 DUP1 CALLDATASIZE SUB DUP2 ADD SWAP1 PUSH2 0x182 SWAP2 SWAP1 PUSH2 0x18CD JUMP JUMPDEST PUSH2 0x500 JUMP JUMPDEST STOP JUMPDEST PUSH2 0x1A3 PUSH1 0x4 DUP1 CALLDATASIZE SUB DUP2 ADD SWAP1 PUSH2 0x19E SWAP2 SWAP1 PUSH2 0x175B JUMP JUMPDEST PUSH2 0x618 JUMP JUMPDEST STOP JUMPDEST PUSH2 0x1BF PUSH1 0x4 DUP1 CALLDATASIZE SUB DUP2 ADD SWAP1 PUSH2 0x1BA SWAP2 SWAP1 PUSH2 0x175B JUMP JUMPDEST PUSH2 0x678 JUMP JUMPDEST STOP JUMPDEST PUSH2 0x1DB PUSH1 0x4 DUP1 CALLDATASIZE SUB DUP2 ADD SWAP1 PUSH2 0x1D6 SWAP2 SWAP1 PUSH2 0x1967 JUMP JUMPDEST PUSH2 0x698 JUMP JUMPDEST PUSH1 0x40 MLOAD PUSH2 0x1E8 SWAP2 SWAP1 PUSH2 0x1BFA JUMP JUMPDEST PUSH1 0x40 MLOAD DUP1 SWAP2 SUB SWAP1 RETURN JUMPDEST PUSH2 0x20B PUSH1 0x4 DUP1 CALLDATASIZE SUB DUP2 ADD SWAP1 PUSH2 0x206 SWAP2 SWAP1 PUSH2 0x16EE JUMP JUMPDEST PUSH2 0x74A JUMP JUMPDEST PUSH1 0x40 MLOAD PUSH2 0x218 SWAP2 SWAP1 PUSH2 0x1E3E JUMP JUMPDEST PUSH1 0x40 MLOAD DUP1 SWAP2 SUB SWAP1 RETURN JUMPDEST PUSH2 0x229 PUSH2 0x802 JUMP JUMPDEST PUSH1 0x40 MLOAD PUSH2 0x236 SWAP2 SWAP1 PUSH2 0x1C7C JUMP JUMPDEST PUSH1 0x40 MLOAD DUP1 SWAP2 SUB SWAP1 RETURN JUMPDEST PUSH2 0x259 PUSH1 0x4 DUP1 CALLDATASIZE SUB DUP2 ADD SWAP1 PUSH2 0x254 SWAP2 SWAP1 PUSH2 0x1871 JUMP JUMPDEST PUSH2 0x894 JUMP JUMPDEST PUSH1 0x40 MLOAD PUSH2 0x266 SWAP2 SWAP1 PUSH2 0x1E3E JUMP JUMPDEST PUSH1 0x40 MLOAD DUP1 SWAP2 SUB SWAP1 RETURN JUMPDEST PUSH2 0x289 PUSH1 0x4 DUP1 CALLDATASIZE SUB DUP2 ADD SWAP1 PUSH2 0x284 SWAP2 SWAP1 PUSH2 0x1831 JUMP JUMPDEST PUSH2 0x8EA JUMP JUMPDEST STOP JUMPDEST PUSH2 0x2A5 PUSH1 0x4 DUP1 CALLDATASIZE SUB DUP2 ADD SWAP1 PUSH2 0x2A0 SWAP2 SWAP1 PUSH2 0x17AE JUMP JUMPDEST PUSH2 0x900 JUMP JUMPDEST STOP JUMPDEST PUSH2 0x2C1 PUSH1 0x4 DUP1 CALLDATASIZE SUB DUP2 ADD SWAP1 PUSH2 0x2BC SWAP2 SWAP1 PUSH2 0x1967 JUMP JUMPDEST PUSH2 0x962 JUMP JUMPDEST PUSH1 0x40 MLOAD PUSH2 0x2CE SWAP2 SWAP1 PUSH2 0x1C7C JUMP JUMPDEST PUSH1 0x40 MLOAD DUP1 SWAP2 SUB SWAP1 RETURN JUMPDEST PUSH2 0x2F1 PUSH1 0x4 DUP1 CALLDATASIZE SUB DUP2 ADD SWAP1 PUSH2 0x2EC SWAP2 SWAP1 PUSH2 0x171B JUMP JUMPDEST PUSH2 0xA07 JUMP JUMPDEST PUSH1 0x40 MLOAD PUSH2 0x2FE SWAP2 SWAP1 PUSH2 0x1C61 JUMP JUMPDEST PUSH1 0x40 MLOAD DUP1 SWAP2 SUB SWAP1 RETURN JUMPDEST PUSH1 0x0 PUSH32 0x80AC58CD00000000000000000000000000000000000000000000000000000000 PUSH28 0xFFFFFFFFFFFFFFFFFFFFFFFFFFFFFFFFFFFFFFFFFFFFFFFFFFFFFFFF NOT AND DUP3 PUSH28 0xFFFFFFFFFFFFFFFFFFFFFFFFFFFFFFFFFFFFFFFFFFFFFFFFFFFFFFFF NOT AND EQ DUP1 PUSH2 0x3D2 JUMPI POP PUSH32 0x5B5E139F00000000000000000000000000000000000000000000000000000000 PUSH28 0xFFFFFFFFFFFFFFFFFFFFFFFFFFFFFFFFFFFFFFFFFFFFFFFFFFFFFFFF NOT AND DUP3 PUSH28 0xFFFFFFFFFFFFFFFFFFFFFFFFFFFFFFFFFFFFFFFFFFFFFFFFFFFFFFFF NOT AND EQ JUMPDEST DUP1 PUSH2 0x3E2 JUMPI POP PUSH2 0x3E1 DUP3 PUSH2 0xA9B JUMP JUMPDEST JUMPDEST SWAP1 POP SWAP2 SWAP1 POP JUMP JUMPDEST PUSH1 0x60 PUSH1 0x0 DUP1 SLOAD PUSH2 0x3F8 SWAP1 PUSH2 0x2058 JUMP JUMPDEST DUP1 PUSH1 0x1F ADD PUSH1 0x20 DUP1 SWAP2 DIV MUL PUSH1 0x20 ADD PUSH1 0x40 MLOAD SWAP1 DUP2 ADD PUSH1 0x40 MSTORE DUP1 SWAP3 SWAP2 SWAP1 DUP2 DUP2 MSTORE PUSH1 0x20 ADD DUP3 DUP1 SLOAD PUSH2 0x424 SWAP1 PUSH2 0x2058 JUMP JUMPDEST DUP1 ISZERO PUSH2 0x471 JUMPI DUP1 PUSH1 0x1F LT PUSH2 0x446 JUMPI PUSH2 0x100 DUP1 DUP4 SLOAD DIV MUL DUP4 MSTORE SWAP2 PUSH1 0x20 ADD SWAP2 PUSH2 0x471 JUMP JUMPDEST DUP3 ADD SWAP2 SWAP1 PUSH1 0x0 MSTORE PUSH1 0x20 PUSH1 0x0 KECCAK256 SWAP1 JUMPDEST DUP2 SLOAD DUP2 MSTORE SWAP1 PUSH1 0x1 ADD SWAP1 PUSH1 0x20 ADD DUP1 DUP4 GT PUSH2 0x454 JUMPI DUP3 SWAP1 SUB PUSH1 0x1F AND DUP3 ADD SWAP2 JUMPDEST POP POP POP POP POP SWAP1 POP SWAP1 JUMP JUMPDEST PUSH1 0x0 PUSH2 0x486 DUP3 PUSH2 0xB05 JUMP JUMPDEST PUSH2 0x4C5 JUMPI PUSH1 0x40 MLOAD PUSH32 0x8C379A000000000000000000000000000000000000000000000000000000000 DUP2 MSTORE PUSH1 0x4 ADD PUSH2 0x4BC SWAP1 PUSH2 0x1DDE JUMP JUMPDEST PUSH1 0x40 MLOAD DUP1 SWAP2 SUB SWAP1 REVERT JUMPDEST PUSH1 0x4 PUSH1 0x0 DUP4 DUP2 MSTORE PUSH1 0x20 ADD SWAP1 DUP2 MSTORE PUSH1 0x20 ADD PUSH1 0x0 KECCAK256 PUSH1 0x0 SWAP1 SLOAD SWAP1 PUSH2 0x100 EXP SWAP1 DIV PUSH20 0xFFFFFFFFFFFFFFFFFFFFFFFFFFFFFFFFFFFFFFFF AND SWAP1 POP SWAP2 SWAP1 POP JUMP JUMPDEST PUSH1 0x0 PUSH2 0x50B DUP3 PUSH2 0x698 JUMP JUMPDEST SWAP1 POP DUP1 PUSH20 0xFFFFFFFFFFFFFFFFFFFFFFFFFFFFFFFFFFFFFFFF AND DUP4 PUSH20 0xFFFFFFFFFFFFFFFFFFFFFFFFFFFFFFFFFFFFFFFF AND EQ ISZERO PUSH2 0x57C JUMPI PUSH1 0x40 MLOAD PUSH32 0x8C379A000000000000000000000000000000000000000000000000000000000 DUP2 MSTORE PUSH1 0x4 ADD PUSH2 0x573 SWAP1 PUSH2 0x1DFE JUMP JUMPDEST PUSH1 0x40 MLOAD DUP1 SWAP2 SUB SWAP1 REVERT JUMPDEST DUP1 PUSH20 0xFFFFFFFFFFFFFFFFFFFFFFFFFFFFFFFFFFFFFFFF AND PUSH2 0x59B PUSH2 0xB71 JUMP JUMPDEST PUSH20 0xFFFFFFFFFFFFFFFFFFFFFFFFFFFFFFFFFFFFFFFF AND EQ DUP1 PUSH2 0x5CA JUMPI POP PUSH2 0x5C9 DUP2 PUSH2 0x5C4 PUSH2 0xB71 JUMP JUMPDEST PUSH2 0xA07 JUMP JUMPDEST JUMPDEST PUSH2 0x609 JUMPI PUSH1 0x40 MLOAD PUSH32 0x8C379A000000000000000000000000000000000000000000000000000000000 DUP2 MSTORE PUSH1 0x4 ADD PUSH2 0x600 SWAP1 PUSH2 0x1D5E JUMP JUMPDEST PUSH1 0x40 MLOAD DUP1 SWAP2 SUB SWAP1 REVERT JUMPDEST PUSH2 0x613 DUP4 DUP4 PUSH2 0xB79 JUMP JUMPDEST POP POP POP JUMP JUMPDEST PUSH2 0x629 PUSH2 0x623 PUSH2 0xB71 JUMP JUMPDEST DUP3 PUSH2 0xC32 JUMP JUMPDEST PUSH2 0x668 JUMPI PUSH1 0x40 MLOAD PUSH32 0x8C379A000000000000000000000000000000000000000000000000000000000 DUP2 MSTORE PUSH1 0x4 ADD PUSH2 0x65F SWAP1 PUSH2 0x1E1E JUMP JUMPDEST PUSH1 0x40 MLOAD DUP1 SWAP2 SUB SWAP1 REVERT JUMPDEST PUSH2 0x673 DUP4 DUP4 DUP4 PUSH2 0xD10 JUMP JUMPDEST POP POP POP JUMP JUMPDEST PUSH2 0x693 DUP4 DUP4 DUP4 PUSH1 0x40 MLOAD DUP1 PUSH1 0x20 ADD PUSH1 0x40 MSTORE DUP1 PUSH1 0x0 DUP2 MSTORE POP PUSH2 0x900 JUMP JUMPDEST POP POP POP JUMP JUMPDEST PUSH1 0x0 DUP1 PUSH1 0x2 PUSH1 0x0 DUP5 DUP2 MSTORE PUSH1 0x20 ADD SWAP1 DUP2 MSTORE PUSH1 0x20 ADD PUSH1 0x0 KECCAK256 PUSH1 0x0 SWAP1 SLOAD SWAP1 PUSH2 0x100 EXP SWAP1 DIV PUSH20 0xFFFFFFFFFFFFFFFFFFFFFFFFFFFFFFFFFFFFFFFF AND SWAP1 POP PUSH1 0x0 PUSH20 0xFFFFFFFFFFFFFFFFFFFFFFFFFFFFFFFFFFFFFFFF AND DUP2 PUSH20 0xFFFFFFFFFFFFFFFFFFFFFFFFFFFFFFFFFFFFFFFF AND EQ ISZERO PUSH2 0x741 JUMPI PUSH1 0x40 MLOAD PUSH32 0x8C379A000000000000000000000000000000000000000000000000000000000 DUP2 MSTORE PUSH1 0x4 ADD PUSH2 0x738 SWAP1 PUSH2 0x1D9E JUMP JUMPDEST PUSH1 0x40 MLOAD DUP1 SWAP2 SUB SWAP1 REVERT JUMPDEST DUP1 SWAP2 POP POP SWAP2 SWAP1 POP JUMP JUMPDEST PUSH1 0x0 DUP1 PUSH20 0xFFFFFFFFFFFFFFFFFFFFFFFFFFFFFFFFFFFFFFFF AND DUP3 PUSH20 0xFFFFFFFFFFFFFFFFFFFFFFFFFFFFFFFFFFFFFFFF AND EQ ISZERO PUSH2 0x7BB JUMPI PUSH1 0x40 MLOAD PUSH32 0x8C379A000000000000000000000000000000000000000000000000000000000 DUP2 MSTORE PUSH1 0x4 ADD PUSH2 0x7B2 SWAP1 PUSH2 0x1D7E JUMP JUMPDEST PUSH1 0x40 MLOAD DUP1 SWAP2 SUB SWAP1 REVERT JUMPDEST PUSH1 0x3 PUSH1 0x0 DUP4 PUSH20 0xFFFFFFFFFFFFFFFFFFFFFFFFFFFFFFFFFFFFFFFF AND PUSH20 0xFFFFFFFFFFFFFFFFFFFFFFFFFFFFFFFFFFFFFFFF AND DUP2 MSTORE PUSH1 0x20 ADD SWAP1 DUP2 MSTORE PUSH1 0x20 ADD PUSH1 0x0 KECCAK256 SLOAD SWAP1 POP SWAP2 SWAP1 POP JUMP JUMPDEST PUSH1 0x60 PUSH1 0x1 DUP1 SLOAD PUSH2 0x811 SWAP1 PUSH2 0x2058 JUMP JUMPDEST DUP1 PUSH1 0x1F ADD PUSH1 0x20 DUP1 SWAP2 DIV MUL PUSH1 0x20 ADD PUSH1 0x40 MLOAD SWAP1 DUP2 ADD PUSH1 0x40 MSTORE DUP1 SWAP3 SWAP2 SWAP1 DUP2 DUP2 MSTORE PUSH1 0x20 ADD DUP3 DUP1 SLOAD PUSH2 0x83D SWAP1 PUSH2 0x2058 JUMP JUMPDEST DUP1 ISZERO PUSH2 0x88A JUMPI DUP1 PUSH1 0x1F LT PUSH2 0x85F JUMPI PUSH2 0x100 DUP1 DUP4 SLOAD DIV MUL DUP4 MSTORE SWAP2 PUSH1 0x20 ADD SWAP2 PUSH2 0x88A JUMP JUMPDEST DUP3 ADD SWAP2 SWAP1 PUSH1 0x0 MSTORE PUSH1 0x20 PUSH1 0x0 KECCAK256 SWAP1 JUMPDEST DUP2 SLOAD DUP2 MSTORE SWAP1 PUSH1 0x1 ADD SWAP1 PUSH1 0x20 ADD DUP1 DUP4 GT PUSH2 0x86D JUMPI DUP3 SWAP1 SUB PUSH1 0x1F AND DUP3 ADD SWAP2 JUMPDEST POP POP POP POP POP SWAP1 POP SWAP1 JUMP JUMPDEST PUSH1 0x0 PUSH2 0x8A0 PUSH1 0x6 PUSH2 0xF77 JUMP JUMPDEST PUSH1 0x0 PUSH2 0x8AC PUSH1 0x6 PUSH2 0xF8D JUMP JUMPDEST SWAP1 POP PUSH2 0x8B8 DUP5 DUP3 PUSH2 0xF9B JUMP JUMPDEST DUP3 PUSH1 0x7 PUSH1 0x0 DUP4 DUP2 MSTORE PUSH1 0x20 ADD SWAP1 DUP2 MSTORE PUSH1 0x20 ADD PUSH1 0x0 KECCAK256 SWAP1 DUP1 MLOAD SWAP1 PUSH1 0x20 ADD SWAP1 PUSH2 0x8DF SWAP3 SWAP2 SWAP1 PUSH2 0x1502 JUMP JUMPDEST POP DUP1 SWAP2 POP POP SWAP3 SWAP2 POP POP JUMP JUMPDEST PUSH2 0x8FC PUSH2 0x8F5 PUSH2 0xB71 JUMP JUMPDEST DUP4 DUP4 PUSH2 0x1175 JUMP JUMPDEST POP POP JUMP JUMPDEST PUSH2 0x911 PUSH2 0x90B PUSH2 0xB71 JUMP JUMPDEST DUP4 PUSH2 0xC32 JUMP JUMPDEST PUSH2 0x950 JUMPI PUSH1 0x40 MLOAD PUSH32 0x8C379A000000000000000000000000000000000000000000000000000000000 DUP2 MSTORE PUSH1 0x4 ADD PUSH2 0x947 SWAP1 PUSH2 0x1E1E JUMP JUMPDEST PUSH1 0x40 MLOAD DUP1 SWAP2 SUB SWAP1 REVERT JUMPDEST PUSH2 0x95C DUP5 DUP5 DUP5 DUP5 PUSH2 0x12E2 JUMP JUMPDEST POP POP POP POP JUMP JUMPDEST PUSH1 0x60 PUSH1 0x7 PUSH1 0x0 DUP4 DUP2 MSTORE PUSH1 0x20 ADD SWAP1 DUP2 MSTORE PUSH1 0x20 ADD PUSH1 0x0 KECCAK256 DUP1 SLOAD PUSH2 0x982 SWAP1 PUSH2 0x2058 JUMP JUMPDEST DUP1 PUSH1 0x1F ADD PUSH1 0x20 DUP1 SWAP2 DIV MUL PUSH1 0x20 ADD PUSH1 0x40 MLOAD SWAP1 DUP2 ADD PUSH1 0x40 MSTORE DUP1 SWAP3 SWAP2 SWAP1 DUP2 DUP2 MSTORE PUSH1 0x20 ADD DUP3 DUP1 SLOAD PUSH2 0x9AE SWAP1 PUSH2 0x2058 JUMP JUMPDEST DUP1 ISZERO PUSH2 0x9FB JUMPI DUP1 PUSH1 0x1F LT PUSH2 0x9D0 JUMPI PUSH2 0x100 DUP1 DUP4 SLOAD DIV MUL DUP4 MSTORE SWAP2 PUSH1 0x20 ADD SWAP2 PUSH2 0x9FB JUMP JUMPDEST DUP3 ADD SWAP2 SWAP1 PUSH1 0x0 MSTORE PUSH1 0x20 PUSH1 0x0 KECCAK256 SWAP1 JUMPDEST DUP2 SLOAD DUP2 MSTORE SWAP1 PUSH1 0x1 ADD SWAP1 PUSH1 0x20 ADD DUP1 DUP4 GT PUSH2 0x9DE JUMPI DUP3 SWAP1 SUB PUSH1 0x1F AND DUP3 ADD SWAP2 JUMPDEST POP POP POP POP POP SWAP1 POP SWAP2 SWAP1 POP JUMP JUMPDEST PUSH1 0x0 PUSH1 0x5 PUSH1 0x0 DUP5 PUSH20 0xFFFFFFFFFFFFFFFFFFFFFFFFFFFFFFFFFFFFFFFF AND PUSH20 0xFFFFFFFFFFFFFFFFFFFFFFFFFFFFFFFFFFFFFFFF AND DUP2 MSTORE PUSH1 0x20 ADD SWAP1 DUP2 MSTORE PUSH1 0x20 ADD PUSH1 0x0 KECCAK256 PUSH1 0x0 DUP4 PUSH20 0xFFFFFFFFFFFFFFFFFFFFFFFFFFFFFFFFFFFFFFFF AND PUSH20 0xFFFFFFFFFFFFFFFFFFFFFFFFFFFFFFFFFFFFFFFF AND DUP2 MSTORE PUSH1 0x20 ADD SWAP1 DUP2 MSTORE PUSH1 0x20 ADD PUSH1 0x0 KECCAK256 PUSH1 0x0 SWAP1 SLOAD SWAP1 PUSH2 0x100 EXP SWAP1 DIV PUSH1 0xFF AND SWAP1 POP SWAP3 SWAP2 POP POP JUMP JUMPDEST PUSH1 0x0 PUSH32 0x1FFC9A700000000000000000000000000000000000000000000000000000000 PUSH28 0xFFFFFFFFFFFFFFFFFFFFFFFFFFFFFFFFFFFFFFFFFFFFFFFFFFFFFFFF NOT AND DUP3 PUSH28 0xFFFFFFFFFFFFFFFFFFFFFFFFFFFFFFFFFFFFFFFFFFFFFFFFFFFFFFFF NOT AND EQ SWAP1 POP SWAP2 SWAP1 POP JUMP JUMPDEST PUSH1 0x0 DUP1 PUSH20 0xFFFFFFFFFFFFFFFFFFFFFFFFFFFFFFFFFFFFFFFF AND PUSH1 0x2 PUSH1 0x0 DUP5 DUP2 MSTORE PUSH1 0x20 ADD SWAP1 DUP2 MSTORE PUSH1 0x20 ADD PUSH1 0x0 KECCAK256 PUSH1 0x0 SWAP1 SLOAD SWAP1 PUSH2 0x100 EXP SWAP1 DIV PUSH20 0xFFFFFFFFFFFFFFFFFFFFFFFFFFFFFFFFFFFFFFFF AND PUSH20 0xFFFFFFFFFFFFFFFFFFFFFFFFFFFFFFFFFFFFFFFF AND EQ ISZERO SWAP1 POP SWAP2 SWAP1 POP JUMP JUMPDEST PUSH1 0x0 CALLER SWAP1 POP SWAP1 JUMP JUMPDEST DUP2 PUSH1 0x4 PUSH1 0x0 DUP4 DUP2 MSTORE PUSH1 0x20 ADD SWAP1 DUP2 MSTORE PUSH1 0x20 ADD PUSH1 0x0 KECCAK256 PUSH1 0x0 PUSH2 0x100 EXP DUP2 SLOAD DUP2 PUSH20 0xFFFFFFFFFFFFFFFFFFFFFFFFFFFFFFFFFFFFFFFF MUL NOT AND SWAP1 DUP4 PUSH20 0xFFFFFFFFFFFFFFFFFFFFFFFFFFFFFFFFFFFFFFFF AND MUL OR SWAP1 SSTORE POP DUP1 DUP3 PUSH20 0xFFFFFFFFFFFFFFFFFFFFFFFFFFFFFFFFFFFFFFFF AND PUSH2 0xBEC DUP4 PUSH2 0x698 JUMP JUMPDEST PUSH20 0xFFFFFFFFFFFFFFFFFFFFFFFFFFFFFFFFFFFFFFFF AND PUSH32 0x8C5BE1E5EBEC7D5BD14F71427D1E84F3DD0314C0F7B2291E5B200AC8C7C3B925 PUSH1 0x40 MLOAD PUSH1 0x40 MLOAD DUP1 SWAP2 SUB SWAP1 LOG4 POP POP JUMP JUMPDEST PUSH1 0x0 PUSH2 0xC3D DUP3 PUSH2 0xB05 JUMP JUMPDEST PUSH2 0xC7C JUMPI PUSH1 0x40 MLOAD PUSH32 0x8C379A000000000000000000000000000000000000000000000000000000000 DUP2 MSTORE PUSH1 0x4 ADD PUSH2 0xC73 SWAP1 PUSH2 0x1D3E JUMP JUMPDEST PUSH1 0x40 MLOAD DUP1 SWAP2 SUB SWAP1 REVERT JUMPDEST PUSH1 0x0 PUSH2 0xC87 DUP4 PUSH2 0x698 JUMP JUMPDEST SWAP1 POP DUP1 PUSH20 0xFFFFFFFFFFFFFFFFFFFFFFFFFFFFFFFFFFFFFFFF AND DUP5 PUSH20 0xFFFFFFFFFFFFFFFFFFFFFFFFFFFFFFFFFFFFFFFF AND EQ DUP1 PUSH2 0xCF6 JUMPI POP DUP4 PUSH20 0xFFFFFFFFFFFFFFFFFFFFFFFFFFFFFFFFFFFFFFFF AND PUSH2 0xCDE DUP5 PUSH2 0x47B JUMP JUMPDEST PUSH20 0xFFFFFFFFFFFFFFFFFFFFFFFFFFFFFFFFFFFFFFFF AND EQ JUMPDEST DUP1 PUSH2 0xD07 JUMPI POP PUSH2 0xD06 DUP2 DUP6 PUSH2 0xA07 JUMP JUMPDEST JUMPDEST SWAP2 POP POP SWAP3 SWAP2 POP POP JUMP JUMPDEST DUP3 PUSH20 0xFFFFFFFFFFFFFFFFFFFFFFFFFFFFFFFFFFFFFFFF AND PUSH2 0xD30 DUP3 PUSH2 0x698 JUMP JUMPDEST PUSH20 0xFFFFFFFFFFFFFFFFFFFFFFFFFFFFFFFFFFFFFFFF AND EQ PUSH2 0xD86 JUMPI PUSH1 0x40 MLOAD PUSH32 0x8C379A000000000000000000000000000000000000000000000000000000000 DUP2 MSTORE PUSH1 0x4 ADD PUSH2 0xD7D SWAP1 PUSH2 0x1CBE JUMP JUMPDEST PUSH1 0x40 MLOAD DUP1 SWAP2 SUB SWAP1 REVERT JUMPDEST PUSH1 0x0 PUSH20 0xFFFFFFFFFFFFFFFFFFFFFFFFFFFFFFFFFFFFFFFF AND DUP3 PUSH20 0xFFFFFFFFFFFFFFFFFFFFFFFFFFFFFFFFFFFFFFFF AND EQ ISZERO PUSH2 0xDF6 JUMPI PUSH1 0x40 MLOAD PUSH32 0x8C379A000000000000000000000000000000000000000000000000000000000 DUP2 MSTORE PUSH1 0x4 ADD PUSH2 0xDED SWAP1 PUSH2 0x1CFE JUMP JUMPDEST PUSH1 0x40 MLOAD DUP1 SWAP2 SUB SWAP1 REVERT JUMPDEST PUSH2 0xE01 DUP4 DUP4 DUP4 PUSH2 0x133E JUMP JUMPDEST PUSH2 0xE0C PUSH1 0x0 DUP3 PUSH2 0xB79 JUMP JUMPDEST PUSH1 0x1 PUSH1 0x3 PUSH1 0x0 DUP6 PUSH20 0xFFFFFFFFFFFFFFFFFFFFFFFFFFFFFFFFFFFFFFFF AND PUSH20 0xFFFFFFFFFFFFFFFFFFFFFFFFFFFFFFFFFFFFFFFF AND DUP2 MSTORE PUSH1 0x20 ADD SWAP1 DUP2 MSTORE PUSH1 0x20 ADD PUSH1 0x0 KECCAK256 PUSH1 0x0 DUP3 DUP3 SLOAD PUSH2 0xE5C SWAP2 SWAP1 PUSH2 0x1F6E JUMP JUMPDEST SWAP3 POP POP DUP2 SWAP1 SSTORE POP PUSH1 0x1 PUSH1 0x3 PUSH1 0x0 DUP5 PUSH20 0xFFFFFFFFFFFFFFFFFFFFFFFFFFFFFFFFFFFFFFFF AND PUSH20 0xFFFFFFFFFFFFFFFFFFFFFFFFFFFFFFFFFFFFFFFF AND DUP2 MSTORE PUSH1 0x20 ADD SWAP1 DUP2 MSTORE PUSH1 0x20 ADD PUSH1 0x0 KECCAK256 PUSH1 0x0 DUP3 DUP3 SLOAD PUSH2 0xEB3 SWAP2 SWAP1 PUSH2 0x1F18 JUMP JUMPDEST SWAP3 POP POP DUP2 SWAP1 SSTORE POP DUP2 PUSH1 0x2 PUSH1 0x0 DUP4 DUP2 MSTORE PUSH1 0x20 ADD SWAP1 DUP2 MSTORE PUSH1 0x20 ADD PUSH1 0x0 KECCAK256 PUSH1 0x0 PUSH2 0x100 EXP DUP2 SLOAD DUP2 PUSH20 0xFFFFFFFFFFFFFFFFFFFFFFFFFFFFFFFFFFFFFFFF MUL NOT AND SWAP1 DUP4 PUSH20 0xFFFFFFFFFFFFFFFFFFFFFFFFFFFFFFFFFFFFFFFF AND MUL OR SWAP1 SSTORE POP DUP1 DUP3 PUSH20 0xFFFFFFFFFFFFFFFFFFFFFFFFFFFFFFFFFFFFFFFF AND DUP5 PUSH20 0xFFFFFFFFFFFFFFFFFFFFFFFFFFFFFFFFFFFFFFFF AND PUSH32 0xDDF252AD1BE2C89B69C2B068FC378DAA952BA7F163C4A11628F55A4DF523B3EF PUSH1 0x40 MLOAD PUSH1 0x40 MLOAD DUP1 SWAP2 SUB SWAP1 LOG4 PUSH2 0xF72 DUP4 DUP4 DUP4 PUSH2 0x1343 JUMP JUMPDEST POP POP POP JUMP JUMPDEST PUSH1 0x1 DUP2 PUSH1 0x0 ADD PUSH1 0x0 DUP3 DUP3 SLOAD ADD SWAP3 POP POP DUP2 SWAP1 SSTORE POP POP JUMP JUMPDEST PUSH1 0x0 DUP2 PUSH1 0x0 ADD SLOAD SWAP1 POP SWAP2 SWAP1 POP JUMP JUMPDEST PUSH1 0x0 PUSH20 0xFFFFFFFFFFFFFFFFFFFFFFFFFFFFFFFFFFFFFFFF AND DUP3 PUSH20 0xFFFFFFFFFFFFFFFFFFFFFFFFFFFFFFFFFFFFFFFF AND EQ ISZERO PUSH2 0x100B JUMPI PUSH1 0x40 MLOAD PUSH32 0x8C379A000000000000000000000000000000000000000000000000000000000 DUP2 MSTORE PUSH1 0x4 ADD PUSH2 0x1002 SWAP1 PUSH2 0x1DBE JUMP JUMPDEST PUSH1 0x40 MLOAD DUP1 SWAP2 SUB SWAP1 REVERT JUMPDEST PUSH2 0x1014 DUP2 PUSH2 0xB05 JUMP JUMPDEST ISZERO PUSH2 0x1054 JUMPI PUSH1 0x40 MLOAD PUSH32 0x8C379A000000000000000000000000000000000000000000000000000000000 DUP2 MSTORE PUSH1 0x4 ADD PUSH2 0x104B SWAP1 PUSH2 0x1CDE JUMP JUMPDEST PUSH1 0x40 MLOAD DUP1 SWAP2 SUB SWAP1 REVERT JUMPDEST PUSH2 0x1060 PUSH1 0x0 DUP4 DUP4 PUSH2 0x133E JUMP JUMPDEST PUSH1 0x1 PUSH1 0x3 PUSH1 0x0 DUP5 PUSH20 0xFFFFFFFFFFFFFFFFFFFFFFFFFFFFFFFFFFFFFFFF AND PUSH20 0xFFFFFFFFFFFFFFFFFFFFFFFFFFFFFFFFFFFFFFFF AND DUP2 MSTORE PUSH1 0x20 ADD SWAP1 DUP2 MSTORE PUSH1 0x20 ADD PUSH1 0x0 KECCAK256 PUSH1 0x0 DUP3 DUP3 SLOAD PUSH2 0x10B0 SWAP2 SWAP1 PUSH2 0x1F18 JUMP JUMPDEST SWAP3 POP POP DUP2 SWAP1 SSTORE POP DUP2 PUSH1 0x2 PUSH1 0x0 DUP4 DUP2 MSTORE PUSH1 0x20 ADD SWAP1 DUP2 MSTORE PUSH1 0x20 ADD PUSH1 0x0 KECCAK256 PUSH1 0x0 PUSH2 0x100 EXP DUP2 SLOAD DUP2 PUSH20 0xFFFFFFFFFFFFFFFFFFFFFFFFFFFFFFFFFFFFFFFF MUL NOT AND SWAP1 DUP4 PUSH20 0xFFFFFFFFFFFFFFFFFFFFFFFFFFFFFFFFFFFFFFFF AND MUL OR SWAP1 SSTORE POP DUP1 DUP3 PUSH20 0xFFFFFFFFFFFFFFFFFFFFFFFFFFFFFFFFFFFFFFFF AND PUSH1 0x0 PUSH20 0xFFFFFFFFFFFFFFFFFFFFFFFFFFFFFFFFFFFFFFFF AND PUSH32 0xDDF252AD1BE2C89B69C2B068FC378DAA952BA7F163C4A11628F55A4DF523B3EF PUSH1 0x40 MLOAD PUSH1 0x40 MLOAD DUP1 SWAP2 SUB SWAP1 LOG4 PUSH2 0x1171 PUSH1 0x0 DUP4 DUP4 PUSH2 0x1343 JUMP JUMPDEST POP POP JUMP JUMPDEST DUP2 PUSH20 0xFFFFFFFFFFFFFFFFFFFFFFFFFFFFFFFFFFFFFFFF AND DUP4 PUSH20 0xFFFFFFFFFFFFFFFFFFFFFFFFFFFFFFFFFFFFFFFF AND EQ ISZERO PUSH2 0x11E4 JUMPI PUSH1 0x40 MLOAD PUSH32 0x8C379A000000000000000000000000000000000000000000000000000000000 DUP2 MSTORE PUSH1 0x4 ADD PUSH2 0x11DB SWAP1 PUSH2 0x1D1E JUMP JUMPDEST PUSH1 0x40 MLOAD DUP1 SWAP2 SUB SWAP1 REVERT JUMPDEST DUP1 PUSH1 0x5 PUSH1 0x0 DUP6 PUSH20 0xFFFFFFFFFFFFFFFFFFFFFFFFFFFFFFFFFFFFFFFF AND PUSH20 0xFFFFFFFFFFFFFFFFFFFFFFFFFFFFFFFFFFFFFFFF AND DUP2 MSTORE PUSH1 0x20 ADD SWAP1 DUP2 MSTORE PUSH1 0x20 ADD PUSH1 0x0 KECCAK256 PUSH1 0x0 DUP5 PUSH20 0xFFFFFFFFFFFFFFFFFFFFFFFFFFFFFFFFFFFFFFFF AND PUSH20 0xFFFFFFFFFFFFFFFFFFFFFFFFFFFFFFFFFFFFFFFF AND DUP2 MSTORE PUSH1 0x20 ADD SWAP1 DUP2 MSTORE PUSH1 0x20 ADD PUSH1 0x0 KECCAK256 PUSH1 0x0 PUSH2 0x100 EXP DUP2 SLOAD DUP2 PUSH1 0xFF MUL NOT AND SWAP1 DUP4 ISZERO ISZERO MUL OR SWAP1 SSTORE POP DUP2 PUSH20 0xFFFFFFFFFFFFFFFFFFFFFFFFFFFFFFFFFFFFFFFF AND DUP4 PUSH20 0xFFFFFFFFFFFFFFFFFFFFFFFFFFFFFFFFFFFFFFFF AND PUSH32 0x17307EAB39AB6107E8899845AD3D59BD9653F200F220920489CA2B5937696C31 DUP4 PUSH1 0x40 MLOAD PUSH2 0x12D5 SWAP2 SWAP1 PUSH2 0x1C61 JUMP JUMPDEST PUSH1 0x40 MLOAD DUP1 SWAP2 SUB SWAP1 LOG3 POP POP POP JUMP JUMPDEST PUSH2 0x12ED DUP5 DUP5 DUP5 PUSH2 0xD10 JUMP JUMPDEST PUSH2 0x12F9 DUP5 DUP5 DUP5 DUP5 PUSH2 0x1348 JUMP JUMPDEST PUSH2 0x1338 JUMPI PUSH1 0x40 MLOAD PUSH32 0x8C379A000000000000000000000000000000000000000000000000000000000 DUP2 MSTORE PUSH1 0x4 ADD PUSH2 0x132F SWAP1 PUSH2 0x1C9E JUMP JUMPDEST PUSH1 0x40 MLOAD DUP1 SWAP2 SUB SWAP1 REVERT JUMPDEST POP POP POP POP JUMP JUMPDEST POP POP POP JUMP JUMPDEST POP POP POP JUMP JUMPDEST PUSH1 0x0 PUSH2 0x1369 DUP5 PUSH20 0xFFFFFFFFFFFFFFFFFFFFFFFFFFFFFFFFFFFFFFFF AND PUSH2 0x14DF JUMP JUMPDEST ISZERO PUSH2 0x14D2 JUMPI DUP4 PUSH20 0xFFFFFFFFFFFFFFFFFFFFFFFFFFFFFFFFFFFFFFFF AND PUSH4 0x150B7A02 PUSH2 0x1392 PUSH2 0xB71 JUMP JUMPDEST DUP8 DUP7 DUP7 PUSH1 0x40 MLOAD DUP6 PUSH4 0xFFFFFFFF AND PUSH1 0xE0 SHL DUP2 MSTORE PUSH1 0x4 ADD PUSH2 0x13B4 SWAP5 SWAP4 SWAP3 SWAP2 SWAP1 PUSH2 0x1C15 JUMP JUMPDEST PUSH1 0x20 PUSH1 0x40 MLOAD DUP1 DUP4 SUB DUP2 PUSH1 0x0 DUP8 DUP1 EXTCODESIZE ISZERO DUP1 ISZERO PUSH2 0x13CE JUMPI PUSH1 0x0 DUP1 REVERT JUMPDEST POP GAS CALL SWAP3 POP POP POP DUP1 ISZERO PUSH2 0x13FF JUMPI POP PUSH1 0x40 MLOAD RETURNDATASIZE PUSH1 0x1F NOT PUSH1 0x1F DUP3 ADD AND DUP3 ADD DUP1 PUSH1 0x40 MSTORE POP DUP2 ADD SWAP1 PUSH2 0x13FC SWAP2 SWAP1 PUSH2 0x193A JUMP JUMPDEST PUSH1 0x1 JUMPDEST PUSH2 0x1482 JUMPI RETURNDATASIZE DUP1 PUSH1 0x0 DUP2 EQ PUSH2 0x142F JUMPI PUSH1 0x40 MLOAD SWAP2 POP PUSH1 0x1F NOT PUSH1 0x3F RETURNDATASIZE ADD AND DUP3 ADD PUSH1 0x40 MSTORE RETURNDATASIZE DUP3 MSTORE RETURNDATASIZE PUSH1 0x0 PUSH1 0x20 DUP5 ADD RETURNDATACOPY PUSH2 0x1434 JUMP JUMPDEST PUSH1 0x60 SWAP2 POP JUMPDEST POP PUSH1 0x0 DUP2 MLOAD EQ ISZERO PUSH2 0x147A JUMPI PUSH1 0x40 MLOAD PUSH32 0x8C379A000000000000000000000000000000000000000000000000000000000 DUP2 MSTORE PUSH1 0x4 ADD PUSH2 0x1471 SWAP1 PUSH2 0x1C9E JUMP JUMPDEST PUSH1 0x40 MLOAD DUP1 SWAP2 SUB SWAP1 REVERT JUMPDEST DUP1 MLOAD DUP2 PUSH1 0x20 ADD REVERT JUMPDEST PUSH4 0x150B7A02 PUSH1 0xE0 SHL PUSH28 0xFFFFFFFFFFFFFFFFFFFFFFFFFFFFFFFFFFFFFFFFFFFFFFFFFFFFFFFF NOT AND DUP2 PUSH28 0xFFFFFFFFFFFFFFFFFFFFFFFFFFFFFFFFFFFFFFFFFFFFFFFFFFFFFFFF NOT AND EQ SWAP2 POP POP PUSH2 0x14D7 JUMP JUMPDEST PUSH1 0x1 SWAP1 POP JUMPDEST SWAP5 SWAP4 POP POP POP POP JUMP JUMPDEST PUSH1 0x0 DUP1 DUP3 PUSH20 0xFFFFFFFFFFFFFFFFFFFFFFFFFFFFFFFFFFFFFFFF AND EXTCODESIZE GT SWAP1 POP SWAP2 SWAP1 POP JUMP JUMPDEST DUP3 DUP1 SLOAD PUSH2 0x150E SWAP1 PUSH2 0x2058 JUMP JUMPDEST SWAP1 PUSH1 0x0 MSTORE PUSH1 0x20 PUSH1 0x0 KECCAK256 SWAP1 PUSH1 0x1F ADD PUSH1 0x20 SWAP1 DIV DUP2 ADD SWAP3 DUP3 PUSH2 0x1530 JUMPI PUSH1 0x0 DUP6 SSTORE PUSH2 0x1577 JUMP JUMPDEST DUP3 PUSH1 0x1F LT PUSH2 0x1549 JUMPI DUP1 MLOAD PUSH1 0xFF NOT AND DUP4 DUP1 ADD OR DUP6 SSTORE PUSH2 0x1577 JUMP JUMPDEST DUP3 DUP1 ADD PUSH1 0x1 ADD DUP6 SSTORE DUP3 ISZERO PUSH2 0x1577 JUMPI SWAP2 DUP3 ADD JUMPDEST DUP3 DUP2 GT ISZERO PUSH2 0x1576 JUMPI DUP3 MLOAD DUP3 SSTORE SWAP2 PUSH1 0x20 ADD SWAP2 SWAP1 PUSH1 0x1 ADD SWAP1 PUSH2 0x155B JUMP JUMPDEST JUMPDEST POP SWAP1 POP PUSH2 0x1584 SWAP2 SWAP1 PUSH2 0x1588 JUMP JUMPDEST POP SWAP1 JUMP JUMPDEST JUMPDEST DUP1 DUP3 GT ISZERO PUSH2 0x15A1 JUMPI PUSH1 0x0 DUP2 PUSH1 0x0 SWAP1 SSTORE POP PUSH1 0x1 ADD PUSH2 0x1589 JUMP JUMPDEST POP SWAP1 JUMP JUMPDEST PUSH1 0x0 PUSH2 0x15B8 PUSH2 0x15B3 DUP5 PUSH2 0x1E7E JUMP JUMPDEST PUSH2 0x1E59 JUMP JUMPDEST SWAP1 POP DUP3 DUP2 MSTORE PUSH1 0x20 DUP2 ADD DUP5 DUP5 DUP5 ADD GT ISZERO PUSH2 0x15D4 JUMPI PUSH2 0x15D3 PUSH2 0x214D JUMP JUMPDEST JUMPDEST PUSH2 0x15DF DUP5 DUP3 DUP6 PUSH2 0x2016 JUMP JUMPDEST POP SWAP4 SWAP3 POP POP POP JUMP JUMPDEST PUSH1 0x0 PUSH2 0x15FA PUSH2 0x15F5 DUP5 PUSH2 0x1EAF JUMP JUMPDEST PUSH2 0x1E59 JUMP JUMPDEST SWAP1 POP DUP3 DUP2 MSTORE PUSH1 0x20 DUP2 ADD DUP5 DUP5 DUP5 ADD GT ISZERO PUSH2 0x1616 JUMPI PUSH2 0x1615 PUSH2 0x214D JUMP JUMPDEST JUMPDEST PUSH2 0x1621 DUP5 DUP3 DUP6 PUSH2 0x2016 JUMP JUMPDEST POP SWAP4 SWAP3 POP POP POP JUMP JUMPDEST PUSH1 0x0 DUP2 CALLDATALOAD SWAP1 POP PUSH2 0x1638 DUP2 PUSH2 0x24FE JUMP JUMPDEST SWAP3 SWAP2 POP POP JUMP JUMPDEST PUSH1 0x0 DUP2 CALLDATALOAD SWAP1 POP PUSH2 0x164D DUP2 PUSH2 0x2515 JUMP JUMPDEST SWAP3 SWAP2 POP POP JUMP JUMPDEST PUSH1 0x0 DUP2 CALLDATALOAD SWAP1 POP PUSH2 0x1662 DUP2 PUSH2 0x252C JUMP JUMPDEST SWAP3 SWAP2 POP POP JUMP JUMPDEST PUSH1 0x0 DUP2 MLOAD SWAP1 POP PUSH2 0x1677 DUP2 PUSH2 0x252C JUMP JUMPDEST SWAP3 SWAP2 POP POP JUMP JUMPDEST PUSH1 0x0 DUP3 PUSH1 0x1F DUP4 ADD SLT PUSH2 0x1692 JUMPI PUSH2 0x1691 PUSH2 0x2148 JUMP JUMPDEST JUMPDEST DUP2 CALLDATALOAD PUSH2 0x16A2 DUP5 DUP3 PUSH1 0x20 DUP7 ADD PUSH2 0x15A5 JUMP JUMPDEST SWAP2 POP POP SWAP3 SWAP2 POP POP JUMP JUMPDEST PUSH1 0x0 DUP3 PUSH1 0x1F DUP4 ADD SLT PUSH2 0x16C0 JUMPI PUSH2 0x16BF PUSH2 0x2148 JUMP JUMPDEST JUMPDEST DUP2 CALLDATALOAD PUSH2 0x16D0 DUP5 DUP3 PUSH1 0x20 DUP7 ADD PUSH2 0x15E7 JUMP JUMPDEST SWAP2 POP POP SWAP3 SWAP2 POP POP JUMP JUMPDEST PUSH1 0x0 DUP2 CALLDATALOAD SWAP1 POP PUSH2 0x16E8 DUP2 PUSH2 0x2543 JUMP JUMPDEST SWAP3 SWAP2 POP POP JUMP JUMPDEST PUSH1 0x0 PUSH1 0x20 DUP3 DUP5 SUB SLT ISZERO PUSH2 0x1704 JUMPI PUSH2 0x1703 PUSH2 0x2157 JUMP JUMPDEST JUMPDEST PUSH1 0x0 PUSH2 0x1712 DUP5 DUP3 DUP6 ADD PUSH2 0x1629 JUMP JUMPDEST SWAP2 POP POP SWAP3 SWAP2 POP POP JUMP JUMPDEST PUSH1 0x0 DUP1 PUSH1 0x40 DUP4 DUP6 SUB SLT ISZERO PUSH2 0x1732 JUMPI PUSH2 0x1731 PUSH2 0x2157 JUMP JUMPDEST JUMPDEST PUSH1 0x0 PUSH2 0x1740 DUP6 DUP3 DUP7 ADD PUSH2 0x1629 JUMP JUMPDEST SWAP3 POP POP PUSH1 0x20 PUSH2 0x1751 DUP6 DUP3 DUP7 ADD PUSH2 0x1629 JUMP JUMPDEST SWAP2 POP POP SWAP3 POP SWAP3 SWAP1 POP JUMP JUMPDEST PUSH1 0x0 DUP1 PUSH1 0x0 PUSH1 0x60 DUP5 DUP7 SUB SLT ISZERO PUSH2 0x1774 JUMPI PUSH2 0x1773 PUSH2 0x2157 JUMP JUMPDEST JUMPDEST PUSH1 0x0 PUSH2 0x1782 DUP7 DUP3 DUP8 ADD PUSH2 0x1629 JUMP JUMPDEST SWAP4 POP POP PUSH1 0x20 PUSH2 0x1793 DUP7 DUP3 DUP8 ADD PUSH2 0x1629 JUMP JUMPDEST SWAP3 POP POP PUSH1 0x40 PUSH2 0x17A4 DUP7 DUP3 DUP8 ADD PUSH2 0x16D9 JUMP JUMPDEST SWAP2 POP POP SWAP3 POP SWAP3 POP SWAP3 JUMP JUMPDEST PUSH1 0x0 DUP1 PUSH1 0x0 DUP1 PUSH1 0x80 DUP6 DUP8 SUB SLT ISZERO PUSH2 0x17C8 JUMPI PUSH2 0x17C7 PUSH2 0x2157 JUMP JUMPDEST JUMPDEST PUSH1 0x0 PUSH2 0x17D6 DUP8 DUP3 DUP9 ADD PUSH2 0x1629 JUMP JUMPDEST SWAP5 POP POP PUSH1 0x20 PUSH2 0x17E7 DUP8 DUP3 DUP9 ADD PUSH2 0x1629 JUMP JUMPDEST SWAP4 POP POP PUSH1 0x40 PUSH2 0x17F8 DUP8 DUP3 DUP9 ADD PUSH2 0x16D9 JUMP JUMPDEST SWAP3 POP POP PUSH1 0x60 DUP6 ADD CALLDATALOAD PUSH8 0xFFFFFFFFFFFFFFFF DUP2 GT ISZERO PUSH2 0x1819 JUMPI PUSH2 0x1818 PUSH2 0x2152 JUMP JUMPDEST JUMPDEST PUSH2 0x1825 DUP8 DUP3 DUP9 ADD PUSH2 0x167D JUMP JUMPDEST SWAP2 POP POP SWAP3 SWAP6 SWAP2 SWAP5 POP SWAP3 POP JUMP JUMPDEST PUSH1 0x0 DUP1 PUSH1 0x40 DUP4 DUP6 SUB SLT ISZERO PUSH2 0x1848 JUMPI PUSH2 0x1847 PUSH2 0x2157 JUMP JUMPDEST JUMPDEST PUSH1 0x0 PUSH2 0x1856 DUP6 DUP3 DUP7 ADD PUSH2 0x1629 JUMP JUMPDEST SWAP3 POP POP PUSH1 0x20 PUSH2 0x1867 DUP6 DUP3 DUP7 ADD PUSH2 0x163E JUMP JUMPDEST SWAP2 POP POP SWAP3 POP SWAP3 SWAP1 POP JUMP JUMPDEST PUSH1 0x0 DUP1 PUSH1 0x40 DUP4 DUP6 SUB SLT ISZERO PUSH2 0x1888 JUMPI PUSH2 0x1887 PUSH2 0x2157 JUMP JUMPDEST JUMPDEST PUSH1 0x0 PUSH2 0x1896 DUP6 DUP3 DUP7 ADD PUSH2 0x1629 JUMP JUMPDEST SWAP3 POP POP PUSH1 0x20 DUP4 ADD CALLDATALOAD PUSH8 0xFFFFFFFFFFFFFFFF DUP2 GT ISZERO PUSH2 0x18B7 JUMPI PUSH2 0x18B6 PUSH2 0x2152 JUMP JUMPDEST JUMPDEST PUSH2 0x18C3 DUP6 DUP3 DUP7 ADD PUSH2 0x16AB JUMP JUMPDEST SWAP2 POP POP SWAP3 POP SWAP3 SWAP1 POP JUMP JUMPDEST PUSH1 0x0 DUP1 PUSH1 0x40 DUP4 DUP6 SUB SLT ISZERO PUSH2 0x18E4 JUMPI PUSH2 0x18E3 PUSH2 0x2157 JUMP JUMPDEST JUMPDEST PUSH1 0x0 PUSH2 0x18F2 DUP6 DUP3 DUP7 ADD PUSH2 0x1629 JUMP JUMPDEST SWAP3 POP POP PUSH1 0x20 PUSH2 0x1903 DUP6 DUP3 DUP7 ADD PUSH2 0x16D9 JUMP JUMPDEST SWAP2 POP POP SWAP3 POP SWAP3 SWAP1 POP JUMP JUMPDEST PUSH1 0x0 PUSH1 0x20 DUP3 DUP5 SUB SLT ISZERO PUSH2 0x1923 JUMPI PUSH2 0x1922 PUSH2 0x2157 JUMP JUMPDEST JUMPDEST PUSH1 0x0 PUSH2 0x1931 DUP5 DUP3 DUP6 ADD PUSH2 0x1653 JUMP JUMPDEST SWAP2 POP POP SWAP3 SWAP2 POP POP JUMP JUMPDEST PUSH1 0x0 PUSH1 0x20 DUP3 DUP5 SUB SLT ISZERO PUSH2 0x1950 JUMPI PUSH2 0x194F PUSH2 0x2157 JUMP JUMPDEST JUMPDEST PUSH1 0x0 PUSH2 0x195E DUP5 DUP3 DUP6 ADD PUSH2 0x1668 JUMP JUMPDEST SWAP2 POP POP SWAP3 SWAP2 POP POP JUMP JUMPDEST PUSH1 0x0 PUSH1 0x20 DUP3 DUP5 SUB SLT ISZERO PUSH2 0x197D JUMPI PUSH2 0x197C PUSH2 0x2157 JUMP JUMPDEST JUMPDEST PUSH1 0x0 PUSH2 0x198B DUP5 DUP3 DUP6 ADD PUSH2 0x16D9 JUMP JUMPDEST SWAP2 POP POP SWAP3 SWAP2 POP POP JUMP JUMPDEST PUSH2 0x199D DUP2 PUSH2 0x1FA2 JUMP JUMPDEST DUP3 MSTORE POP POP JUMP JUMPDEST PUSH2 0x19AC DUP2 PUSH2 0x1FB4 JUMP JUMPDEST DUP3 MSTORE POP POP JUMP JUMPDEST PUSH1 0x0 PUSH2 0x19BD DUP3 PUSH2 0x1EE0 JUMP JUMPDEST PUSH2 0x19C7 DUP2 DUP6 PUSH2 0x1EF6 JUMP JUMPDEST SWAP4 POP PUSH2 0x19D7 DUP2 DUP6 PUSH1 0x20 DUP7 ADD PUSH2 0x2025 JUMP JUMPDEST PUSH2 0x19E0 DUP2 PUSH2 0x215C JUMP JUMPDEST DUP5 ADD SWAP2 POP POP SWAP3 SWAP2 POP POP JUMP JUMPDEST PUSH1 0x0 PUSH2 0x19F6 DUP3 PUSH2 0x1EEB JUMP JUMPDEST PUSH2 0x1A00 DUP2 DUP6 PUSH2 0x1F07 JUMP JUMPDEST SWAP4 POP PUSH2 0x1A10 DUP2 DUP6 PUSH1 0x20 DUP7 ADD PUSH2 0x2025 JUMP JUMPDEST PUSH2 0x1A19 DUP2 PUSH2 0x215C JUMP JUMPDEST DUP5 ADD SWAP2 POP POP SWAP3 SWAP2 POP POP JUMP JUMPDEST PUSH1 0x0 PUSH2 0x1A31 PUSH1 0x32 DUP4 PUSH2 0x1F07 JUMP JUMPDEST SWAP2 POP PUSH2 0x1A3C DUP3 PUSH2 0x216D JUMP JUMPDEST PUSH1 0x40 DUP3 ADD SWAP1 POP SWAP2 SWAP1 POP JUMP JUMPDEST PUSH1 0x0 PUSH2 0x1A54 PUSH1 0x25 DUP4 PUSH2 0x1F07 JUMP JUMPDEST SWAP2 POP PUSH2 0x1A5F DUP3 PUSH2 0x21BC JUMP JUMPDEST PUSH1 0x40 DUP3 ADD SWAP1 POP SWAP2 SWAP1 POP JUMP JUMPDEST PUSH1 0x0 PUSH2 0x1A77 PUSH1 0x1C DUP4 PUSH2 0x1F07 JUMP JUMPDEST SWAP2 POP PUSH2 0x1A82 DUP3 PUSH2 0x220B JUMP JUMPDEST PUSH1 0x20 DUP3 ADD SWAP1 POP SWAP2 SWAP1 POP JUMP JUMPDEST PUSH1 0x0 PUSH2 0x1A9A PUSH1 0x24 DUP4 PUSH2 0x1F07 JUMP JUMPDEST SWAP2 POP PUSH2 0x1AA5 DUP3 PUSH2 0x2234 JUMP JUMPDEST PUSH1 0x40 DUP3 ADD SWAP1 POP SWAP2 SWAP1 POP JUMP JUMPDEST PUSH1 0x0 PUSH2 0x1ABD PUSH1 0x19 DUP4 PUSH2 0x1F07 JUMP JUMPDEST SWAP2 POP PUSH2 0x1AC8 DUP3 PUSH2 0x2283 JUMP JUMPDEST PUSH1 0x20 DUP3 ADD SWAP1 POP SWAP2 SWAP1 POP JUMP JUMPDEST PUSH1 0x0 PUSH2 0x1AE0 PUSH1 0x2C DUP4 PUSH2 0x1F07 JUMP JUMPDEST SWAP2 POP PUSH2 0x1AEB DUP3 PUSH2 0x22AC JUMP JUMPDEST PUSH1 0x40 DUP3 ADD SWAP1 POP SWAP2 SWAP1 POP JUMP JUMPDEST PUSH1 0x0 PUSH2 0x1B03 PUSH1 0x38 DUP4 PUSH2 0x1F07 JUMP JUMPDEST SWAP2 POP PUSH2 0x1B0E DUP3 PUSH2 0x22FB JUMP JUMPDEST PUSH1 0x40 DUP3 ADD SWAP1 POP SWAP2 SWAP1 POP JUMP JUMPDEST PUSH1 0x0 PUSH2 0x1B26 PUSH1 0x2A DUP4 PUSH2 0x1F07 JUMP JUMPDEST SWAP2 POP PUSH2 0x1B31 DUP3 PUSH2 0x234A JUMP JUMPDEST PUSH1 0x40 DUP3 ADD SWAP1 POP SWAP2 SWAP1 POP JUMP JUMPDEST PUSH1 0x0 PUSH2 0x1B49 PUSH1 0x29 DUP4 PUSH2 0x1F07 JUMP JUMPDEST SWAP2 POP PUSH2 0x1B54 DUP3 PUSH2 0x2399 JUMP JUMPDEST PUSH1 0x40 DUP3 ADD SWAP1 POP SWAP2 SWAP1 POP JUMP JUMPDEST PUSH1 0x0 PUSH2 0x1B6C PUSH1 0x20 DUP4 PUSH2 0x1F07 JUMP JUMPDEST SWAP2 POP PUSH2 0x1B77 DUP3 PUSH2 0x23E8 JUMP JUMPDEST PUSH1 0x20 DUP3 ADD SWAP1 POP SWAP2 SWAP1 POP JUMP JUMPDEST PUSH1 0x0 PUSH2 0x1B8F PUSH1 0x2C DUP4 PUSH2 0x1F07 JUMP JUMPDEST SWAP2 POP PUSH2 0x1B9A DUP3 PUSH2 0x2411 JUMP JUMPDEST PUSH1 0x40 DUP3 ADD SWAP1 POP SWAP2 SWAP1 POP JUMP JUMPDEST PUSH1 0x0 PUSH2 0x1BB2 PUSH1 0x21 DUP4 PUSH2 0x1F07 JUMP JUMPDEST SWAP2 POP PUSH2 0x1BBD DUP3 PUSH2 0x2460 JUMP JUMPDEST PUSH1 0x40 DUP3 ADD SWAP1 POP SWAP2 SWAP1 POP JUMP JUMPDEST PUSH1 0x0 PUSH2 0x1BD5 PUSH1 0x31 DUP4 PUSH2 0x1F07 JUMP JUMPDEST SWAP2 POP PUSH2 0x1BE0 DUP3 PUSH2 0x24AF JUMP JUMPDEST PUSH1 0x40 DUP3 ADD SWAP1 POP SWAP2 SWAP1 POP JUMP JUMPDEST PUSH2 0x1BF4 DUP2 PUSH2 0x200C JUMP JUMPDEST DUP3 MSTORE POP POP JUMP JUMPDEST PUSH1 0x0 PUSH1 0x20 DUP3 ADD SWAP1 POP PUSH2 0x1C0F PUSH1 0x0 DUP4 ADD DUP5 PUSH2 0x1994 JUMP JUMPDEST SWAP3 SWAP2 POP POP JUMP JUMPDEST PUSH1 0x0 PUSH1 0x80 DUP3 ADD SWAP1 POP PUSH2 0x1C2A PUSH1 0x0 DUP4 ADD DUP8 PUSH2 0x1994 JUMP JUMPDEST PUSH2 0x1C37 PUSH1 0x20 DUP4 ADD DUP7 PUSH2 0x1994 JUMP JUMPDEST PUSH2 0x1C44 PUSH1 0x40 DUP4 ADD DUP6 PUSH2 0x1BEB JUMP JUMPDEST DUP2 DUP2 SUB PUSH1 0x60 DUP4 ADD MSTORE PUSH2 0x1C56 DUP2 DUP5 PUSH2 0x19B2 JUMP JUMPDEST SWAP1 POP SWAP6 SWAP5 POP POP POP POP POP JUMP JUMPDEST PUSH1 0x0 PUSH1 0x20 DUP3 ADD SWAP1 POP PUSH2 0x1C76 PUSH1 0x0 DUP4 ADD DUP5 PUSH2 0x19A3 JUMP JUMPDEST SWAP3 SWAP2 POP POP JUMP JUMPDEST PUSH1 0x0 PUSH1 0x20 DUP3 ADD SWAP1 POP DUP2 DUP2 SUB PUSH1 0x0 DUP4 ADD MSTORE PUSH2 0x1C96 DUP2 DUP5 PUSH2 0x19EB JUMP JUMPDEST SWAP1 POP SWAP3 SWAP2 POP POP JUMP JUMPDEST PUSH1 0x0 PUSH1 0x20 DUP3 ADD SWAP1 POP DUP2 DUP2 SUB PUSH1 0x0 DUP4 ADD MSTORE PUSH2 0x1CB7 DUP2 PUSH2 0x1A24 JUMP JUMPDEST SWAP1 POP SWAP2 SWAP1 POP JUMP JUMPDEST PUSH1 0x0 PUSH1 0x20 DUP3 ADD SWAP1 POP DUP2 DUP2 SUB PUSH1 0x0 DUP4 ADD MSTORE PUSH2 0x1CD7 DUP2 PUSH2 0x1A47 JUMP JUMPDEST SWAP1 POP SWAP2 SWAP1 POP JUMP JUMPDEST PUSH1 0x0 PUSH1 0x20 DUP3 ADD SWAP1 POP DUP2 DUP2 SUB PUSH1 0x0 DUP4 ADD MSTORE PUSH2 0x1CF7 DUP2 PUSH2 0x1A6A JUMP JUMPDEST SWAP1 POP SWAP2 SWAP1 POP JUMP JUMPDEST PUSH1 0x0 PUSH1 0x20 DUP3 ADD SWAP1 POP DUP2 DUP2 SUB PUSH1 0x0 DUP4 ADD MSTORE PUSH2 0x1D17 DUP2 PUSH2 0x1A8D JUMP JUMPDEST SWAP1 POP SWAP2 SWAP1 POP JUMP JUMPDEST PUSH1 0x0 PUSH1 0x20 DUP3 ADD SWAP1 POP DUP2 DUP2 SUB PUSH1 0x0 DUP4 ADD MSTORE PUSH2 0x1D37 DUP2 PUSH2 0x1AB0 JUMP JUMPDEST SWAP1 POP SWAP2 SWAP1 POP JUMP JUMPDEST PUSH1 0x0 PUSH1 0x20 DUP3 ADD SWAP1 POP DUP2 DUP2 SUB PUSH1 0x0 DUP4 ADD MSTORE PUSH2 0x1D57 DUP2 PUSH2 0x1AD3 JUMP JUMPDEST SWAP1 POP SWAP2 SWAP1 POP JUMP JUMPDEST PUSH1 0x0 PUSH1 0x20 DUP3 ADD SWAP1 POP DUP2 DUP2 SUB PUSH1 0x0 DUP4 ADD MSTORE PUSH2 0x1D77 DUP2 PUSH2 0x1AF6 JUMP JUMPDEST SWAP1 POP SWAP2 SWAP1 POP JUMP JUMPDEST PUSH1 0x0 PUSH1 0x20 DUP3 ADD SWAP1 POP DUP2 DUP2 SUB PUSH1 0x0 DUP4 ADD MSTORE PUSH2 0x1D97 DUP2 PUSH2 0x1B19 JUMP JUMPDEST SWAP1 POP SWAP2 SWAP1 POP JUMP JUMPDEST PUSH1 0x0 PUSH1 0x20 DUP3 ADD SWAP1 POP DUP2 DUP2 SUB PUSH1 0x0 DUP4 ADD MSTORE PUSH2 0x1DB7 DUP2 PUSH2 0x1B3C JUMP JUMPDEST SWAP1 POP SWAP2 SWAP1 POP JUMP JUMPDEST PUSH1 0x0 PUSH1 0x20 DUP3 ADD SWAP1 POP DUP2 DUP2 SUB PUSH1 0x0 DUP4 ADD MSTORE PUSH2 0x1DD7 DUP2 PUSH2 0x1B5F JUMP JUMPDEST SWAP1 POP SWAP2 SWAP1 POP JUMP JUMPDEST PUSH1 0x0 PUSH1 0x20 DUP3 ADD SWAP1 POP DUP2 DUP2 SUB PUSH1 0x0 DUP4 ADD MSTORE PUSH2 0x1DF7 DUP2 PUSH2 0x1B82 JUMP JUMPDEST SWAP1 POP SWAP2 SWAP1 POP JUMP JUMPDEST PUSH1 0x0 PUSH1 0x20 DUP3 ADD SWAP1 POP DUP2 DUP2 SUB PUSH1 0x0 DUP4 ADD MSTORE PUSH2 0x1E17 DUP2 PUSH2 0x1BA5 JUMP JUMPDEST SWAP1 POP SWAP2 SWAP1 POP JUMP JUMPDEST PUSH1 0x0 PUSH1 0x20 DUP3 ADD SWAP1 POP DUP2 DUP2 SUB PUSH1 0x0 DUP4 ADD MSTORE PUSH2 0x1E37 DUP2 PUSH2 0x1BC8 JUMP JUMPDEST SWAP1 POP SWAP2 SWAP1 POP JUMP JUMPDEST PUSH1 0x0 PUSH1 0x20 DUP3 ADD SWAP1 POP PUSH2 0x1E53 PUSH1 0x0 DUP4 ADD DUP5 PUSH2 0x1BEB JUMP JUMPDEST SWAP3 SWAP2 POP POP JUMP JUMPDEST PUSH1 0x0 PUSH2 0x1E63 PUSH2 0x1E74 JUMP JUMPDEST SWAP1 POP PUSH2 0x1E6F DUP3 DUP3 PUSH2 0x208A JUMP JUMPDEST SWAP2 SWAP1 POP JUMP JUMPDEST PUSH1 0x0 PUSH1 0x40 MLOAD SWAP1 POP SWAP1 JUMP JUMPDEST PUSH1 0x0 PUSH8 0xFFFFFFFFFFFFFFFF DUP3 GT ISZERO PUSH2 0x1E99 JUMPI PUSH2 0x1E98 PUSH2 0x2119 JUMP JUMPDEST JUMPDEST PUSH2 0x1EA2 DUP3 PUSH2 0x215C JUMP JUMPDEST SWAP1 POP PUSH1 0x20 DUP2 ADD SWAP1 POP SWAP2 SWAP1 POP JUMP JUMPDEST PUSH1 0x0 PUSH8 0xFFFFFFFFFFFFFFFF DUP3 GT ISZERO PUSH2 0x1ECA JUMPI PUSH2 0x1EC9 PUSH2 0x2119 JUMP JUMPDEST JUMPDEST PUSH2 0x1ED3 DUP3 PUSH2 0x215C JUMP JUMPDEST SWAP1 POP PUSH1 0x20 DUP2 ADD SWAP1 POP SWAP2 SWAP1 POP JUMP JUMPDEST PUSH1 0x0 DUP2 MLOAD SWAP1 POP SWAP2 SWAP1 POP JUMP JUMPDEST PUSH1 0x0 DUP2 MLOAD SWAP1 POP SWAP2 SWAP1 POP JUMP JUMPDEST PUSH1 0x0 DUP3 DUP3 MSTORE PUSH1 0x20 DUP3 ADD SWAP1 POP SWAP3 SWAP2 POP POP JUMP JUMPDEST PUSH1 0x0 DUP3 DUP3 MSTORE PUSH1 0x20 DUP3 ADD SWAP1 POP SWAP3 SWAP2 POP POP JUMP JUMPDEST PUSH1 0x0 PUSH2 0x1F23 DUP3 PUSH2 0x200C JUMP JUMPDEST SWAP2 POP PUSH2 0x1F2E DUP4 PUSH2 0x200C JUMP JUMPDEST SWAP3 POP DUP3 PUSH32 0xFFFFFFFFFFFFFFFFFFFFFFFFFFFFFFFFFFFFFFFFFFFFFFFFFFFFFFFFFFFFFFFF SUB DUP3 GT ISZERO PUSH2 0x1F63 JUMPI PUSH2 0x1F62 PUSH2 0x20BB JUMP JUMPDEST JUMPDEST DUP3 DUP3 ADD SWAP1 POP SWAP3 SWAP2 POP POP JUMP JUMPDEST PUSH1 0x0 PUSH2 0x1F79 DUP3 PUSH2 0x200C JUMP JUMPDEST SWAP2 POP PUSH2 0x1F84 DUP4 PUSH2 0x200C JUMP JUMPDEST SWAP3 POP DUP3 DUP3 LT ISZERO PUSH2 0x1F97 JUMPI PUSH2 0x1F96 PUSH2 0x20BB JUMP JUMPDEST JUMPDEST DUP3 DUP3 SUB SWAP1 POP SWAP3 SWAP2 POP POP JUMP JUMPDEST PUSH1 0x0 PUSH2 0x1FAD DUP3 PUSH2 0x1FEC JUMP JUMPDEST SWAP1 POP SWAP2 SWAP1 POP JUMP JUMPDEST PUSH1 0x0 DUP2 ISZERO ISZERO SWAP1 POP SWAP2 SWAP1 POP JUMP JUMPDEST PUSH1 0x0 PUSH32 0xFFFFFFFF00000000000000000000000000000000000000000000000000000000 DUP3 AND SWAP1 POP SWAP2 SWAP1 POP JUMP JUMPDEST PUSH1 0x0 PUSH20 0xFFFFFFFFFFFFFFFFFFFFFFFFFFFFFFFFFFFFFFFF DUP3 AND SWAP1 POP SWAP2 SWAP1 POP JUMP JUMPDEST PUSH1 0x0 DUP2 SWAP1 POP SWAP2 SWAP1 POP JUMP JUMPDEST DUP3 DUP2 DUP4 CALLDATACOPY PUSH1 0x0 DUP4 DUP4 ADD MSTORE POP POP POP JUMP JUMPDEST PUSH1 0x0 JUMPDEST DUP4 DUP2 LT ISZERO PUSH2 0x2043 JUMPI DUP1 DUP3 ADD MLOAD DUP2 DUP5 ADD MSTORE PUSH1 0x20 DUP2 ADD SWAP1 POP PUSH2 0x2028 JUMP JUMPDEST DUP4 DUP2 GT ISZERO PUSH2 0x2052 JUMPI PUSH1 0x0 DUP5 DUP5 ADD MSTORE JUMPDEST POP POP POP POP JUMP JUMPDEST PUSH1 0x0 PUSH1 0x2 DUP3 DIV SWAP1 POP PUSH1 0x1 DUP3 AND DUP1 PUSH2 0x2070 JUMPI PUSH1 0x7F DUP3 AND SWAP2 POP JUMPDEST PUSH1 0x20 DUP3 LT DUP2 EQ ISZERO PUSH2 0x2084 JUMPI PUSH2 0x2083 PUSH2 0x20EA JUMP JUMPDEST JUMPDEST POP SWAP2 SWAP1 POP JUMP JUMPDEST PUSH2 0x2093 DUP3 PUSH2 0x215C JUMP JUMPDEST DUP2 ADD DUP2 DUP2 LT PUSH8 0xFFFFFFFFFFFFFFFF DUP3 GT OR ISZERO PUSH2 0x20B2 JUMPI PUSH2 0x20B1 PUSH2 0x2119 JUMP JUMPDEST JUMPDEST DUP1 PUSH1 0x40 MSTORE POP POP POP JUMP JUMPDEST PUSH32 0x4E487B7100000000000000000000000000000000000000000000000000000000 PUSH1 0x0 MSTORE PUSH1 0x11 PUSH1 0x4 MSTORE PUSH1 0x24 PUSH1 0x0 REVERT JUMPDEST PUSH32 0x4E487B7100000000000000000000000000000000000000000000000000000000 PUSH1 0x0 MSTORE PUSH1 0x22 PUSH1 0x4 MSTORE PUSH1 0x24 PUSH1 0x0 REVERT JUMPDEST PUSH32 0x4E487B7100000000000000000000000000000000000000000000000000000000 PUSH1 0x0 MSTORE PUSH1 0x41 PUSH1 0x4 MSTORE PUSH1 0x24 PUSH1 0x0 REVERT JUMPDEST PUSH1 0x0 DUP1 REVERT JUMPDEST PUSH1 0x0 DUP1 REVERT JUMPDEST PUSH1 0x0 DUP1 REVERT JUMPDEST PUSH1 0x0 DUP1 REVERT JUMPDEST PUSH1 0x0 PUSH1 0x1F NOT PUSH1 0x1F DUP4 ADD AND SWAP1 POP SWAP2 SWAP1 POP JUMP JUMPDEST PUSH32 0x4552433732313A207472616E7366657220746F206E6F6E204552433732315265 PUSH1 0x0 DUP3 ADD MSTORE PUSH32 0x63656976657220696D706C656D656E7465720000000000000000000000000000 PUSH1 0x20 DUP3 ADD MSTORE POP JUMP JUMPDEST PUSH32 0x4552433732313A207472616E736665722066726F6D20696E636F727265637420 PUSH1 0x0 DUP3 ADD MSTORE PUSH32 0x6F776E6572000000000000000000000000000000000000000000000000000000 PUSH1 0x20 DUP3 ADD MSTORE POP JUMP JUMPDEST PUSH32 0x4552433732313A20746F6B656E20616C7265616479206D696E74656400000000 PUSH1 0x0 DUP3 ADD MSTORE POP JUMP JUMPDEST PUSH32 0x4552433732313A207472616E7366657220746F20746865207A65726F20616464 PUSH1 0x0 DUP3 ADD MSTORE PUSH32 0x7265737300000000000000000000000000000000000000000000000000000000 PUSH1 0x20 DUP3 ADD MSTORE POP JUMP JUMPDEST PUSH32 0x4552433732313A20617070726F766520746F2063616C6C657200000000000000 PUSH1 0x0 DUP3 ADD MSTORE POP JUMP JUMPDEST PUSH32 0x4552433732313A206F70657261746F7220717565727920666F72206E6F6E6578 PUSH1 0x0 DUP3 ADD MSTORE PUSH32 0x697374656E7420746F6B656E0000000000000000000000000000000000000000 PUSH1 0x20 DUP3 ADD MSTORE POP JUMP JUMPDEST PUSH32 0x4552433732313A20617070726F76652063616C6C6572206973206E6F74206F77 PUSH1 0x0 DUP3 ADD MSTORE PUSH32 0x6E6572206E6F7220617070726F76656420666F7220616C6C0000000000000000 PUSH1 0x20 DUP3 ADD MSTORE POP JUMP JUMPDEST PUSH32 0x4552433732313A2062616C616E636520717565727920666F7220746865207A65 PUSH1 0x0 DUP3 ADD MSTORE PUSH32 0x726F206164647265737300000000000000000000000000000000000000000000 PUSH1 0x20 DUP3 ADD MSTORE POP JUMP JUMPDEST PUSH32 0x4552433732313A206F776E657220717565727920666F72206E6F6E6578697374 PUSH1 0x0 DUP3 ADD MSTORE PUSH32 0x656E7420746F6B656E0000000000000000000000000000000000000000000000 PUSH1 0x20 DUP3 ADD MSTORE POP JUMP JUMPDEST PUSH32 0x4552433732313A206D696E7420746F20746865207A65726F2061646472657373 PUSH1 0x0 DUP3 ADD MSTORE POP JUMP JUMPDEST PUSH32 0x4552433732313A20617070726F76656420717565727920666F72206E6F6E6578 PUSH1 0x0 DUP3 ADD MSTORE PUSH32 0x697374656E7420746F6B656E0000000000000000000000000000000000000000 PUSH1 0x20 DUP3 ADD MSTORE POP JUMP JUMPDEST PUSH32 0x4552433732313A20617070726F76616C20746F2063757272656E74206F776E65 PUSH1 0x0 DUP3 ADD MSTORE PUSH32 0x7200000000000000000000000000000000000000000000000000000000000000 PUSH1 0x20 DUP3 ADD MSTORE POP JUMP JUMPDEST PUSH32 0x4552433732313A207472616E736665722063616C6C6572206973206E6F74206F PUSH1 0x0 DUP3 ADD MSTORE PUSH32 0x776E6572206E6F7220617070726F766564000000000000000000000000000000 PUSH1 0x20 DUP3 ADD MSTORE POP JUMP JUMPDEST PUSH2 0x2507 DUP2 PUSH2 0x1FA2 JUMP JUMPDEST DUP2 EQ PUSH2 0x2512 JUMPI PUSH1 0x0 DUP1 REVERT JUMPDEST POP JUMP JUMPDEST PUSH2 0x251E DUP2 PUSH2 0x1FB4 JUMP JUMPDEST DUP2 EQ PUSH2 0x2529 JUMPI PUSH1 0x0 DUP1 REVERT JUMPDEST POP JUMP JUMPDEST PUSH2 0x2535 DUP2 PUSH2 0x1FC0 JUMP JUMPDEST DUP2 EQ PUSH2 0x2540 JUMPI PUSH1 0x0 DUP1 REVERT JUMPDEST POP JUMP JUMPDEST PUSH2 0x254C DUP2 PUSH2 0x200C JUMP JUMPDEST DUP2 EQ PUSH2 0x2557 JUMPI PUSH1 0x0 DUP1 REVERT JUMPDEST POP JUMP INVALID LOG2 PUSH5 0x6970667358 0x22 SLT KECCAK256 0xC0 PUSH3 0x71C05E 0xB1 STATICCALL STATICCALL 0xC9 0xC9 0xE PUSH16 0x71E1653E0A075F488C09ACC68DB6C92D SMOD 0x4A CALLDATACOPY PUSH30 0x64736F6C6343000807003300000000000000000000000000000000000000 "
				},
				"gasEstimates": {
					"creation": {
						"codeDepositCost": "1923200",
						"executionCost": "infinite",
						"totalCost": "infinite"
					},
					"external": {
						"approve(address,uint256)": "infinite",
						"balanceOf(address)": "2902",
						"create(address,string)": "infinite",
						"getApproved(uint256)": "5228",
						"isApprovedForAll(address,address)": "infinite",
						"name()": "infinite",
						"ownerOf(uint256)": "3066",
						"safeTransferFrom(address,address,uint256)": "infinite",
						"safeTransferFrom(address,address,uint256,bytes)": "infinite",
						"setApprovalForAll(address,bool)": "infinite",
						"supportsInterface(bytes4)": "797",
						"symbol()": "infinite",
						"tokenURI(uint256)": "infinite",
						"transferFrom(address,address,uint256)": "infinite"
					}
				},
				"methodIdentifiers": {
					"approve(address,uint256)": "095ea7b3",
					"balanceOf(address)": "70a08231",
					"create(address,string)": "a15ab08d",
					"getApproved(uint256)": "081812fc",
					"isApprovedForAll(address,address)": "e985e9c5",
					"name()": "06fdde03",
					"ownerOf(uint256)": "6352211e",
					"safeTransferFrom(address,address,uint256)": "42842e0e",
					"safeTransferFrom(address,address,uint256,bytes)": "b88d4fde",
					"setApprovalForAll(address,bool)": "a22cb465",
					"supportsInterface(bytes4)": "01ffc9a7",
					"symbol()": "95d89b41",
					"tokenURI(uint256)": "c87b56dd",
					"transferFrom(address,address,uint256)": "23b872dd"
				}
			},
			"storageLayout": {
				"storage": [
					{
						"astId": 25,
						"contract": "default_workspace/test/simplecoin/mynft.sol:pptestNFT",
						"label": "_name",
						"offset": 0,
						"slot": "0",
						"type": "t_string_storage"
					},
					{
						"astId": 27,
						"contract": "default_workspace/test/simplecoin/mynft.sol:pptestNFT",
						"label": "_symbol",
						"offset": 0,
						"slot": "1",
						"type": "t_string_storage"
					},
					{
						"astId": 31,
						"contract": "default_workspace/test/simplecoin/mynft.sol:pptestNFT",
						"label": "_owners",
						"offset": 0,
						"slot": "2",
						"type": "t_mapping(t_uint256,t_address)"
					},
					{
						"astId": 35,
						"contract": "default_workspace/test/simplecoin/mynft.sol:pptestNFT",
						"label": "_balances",
						"offset": 0,
						"slot": "3",
						"type": "t_mapping(t_address,t_uint256)"
					},
					{
						"astId": 39,
						"contract": "default_workspace/test/simplecoin/mynft.sol:pptestNFT",
						"label": "_tokenApprovals",
						"offset": 0,
						"slot": "4",
						"type": "t_mapping(t_uint256,t_address)"
					},
					{
						"astId": 45,
						"contract": "default_workspace/test/simplecoin/mynft.sol:pptestNFT",
						"label": "_operatorApprovals",
						"offset": 0,
						"slot": "5",
						"type": "t_mapping(t_address,t_mapping(t_address,t_bool))"
					},
					{
						"astId": 1669,
						"contract": "default_workspace/test/simplecoin/mynft.sol:pptestNFT",
						"label": "_tokenIds",
						"offset": 0,
						"slot": "6",
						"type": "t_struct(Counter)1349_storage"
					},
					{
						"astId": 1681,
						"contract": "default_workspace/test/simplecoin/mynft.sol:pptestNFT",
						"label": "tokenURIs",
						"offset": 0,
						"slot": "7",
						"type": "t_mapping(t_uint256,t_string_storage)"
					}
				],
				"types": {
					"t_address": {
						"encoding": "inplace",
						"label": "address",
						"numberOfBytes": "20"
					},
					"t_bool": {
						"encoding": "inplace",
						"label": "bool",
						"numberOfBytes": "1"
					},
					"t_mapping(t_address,t_bool)": {
						"encoding": "mapping",
						"key": "t_address",
						"label": "mapping(address => bool)",
						"numberOfBytes": "32",
						"value": "t_bool"
					},
					"t_mapping(t_address,t_mapping(t_address,t_bool))": {
						"encoding": "mapping",
						"key": "t_address",
						"label": "mapping(address => mapping(address => bool))",
						"numberOfBytes": "32",
						"value": "t_mapping(t_address,t_bool)"
					},
					"t_mapping(t_address,t_uint256)": {
						"encoding": "mapping",
						"key": "t_address",
						"label": "mapping(address => uint256)",
						"numberOfBytes": "32",
						"value": "t_uint256"
					},
					"t_mapping(t_uint256,t_address)": {
						"encoding": "mapping",
						"key": "t_uint256",
						"label": "mapping(uint256 => address)",
						"numberOfBytes": "32",
						"value": "t_address"
					},
					"t_mapping(t_uint256,t_string_storage)": {
						"encoding": "mapping",
						"key": "t_uint256",
						"label": "mapping(uint256 => string)",
						"numberOfBytes": "32",
						"value": "t_string_storage"
					},
					"t_string_storage": {
						"encoding": "bytes",
						"label": "string",
						"numberOfBytes": "32"
					},
					"t_struct(Counter)1349_storage": {
						"encoding": "inplace",
						"label": "struct Counters.Counter",
						"members": [
							{
								"astId": 1348,
								"contract": "default_workspace/test/simplecoin/mynft.sol:pptestNFT",
								"label": "_value",
								"offset": 0,
								"slot": "0",
								"type": "t_uint256"
							}
						],
						"numberOfBytes": "32"
					},
					"t_uint256": {
						"encoding": "inplace",
						"label": "uint256",
						"numberOfBytes": "32"
					}
				}
			},
			"userdoc": {
				"kind": "user",
				"methods": {},
				"version": 1
			}
		}
	}
}