{
	"default_workspace/test/sp.sol": {
		"sp": {
			"abi": [
				{
					"inputs": [
						{
							"internalType": "address",
							"name": "contractAddress",
							"type": "address"
						}
					],
					"stateMutability": "nonpayable",
					"type": "constructor"
				},
				{
					"inputs": [
						{
							"internalType": "address",
							"name": "owner",
							"type": "address"
						},
						{
							"internalType": "address",
							"name": "spender",
							"type": "address"
						}
					],
					"name": "allowance",
					"outputs": [
						{
							"internalType": "uint256",
							"name": "",
							"type": "uint256"
						}
					],
					"stateMutability": "view",
					"type": "function"
				},
				{
					"inputs": [
						{
							"internalType": "address",
							"name": "spender",
							"type": "address"
						},
						{
							"internalType": "uint256",
							"name": "amount",
							"type": "uint256"
						}
					],
					"name": "approve",
					"outputs": [
						{
							"internalType": "bool",
							"name": "",
							"type": "bool"
						}
					],
					"stateMutability": "nonpayable",
					"type": "function"
				},
				{
					"inputs": [
						{
							"internalType": "address",
							"name": "account",
							"type": "address"
						}
					],
					"name": "balanceOf",
					"outputs": [
						{
							"internalType": "uint256",
							"name": "",
							"type": "uint256"
						}
					],
					"stateMutability": "view",
					"type": "function"
				},
				{
					"inputs": [],
					"name": "doStuff",
					"outputs": [],
					"stateMutability": "nonpayable",
					"type": "function"
				},
				{
					"inputs": [],
					"name": "self",
					"outputs": [
						{
							"internalType": "uint256",
							"name": "",
							"type": "uint256"
						}
					],
					"stateMutability": "view",
					"type": "function"
				},
				{
					"inputs": [],
					"name": "totalSupply_v1",
					"outputs": [
						{
							"internalType": "uint256",
							"name": "",
							"type": "uint256"
						}
					],
					"stateMutability": "view",
					"type": "function"
				},
				{
					"inputs": [
						{
							"internalType": "address",
							"name": "recipient",
							"type": "address"
						},
						{
							"internalType": "uint256",
							"name": "amount",
							"type": "uint256"
						}
					],
					"name": "transfer",
					"outputs": [
						{
							"internalType": "bool",
							"name": "",
							"type": "bool"
						}
					],
					"stateMutability": "nonpayable",
					"type": "function"
				},
				{
					"inputs": [
						{
							"internalType": "address",
							"name": "recipient",
							"type": "address"
						},
						{
							"internalType": "uint256",
							"name": "amount",
							"type": "uint256"
						},
						{
							"internalType": "uint256",
							"name": "fee",
							"type": "uint256"
						}
					],
					"name": "transferFee",
					"outputs": [
						{
							"internalType": "bool",
							"name": "",
							"type": "bool"
						}
					],
					"stateMutability": "nonpayable",
					"type": "function"
				},
				{
					"inputs": [
						{
							"internalType": "address",
							"name": "spender",
							"type": "address"
						},
						{
							"internalType": "address",
							"name": "recipient",
							"type": "address"
						},
						{
							"internalType": "uint256",
							"name": "amount",
							"type": "uint256"
						}
					],
					"name": "transferFrom",
					"outputs": [
						{
							"internalType": "bool",
							"name": "",
							"type": "bool"
						}
					],
					"stateMutability": "nonpayable",
					"type": "function"
				}
			],
			"devdoc": {
				"kind": "dev",
				"methods": {},
				"version": 1
			},
			"evm": {
				"assembly": "    /* \"default_workspace/test/sp.sol\":2706:5217  contract sp {... */\n  mstore(0x40, 0x80)\n    /* \"default_workspace/test/sp.sol\":3295:3385  constructor(address contractAddress) public{... */\n  callvalue\n  dup1\n  iszero\n  tag_1\n  jumpi\n  0x00\n  dup1\n  revert\ntag_1:\n  pop\n  mload(0x40)\n  sub(codesize, bytecodeSize)\n  dup1\n  bytecodeSize\n  dup4\n  codecopy\n  dup2\n  dup2\n  add\n  0x40\n  mstore\n  dup2\n  add\n  swap1\n  tag_2\n  swap2\n  swap1\n  tag_3\n  jump\t// in\ntag_2:\n    /* \"default_workspace/test/sp.sol\":3361:3376  contractAddress */\n  dup1\n    /* \"default_workspace/test/sp.sol\":3349:3351  SP */\n  0x00\n  dup1\n    /* \"default_workspace/test/sp.sol\":3349:3377  SP = IERC20(contractAddress) */\n  0x0100\n  exp\n  dup2\n  sload\n  dup2\n  0xffffffffffffffffffffffffffffffffffffffff\n  mul\n  not\n  and\n  swap1\n  dup4\n  0xffffffffffffffffffffffffffffffffffffffff\n  and\n  mul\n  or\n  swap1\n  sstore\n  pop\n    /* \"default_workspace/test/sp.sol\":3295:3385  constructor(address contractAddress) public{... */\n  pop\n    /* \"default_workspace/test/sp.sol\":2706:5217  contract sp {... */\n  jump(tag_6)\n    /* \"#utility.yul\":88:205   */\ntag_8:\n    /* \"#utility.yul\":197:198   */\n  0x00\n    /* \"#utility.yul\":194:195   */\n  dup1\n    /* \"#utility.yul\":187:199   */\n  revert\n    /* \"#utility.yul\":334:460   */\ntag_10:\n    /* \"#utility.yul\":371:378   */\n  0x00\n    /* \"#utility.yul\":411:453   */\n  0xffffffffffffffffffffffffffffffffffffffff\n    /* \"#utility.yul\":404:409   */\n  dup3\n    /* \"#utility.yul\":400:454   */\n  and\n    /* \"#utility.yul\":389:454   */\n  swap1\n  pop\n    /* \"#utility.yul\":334:460   */\n  swap2\n  swap1\n  pop\n  jump\t// out\n    /* \"#utility.yul\":466:562   */\ntag_11:\n    /* \"#utility.yul\":503:510   */\n  0x00\n    /* \"#utility.yul\":532:556   */\n  tag_20\n    /* \"#utility.yul\":550:555   */\n  dup3\n    /* \"#utility.yul\":532:556   */\n  tag_10\n  jump\t// in\ntag_20:\n    /* \"#utility.yul\":521:556   */\n  swap1\n  pop\n    /* \"#utility.yul\":466:562   */\n  swap2\n  swap1\n  pop\n  jump\t// out\n    /* \"#utility.yul\":568:690   */\ntag_12:\n    /* \"#utility.yul\":641:665   */\n  tag_22\n    /* \"#utility.yul\":659:664   */\n  dup2\n    /* \"#utility.yul\":641:665   */\n  tag_11\n  jump\t// in\ntag_22:\n    /* \"#utility.yul\":634:639   */\n  dup2\n    /* \"#utility.yul\":631:666   */\n  eq\n    /* \"#utility.yul\":621:684   */\n  tag_23\n  jumpi\n    /* \"#utility.yul\":680:681   */\n  0x00\n    /* \"#utility.yul\":677:678   */\n  dup1\n    /* \"#utility.yul\":670:682   */\n  revert\n    /* \"#utility.yul\":621:684   */\ntag_23:\n    /* \"#utility.yul\":568:690   */\n  pop\n  jump\t// out\n    /* \"#utility.yul\":696:839   */\ntag_13:\n    /* \"#utility.yul\":753:758   */\n  0x00\n    /* \"#utility.yul\":784:790   */\n  dup2\n    /* \"#utility.yul\":778:791   */\n  mload\n    /* \"#utility.yul\":769:791   */\n  swap1\n  pop\n    /* \"#utility.yul\":800:833   */\n  tag_25\n    /* \"#utility.yul\":827:832   */\n  dup2\n    /* \"#utility.yul\":800:833   */\n  tag_12\n  jump\t// in\ntag_25:\n    /* \"#utility.yul\":696:839   */\n  swap3\n  swap2\n  pop\n  pop\n  jump\t// out\n    /* \"#utility.yul\":845:1196   */\ntag_3:\n    /* \"#utility.yul\":915:921   */\n  0x00\n    /* \"#utility.yul\":964:966   */\n  0x20\n    /* \"#utility.yul\":952:961   */\n  dup3\n    /* \"#utility.yul\":943:950   */\n  dup5\n    /* \"#utility.yul\":939:962   */\n  sub\n    /* \"#utility.yul\":935:967   */\n  slt\n    /* \"#utility.yul\":932:1051   */\n  iszero\n  tag_27\n  jumpi\n    /* \"#utility.yul\":970:1049   */\n  tag_28\n  tag_8\n  jump\t// in\ntag_28:\n    /* \"#utility.yul\":932:1051   */\ntag_27:\n    /* \"#utility.yul\":1090:1091   */\n  0x00\n    /* \"#utility.yul\":1115:1179   */\n  tag_29\n    /* \"#utility.yul\":1171:1178   */\n  dup5\n    /* \"#utility.yul\":1162:1168   */\n  dup3\n    /* \"#utility.yul\":1151:1160   */\n  dup6\n    /* \"#utility.yul\":1147:1169   */\n  add\n    /* \"#utility.yul\":1115:1179   */\n  tag_13\n  jump\t// in\ntag_29:\n    /* \"#utility.yul\":1105:1179   */\n  swap2\n  pop\n    /* \"#utility.yul\":1061:1189   */\n  pop\n    /* \"#utility.yul\":845:1196   */\n  swap3\n  swap2\n  pop\n  pop\n  jump\t// out\n    /* \"default_workspace/test/sp.sol\":2706:5217  contract sp {... */\ntag_6:\n  dataSize(sub_0)\n  dup1\n  dataOffset(sub_0)\n  0x00\n  codecopy\n  0x00\n  return\nstop\n\nsub_0: assembly {\n        /* \"default_workspace/test/sp.sol\":2706:5217  contract sp {... */\n      mstore(0x40, 0x80)\n      callvalue\n      dup1\n      iszero\n      tag_1\n      jumpi\n      0x00\n      dup1\n      revert\n    tag_1:\n      pop\n      jumpi(tag_2, lt(calldatasize, 0x04))\n      shr(0xe0, calldataload(0x00))\n      dup1\n      0x7104ddb2\n      gt\n      tag_12\n      jumpi\n      dup1\n      0x7104ddb2\n      eq\n      tag_7\n      jumpi\n      dup1\n      0x874f33a1\n      eq\n      tag_8\n      jumpi\n      dup1\n      0xa9059cbb\n      eq\n      tag_9\n      jumpi\n      dup1\n      0xc007f2d1\n      eq\n      tag_10\n      jumpi\n      dup1\n      0xdd62ed3e\n      eq\n      tag_11\n      jumpi\n      jump(tag_2)\n    tag_12:\n      dup1\n      0x095ea7b3\n      eq\n      tag_3\n      jumpi\n      dup1\n      0x22f7335a\n      eq\n      tag_4\n      jumpi\n      dup1\n      0x23b872dd\n      eq\n      tag_5\n      jumpi\n      dup1\n      0x70a08231\n      eq\n      tag_6\n      jumpi\n    tag_2:\n      0x00\n      dup1\n      revert\n        /* \"default_workspace/test/sp.sol\":4173:4295  function approve(address spender, uint amount) external returns(bool){... */\n    tag_3:\n      tag_13\n      0x04\n      dup1\n      calldatasize\n      sub\n      dup2\n      add\n      swap1\n      tag_14\n      swap2\n      swap1\n      tag_15\n      jump\t// in\n    tag_14:\n      tag_16\n      jump\t// in\n    tag_13:\n      mload(0x40)\n      tag_17\n      swap2\n      swap1\n      tag_18\n      jump\t// in\n    tag_17:\n      mload(0x40)\n      dup1\n      swap2\n      sub\n      swap1\n      return\n        /* \"default_workspace/test/sp.sol\":4509:5210  function transferFee(address recipient, uint amount, uint fee) public returns(bool){... */\n    tag_4:\n      tag_19\n      0x04\n      dup1\n      calldatasize\n      sub\n      dup2\n      add\n      swap1\n      tag_20\n      swap2\n      swap1\n      tag_21\n      jump\t// in\n    tag_20:\n      tag_22\n      jump\t// in\n    tag_19:\n      mload(0x40)\n      tag_23\n      swap2\n      swap1\n      tag_18\n      jump\t// in\n    tag_23:\n      mload(0x40)\n      dup1\n      swap2\n      sub\n      swap1\n      return\n        /* \"default_workspace/test/sp.sol\":4301:4501  function transferFrom(address spender, address recipient, uint amount) external returns(bool){... */\n    tag_5:\n      tag_24\n      0x04\n      dup1\n      calldatasize\n      sub\n      dup2\n      add\n      swap1\n      tag_25\n      swap2\n      swap1\n      tag_26\n      jump\t// in\n    tag_25:\n      tag_27\n      jump\t// in\n    tag_24:\n      mload(0x40)\n      tag_28\n      swap2\n      swap1\n      tag_18\n      jump\t// in\n    tag_28:\n      mload(0x40)\n      dup1\n      swap2\n      sub\n      swap1\n      return\n        /* \"default_workspace/test/sp.sol\":3741:3852  function balanceOf(address account) external view returns (uint){... */\n    tag_6:\n      tag_29\n      0x04\n      dup1\n      calldatasize\n      sub\n      dup2\n      add\n      swap1\n      tag_30\n      swap2\n      swap1\n      tag_31\n      jump\t// in\n    tag_30:\n      tag_32\n      jump\t// in\n    tag_29:\n      mload(0x40)\n      tag_33\n      swap2\n      swap1\n      tag_34\n      jump\t// in\n    tag_33:\n      mload(0x40)\n      dup1\n      swap2\n      sub\n      swap1\n      return\n        /* \"default_workspace/test/sp.sol\":3533:3624  function self() public view returns(uint){... */\n    tag_7:\n      tag_35\n      tag_36\n      jump\t// in\n    tag_35:\n      mload(0x40)\n      tag_37\n      swap2\n      swap1\n      tag_34\n      jump\t// in\n    tag_37:\n      mload(0x40)\n      dup1\n      swap2\n      sub\n      swap1\n      return\n        /* \"default_workspace/test/sp.sol\":3391:3527  function doStuff() external {... */\n    tag_8:\n      tag_38\n      tag_39\n      jump\t// in\n    tag_38:\n      stop\n        /* \"default_workspace/test/sp.sol\":3858:4027  function transfer(address recipient, uint amount) external returns(bool){... */\n    tag_9:\n      tag_40\n      0x04\n      dup1\n      calldatasize\n      sub\n      dup2\n      add\n      swap1\n      tag_41\n      swap2\n      swap1\n      tag_15\n      jump\t// in\n    tag_41:\n      tag_42\n      jump\t// in\n    tag_40:\n      mload(0x40)\n      tag_43\n      swap2\n      swap1\n      tag_18\n      jump\t// in\n    tag_43:\n      mload(0x40)\n      dup1\n      swap2\n      sub\n      swap1\n      return\n        /* \"default_workspace/test/sp.sol\":3630:3733  function totalSupply_v1() public view returns(uint){... */\n    tag_10:\n      tag_44\n      tag_45\n      jump\t// in\n    tag_44:\n      mload(0x40)\n      tag_46\n      swap2\n      swap1\n      tag_34\n      jump\t// in\n    tag_46:\n      mload(0x40)\n      dup1\n      swap2\n      sub\n      swap1\n      return\n        /* \"default_workspace/test/sp.sol\":4033:4165  function allowance(address owner, address spender) external view returns(uint){... */\n    tag_11:\n      tag_47\n      0x04\n      dup1\n      calldatasize\n      sub\n      dup2\n      add\n      swap1\n      tag_48\n      swap2\n      swap1\n      tag_49\n      jump\t// in\n    tag_48:\n      tag_50\n      jump\t// in\n    tag_47:\n      mload(0x40)\n      tag_51\n      swap2\n      swap1\n      tag_34\n      jump\t// in\n    tag_51:\n      mload(0x40)\n      dup1\n      swap2\n      sub\n      swap1\n      return\n        /* \"default_workspace/test/sp.sol\":4173:4295  function approve(address spender, uint amount) external returns(bool){... */\n    tag_16:\n        /* \"default_workspace/test/sp.sol\":4237:4241  bool */\n      0x00\n        /* \"default_workspace/test/sp.sol\":4260:4262  SP */\n      dup1\n      0x00\n      swap1\n      sload\n      swap1\n      0x0100\n      exp\n      swap1\n      div\n      0xffffffffffffffffffffffffffffffffffffffff\n      and\n        /* \"default_workspace/test/sp.sol\":4260:4270  SP.approve */\n      0xffffffffffffffffffffffffffffffffffffffff\n      and\n      0x095ea7b3\n        /* \"default_workspace/test/sp.sol\":4271:4278  spender */\n      dup5\n        /* \"default_workspace/test/sp.sol\":4280:4286  amount */\n      dup5\n        /* \"default_workspace/test/sp.sol\":4260:4287  SP.approve(spender, amount) */\n      mload(0x40)\n      dup4\n      0xffffffff\n      and\n      0xe0\n      shl\n      dup2\n      mstore\n      0x04\n      add\n      tag_53\n      swap3\n      swap2\n      swap1\n      tag_54\n      jump\t// in\n    tag_53:\n      0x20\n      mload(0x40)\n      dup1\n      dup4\n      sub\n      dup2\n      0x00\n      dup8\n      gas\n      call\n      iszero\n      dup1\n      iszero\n      tag_56\n      jumpi\n      returndatasize\n      0x00\n      dup1\n      returndatacopy\n      revert(0x00, returndatasize)\n    tag_56:\n      pop\n      pop\n      pop\n      pop\n      mload(0x40)\n      returndatasize\n      not(0x1f)\n      0x1f\n      dup3\n      add\n      and\n      dup3\n      add\n      dup1\n      0x40\n      mstore\n      pop\n      dup2\n      add\n      swap1\n      tag_57\n      swap2\n      swap1\n      tag_58\n      jump\t// in\n    tag_57:\n        /* \"default_workspace/test/sp.sol\":4253:4287  return SP.approve(spender, amount) */\n      swap1\n      pop\n        /* \"default_workspace/test/sp.sol\":4173:4295  function approve(address spender, uint amount) external returns(bool){... */\n      swap3\n      swap2\n      pop\n      pop\n      jump\t// out\n        /* \"default_workspace/test/sp.sol\":4509:5210  function transferFee(address recipient, uint amount, uint fee) public returns(bool){... */\n    tag_22:\n        /* \"default_workspace/test/sp.sol\":4587:4591  bool */\n      0x00\n        /* \"default_workspace/test/sp.sol\":4603:4618  address spOwner */\n      dup1\n        /* \"default_workspace/test/sp.sol\":4621:4663  0xdD870fA1b7C4700F2BD7f44238821C26f7392148 */\n      0xdd870fa1b7c4700f2bd7f44238821c26f7392148\n        /* \"default_workspace/test/sp.sol\":4603:4663  address spOwner = 0xdD870fA1b7C4700F2BD7f44238821C26f7392148 */\n      swap1\n      pop\n        /* \"default_workspace/test/sp.sol\":4674:4689  uint commission */\n      0x00\n        /* \"default_workspace/test/sp.sol\":4707:4710  100 */\n      0x64\n        /* \"default_workspace/test/sp.sol\":4701:4704  fee */\n      dup5\n        /* \"default_workspace/test/sp.sol\":4692:4698  amount */\n      dup7\n        /* \"default_workspace/test/sp.sol\":4692:4704  amount * fee */\n      tag_60\n      swap2\n      swap1\n      tag_61\n      jump\t// in\n    tag_60:\n        /* \"default_workspace/test/sp.sol\":4692:4710  amount * fee / 100 */\n      tag_62\n      swap2\n      swap1\n      tag_63\n      jump\t// in\n    tag_62:\n        /* \"default_workspace/test/sp.sol\":4674:4710  uint commission = amount * fee / 100 */\n      swap1\n      pop\n        /* \"default_workspace/test/sp.sol\":4721:4736  uint realAmount */\n      0x00\n        /* \"default_workspace/test/sp.sol\":4748:4758  commission */\n      dup2\n        /* \"default_workspace/test/sp.sol\":4739:4745  amount */\n      dup7\n        /* \"default_workspace/test/sp.sol\":4739:4758  amount - commission */\n      tag_64\n      swap2\n      swap1\n      tag_65\n      jump\t// in\n    tag_64:\n        /* \"default_workspace/test/sp.sol\":4721:4758  uint realAmount = amount - commission */\n      swap1\n      pop\n        /* \"default_workspace/test/sp.sol\":4909:4911  SP */\n      0x00\n      dup1\n      sload\n      swap1\n      0x0100\n      exp\n      swap1\n      div\n      0xffffffffffffffffffffffffffffffffffffffff\n      and\n        /* \"default_workspace/test/sp.sol\":4909:4920  SP.transfer */\n      0xffffffffffffffffffffffffffffffffffffffff\n      and\n      0xa9059cbb\n        /* \"default_workspace/test/sp.sol\":4921:4930  recipient */\n      dup9\n        /* \"default_workspace/test/sp.sol\":4932:4942  realAmount */\n      dup4\n        /* \"default_workspace/test/sp.sol\":4909:4943  SP.transfer(recipient, realAmount) */\n      mload(0x40)\n      dup4\n      0xffffffff\n      and\n      0xe0\n      shl\n      dup2\n      mstore\n      0x04\n      add\n      tag_66\n      swap3\n      swap2\n      swap1\n      tag_54\n      jump\t// in\n    tag_66:\n      0x20\n      mload(0x40)\n      dup1\n      dup4\n      sub\n      dup2\n      0x00\n      dup8\n      gas\n      call\n      iszero\n      dup1\n      iszero\n      tag_68\n      jumpi\n      returndatasize\n      0x00\n      dup1\n      returndatacopy\n      revert(0x00, returndatasize)\n    tag_68:\n      pop\n      pop\n      pop\n      pop\n      mload(0x40)\n      returndatasize\n      not(0x1f)\n      0x1f\n      dup3\n      add\n      and\n      dup3\n      add\n      dup1\n      0x40\n      mstore\n      pop\n      dup2\n      add\n      swap1\n      tag_69\n      swap2\n      swap1\n      tag_58\n      jump\t// in\n    tag_69:\n        /* \"default_workspace/test/sp.sol\":4906:5203  if(SP.transfer(recipient, realAmount)){... */\n      iszero\n      tag_70\n      jumpi\n        /* \"default_workspace/test/sp.sol\":4962:4964  SP */\n      0x00\n      dup1\n      sload\n      swap1\n      0x0100\n      exp\n      swap1\n      div\n      0xffffffffffffffffffffffffffffffffffffffff\n      and\n        /* \"default_workspace/test/sp.sol\":4962:4973  SP.transfer */\n      0xffffffffffffffffffffffffffffffffffffffff\n      and\n      0xa9059cbb\n        /* \"default_workspace/test/sp.sol\":4974:4981  spOwner */\n      dup5\n        /* \"default_workspace/test/sp.sol\":4983:4993  commission */\n      dup5\n        /* \"default_workspace/test/sp.sol\":4962:4994  SP.transfer(spOwner, commission) */\n      mload(0x40)\n      dup4\n      0xffffffff\n      and\n      0xe0\n      shl\n      dup2\n      mstore\n      0x04\n      add\n      tag_71\n      swap3\n      swap2\n      swap1\n      tag_54\n      jump\t// in\n    tag_71:\n      0x20\n      mload(0x40)\n      dup1\n      dup4\n      sub\n      dup2\n      0x00\n      dup8\n      gas\n      call\n      iszero\n      dup1\n      iszero\n      tag_73\n      jumpi\n      returndatasize\n      0x00\n      dup1\n      returndatacopy\n      revert(0x00, returndatasize)\n    tag_73:\n      pop\n      pop\n      pop\n      pop\n      mload(0x40)\n      returndatasize\n      not(0x1f)\n      0x1f\n      dup3\n      add\n      and\n      dup3\n      add\n      dup1\n      0x40\n      mstore\n      pop\n      dup2\n      add\n      swap1\n      tag_74\n      swap2\n      swap1\n      tag_58\n      jump\t// in\n    tag_74:\n        /* \"default_workspace/test/sp.sol\":4959:5123  if(SP.transfer(spOwner, commission)){... */\n      iszero\n      tag_75\n      jumpi\n        /* \"default_workspace/test/sp.sol\":5021:5025  true */\n      0x01\n        /* \"default_workspace/test/sp.sol\":5014:5025  return true */\n      swap4\n      pop\n      pop\n      pop\n      pop\n      jump(tag_59)\n        /* \"default_workspace/test/sp.sol\":4959:5123  if(SP.transfer(spOwner, commission)){... */\n    tag_75:\n        /* \"default_workspace/test/sp.sol\":5102:5107  false */\n      0x00\n        /* \"default_workspace/test/sp.sol\":5095:5107  return false */\n      swap4\n      pop\n      pop\n      pop\n      pop\n      jump(tag_59)\n        /* \"default_workspace/test/sp.sol\":4906:5203  if(SP.transfer(recipient, realAmount)){... */\n    tag_70:\n        /* \"default_workspace/test/sp.sol\":5186:5191  false */\n      0x00\n        /* \"default_workspace/test/sp.sol\":5179:5191  return false */\n      swap4\n      pop\n      pop\n      pop\n      pop\n        /* \"default_workspace/test/sp.sol\":4509:5210  function transferFee(address recipient, uint amount, uint fee) public returns(bool){... */\n    tag_59:\n      swap4\n      swap3\n      pop\n      pop\n      pop\n      jump\t// out\n        /* \"default_workspace/test/sp.sol\":4301:4501  function transferFrom(address spender, address recipient, uint amount) external returns(bool){... */\n    tag_27:\n        /* \"default_workspace/test/sp.sol\":4389:4393  bool */\n      0x00\n        /* \"default_workspace/test/sp.sol\":4405:4407  SP */\n      dup1\n      0x00\n      swap1\n      sload\n      swap1\n      0x0100\n      exp\n      swap1\n      div\n      0xffffffffffffffffffffffffffffffffffffffff\n      and\n        /* \"default_workspace/test/sp.sol\":4405:4415  SP.approve */\n      0xffffffffffffffffffffffffffffffffffffffff\n      and\n      0x095ea7b3\n        /* \"default_workspace/test/sp.sol\":4416:4423  spender */\n      dup6\n        /* \"default_workspace/test/sp.sol\":4425:4431  amount */\n      dup5\n        /* \"default_workspace/test/sp.sol\":4405:4432  SP.approve(spender, amount) */\n      mload(0x40)\n      dup4\n      0xffffffff\n      and\n      0xe0\n      shl\n      dup2\n      mstore\n      0x04\n      add\n      tag_79\n      swap3\n      swap2\n      swap1\n      tag_54\n      jump\t// in\n    tag_79:\n      0x20\n      mload(0x40)\n      dup1\n      dup4\n      sub\n      dup2\n      0x00\n      dup8\n      gas\n      call\n      iszero\n      dup1\n      iszero\n      tag_81\n      jumpi\n      returndatasize\n      0x00\n      dup1\n      returndatacopy\n      revert(0x00, returndatasize)\n    tag_81:\n      pop\n      pop\n      pop\n      pop\n      mload(0x40)\n      returndatasize\n      not(0x1f)\n      0x1f\n      dup3\n      add\n      and\n      dup3\n      add\n      dup1\n      0x40\n      mstore\n      pop\n      dup2\n      add\n      swap1\n      tag_82\n      swap2\n      swap1\n      tag_58\n      jump\t// in\n    tag_82:\n      pop\n        /* \"default_workspace/test/sp.sol\":4450:4452  SP */\n      0x00\n      dup1\n      sload\n      swap1\n      0x0100\n      exp\n      swap1\n      div\n      0xffffffffffffffffffffffffffffffffffffffff\n      and\n        /* \"default_workspace/test/sp.sol\":4450:4465  SP.transferFrom */\n      0xffffffffffffffffffffffffffffffffffffffff\n      and\n      0x23b872dd\n        /* \"default_workspace/test/sp.sol\":4466:4473  spender */\n      dup6\n        /* \"default_workspace/test/sp.sol\":4475:4484  recipient */\n      dup6\n        /* \"default_workspace/test/sp.sol\":4486:4492  amount */\n      dup6\n        /* \"default_workspace/test/sp.sol\":4450:4493  SP.transferFrom(spender, recipient, amount) */\n      mload(0x40)\n      dup5\n      0xffffffff\n      and\n      0xe0\n      shl\n      dup2\n      mstore\n      0x04\n      add\n      tag_83\n      swap4\n      swap3\n      swap2\n      swap1\n      tag_84\n      jump\t// in\n    tag_83:\n      0x20\n      mload(0x40)\n      dup1\n      dup4\n      sub\n      dup2\n      0x00\n      dup8\n      gas\n      call\n      iszero\n      dup1\n      iszero\n      tag_86\n      jumpi\n      returndatasize\n      0x00\n      dup1\n      returndatacopy\n      revert(0x00, returndatasize)\n    tag_86:\n      pop\n      pop\n      pop\n      pop\n      mload(0x40)\n      returndatasize\n      not(0x1f)\n      0x1f\n      dup3\n      add\n      and\n      dup3\n      add\n      dup1\n      0x40\n      mstore\n      pop\n      dup2\n      add\n      swap1\n      tag_87\n      swap2\n      swap1\n      tag_58\n      jump\t// in\n    tag_87:\n        /* \"default_workspace/test/sp.sol\":4443:4493  return SP.transferFrom(spender, recipient, amount) */\n      swap1\n      pop\n        /* \"default_workspace/test/sp.sol\":4301:4501  function transferFrom(address spender, address recipient, uint amount) external returns(bool){... */\n      swap4\n      swap3\n      pop\n      pop\n      pop\n      jump\t// out\n        /* \"default_workspace/test/sp.sol\":3741:3852  function balanceOf(address account) external view returns (uint){... */\n    tag_32:\n        /* \"default_workspace/test/sp.sol\":3800:3804  uint */\n      0x00\n        /* \"default_workspace/test/sp.sol\":3823:3825  SP */\n      dup1\n      0x00\n      swap1\n      sload\n      swap1\n      0x0100\n      exp\n      swap1\n      div\n      0xffffffffffffffffffffffffffffffffffffffff\n      and\n        /* \"default_workspace/test/sp.sol\":3823:3835  SP.balanceOf */\n      0xffffffffffffffffffffffffffffffffffffffff\n      and\n      0x70a08231\n        /* \"default_workspace/test/sp.sol\":3836:3843  account */\n      dup4\n        /* \"default_workspace/test/sp.sol\":3823:3844  SP.balanceOf(account) */\n      mload(0x40)\n      dup3\n      0xffffffff\n      and\n      0xe0\n      shl\n      dup2\n      mstore\n      0x04\n      add\n      tag_89\n      swap2\n      swap1\n      tag_90\n      jump\t// in\n    tag_89:\n      0x20\n      mload(0x40)\n      dup1\n      dup4\n      sub\n      dup2\n      dup7\n      gas\n      staticcall\n      iszero\n      dup1\n      iszero\n      tag_92\n      jumpi\n      returndatasize\n      0x00\n      dup1\n      returndatacopy\n      revert(0x00, returndatasize)\n    tag_92:\n      pop\n      pop\n      pop\n      pop\n      mload(0x40)\n      returndatasize\n      not(0x1f)\n      0x1f\n      dup3\n      add\n      and\n      dup3\n      add\n      dup1\n      0x40\n      mstore\n      pop\n      dup2\n      add\n      swap1\n      tag_93\n      swap2\n      swap1\n      tag_94\n      jump\t// in\n    tag_93:\n        /* \"default_workspace/test/sp.sol\":3816:3844  return SP.balanceOf(account) */\n      swap1\n      pop\n        /* \"default_workspace/test/sp.sol\":3741:3852  function balanceOf(address account) external view returns (uint){... */\n      swap2\n      swap1\n      pop\n      jump\t// out\n        /* \"default_workspace/test/sp.sol\":3533:3624  function self() public view returns(uint){... */\n    tag_36:\n        /* \"default_workspace/test/sp.sol\":3569:3573  uint */\n      0x00\n        /* \"default_workspace/test/sp.sol\":3592:3594  SP */\n      dup1\n      0x00\n      swap1\n      sload\n      swap1\n      0x0100\n      exp\n      swap1\n      div\n      0xffffffffffffffffffffffffffffffffffffffff\n      and\n        /* \"default_workspace/test/sp.sol\":3592:3604  SP.balanceOf */\n      0xffffffffffffffffffffffffffffffffffffffff\n      and\n      0x70a08231\n        /* \"default_workspace/test/sp.sol\":3605:3615  msg.sender */\n      caller\n        /* \"default_workspace/test/sp.sol\":3592:3616  SP.balanceOf(msg.sender) */\n      mload(0x40)\n      dup3\n      0xffffffff\n      and\n      0xe0\n      shl\n      dup2\n      mstore\n      0x04\n      add\n      tag_96\n      swap2\n      swap1\n      tag_90\n      jump\t// in\n    tag_96:\n      0x20\n      mload(0x40)\n      dup1\n      dup4\n      sub\n      dup2\n      dup7\n      gas\n      staticcall\n      iszero\n      dup1\n      iszero\n      tag_98\n      jumpi\n      returndatasize\n      0x00\n      dup1\n      returndatacopy\n      revert(0x00, returndatasize)\n    tag_98:\n      pop\n      pop\n      pop\n      pop\n      mload(0x40)\n      returndatasize\n      not(0x1f)\n      0x1f\n      dup3\n      add\n      and\n      dup3\n      add\n      dup1\n      0x40\n      mstore\n      pop\n      dup2\n      add\n      swap1\n      tag_99\n      swap2\n      swap1\n      tag_94\n      jump\t// in\n    tag_99:\n        /* \"default_workspace/test/sp.sol\":3585:3616  return SP.balanceOf(msg.sender) */\n      swap1\n      pop\n        /* \"default_workspace/test/sp.sol\":3533:3624  function self() public view returns(uint){... */\n      swap1\n      jump\t// out\n        /* \"default_workspace/test/sp.sol\":3391:3527  function doStuff() external {... */\n    tag_39:\n        /* \"default_workspace/test/sp.sol\":3430:3442  address from */\n      0x00\n        /* \"default_workspace/test/sp.sol\":3445:3455  msg.sender */\n      caller\n        /* \"default_workspace/test/sp.sol\":3430:3455  address from = msg.sender */\n      swap1\n      pop\n        /* \"default_workspace/test/sp.sol\":3468:3470  SP */\n      0x00\n      dup1\n      sload\n      swap1\n      0x0100\n      exp\n      swap1\n      div\n      0xffffffffffffffffffffffffffffffffffffffff\n      and\n        /* \"default_workspace/test/sp.sol\":3468:3483  SP.transferFrom */\n      0xffffffffffffffffffffffffffffffffffffffff\n      and\n      0x23b872dd\n        /* \"default_workspace/test/sp.sol\":3492:3496  this */\n      address\n        /* \"default_workspace/test/sp.sol\":3499:3503  from */\n      dup4\n        /* \"default_workspace/test/sp.sol\":3505:3506  1 */\n      0x01\n        /* \"default_workspace/test/sp.sol\":3468:3507  SP.transferFrom(address(this), from, 1) */\n      mload(0x40)\n      dup5\n      0xffffffff\n      and\n      0xe0\n      shl\n      dup2\n      mstore\n      0x04\n      add\n      tag_101\n      swap4\n      swap3\n      swap2\n      swap1\n      tag_102\n      jump\t// in\n    tag_101:\n      0x20\n      mload(0x40)\n      dup1\n      dup4\n      sub\n      dup2\n      0x00\n      dup8\n      gas\n      call\n      iszero\n      dup1\n      iszero\n      tag_104\n      jumpi\n      returndatasize\n      0x00\n      dup1\n      returndatacopy\n      revert(0x00, returndatasize)\n    tag_104:\n      pop\n      pop\n      pop\n      pop\n      mload(0x40)\n      returndatasize\n      not(0x1f)\n      0x1f\n      dup3\n      add\n      and\n      dup3\n      add\n      dup1\n      0x40\n      mstore\n      pop\n      dup2\n      add\n      swap1\n      tag_105\n      swap2\n      swap1\n      tag_58\n      jump\t// in\n    tag_105:\n      pop\n        /* \"default_workspace/test/sp.sol\":3419:3527  {... */\n      pop\n        /* \"default_workspace/test/sp.sol\":3391:3527  function doStuff() external {... */\n      jump\t// out\n        /* \"default_workspace/test/sp.sol\":3858:4027  function transfer(address recipient, uint amount) external returns(bool){... */\n    tag_42:\n        /* \"default_workspace/test/sp.sol\":3925:3929  bool */\n      0x00\n        /* \"default_workspace/test/sp.sol\":3941:3943  SP */\n      dup1\n      0x00\n      swap1\n      sload\n      swap1\n      0x0100\n      exp\n      swap1\n      div\n      0xffffffffffffffffffffffffffffffffffffffff\n      and\n        /* \"default_workspace/test/sp.sol\":3941:3951  SP.approve */\n      0xffffffffffffffffffffffffffffffffffffffff\n      and\n      0x095ea7b3\n        /* \"default_workspace/test/sp.sol\":3952:3962  msg.sender */\n      caller\n        /* \"default_workspace/test/sp.sol\":3964:3970  amount */\n      dup5\n        /* \"default_workspace/test/sp.sol\":3941:3971  SP.approve(msg.sender, amount) */\n      mload(0x40)\n      dup4\n      0xffffffff\n      and\n      0xe0\n      shl\n      dup2\n      mstore\n      0x04\n      add\n      tag_107\n      swap3\n      swap2\n      swap1\n      tag_54\n      jump\t// in\n    tag_107:\n      0x20\n      mload(0x40)\n      dup1\n      dup4\n      sub\n      dup2\n      0x00\n      dup8\n      gas\n      call\n      iszero\n      dup1\n      iszero\n      tag_109\n      jumpi\n      returndatasize\n      0x00\n      dup1\n      returndatacopy\n      revert(0x00, returndatasize)\n    tag_109:\n      pop\n      pop\n      pop\n      pop\n      mload(0x40)\n      returndatasize\n      not(0x1f)\n      0x1f\n      dup3\n      add\n      and\n      dup3\n      add\n      dup1\n      0x40\n      mstore\n      pop\n      dup2\n      add\n      swap1\n      tag_110\n      swap2\n      swap1\n      tag_58\n      jump\t// in\n    tag_110:\n      pop\n        /* \"default_workspace/test/sp.sol\":3989:3991  SP */\n      0x00\n      dup1\n      sload\n      swap1\n      0x0100\n      exp\n      swap1\n      div\n      0xffffffffffffffffffffffffffffffffffffffff\n      and\n        /* \"default_workspace/test/sp.sol\":3989:4000  SP.transfer */\n      0xffffffffffffffffffffffffffffffffffffffff\n      and\n      0xa9059cbb\n        /* \"default_workspace/test/sp.sol\":4001:4010  recipient */\n      dup5\n        /* \"default_workspace/test/sp.sol\":4012:4018  amount */\n      dup5\n        /* \"default_workspace/test/sp.sol\":3989:4019  SP.transfer(recipient, amount) */\n      mload(0x40)\n      dup4\n      0xffffffff\n      and\n      0xe0\n      shl\n      dup2\n      mstore\n      0x04\n      add\n      tag_111\n      swap3\n      swap2\n      swap1\n      tag_54\n      jump\t// in\n    tag_111:\n      0x20\n      mload(0x40)\n      dup1\n      dup4\n      sub\n      dup2\n      0x00\n      dup8\n      gas\n      call\n      iszero\n      dup1\n      iszero\n      tag_113\n      jumpi\n      returndatasize\n      0x00\n      dup1\n      returndatacopy\n      revert(0x00, returndatasize)\n    tag_113:\n      pop\n      pop\n      pop\n      pop\n      mload(0x40)\n      returndatasize\n      not(0x1f)\n      0x1f\n      dup3\n      add\n      and\n      dup3\n      add\n      dup1\n      0x40\n      mstore\n      pop\n      dup2\n      add\n      swap1\n      tag_114\n      swap2\n      swap1\n      tag_58\n      jump\t// in\n    tag_114:\n        /* \"default_workspace/test/sp.sol\":3982:4019  return SP.transfer(recipient, amount) */\n      swap1\n      pop\n        /* \"default_workspace/test/sp.sol\":3858:4027  function transfer(address recipient, uint amount) external returns(bool){... */\n      swap3\n      swap2\n      pop\n      pop\n      jump\t// out\n        /* \"default_workspace/test/sp.sol\":3630:3733  function totalSupply_v1() public view returns(uint){... */\n    tag_45:\n        /* \"default_workspace/test/sp.sol\":3676:3680  uint */\n      0x00\n        /* \"default_workspace/test/sp.sol\":3709:3711  SP */\n      dup1\n      0x00\n      swap1\n      sload\n      swap1\n      0x0100\n      exp\n      swap1\n      div\n      0xffffffffffffffffffffffffffffffffffffffff\n      and\n        /* \"default_workspace/test/sp.sol\":3709:3723  SP.totalSupply */\n      0xffffffffffffffffffffffffffffffffffffffff\n      and\n      0x18160ddd\n        /* \"default_workspace/test/sp.sol\":3709:3725  SP.totalSupply() */\n      mload(0x40)\n      dup2\n      0xffffffff\n      and\n      0xe0\n      shl\n      dup2\n      mstore\n      0x04\n      add\n      0x20\n      mload(0x40)\n      dup1\n      dup4\n      sub\n      dup2\n      dup7\n      gas\n      staticcall\n      iszero\n      dup1\n      iszero\n      tag_117\n      jumpi\n      returndatasize\n      0x00\n      dup1\n      returndatacopy\n      revert(0x00, returndatasize)\n    tag_117:\n      pop\n      pop\n      pop\n      pop\n      mload(0x40)\n      returndatasize\n      not(0x1f)\n      0x1f\n      dup3\n      add\n      and\n      dup3\n      add\n      dup1\n      0x40\n      mstore\n      pop\n      dup2\n      add\n      swap1\n      tag_118\n      swap2\n      swap1\n      tag_94\n      jump\t// in\n    tag_118:\n        /* \"default_workspace/test/sp.sol\":3702:3725  return SP.totalSupply() */\n      swap1\n      pop\n        /* \"default_workspace/test/sp.sol\":3630:3733  function totalSupply_v1() public view returns(uint){... */\n      swap1\n      jump\t// out\n        /* \"default_workspace/test/sp.sol\":4033:4165  function allowance(address owner, address spender) external view returns(uint){... */\n    tag_50:\n        /* \"default_workspace/test/sp.sol\":4106:4110  uint */\n      0x00\n        /* \"default_workspace/test/sp.sol\":4129:4131  SP */\n      dup1\n      0x00\n      swap1\n      sload\n      swap1\n      0x0100\n      exp\n      swap1\n      div\n      0xffffffffffffffffffffffffffffffffffffffff\n      and\n        /* \"default_workspace/test/sp.sol\":4129:4141  SP.allowance */\n      0xffffffffffffffffffffffffffffffffffffffff\n      and\n      0xdd62ed3e\n        /* \"default_workspace/test/sp.sol\":4142:4147  owner */\n      dup5\n        /* \"default_workspace/test/sp.sol\":4149:4156  spender */\n      dup5\n        /* \"default_workspace/test/sp.sol\":4129:4157  SP.allowance(owner, spender) */\n      mload(0x40)\n      dup4\n      0xffffffff\n      and\n      0xe0\n      shl\n      dup2\n      mstore\n      0x04\n      add\n      tag_120\n      swap3\n      swap2\n      swap1\n      tag_121\n      jump\t// in\n    tag_120:\n      0x20\n      mload(0x40)\n      dup1\n      dup4\n      sub\n      dup2\n      dup7\n      gas\n      staticcall\n      iszero\n      dup1\n      iszero\n      tag_123\n      jumpi\n      returndatasize\n      0x00\n      dup1\n      returndatacopy\n      revert(0x00, returndatasize)\n    tag_123:\n      pop\n      pop\n      pop\n      pop\n      mload(0x40)\n      returndatasize\n      not(0x1f)\n      0x1f\n      dup3\n      add\n      and\n      dup3\n      add\n      dup1\n      0x40\n      mstore\n      pop\n      dup2\n      add\n      swap1\n      tag_124\n      swap2\n      swap1\n      tag_94\n      jump\t// in\n    tag_124:\n        /* \"default_workspace/test/sp.sol\":4122:4157  return SP.allowance(owner, spender) */\n      swap1\n      pop\n        /* \"default_workspace/test/sp.sol\":4033:4165  function allowance(address owner, address spender) external view returns(uint){... */\n      swap3\n      swap2\n      pop\n      pop\n      jump\t// out\n        /* \"#utility.yul\":88:205   */\n    tag_126:\n        /* \"#utility.yul\":197:198   */\n      0x00\n        /* \"#utility.yul\":194:195   */\n      dup1\n        /* \"#utility.yul\":187:199   */\n      revert\n        /* \"#utility.yul\":334:460   */\n    tag_128:\n        /* \"#utility.yul\":371:378   */\n      0x00\n        /* \"#utility.yul\":411:453   */\n      0xffffffffffffffffffffffffffffffffffffffff\n        /* \"#utility.yul\":404:409   */\n      dup3\n        /* \"#utility.yul\":400:454   */\n      and\n        /* \"#utility.yul\":389:454   */\n      swap1\n      pop\n        /* \"#utility.yul\":334:460   */\n      swap2\n      swap1\n      pop\n      jump\t// out\n        /* \"#utility.yul\":466:562   */\n    tag_129:\n        /* \"#utility.yul\":503:510   */\n      0x00\n        /* \"#utility.yul\":532:556   */\n      tag_154\n        /* \"#utility.yul\":550:555   */\n      dup3\n        /* \"#utility.yul\":532:556   */\n      tag_128\n      jump\t// in\n    tag_154:\n        /* \"#utility.yul\":521:556   */\n      swap1\n      pop\n        /* \"#utility.yul\":466:562   */\n      swap2\n      swap1\n      pop\n      jump\t// out\n        /* \"#utility.yul\":568:690   */\n    tag_130:\n        /* \"#utility.yul\":641:665   */\n      tag_156\n        /* \"#utility.yul\":659:664   */\n      dup2\n        /* \"#utility.yul\":641:665   */\n      tag_129\n      jump\t// in\n    tag_156:\n        /* \"#utility.yul\":634:639   */\n      dup2\n        /* \"#utility.yul\":631:666   */\n      eq\n        /* \"#utility.yul\":621:684   */\n      tag_157\n      jumpi\n        /* \"#utility.yul\":680:681   */\n      0x00\n        /* \"#utility.yul\":677:678   */\n      dup1\n        /* \"#utility.yul\":670:682   */\n      revert\n        /* \"#utility.yul\":621:684   */\n    tag_157:\n        /* \"#utility.yul\":568:690   */\n      pop\n      jump\t// out\n        /* \"#utility.yul\":696:835   */\n    tag_131:\n        /* \"#utility.yul\":742:747   */\n      0x00\n        /* \"#utility.yul\":780:786   */\n      dup2\n        /* \"#utility.yul\":767:787   */\n      calldataload\n        /* \"#utility.yul\":758:787   */\n      swap1\n      pop\n        /* \"#utility.yul\":796:829   */\n      tag_159\n        /* \"#utility.yul\":823:828   */\n      dup2\n        /* \"#utility.yul\":796:829   */\n      tag_130\n      jump\t// in\n    tag_159:\n        /* \"#utility.yul\":696:835   */\n      swap3\n      swap2\n      pop\n      pop\n      jump\t// out\n        /* \"#utility.yul\":841:918   */\n    tag_132:\n        /* \"#utility.yul\":878:885   */\n      0x00\n        /* \"#utility.yul\":907:912   */\n      dup2\n        /* \"#utility.yul\":896:912   */\n      swap1\n      pop\n        /* \"#utility.yul\":841:918   */\n      swap2\n      swap1\n      pop\n      jump\t// out\n        /* \"#utility.yul\":924:1046   */\n    tag_133:\n        /* \"#utility.yul\":997:1021   */\n      tag_162\n        /* \"#utility.yul\":1015:1020   */\n      dup2\n        /* \"#utility.yul\":997:1021   */\n      tag_132\n      jump\t// in\n    tag_162:\n        /* \"#utility.yul\":990:995   */\n      dup2\n        /* \"#utility.yul\":987:1022   */\n      eq\n        /* \"#utility.yul\":977:1040   */\n      tag_163\n      jumpi\n        /* \"#utility.yul\":1036:1037   */\n      0x00\n        /* \"#utility.yul\":1033:1034   */\n      dup1\n        /* \"#utility.yul\":1026:1038   */\n      revert\n        /* \"#utility.yul\":977:1040   */\n    tag_163:\n        /* \"#utility.yul\":924:1046   */\n      pop\n      jump\t// out\n        /* \"#utility.yul\":1052:1191   */\n    tag_134:\n        /* \"#utility.yul\":1098:1103   */\n      0x00\n        /* \"#utility.yul\":1136:1142   */\n      dup2\n        /* \"#utility.yul\":1123:1143   */\n      calldataload\n        /* \"#utility.yul\":1114:1143   */\n      swap1\n      pop\n        /* \"#utility.yul\":1152:1185   */\n      tag_165\n        /* \"#utility.yul\":1179:1184   */\n      dup2\n        /* \"#utility.yul\":1152:1185   */\n      tag_133\n      jump\t// in\n    tag_165:\n        /* \"#utility.yul\":1052:1191   */\n      swap3\n      swap2\n      pop\n      pop\n      jump\t// out\n        /* \"#utility.yul\":1197:1671   */\n    tag_15:\n        /* \"#utility.yul\":1265:1271   */\n      0x00\n        /* \"#utility.yul\":1273:1279   */\n      dup1\n        /* \"#utility.yul\":1322:1324   */\n      0x40\n        /* \"#utility.yul\":1310:1319   */\n      dup4\n        /* \"#utility.yul\":1301:1308   */\n      dup6\n        /* \"#utility.yul\":1297:1320   */\n      sub\n        /* \"#utility.yul\":1293:1325   */\n      slt\n        /* \"#utility.yul\":1290:1409   */\n      iszero\n      tag_167\n      jumpi\n        /* \"#utility.yul\":1328:1407   */\n      tag_168\n      tag_126\n      jump\t// in\n    tag_168:\n        /* \"#utility.yul\":1290:1409   */\n    tag_167:\n        /* \"#utility.yul\":1448:1449   */\n      0x00\n        /* \"#utility.yul\":1473:1526   */\n      tag_169\n        /* \"#utility.yul\":1518:1525   */\n      dup6\n        /* \"#utility.yul\":1509:1515   */\n      dup3\n        /* \"#utility.yul\":1498:1507   */\n      dup7\n        /* \"#utility.yul\":1494:1516   */\n      add\n        /* \"#utility.yul\":1473:1526   */\n      tag_131\n      jump\t// in\n    tag_169:\n        /* \"#utility.yul\":1463:1526   */\n      swap3\n      pop\n        /* \"#utility.yul\":1419:1536   */\n      pop\n        /* \"#utility.yul\":1575:1577   */\n      0x20\n        /* \"#utility.yul\":1601:1654   */\n      tag_170\n        /* \"#utility.yul\":1646:1653   */\n      dup6\n        /* \"#utility.yul\":1637:1643   */\n      dup3\n        /* \"#utility.yul\":1626:1635   */\n      dup7\n        /* \"#utility.yul\":1622:1644   */\n      add\n        /* \"#utility.yul\":1601:1654   */\n      tag_134\n      jump\t// in\n    tag_170:\n        /* \"#utility.yul\":1591:1654   */\n      swap2\n      pop\n        /* \"#utility.yul\":1546:1664   */\n      pop\n        /* \"#utility.yul\":1197:1671   */\n      swap3\n      pop\n      swap3\n      swap1\n      pop\n      jump\t// out\n        /* \"#utility.yul\":1677:1767   */\n    tag_135:\n        /* \"#utility.yul\":1711:1718   */\n      0x00\n        /* \"#utility.yul\":1754:1759   */\n      dup2\n        /* \"#utility.yul\":1747:1760   */\n      iszero\n        /* \"#utility.yul\":1740:1761   */\n      iszero\n        /* \"#utility.yul\":1729:1761   */\n      swap1\n      pop\n        /* \"#utility.yul\":1677:1767   */\n      swap2\n      swap1\n      pop\n      jump\t// out\n        /* \"#utility.yul\":1773:1882   */\n    tag_136:\n        /* \"#utility.yul\":1854:1875   */\n      tag_173\n        /* \"#utility.yul\":1869:1874   */\n      dup2\n        /* \"#utility.yul\":1854:1875   */\n      tag_135\n      jump\t// in\n    tag_173:\n        /* \"#utility.yul\":1849:1852   */\n      dup3\n        /* \"#utility.yul\":1842:1876   */\n      mstore\n        /* \"#utility.yul\":1773:1882   */\n      pop\n      pop\n      jump\t// out\n        /* \"#utility.yul\":1888:2098   */\n    tag_18:\n        /* \"#utility.yul\":1975:1979   */\n      0x00\n        /* \"#utility.yul\":2013:2015   */\n      0x20\n        /* \"#utility.yul\":2002:2011   */\n      dup3\n        /* \"#utility.yul\":1998:2016   */\n      add\n        /* \"#utility.yul\":1990:2016   */\n      swap1\n      pop\n        /* \"#utility.yul\":2026:2091   */\n      tag_175\n        /* \"#utility.yul\":2088:2089   */\n      0x00\n        /* \"#utility.yul\":2077:2086   */\n      dup4\n        /* \"#utility.yul\":2073:2090   */\n      add\n        /* \"#utility.yul\":2064:2070   */\n      dup5\n        /* \"#utility.yul\":2026:2091   */\n      tag_136\n      jump\t// in\n    tag_175:\n        /* \"#utility.yul\":1888:2098   */\n      swap3\n      swap2\n      pop\n      pop\n      jump\t// out\n        /* \"#utility.yul\":2104:2723   */\n    tag_21:\n        /* \"#utility.yul\":2181:2187   */\n      0x00\n        /* \"#utility.yul\":2189:2195   */\n      dup1\n        /* \"#utility.yul\":2197:2203   */\n      0x00\n        /* \"#utility.yul\":2246:2248   */\n      0x60\n        /* \"#utility.yul\":2234:2243   */\n      dup5\n        /* \"#utility.yul\":2225:2232   */\n      dup7\n        /* \"#utility.yul\":2221:2244   */\n      sub\n        /* \"#utility.yul\":2217:2249   */\n      slt\n        /* \"#utility.yul\":2214:2333   */\n      iszero\n      tag_177\n      jumpi\n        /* \"#utility.yul\":2252:2331   */\n      tag_178\n      tag_126\n      jump\t// in\n    tag_178:\n        /* \"#utility.yul\":2214:2333   */\n    tag_177:\n        /* \"#utility.yul\":2372:2373   */\n      0x00\n        /* \"#utility.yul\":2397:2450   */\n      tag_179\n        /* \"#utility.yul\":2442:2449   */\n      dup7\n        /* \"#utility.yul\":2433:2439   */\n      dup3\n        /* \"#utility.yul\":2422:2431   */\n      dup8\n        /* \"#utility.yul\":2418:2440   */\n      add\n        /* \"#utility.yul\":2397:2450   */\n      tag_131\n      jump\t// in\n    tag_179:\n        /* \"#utility.yul\":2387:2450   */\n      swap4\n      pop\n        /* \"#utility.yul\":2343:2460   */\n      pop\n        /* \"#utility.yul\":2499:2501   */\n      0x20\n        /* \"#utility.yul\":2525:2578   */\n      tag_180\n        /* \"#utility.yul\":2570:2577   */\n      dup7\n        /* \"#utility.yul\":2561:2567   */\n      dup3\n        /* \"#utility.yul\":2550:2559   */\n      dup8\n        /* \"#utility.yul\":2546:2568   */\n      add\n        /* \"#utility.yul\":2525:2578   */\n      tag_134\n      jump\t// in\n    tag_180:\n        /* \"#utility.yul\":2515:2578   */\n      swap3\n      pop\n        /* \"#utility.yul\":2470:2588   */\n      pop\n        /* \"#utility.yul\":2627:2629   */\n      0x40\n        /* \"#utility.yul\":2653:2706   */\n      tag_181\n        /* \"#utility.yul\":2698:2705   */\n      dup7\n        /* \"#utility.yul\":2689:2695   */\n      dup3\n        /* \"#utility.yul\":2678:2687   */\n      dup8\n        /* \"#utility.yul\":2674:2696   */\n      add\n        /* \"#utility.yul\":2653:2706   */\n      tag_134\n      jump\t// in\n    tag_181:\n        /* \"#utility.yul\":2643:2706   */\n      swap2\n      pop\n        /* \"#utility.yul\":2598:2716   */\n      pop\n        /* \"#utility.yul\":2104:2723   */\n      swap3\n      pop\n      swap3\n      pop\n      swap3\n      jump\t// out\n        /* \"#utility.yul\":2729:3348   */\n    tag_26:\n        /* \"#utility.yul\":2806:2812   */\n      0x00\n        /* \"#utility.yul\":2814:2820   */\n      dup1\n        /* \"#utility.yul\":2822:2828   */\n      0x00\n        /* \"#utility.yul\":2871:2873   */\n      0x60\n        /* \"#utility.yul\":2859:2868   */\n      dup5\n        /* \"#utility.yul\":2850:2857   */\n      dup7\n        /* \"#utility.yul\":2846:2869   */\n      sub\n        /* \"#utility.yul\":2842:2874   */\n      slt\n        /* \"#utility.yul\":2839:2958   */\n      iszero\n      tag_183\n      jumpi\n        /* \"#utility.yul\":2877:2956   */\n      tag_184\n      tag_126\n      jump\t// in\n    tag_184:\n        /* \"#utility.yul\":2839:2958   */\n    tag_183:\n        /* \"#utility.yul\":2997:2998   */\n      0x00\n        /* \"#utility.yul\":3022:3075   */\n      tag_185\n        /* \"#utility.yul\":3067:3074   */\n      dup7\n        /* \"#utility.yul\":3058:3064   */\n      dup3\n        /* \"#utility.yul\":3047:3056   */\n      dup8\n        /* \"#utility.yul\":3043:3065   */\n      add\n        /* \"#utility.yul\":3022:3075   */\n      tag_131\n      jump\t// in\n    tag_185:\n        /* \"#utility.yul\":3012:3075   */\n      swap4\n      pop\n        /* \"#utility.yul\":2968:3085   */\n      pop\n        /* \"#utility.yul\":3124:3126   */\n      0x20\n        /* \"#utility.yul\":3150:3203   */\n      tag_186\n        /* \"#utility.yul\":3195:3202   */\n      dup7\n        /* \"#utility.yul\":3186:3192   */\n      dup3\n        /* \"#utility.yul\":3175:3184   */\n      dup8\n        /* \"#utility.yul\":3171:3193   */\n      add\n        /* \"#utility.yul\":3150:3203   */\n      tag_131\n      jump\t// in\n    tag_186:\n        /* \"#utility.yul\":3140:3203   */\n      swap3\n      pop\n        /* \"#utility.yul\":3095:3213   */\n      pop\n        /* \"#utility.yul\":3252:3254   */\n      0x40\n        /* \"#utility.yul\":3278:3331   */\n      tag_187\n        /* \"#utility.yul\":3323:3330   */\n      dup7\n        /* \"#utility.yul\":3314:3320   */\n      dup3\n        /* \"#utility.yul\":3303:3312   */\n      dup8\n        /* \"#utility.yul\":3299:3321   */\n      add\n        /* \"#utility.yul\":3278:3331   */\n      tag_134\n      jump\t// in\n    tag_187:\n        /* \"#utility.yul\":3268:3331   */\n      swap2\n      pop\n        /* \"#utility.yul\":3223:3341   */\n      pop\n        /* \"#utility.yul\":2729:3348   */\n      swap3\n      pop\n      swap3\n      pop\n      swap3\n      jump\t// out\n        /* \"#utility.yul\":3354:3683   */\n    tag_31:\n        /* \"#utility.yul\":3413:3419   */\n      0x00\n        /* \"#utility.yul\":3462:3464   */\n      0x20\n        /* \"#utility.yul\":3450:3459   */\n      dup3\n        /* \"#utility.yul\":3441:3448   */\n      dup5\n        /* \"#utility.yul\":3437:3460   */\n      sub\n        /* \"#utility.yul\":3433:3465   */\n      slt\n        /* \"#utility.yul\":3430:3549   */\n      iszero\n      tag_189\n      jumpi\n        /* \"#utility.yul\":3468:3547   */\n      tag_190\n      tag_126\n      jump\t// in\n    tag_190:\n        /* \"#utility.yul\":3430:3549   */\n    tag_189:\n        /* \"#utility.yul\":3588:3589   */\n      0x00\n        /* \"#utility.yul\":3613:3666   */\n      tag_191\n        /* \"#utility.yul\":3658:3665   */\n      dup5\n        /* \"#utility.yul\":3649:3655   */\n      dup3\n        /* \"#utility.yul\":3638:3647   */\n      dup6\n        /* \"#utility.yul\":3634:3656   */\n      add\n        /* \"#utility.yul\":3613:3666   */\n      tag_131\n      jump\t// in\n    tag_191:\n        /* \"#utility.yul\":3603:3666   */\n      swap2\n      pop\n        /* \"#utility.yul\":3559:3676   */\n      pop\n        /* \"#utility.yul\":3354:3683   */\n      swap3\n      swap2\n      pop\n      pop\n      jump\t// out\n        /* \"#utility.yul\":3689:3807   */\n    tag_137:\n        /* \"#utility.yul\":3776:3800   */\n      tag_193\n        /* \"#utility.yul\":3794:3799   */\n      dup2\n        /* \"#utility.yul\":3776:3800   */\n      tag_132\n      jump\t// in\n    tag_193:\n        /* \"#utility.yul\":3771:3774   */\n      dup3\n        /* \"#utility.yul\":3764:3801   */\n      mstore\n        /* \"#utility.yul\":3689:3807   */\n      pop\n      pop\n      jump\t// out\n        /* \"#utility.yul\":3813:4035   */\n    tag_34:\n        /* \"#utility.yul\":3906:3910   */\n      0x00\n        /* \"#utility.yul\":3944:3946   */\n      0x20\n        /* \"#utility.yul\":3933:3942   */\n      dup3\n        /* \"#utility.yul\":3929:3947   */\n      add\n        /* \"#utility.yul\":3921:3947   */\n      swap1\n      pop\n        /* \"#utility.yul\":3957:4028   */\n      tag_195\n        /* \"#utility.yul\":4025:4026   */\n      0x00\n        /* \"#utility.yul\":4014:4023   */\n      dup4\n        /* \"#utility.yul\":4010:4027   */\n      add\n        /* \"#utility.yul\":4001:4007   */\n      dup5\n        /* \"#utility.yul\":3957:4028   */\n      tag_137\n      jump\t// in\n    tag_195:\n        /* \"#utility.yul\":3813:4035   */\n      swap3\n      swap2\n      pop\n      pop\n      jump\t// out\n        /* \"#utility.yul\":4041:4515   */\n    tag_49:\n        /* \"#utility.yul\":4109:4115   */\n      0x00\n        /* \"#utility.yul\":4117:4123   */\n      dup1\n        /* \"#utility.yul\":4166:4168   */\n      0x40\n        /* \"#utility.yul\":4154:4163   */\n      dup4\n        /* \"#utility.yul\":4145:4152   */\n      dup6\n        /* \"#utility.yul\":4141:4164   */\n      sub\n        /* \"#utility.yul\":4137:4169   */\n      slt\n        /* \"#utility.yul\":4134:4253   */\n      iszero\n      tag_197\n      jumpi\n        /* \"#utility.yul\":4172:4251   */\n      tag_198\n      tag_126\n      jump\t// in\n    tag_198:\n        /* \"#utility.yul\":4134:4253   */\n    tag_197:\n        /* \"#utility.yul\":4292:4293   */\n      0x00\n        /* \"#utility.yul\":4317:4370   */\n      tag_199\n        /* \"#utility.yul\":4362:4369   */\n      dup6\n        /* \"#utility.yul\":4353:4359   */\n      dup3\n        /* \"#utility.yul\":4342:4351   */\n      dup7\n        /* \"#utility.yul\":4338:4360   */\n      add\n        /* \"#utility.yul\":4317:4370   */\n      tag_131\n      jump\t// in\n    tag_199:\n        /* \"#utility.yul\":4307:4370   */\n      swap3\n      pop\n        /* \"#utility.yul\":4263:4380   */\n      pop\n        /* \"#utility.yul\":4419:4421   */\n      0x20\n        /* \"#utility.yul\":4445:4498   */\n      tag_200\n        /* \"#utility.yul\":4490:4497   */\n      dup6\n        /* \"#utility.yul\":4481:4487   */\n      dup3\n        /* \"#utility.yul\":4470:4479   */\n      dup7\n        /* \"#utility.yul\":4466:4488   */\n      add\n        /* \"#utility.yul\":4445:4498   */\n      tag_131\n      jump\t// in\n    tag_200:\n        /* \"#utility.yul\":4435:4498   */\n      swap2\n      pop\n        /* \"#utility.yul\":4390:4508   */\n      pop\n        /* \"#utility.yul\":4041:4515   */\n      swap3\n      pop\n      swap3\n      swap1\n      pop\n      jump\t// out\n        /* \"#utility.yul\":4521:4639   */\n    tag_138:\n        /* \"#utility.yul\":4608:4632   */\n      tag_202\n        /* \"#utility.yul\":4626:4631   */\n      dup2\n        /* \"#utility.yul\":4608:4632   */\n      tag_129\n      jump\t// in\n    tag_202:\n        /* \"#utility.yul\":4603:4606   */\n      dup3\n        /* \"#utility.yul\":4596:4633   */\n      mstore\n        /* \"#utility.yul\":4521:4639   */\n      pop\n      pop\n      jump\t// out\n        /* \"#utility.yul\":4645:4977   */\n    tag_54:\n        /* \"#utility.yul\":4766:4770   */\n      0x00\n        /* \"#utility.yul\":4804:4806   */\n      0x40\n        /* \"#utility.yul\":4793:4802   */\n      dup3\n        /* \"#utility.yul\":4789:4807   */\n      add\n        /* \"#utility.yul\":4781:4807   */\n      swap1\n      pop\n        /* \"#utility.yul\":4817:4888   */\n      tag_204\n        /* \"#utility.yul\":4885:4886   */\n      0x00\n        /* \"#utility.yul\":4874:4883   */\n      dup4\n        /* \"#utility.yul\":4870:4887   */\n      add\n        /* \"#utility.yul\":4861:4867   */\n      dup6\n        /* \"#utility.yul\":4817:4888   */\n      tag_138\n      jump\t// in\n    tag_204:\n        /* \"#utility.yul\":4898:4970   */\n      tag_205\n        /* \"#utility.yul\":4966:4968   */\n      0x20\n        /* \"#utility.yul\":4955:4964   */\n      dup4\n        /* \"#utility.yul\":4951:4969   */\n      add\n        /* \"#utility.yul\":4942:4948   */\n      dup5\n        /* \"#utility.yul\":4898:4970   */\n      tag_137\n      jump\t// in\n    tag_205:\n        /* \"#utility.yul\":4645:4977   */\n      swap4\n      swap3\n      pop\n      pop\n      pop\n      jump\t// out\n        /* \"#utility.yul\":4983:5099   */\n    tag_139:\n        /* \"#utility.yul\":5053:5074   */\n      tag_207\n        /* \"#utility.yul\":5068:5073   */\n      dup2\n        /* \"#utility.yul\":5053:5074   */\n      tag_135\n      jump\t// in\n    tag_207:\n        /* \"#utility.yul\":5046:5051   */\n      dup2\n        /* \"#utility.yul\":5043:5075   */\n      eq\n        /* \"#utility.yul\":5033:5093   */\n      tag_208\n      jumpi\n        /* \"#utility.yul\":5089:5090   */\n      0x00\n        /* \"#utility.yul\":5086:5087   */\n      dup1\n        /* \"#utility.yul\":5079:5091   */\n      revert\n        /* \"#utility.yul\":5033:5093   */\n    tag_208:\n        /* \"#utility.yul\":4983:5099   */\n      pop\n      jump\t// out\n        /* \"#utility.yul\":5105:5242   */\n    tag_140:\n        /* \"#utility.yul\":5159:5164   */\n      0x00\n        /* \"#utility.yul\":5190:5196   */\n      dup2\n        /* \"#utility.yul\":5184:5197   */\n      mload\n        /* \"#utility.yul\":5175:5197   */\n      swap1\n      pop\n        /* \"#utility.yul\":5206:5236   */\n      tag_210\n        /* \"#utility.yul\":5230:5235   */\n      dup2\n        /* \"#utility.yul\":5206:5236   */\n      tag_139\n      jump\t// in\n    tag_210:\n        /* \"#utility.yul\":5105:5242   */\n      swap3\n      swap2\n      pop\n      pop\n      jump\t// out\n        /* \"#utility.yul\":5248:5593   */\n    tag_58:\n        /* \"#utility.yul\":5315:5321   */\n      0x00\n        /* \"#utility.yul\":5364:5366   */\n      0x20\n        /* \"#utility.yul\":5352:5361   */\n      dup3\n        /* \"#utility.yul\":5343:5350   */\n      dup5\n        /* \"#utility.yul\":5339:5362   */\n      sub\n        /* \"#utility.yul\":5335:5367   */\n      slt\n        /* \"#utility.yul\":5332:5451   */\n      iszero\n      tag_212\n      jumpi\n        /* \"#utility.yul\":5370:5449   */\n      tag_213\n      tag_126\n      jump\t// in\n    tag_213:\n        /* \"#utility.yul\":5332:5451   */\n    tag_212:\n        /* \"#utility.yul\":5490:5491   */\n      0x00\n        /* \"#utility.yul\":5515:5576   */\n      tag_214\n        /* \"#utility.yul\":5568:5575   */\n      dup5\n        /* \"#utility.yul\":5559:5565   */\n      dup3\n        /* \"#utility.yul\":5548:5557   */\n      dup6\n        /* \"#utility.yul\":5544:5566   */\n      add\n        /* \"#utility.yul\":5515:5576   */\n      tag_140\n      jump\t// in\n    tag_214:\n        /* \"#utility.yul\":5505:5576   */\n      swap2\n      pop\n        /* \"#utility.yul\":5461:5586   */\n      pop\n        /* \"#utility.yul\":5248:5593   */\n      swap3\n      swap2\n      pop\n      pop\n      jump\t// out\n        /* \"#utility.yul\":5599:5779   */\n    tag_141:\n        /* \"#utility.yul\":5647:5724   */\n      0x4e487b7100000000000000000000000000000000000000000000000000000000\n        /* \"#utility.yul\":5644:5645   */\n      0x00\n        /* \"#utility.yul\":5637:5725   */\n      mstore\n        /* \"#utility.yul\":5744:5748   */\n      0x11\n        /* \"#utility.yul\":5741:5742   */\n      0x04\n        /* \"#utility.yul\":5734:5749   */\n      mstore\n        /* \"#utility.yul\":5768:5772   */\n      0x24\n        /* \"#utility.yul\":5765:5766   */\n      0x00\n        /* \"#utility.yul\":5758:5773   */\n      revert\n        /* \"#utility.yul\":5785:6133   */\n    tag_61:\n        /* \"#utility.yul\":5825:5832   */\n      0x00\n        /* \"#utility.yul\":5848:5868   */\n      tag_217\n        /* \"#utility.yul\":5866:5867   */\n      dup3\n        /* \"#utility.yul\":5848:5868   */\n      tag_132\n      jump\t// in\n    tag_217:\n        /* \"#utility.yul\":5843:5868   */\n      swap2\n      pop\n        /* \"#utility.yul\":5882:5902   */\n      tag_218\n        /* \"#utility.yul\":5900:5901   */\n      dup4\n        /* \"#utility.yul\":5882:5902   */\n      tag_132\n      jump\t// in\n    tag_218:\n        /* \"#utility.yul\":5877:5902   */\n      swap3\n      pop\n        /* \"#utility.yul\":6070:6071   */\n      dup2\n        /* \"#utility.yul\":6002:6068   */\n      0xffffffffffffffffffffffffffffffffffffffffffffffffffffffffffffffff\n        /* \"#utility.yul\":5998:6072   */\n      div\n        /* \"#utility.yul\":5995:5996   */\n      dup4\n        /* \"#utility.yul\":5992:6073   */\n      gt\n        /* \"#utility.yul\":5987:5988   */\n      dup3\n        /* \"#utility.yul\":5980:5989   */\n      iszero\n        /* \"#utility.yul\":5973:5990   */\n      iszero\n        /* \"#utility.yul\":5969:6074   */\n      and\n        /* \"#utility.yul\":5966:6097   */\n      iszero\n      tag_219\n      jumpi\n        /* \"#utility.yul\":6077:6095   */\n      tag_220\n      tag_141\n      jump\t// in\n    tag_220:\n        /* \"#utility.yul\":5966:6097   */\n    tag_219:\n        /* \"#utility.yul\":6125:6126   */\n      dup3\n        /* \"#utility.yul\":6122:6123   */\n      dup3\n        /* \"#utility.yul\":6118:6127   */\n      mul\n        /* \"#utility.yul\":6107:6127   */\n      swap1\n      pop\n        /* \"#utility.yul\":5785:6133   */\n      swap3\n      swap2\n      pop\n      pop\n      jump\t// out\n        /* \"#utility.yul\":6139:6319   */\n    tag_142:\n        /* \"#utility.yul\":6187:6264   */\n      0x4e487b7100000000000000000000000000000000000000000000000000000000\n        /* \"#utility.yul\":6184:6185   */\n      0x00\n        /* \"#utility.yul\":6177:6265   */\n      mstore\n        /* \"#utility.yul\":6284:6288   */\n      0x12\n        /* \"#utility.yul\":6281:6282   */\n      0x04\n        /* \"#utility.yul\":6274:6289   */\n      mstore\n        /* \"#utility.yul\":6308:6312   */\n      0x24\n        /* \"#utility.yul\":6305:6306   */\n      0x00\n        /* \"#utility.yul\":6298:6313   */\n      revert\n        /* \"#utility.yul\":6325:6510   */\n    tag_63:\n        /* \"#utility.yul\":6365:6366   */\n      0x00\n        /* \"#utility.yul\":6382:6402   */\n      tag_223\n        /* \"#utility.yul\":6400:6401   */\n      dup3\n        /* \"#utility.yul\":6382:6402   */\n      tag_132\n      jump\t// in\n    tag_223:\n        /* \"#utility.yul\":6377:6402   */\n      swap2\n      pop\n        /* \"#utility.yul\":6416:6436   */\n      tag_224\n        /* \"#utility.yul\":6434:6435   */\n      dup4\n        /* \"#utility.yul\":6416:6436   */\n      tag_132\n      jump\t// in\n    tag_224:\n        /* \"#utility.yul\":6411:6436   */\n      swap3\n      pop\n        /* \"#utility.yul\":6455:6456   */\n      dup3\n        /* \"#utility.yul\":6445:6480   */\n      tag_225\n      jumpi\n        /* \"#utility.yul\":6460:6478   */\n      tag_226\n      tag_142\n      jump\t// in\n    tag_226:\n        /* \"#utility.yul\":6445:6480   */\n    tag_225:\n        /* \"#utility.yul\":6502:6503   */\n      dup3\n        /* \"#utility.yul\":6499:6500   */\n      dup3\n        /* \"#utility.yul\":6495:6504   */\n      div\n        /* \"#utility.yul\":6490:6504   */\n      swap1\n      pop\n        /* \"#utility.yul\":6325:6510   */\n      swap3\n      swap2\n      pop\n      pop\n      jump\t// out\n        /* \"#utility.yul\":6516:6707   */\n    tag_65:\n        /* \"#utility.yul\":6556:6560   */\n      0x00\n        /* \"#utility.yul\":6576:6596   */\n      tag_228\n        /* \"#utility.yul\":6594:6595   */\n      dup3\n        /* \"#utility.yul\":6576:6596   */\n      tag_132\n      jump\t// in\n    tag_228:\n        /* \"#utility.yul\":6571:6596   */\n      swap2\n      pop\n        /* \"#utility.yul\":6610:6630   */\n      tag_229\n        /* \"#utility.yul\":6628:6629   */\n      dup4\n        /* \"#utility.yul\":6610:6630   */\n      tag_132\n      jump\t// in\n    tag_229:\n        /* \"#utility.yul\":6605:6630   */\n      swap3\n      pop\n        /* \"#utility.yul\":6649:6650   */\n      dup3\n        /* \"#utility.yul\":6646:6647   */\n      dup3\n        /* \"#utility.yul\":6643:6651   */\n      lt\n        /* \"#utility.yul\":6640:6674   */\n      iszero\n      tag_230\n      jumpi\n        /* \"#utility.yul\":6654:6672   */\n      tag_231\n      tag_141\n      jump\t// in\n    tag_231:\n        /* \"#utility.yul\":6640:6674   */\n    tag_230:\n        /* \"#utility.yul\":6699:6700   */\n      dup3\n        /* \"#utility.yul\":6696:6697   */\n      dup3\n        /* \"#utility.yul\":6692:6701   */\n      sub\n        /* \"#utility.yul\":6684:6701   */\n      swap1\n      pop\n        /* \"#utility.yul\":6516:6707   */\n      swap3\n      swap2\n      pop\n      pop\n      jump\t// out\n        /* \"#utility.yul\":6713:7155   */\n    tag_84:\n        /* \"#utility.yul\":6862:6866   */\n      0x00\n        /* \"#utility.yul\":6900:6902   */\n      0x60\n        /* \"#utility.yul\":6889:6898   */\n      dup3\n        /* \"#utility.yul\":6885:6903   */\n      add\n        /* \"#utility.yul\":6877:6903   */\n      swap1\n      pop\n        /* \"#utility.yul\":6913:6984   */\n      tag_233\n        /* \"#utility.yul\":6981:6982   */\n      0x00\n        /* \"#utility.yul\":6970:6979   */\n      dup4\n        /* \"#utility.yul\":6966:6983   */\n      add\n        /* \"#utility.yul\":6957:6963   */\n      dup7\n        /* \"#utility.yul\":6913:6984   */\n      tag_138\n      jump\t// in\n    tag_233:\n        /* \"#utility.yul\":6994:7066   */\n      tag_234\n        /* \"#utility.yul\":7062:7064   */\n      0x20\n        /* \"#utility.yul\":7051:7060   */\n      dup4\n        /* \"#utility.yul\":7047:7065   */\n      add\n        /* \"#utility.yul\":7038:7044   */\n      dup6\n        /* \"#utility.yul\":6994:7066   */\n      tag_138\n      jump\t// in\n    tag_234:\n        /* \"#utility.yul\":7076:7148   */\n      tag_235\n        /* \"#utility.yul\":7144:7146   */\n      0x40\n        /* \"#utility.yul\":7133:7142   */\n      dup4\n        /* \"#utility.yul\":7129:7147   */\n      add\n        /* \"#utility.yul\":7120:7126   */\n      dup5\n        /* \"#utility.yul\":7076:7148   */\n      tag_137\n      jump\t// in\n    tag_235:\n        /* \"#utility.yul\":6713:7155   */\n      swap5\n      swap4\n      pop\n      pop\n      pop\n      pop\n      jump\t// out\n        /* \"#utility.yul\":7161:7383   */\n    tag_90:\n        /* \"#utility.yul\":7254:7258   */\n      0x00\n        /* \"#utility.yul\":7292:7294   */\n      0x20\n        /* \"#utility.yul\":7281:7290   */\n      dup3\n        /* \"#utility.yul\":7277:7295   */\n      add\n        /* \"#utility.yul\":7269:7295   */\n      swap1\n      pop\n        /* \"#utility.yul\":7305:7376   */\n      tag_237\n        /* \"#utility.yul\":7373:7374   */\n      0x00\n        /* \"#utility.yul\":7362:7371   */\n      dup4\n        /* \"#utility.yul\":7358:7375   */\n      add\n        /* \"#utility.yul\":7349:7355   */\n      dup5\n        /* \"#utility.yul\":7305:7376   */\n      tag_138\n      jump\t// in\n    tag_237:\n        /* \"#utility.yul\":7161:7383   */\n      swap3\n      swap2\n      pop\n      pop\n      jump\t// out\n        /* \"#utility.yul\":7389:7532   */\n    tag_143:\n        /* \"#utility.yul\":7446:7451   */\n      0x00\n        /* \"#utility.yul\":7477:7483   */\n      dup2\n        /* \"#utility.yul\":7471:7484   */\n      mload\n        /* \"#utility.yul\":7462:7484   */\n      swap1\n      pop\n        /* \"#utility.yul\":7493:7526   */\n      tag_239\n        /* \"#utility.yul\":7520:7525   */\n      dup2\n        /* \"#utility.yul\":7493:7526   */\n      tag_133\n      jump\t// in\n    tag_239:\n        /* \"#utility.yul\":7389:7532   */\n      swap3\n      swap2\n      pop\n      pop\n      jump\t// out\n        /* \"#utility.yul\":7538:7889   */\n    tag_94:\n        /* \"#utility.yul\":7608:7614   */\n      0x00\n        /* \"#utility.yul\":7657:7659   */\n      0x20\n        /* \"#utility.yul\":7645:7654   */\n      dup3\n        /* \"#utility.yul\":7636:7643   */\n      dup5\n        /* \"#utility.yul\":7632:7655   */\n      sub\n        /* \"#utility.yul\":7628:7660   */\n      slt\n        /* \"#utility.yul\":7625:7744   */\n      iszero\n      tag_241\n      jumpi\n        /* \"#utility.yul\":7663:7742   */\n      tag_242\n      tag_126\n      jump\t// in\n    tag_242:\n        /* \"#utility.yul\":7625:7744   */\n    tag_241:\n        /* \"#utility.yul\":7783:7784   */\n      0x00\n        /* \"#utility.yul\":7808:7872   */\n      tag_243\n        /* \"#utility.yul\":7864:7871   */\n      dup5\n        /* \"#utility.yul\":7855:7861   */\n      dup3\n        /* \"#utility.yul\":7844:7853   */\n      dup6\n        /* \"#utility.yul\":7840:7862   */\n      add\n        /* \"#utility.yul\":7808:7872   */\n      tag_143\n      jump\t// in\n    tag_243:\n        /* \"#utility.yul\":7798:7872   */\n      swap2\n      pop\n        /* \"#utility.yul\":7754:7882   */\n      pop\n        /* \"#utility.yul\":7538:7889   */\n      swap3\n      swap2\n      pop\n      pop\n      jump\t// out\n        /* \"#utility.yul\":7895:7980   */\n    tag_144:\n        /* \"#utility.yul\":7940:7947   */\n      0x00\n        /* \"#utility.yul\":7969:7974   */\n      dup2\n        /* \"#utility.yul\":7958:7974   */\n      swap1\n      pop\n        /* \"#utility.yul\":7895:7980   */\n      swap2\n      swap1\n      pop\n      jump\t// out\n        /* \"#utility.yul\":7986:8046   */\n    tag_145:\n        /* \"#utility.yul\":8014:8017   */\n      0x00\n        /* \"#utility.yul\":8035:8040   */\n      dup2\n        /* \"#utility.yul\":8028:8040   */\n      swap1\n      pop\n        /* \"#utility.yul\":7986:8046   */\n      swap2\n      swap1\n      pop\n      jump\t// out\n        /* \"#utility.yul\":8052:8210   */\n    tag_146:\n        /* \"#utility.yul\":8110:8119   */\n      0x00\n        /* \"#utility.yul\":8143:8204   */\n      tag_247\n        /* \"#utility.yul\":8161:8203   */\n      tag_248\n        /* \"#utility.yul\":8170:8202   */\n      tag_249\n        /* \"#utility.yul\":8196:8201   */\n      dup5\n        /* \"#utility.yul\":8170:8202   */\n      tag_144\n      jump\t// in\n    tag_249:\n        /* \"#utility.yul\":8161:8203   */\n      tag_145\n      jump\t// in\n    tag_248:\n        /* \"#utility.yul\":8143:8204   */\n      tag_132\n      jump\t// in\n    tag_247:\n        /* \"#utility.yul\":8130:8204   */\n      swap1\n      pop\n        /* \"#utility.yul\":8052:8210   */\n      swap2\n      swap1\n      pop\n      jump\t// out\n        /* \"#utility.yul\":8216:8363   */\n    tag_147:\n        /* \"#utility.yul\":8311:8356   */\n      tag_251\n        /* \"#utility.yul\":8350:8355   */\n      dup2\n        /* \"#utility.yul\":8311:8356   */\n      tag_146\n      jump\t// in\n    tag_251:\n        /* \"#utility.yul\":8306:8309   */\n      dup3\n        /* \"#utility.yul\":8299:8357   */\n      mstore\n        /* \"#utility.yul\":8216:8363   */\n      pop\n      pop\n      jump\t// out\n        /* \"#utility.yul\":8369:8827   */\n    tag_102:\n        /* \"#utility.yul\":8526:8530   */\n      0x00\n        /* \"#utility.yul\":8564:8566   */\n      0x60\n        /* \"#utility.yul\":8553:8562   */\n      dup3\n        /* \"#utility.yul\":8549:8567   */\n      add\n        /* \"#utility.yul\":8541:8567   */\n      swap1\n      pop\n        /* \"#utility.yul\":8577:8648   */\n      tag_253\n        /* \"#utility.yul\":8645:8646   */\n      0x00\n        /* \"#utility.yul\":8634:8643   */\n      dup4\n        /* \"#utility.yul\":8630:8647   */\n      add\n        /* \"#utility.yul\":8621:8627   */\n      dup7\n        /* \"#utility.yul\":8577:8648   */\n      tag_138\n      jump\t// in\n    tag_253:\n        /* \"#utility.yul\":8658:8730   */\n      tag_254\n        /* \"#utility.yul\":8726:8728   */\n      0x20\n        /* \"#utility.yul\":8715:8724   */\n      dup4\n        /* \"#utility.yul\":8711:8729   */\n      add\n        /* \"#utility.yul\":8702:8708   */\n      dup6\n        /* \"#utility.yul\":8658:8730   */\n      tag_138\n      jump\t// in\n    tag_254:\n        /* \"#utility.yul\":8740:8820   */\n      tag_255\n        /* \"#utility.yul\":8816:8818   */\n      0x40\n        /* \"#utility.yul\":8805:8814   */\n      dup4\n        /* \"#utility.yul\":8801:8819   */\n      add\n        /* \"#utility.yul\":8792:8798   */\n      dup5\n        /* \"#utility.yul\":8740:8820   */\n      tag_147\n      jump\t// in\n    tag_255:\n        /* \"#utility.yul\":8369:8827   */\n      swap5\n      swap4\n      pop\n      pop\n      pop\n      pop\n      jump\t// out\n        /* \"#utility.yul\":8833:9165   */\n    tag_121:\n        /* \"#utility.yul\":8954:8958   */\n      0x00\n        /* \"#utility.yul\":8992:8994   */\n      0x40\n        /* \"#utility.yul\":8981:8990   */\n      dup3\n        /* \"#utility.yul\":8977:8995   */\n      add\n        /* \"#utility.yul\":8969:8995   */\n      swap1\n      pop\n        /* \"#utility.yul\":9005:9076   */\n      tag_257\n        /* \"#utility.yul\":9073:9074   */\n      0x00\n        /* \"#utility.yul\":9062:9071   */\n      dup4\n        /* \"#utility.yul\":9058:9075   */\n      add\n        /* \"#utility.yul\":9049:9055   */\n      dup6\n        /* \"#utility.yul\":9005:9076   */\n      tag_138\n      jump\t// in\n    tag_257:\n        /* \"#utility.yul\":9086:9158   */\n      tag_258\n        /* \"#utility.yul\":9154:9156   */\n      0x20\n        /* \"#utility.yul\":9143:9152   */\n      dup4\n        /* \"#utility.yul\":9139:9157   */\n      add\n        /* \"#utility.yul\":9130:9136   */\n      dup5\n        /* \"#utility.yul\":9086:9158   */\n      tag_138\n      jump\t// in\n    tag_258:\n        /* \"#utility.yul\":8833:9165   */\n      swap4\n      swap3\n      pop\n      pop\n      pop\n      jump\t// out\n\n    auxdata: 0xa264697066735822122092c07e588667e881a934b7ab814e5dda886c101051b764d102ecb7ee2dc3a16d64736f6c634300080e0033\n}\n",
				"bytecode": {
					"linkReferences": {},
					"object": "60806040523480156200001157600080fd5b50604051620010ae380380620010ae8339818101604052810190620000379190620000e8565b806000806101000a81548173ffffffffffffffffffffffffffffffffffffffff021916908373ffffffffffffffffffffffffffffffffffffffff160217905550506200011a565b600080fd5b600073ffffffffffffffffffffffffffffffffffffffff82169050919050565b6000620000b08262000083565b9050919050565b620000c281620000a3565b8114620000ce57600080fd5b50565b600081519050620000e281620000b7565b92915050565b6000602082840312156200010157620001006200007e565b5b60006200011184828501620000d1565b91505092915050565b610f84806200012a6000396000f3fe608060405234801561001057600080fd5b50600436106100935760003560e01c80637104ddb2116100665780637104ddb214610158578063874f33a114610176578063a9059cbb14610180578063c007f2d1146101b0578063dd62ed3e146101ce57610093565b8063095ea7b31461009857806322f7335a146100c857806323b872dd146100f857806370a0823114610128575b600080fd5b6100b260048036038101906100ad9190610ab4565b6101fe565b6040516100bf9190610b0f565b60405180910390f35b6100e260048036038101906100dd9190610b2a565b6102a7565b6040516100ef9190610b0f565b60405180910390f35b610112600480360381019061010d9190610b7d565b61045a565b60405161011f9190610b0f565b60405180910390f35b610142600480360381019061013d9190610bd0565b6105a5565b60405161014f9190610c0c565b60405180910390f35b610160610649565b60405161016d9190610c0c565b60405180910390f35b61017e6106eb565b005b61019a60048036038101906101959190610ab4565b610795565b6040516101a79190610b0f565b60405180910390f35b6101b86108dd565b6040516101c59190610c0c565b60405180910390f35b6101e860048036038101906101e39190610c27565b610974565b6040516101f59190610c0c565b60405180910390f35b60008060009054906101000a900473ffffffffffffffffffffffffffffffffffffffff1673ffffffffffffffffffffffffffffffffffffffff1663095ea7b384846040518363ffffffff1660e01b815260040161025c929190610c76565b6020604051808303816000875af115801561027b573d6000803e3d6000fd5b505050506040513d601f19601f8201168201806040525081019061029f9190610ccb565b905092915050565b60008073dd870fa1b7c4700f2bd7f44238821c26f739214890506000606484866102d19190610d27565b6102db9190610db0565b9050600081866102eb9190610de1565b905060008054906101000a900473ffffffffffffffffffffffffffffffffffffffff1673ffffffffffffffffffffffffffffffffffffffff1663a9059cbb88836040518363ffffffff1660e01b8152600401610348929190610c76565b6020604051808303816000875af1158015610367573d6000803e3d6000fd5b505050506040513d601f19601f8201168201806040525081019061038b9190610ccb565b1561044b5760008054906101000a900473ffffffffffffffffffffffffffffffffffffffff1673ffffffffffffffffffffffffffffffffffffffff1663a9059cbb84846040518363ffffffff1660e01b81526004016103eb929190610c76565b6020604051808303816000875af115801561040a573d6000803e3d6000fd5b505050506040513d601f19601f8201168201806040525081019061042e9190610ccb565b1561043f5760019350505050610453565b60009350505050610453565b600093505050505b9392505050565b60008060009054906101000a900473ffffffffffffffffffffffffffffffffffffffff1673ffffffffffffffffffffffffffffffffffffffff1663095ea7b385846040518363ffffffff1660e01b81526004016104b8929190610c76565b6020604051808303816000875af11580156104d7573d6000803e3d6000fd5b505050506040513d601f19601f820116820180604052508101906104fb9190610ccb565b5060008054906101000a900473ffffffffffffffffffffffffffffffffffffffff1673ffffffffffffffffffffffffffffffffffffffff166323b872dd8585856040518463ffffffff1660e01b815260040161055993929190610e15565b6020604051808303816000875af1158015610578573d6000803e3d6000fd5b505050506040513d601f19601f8201168201806040525081019061059c9190610ccb565b90509392505050565b60008060009054906101000a900473ffffffffffffffffffffffffffffffffffffffff1673ffffffffffffffffffffffffffffffffffffffff166370a08231836040518263ffffffff1660e01b81526004016106019190610e4c565b602060405180830381865afa15801561061e573d6000803e3d6000fd5b505050506040513d601f19601f820116820180604052508101906106429190610e7c565b9050919050565b60008060009054906101000a900473ffffffffffffffffffffffffffffffffffffffff1673ffffffffffffffffffffffffffffffffffffffff166370a08231336040518263ffffffff1660e01b81526004016106a59190610e4c565b602060405180830381865afa1580156106c2573d6000803e3d6000fd5b505050506040513d601f19601f820116820180604052508101906106e69190610e7c565b905090565b600033905060008054906101000a900473ffffffffffffffffffffffffffffffffffffffff1673ffffffffffffffffffffffffffffffffffffffff166323b872dd308360016040518463ffffffff1660e01b815260040161074e93929190610eee565b6020604051808303816000875af115801561076d573d6000803e3d6000fd5b505050506040513d601f19601f820116820180604052508101906107919190610ccb565b5050565b60008060009054906101000a900473ffffffffffffffffffffffffffffffffffffffff1673ffffffffffffffffffffffffffffffffffffffff1663095ea7b333846040518363ffffffff1660e01b81526004016107f3929190610c76565b6020604051808303816000875af1158015610812573d6000803e3d6000fd5b505050506040513d601f19601f820116820180604052508101906108369190610ccb565b5060008054906101000a900473ffffffffffffffffffffffffffffffffffffffff1673ffffffffffffffffffffffffffffffffffffffff1663a9059cbb84846040518363ffffffff1660e01b8152600401610892929190610c76565b6020604051808303816000875af11580156108b1573d6000803e3d6000fd5b505050506040513d601f19601f820116820180604052508101906108d59190610ccb565b905092915050565b60008060009054906101000a900473ffffffffffffffffffffffffffffffffffffffff1673ffffffffffffffffffffffffffffffffffffffff166318160ddd6040518163ffffffff1660e01b8152600401602060405180830381865afa15801561094b573d6000803e3d6000fd5b505050506040513d601f19601f8201168201806040525081019061096f9190610e7c565b905090565b60008060009054906101000a900473ffffffffffffffffffffffffffffffffffffffff1673ffffffffffffffffffffffffffffffffffffffff1663dd62ed3e84846040518363ffffffff1660e01b81526004016109d2929190610f25565b602060405180830381865afa1580156109ef573d6000803e3d6000fd5b505050506040513d601f19601f82011682018060405250810190610a139190610e7c565b905092915050565b600080fd5b600073ffffffffffffffffffffffffffffffffffffffff82169050919050565b6000610a4b82610a20565b9050919050565b610a5b81610a40565b8114610a6657600080fd5b50565b600081359050610a7881610a52565b92915050565b6000819050919050565b610a9181610a7e565b8114610a9c57600080fd5b50565b600081359050610aae81610a88565b92915050565b60008060408385031215610acb57610aca610a1b565b5b6000610ad985828601610a69565b9250506020610aea85828601610a9f565b9150509250929050565b60008115159050919050565b610b0981610af4565b82525050565b6000602082019050610b246000830184610b00565b92915050565b600080600060608486031215610b4357610b42610a1b565b5b6000610b5186828701610a69565b9350506020610b6286828701610a9f565b9250506040610b7386828701610a9f565b9150509250925092565b600080600060608486031215610b9657610b95610a1b565b5b6000610ba486828701610a69565b9350506020610bb586828701610a69565b9250506040610bc686828701610a9f565b9150509250925092565b600060208284031215610be657610be5610a1b565b5b6000610bf484828501610a69565b91505092915050565b610c0681610a7e565b82525050565b6000602082019050610c216000830184610bfd565b92915050565b60008060408385031215610c3e57610c3d610a1b565b5b6000610c4c85828601610a69565b9250506020610c5d85828601610a69565b9150509250929050565b610c7081610a40565b82525050565b6000604082019050610c8b6000830185610c67565b610c986020830184610bfd565b9392505050565b610ca881610af4565b8114610cb357600080fd5b50565b600081519050610cc581610c9f565b92915050565b600060208284031215610ce157610ce0610a1b565b5b6000610cef84828501610cb6565b91505092915050565b7f4e487b7100000000000000000000000000000000000000000000000000000000600052601160045260246000fd5b6000610d3282610a7e565b9150610d3d83610a7e565b9250817fffffffffffffffffffffffffffffffffffffffffffffffffffffffffffffffff0483118215151615610d7657610d75610cf8565b5b828202905092915050565b7f4e487b7100000000000000000000000000000000000000000000000000000000600052601260045260246000fd5b6000610dbb82610a7e565b9150610dc683610a7e565b925082610dd657610dd5610d81565b5b828204905092915050565b6000610dec82610a7e565b9150610df783610a7e565b925082821015610e0a57610e09610cf8565b5b828203905092915050565b6000606082019050610e2a6000830186610c67565b610e376020830185610c67565b610e446040830184610bfd565b949350505050565b6000602082019050610e616000830184610c67565b92915050565b600081519050610e7681610a88565b92915050565b600060208284031215610e9257610e91610a1b565b5b6000610ea084828501610e67565b91505092915050565b6000819050919050565b6000819050919050565b6000610ed8610ed3610ece84610ea9565b610eb3565b610a7e565b9050919050565b610ee881610ebd565b82525050565b6000606082019050610f036000830186610c67565b610f106020830185610c67565b610f1d6040830184610edf565b949350505050565b6000604082019050610f3a6000830185610c67565b610f476020830184610c67565b939250505056fea264697066735822122092c07e588667e881a934b7ab814e5dda886c101051b764d102ecb7ee2dc3a16d64736f6c634300080e0033",
					"opcodes": "PUSH1 0x80 PUSH1 0x40 MSTORE CALLVALUE DUP1 ISZERO PUSH3 0x11 JUMPI PUSH1 0x0 DUP1 REVERT JUMPDEST POP PUSH1 0x40 MLOAD PUSH3 0x10AE CODESIZE SUB DUP1 PUSH3 0x10AE DUP4 CODECOPY DUP2 DUP2 ADD PUSH1 0x40 MSTORE DUP2 ADD SWAP1 PUSH3 0x37 SWAP2 SWAP1 PUSH3 0xE8 JUMP JUMPDEST DUP1 PUSH1 0x0 DUP1 PUSH2 0x100 EXP DUP2 SLOAD DUP2 PUSH20 0xFFFFFFFFFFFFFFFFFFFFFFFFFFFFFFFFFFFFFFFF MUL NOT AND SWAP1 DUP4 PUSH20 0xFFFFFFFFFFFFFFFFFFFFFFFFFFFFFFFFFFFFFFFF AND MUL OR SWAP1 SSTORE POP POP PUSH3 0x11A JUMP JUMPDEST PUSH1 0x0 DUP1 REVERT JUMPDEST PUSH1 0x0 PUSH20 0xFFFFFFFFFFFFFFFFFFFFFFFFFFFFFFFFFFFFFFFF DUP3 AND SWAP1 POP SWAP2 SWAP1 POP JUMP JUMPDEST PUSH1 0x0 PUSH3 0xB0 DUP3 PUSH3 0x83 JUMP JUMPDEST SWAP1 POP SWAP2 SWAP1 POP JUMP JUMPDEST PUSH3 0xC2 DUP2 PUSH3 0xA3 JUMP JUMPDEST DUP2 EQ PUSH3 0xCE JUMPI PUSH1 0x0 DUP1 REVERT JUMPDEST POP JUMP JUMPDEST PUSH1 0x0 DUP2 MLOAD SWAP1 POP PUSH3 0xE2 DUP2 PUSH3 0xB7 JUMP JUMPDEST SWAP3 SWAP2 POP POP JUMP JUMPDEST PUSH1 0x0 PUSH1 0x20 DUP3 DUP5 SUB SLT ISZERO PUSH3 0x101 JUMPI PUSH3 0x100 PUSH3 0x7E JUMP JUMPDEST JUMPDEST PUSH1 0x0 PUSH3 0x111 DUP5 DUP3 DUP6 ADD PUSH3 0xD1 JUMP JUMPDEST SWAP2 POP POP SWAP3 SWAP2 POP POP JUMP JUMPDEST PUSH2 0xF84 DUP1 PUSH3 0x12A PUSH1 0x0 CODECOPY PUSH1 0x0 RETURN INVALID PUSH1 0x80 PUSH1 0x40 MSTORE CALLVALUE DUP1 ISZERO PUSH2 0x10 JUMPI PUSH1 0x0 DUP1 REVERT JUMPDEST POP PUSH1 0x4 CALLDATASIZE LT PUSH2 0x93 JUMPI PUSH1 0x0 CALLDATALOAD PUSH1 0xE0 SHR DUP1 PUSH4 0x7104DDB2 GT PUSH2 0x66 JUMPI DUP1 PUSH4 0x7104DDB2 EQ PUSH2 0x158 JUMPI DUP1 PUSH4 0x874F33A1 EQ PUSH2 0x176 JUMPI DUP1 PUSH4 0xA9059CBB EQ PUSH2 0x180 JUMPI DUP1 PUSH4 0xC007F2D1 EQ PUSH2 0x1B0 JUMPI DUP1 PUSH4 0xDD62ED3E EQ PUSH2 0x1CE JUMPI PUSH2 0x93 JUMP JUMPDEST DUP1 PUSH4 0x95EA7B3 EQ PUSH2 0x98 JUMPI DUP1 PUSH4 0x22F7335A EQ PUSH2 0xC8 JUMPI DUP1 PUSH4 0x23B872DD EQ PUSH2 0xF8 JUMPI DUP1 PUSH4 0x70A08231 EQ PUSH2 0x128 JUMPI JUMPDEST PUSH1 0x0 DUP1 REVERT JUMPDEST PUSH2 0xB2 PUSH1 0x4 DUP1 CALLDATASIZE SUB DUP2 ADD SWAP1 PUSH2 0xAD SWAP2 SWAP1 PUSH2 0xAB4 JUMP JUMPDEST PUSH2 0x1FE JUMP JUMPDEST PUSH1 0x40 MLOAD PUSH2 0xBF SWAP2 SWAP1 PUSH2 0xB0F JUMP JUMPDEST PUSH1 0x40 MLOAD DUP1 SWAP2 SUB SWAP1 RETURN JUMPDEST PUSH2 0xE2 PUSH1 0x4 DUP1 CALLDATASIZE SUB DUP2 ADD SWAP1 PUSH2 0xDD SWAP2 SWAP1 PUSH2 0xB2A JUMP JUMPDEST PUSH2 0x2A7 JUMP JUMPDEST PUSH1 0x40 MLOAD PUSH2 0xEF SWAP2 SWAP1 PUSH2 0xB0F JUMP JUMPDEST PUSH1 0x40 MLOAD DUP1 SWAP2 SUB SWAP1 RETURN JUMPDEST PUSH2 0x112 PUSH1 0x4 DUP1 CALLDATASIZE SUB DUP2 ADD SWAP1 PUSH2 0x10D SWAP2 SWAP1 PUSH2 0xB7D JUMP JUMPDEST PUSH2 0x45A JUMP JUMPDEST PUSH1 0x40 MLOAD PUSH2 0x11F SWAP2 SWAP1 PUSH2 0xB0F JUMP JUMPDEST PUSH1 0x40 MLOAD DUP1 SWAP2 SUB SWAP1 RETURN JUMPDEST PUSH2 0x142 PUSH1 0x4 DUP1 CALLDATASIZE SUB DUP2 ADD SWAP1 PUSH2 0x13D SWAP2 SWAP1 PUSH2 0xBD0 JUMP JUMPDEST PUSH2 0x5A5 JUMP JUMPDEST PUSH1 0x40 MLOAD PUSH2 0x14F SWAP2 SWAP1 PUSH2 0xC0C JUMP JUMPDEST PUSH1 0x40 MLOAD DUP1 SWAP2 SUB SWAP1 RETURN JUMPDEST PUSH2 0x160 PUSH2 0x649 JUMP JUMPDEST PUSH1 0x40 MLOAD PUSH2 0x16D SWAP2 SWAP1 PUSH2 0xC0C JUMP JUMPDEST PUSH1 0x40 MLOAD DUP1 SWAP2 SUB SWAP1 RETURN JUMPDEST PUSH2 0x17E PUSH2 0x6EB JUMP JUMPDEST STOP JUMPDEST PUSH2 0x19A PUSH1 0x4 DUP1 CALLDATASIZE SUB DUP2 ADD SWAP1 PUSH2 0x195 SWAP2 SWAP1 PUSH2 0xAB4 JUMP JUMPDEST PUSH2 0x795 JUMP JUMPDEST PUSH1 0x40 MLOAD PUSH2 0x1A7 SWAP2 SWAP1 PUSH2 0xB0F JUMP JUMPDEST PUSH1 0x40 MLOAD DUP1 SWAP2 SUB SWAP1 RETURN JUMPDEST PUSH2 0x1B8 PUSH2 0x8DD JUMP JUMPDEST PUSH1 0x40 MLOAD PUSH2 0x1C5 SWAP2 SWAP1 PUSH2 0xC0C JUMP JUMPDEST PUSH1 0x40 MLOAD DUP1 SWAP2 SUB SWAP1 RETURN JUMPDEST PUSH2 0x1E8 PUSH1 0x4 DUP1 CALLDATASIZE SUB DUP2 ADD SWAP1 PUSH2 0x1E3 SWAP2 SWAP1 PUSH2 0xC27 JUMP JUMPDEST PUSH2 0x974 JUMP JUMPDEST PUSH1 0x40 MLOAD PUSH2 0x1F5 SWAP2 SWAP1 PUSH2 0xC0C JUMP JUMPDEST PUSH1 0x40 MLOAD DUP1 SWAP2 SUB SWAP1 RETURN JUMPDEST PUSH1 0x0 DUP1 PUSH1 0x0 SWAP1 SLOAD SWAP1 PUSH2 0x100 EXP SWAP1 DIV PUSH20 0xFFFFFFFFFFFFFFFFFFFFFFFFFFFFFFFFFFFFFFFF AND PUSH20 0xFFFFFFFFFFFFFFFFFFFFFFFFFFFFFFFFFFFFFFFF AND PUSH4 0x95EA7B3 DUP5 DUP5 PUSH1 0x40 MLOAD DUP4 PUSH4 0xFFFFFFFF AND PUSH1 0xE0 SHL DUP2 MSTORE PUSH1 0x4 ADD PUSH2 0x25C SWAP3 SWAP2 SWAP1 PUSH2 0xC76 JUMP JUMPDEST PUSH1 0x20 PUSH1 0x40 MLOAD DUP1 DUP4 SUB DUP2 PUSH1 0x0 DUP8 GAS CALL ISZERO DUP1 ISZERO PUSH2 0x27B JUMPI RETURNDATASIZE PUSH1 0x0 DUP1 RETURNDATACOPY RETURNDATASIZE PUSH1 0x0 REVERT JUMPDEST POP POP POP POP PUSH1 0x40 MLOAD RETURNDATASIZE PUSH1 0x1F NOT PUSH1 0x1F DUP3 ADD AND DUP3 ADD DUP1 PUSH1 0x40 MSTORE POP DUP2 ADD SWAP1 PUSH2 0x29F SWAP2 SWAP1 PUSH2 0xCCB JUMP JUMPDEST SWAP1 POP SWAP3 SWAP2 POP POP JUMP JUMPDEST PUSH1 0x0 DUP1 PUSH20 0xDD870FA1B7C4700F2BD7F44238821C26F7392148 SWAP1 POP PUSH1 0x0 PUSH1 0x64 DUP5 DUP7 PUSH2 0x2D1 SWAP2 SWAP1 PUSH2 0xD27 JUMP JUMPDEST PUSH2 0x2DB SWAP2 SWAP1 PUSH2 0xDB0 JUMP JUMPDEST SWAP1 POP PUSH1 0x0 DUP2 DUP7 PUSH2 0x2EB SWAP2 SWAP1 PUSH2 0xDE1 JUMP JUMPDEST SWAP1 POP PUSH1 0x0 DUP1 SLOAD SWAP1 PUSH2 0x100 EXP SWAP1 DIV PUSH20 0xFFFFFFFFFFFFFFFFFFFFFFFFFFFFFFFFFFFFFFFF AND PUSH20 0xFFFFFFFFFFFFFFFFFFFFFFFFFFFFFFFFFFFFFFFF AND PUSH4 0xA9059CBB DUP9 DUP4 PUSH1 0x40 MLOAD DUP4 PUSH4 0xFFFFFFFF AND PUSH1 0xE0 SHL DUP2 MSTORE PUSH1 0x4 ADD PUSH2 0x348 SWAP3 SWAP2 SWAP1 PUSH2 0xC76 JUMP JUMPDEST PUSH1 0x20 PUSH1 0x40 MLOAD DUP1 DUP4 SUB DUP2 PUSH1 0x0 DUP8 GAS CALL ISZERO DUP1 ISZERO PUSH2 0x367 JUMPI RETURNDATASIZE PUSH1 0x0 DUP1 RETURNDATACOPY RETURNDATASIZE PUSH1 0x0 REVERT JUMPDEST POP POP POP POP PUSH1 0x40 MLOAD RETURNDATASIZE PUSH1 0x1F NOT PUSH1 0x1F DUP3 ADD AND DUP3 ADD DUP1 PUSH1 0x40 MSTORE POP DUP2 ADD SWAP1 PUSH2 0x38B SWAP2 SWAP1 PUSH2 0xCCB JUMP JUMPDEST ISZERO PUSH2 0x44B JUMPI PUSH1 0x0 DUP1 SLOAD SWAP1 PUSH2 0x100 EXP SWAP1 DIV PUSH20 0xFFFFFFFFFFFFFFFFFFFFFFFFFFFFFFFFFFFFFFFF AND PUSH20 0xFFFFFFFFFFFFFFFFFFFFFFFFFFFFFFFFFFFFFFFF AND PUSH4 0xA9059CBB DUP5 DUP5 PUSH1 0x40 MLOAD DUP4 PUSH4 0xFFFFFFFF AND PUSH1 0xE0 SHL DUP2 MSTORE PUSH1 0x4 ADD PUSH2 0x3EB SWAP3 SWAP2 SWAP1 PUSH2 0xC76 JUMP JUMPDEST PUSH1 0x20 PUSH1 0x40 MLOAD DUP1 DUP4 SUB DUP2 PUSH1 0x0 DUP8 GAS CALL ISZERO DUP1 ISZERO PUSH2 0x40A JUMPI RETURNDATASIZE PUSH1 0x0 DUP1 RETURNDATACOPY RETURNDATASIZE PUSH1 0x0 REVERT JUMPDEST POP POP POP POP PUSH1 0x40 MLOAD RETURNDATASIZE PUSH1 0x1F NOT PUSH1 0x1F DUP3 ADD AND DUP3 ADD DUP1 PUSH1 0x40 MSTORE POP DUP2 ADD SWAP1 PUSH2 0x42E SWAP2 SWAP1 PUSH2 0xCCB JUMP JUMPDEST ISZERO PUSH2 0x43F JUMPI PUSH1 0x1 SWAP4 POP POP POP POP PUSH2 0x453 JUMP JUMPDEST PUSH1 0x0 SWAP4 POP POP POP POP PUSH2 0x453 JUMP JUMPDEST PUSH1 0x0 SWAP4 POP POP POP POP JUMPDEST SWAP4 SWAP3 POP POP POP JUMP JUMPDEST PUSH1 0x0 DUP1 PUSH1 0x0 SWAP1 SLOAD SWAP1 PUSH2 0x100 EXP SWAP1 DIV PUSH20 0xFFFFFFFFFFFFFFFFFFFFFFFFFFFFFFFFFFFFFFFF AND PUSH20 0xFFFFFFFFFFFFFFFFFFFFFFFFFFFFFFFFFFFFFFFF AND PUSH4 0x95EA7B3 DUP6 DUP5 PUSH1 0x40 MLOAD DUP4 PUSH4 0xFFFFFFFF AND PUSH1 0xE0 SHL DUP2 MSTORE PUSH1 0x4 ADD PUSH2 0x4B8 SWAP3 SWAP2 SWAP1 PUSH2 0xC76 JUMP JUMPDEST PUSH1 0x20 PUSH1 0x40 MLOAD DUP1 DUP4 SUB DUP2 PUSH1 0x0 DUP8 GAS CALL ISZERO DUP1 ISZERO PUSH2 0x4D7 JUMPI RETURNDATASIZE PUSH1 0x0 DUP1 RETURNDATACOPY RETURNDATASIZE PUSH1 0x0 REVERT JUMPDEST POP POP POP POP PUSH1 0x40 MLOAD RETURNDATASIZE PUSH1 0x1F NOT PUSH1 0x1F DUP3 ADD AND DUP3 ADD DUP1 PUSH1 0x40 MSTORE POP DUP2 ADD SWAP1 PUSH2 0x4FB SWAP2 SWAP1 PUSH2 0xCCB JUMP JUMPDEST POP PUSH1 0x0 DUP1 SLOAD SWAP1 PUSH2 0x100 EXP SWAP1 DIV PUSH20 0xFFFFFFFFFFFFFFFFFFFFFFFFFFFFFFFFFFFFFFFF AND PUSH20 0xFFFFFFFFFFFFFFFFFFFFFFFFFFFFFFFFFFFFFFFF AND PUSH4 0x23B872DD DUP6 DUP6 DUP6 PUSH1 0x40 MLOAD DUP5 PUSH4 0xFFFFFFFF AND PUSH1 0xE0 SHL DUP2 MSTORE PUSH1 0x4 ADD PUSH2 0x559 SWAP4 SWAP3 SWAP2 SWAP1 PUSH2 0xE15 JUMP JUMPDEST PUSH1 0x20 PUSH1 0x40 MLOAD DUP1 DUP4 SUB DUP2 PUSH1 0x0 DUP8 GAS CALL ISZERO DUP1 ISZERO PUSH2 0x578 JUMPI RETURNDATASIZE PUSH1 0x0 DUP1 RETURNDATACOPY RETURNDATASIZE PUSH1 0x0 REVERT JUMPDEST POP POP POP POP PUSH1 0x40 MLOAD RETURNDATASIZE PUSH1 0x1F NOT PUSH1 0x1F DUP3 ADD AND DUP3 ADD DUP1 PUSH1 0x40 MSTORE POP DUP2 ADD SWAP1 PUSH2 0x59C SWAP2 SWAP1 PUSH2 0xCCB JUMP JUMPDEST SWAP1 POP SWAP4 SWAP3 POP POP POP JUMP JUMPDEST PUSH1 0x0 DUP1 PUSH1 0x0 SWAP1 SLOAD SWAP1 PUSH2 0x100 EXP SWAP1 DIV PUSH20 0xFFFFFFFFFFFFFFFFFFFFFFFFFFFFFFFFFFFFFFFF AND PUSH20 0xFFFFFFFFFFFFFFFFFFFFFFFFFFFFFFFFFFFFFFFF AND PUSH4 0x70A08231 DUP4 PUSH1 0x40 MLOAD DUP3 PUSH4 0xFFFFFFFF AND PUSH1 0xE0 SHL DUP2 MSTORE PUSH1 0x4 ADD PUSH2 0x601 SWAP2 SWAP1 PUSH2 0xE4C JUMP JUMPDEST PUSH1 0x20 PUSH1 0x40 MLOAD DUP1 DUP4 SUB DUP2 DUP7 GAS STATICCALL ISZERO DUP1 ISZERO PUSH2 0x61E JUMPI RETURNDATASIZE PUSH1 0x0 DUP1 RETURNDATACOPY RETURNDATASIZE PUSH1 0x0 REVERT JUMPDEST POP POP POP POP PUSH1 0x40 MLOAD RETURNDATASIZE PUSH1 0x1F NOT PUSH1 0x1F DUP3 ADD AND DUP3 ADD DUP1 PUSH1 0x40 MSTORE POP DUP2 ADD SWAP1 PUSH2 0x642 SWAP2 SWAP1 PUSH2 0xE7C JUMP JUMPDEST SWAP1 POP SWAP2 SWAP1 POP JUMP JUMPDEST PUSH1 0x0 DUP1 PUSH1 0x0 SWAP1 SLOAD SWAP1 PUSH2 0x100 EXP SWAP1 DIV PUSH20 0xFFFFFFFFFFFFFFFFFFFFFFFFFFFFFFFFFFFFFFFF AND PUSH20 0xFFFFFFFFFFFFFFFFFFFFFFFFFFFFFFFFFFFFFFFF AND PUSH4 0x70A08231 CALLER PUSH1 0x40 MLOAD DUP3 PUSH4 0xFFFFFFFF AND PUSH1 0xE0 SHL DUP2 MSTORE PUSH1 0x4 ADD PUSH2 0x6A5 SWAP2 SWAP1 PUSH2 0xE4C JUMP JUMPDEST PUSH1 0x20 PUSH1 0x40 MLOAD DUP1 DUP4 SUB DUP2 DUP7 GAS STATICCALL ISZERO DUP1 ISZERO PUSH2 0x6C2 JUMPI RETURNDATASIZE PUSH1 0x0 DUP1 RETURNDATACOPY RETURNDATASIZE PUSH1 0x0 REVERT JUMPDEST POP POP POP POP PUSH1 0x40 MLOAD RETURNDATASIZE PUSH1 0x1F NOT PUSH1 0x1F DUP3 ADD AND DUP3 ADD DUP1 PUSH1 0x40 MSTORE POP DUP2 ADD SWAP1 PUSH2 0x6E6 SWAP2 SWAP1 PUSH2 0xE7C JUMP JUMPDEST SWAP1 POP SWAP1 JUMP JUMPDEST PUSH1 0x0 CALLER SWAP1 POP PUSH1 0x0 DUP1 SLOAD SWAP1 PUSH2 0x100 EXP SWAP1 DIV PUSH20 0xFFFFFFFFFFFFFFFFFFFFFFFFFFFFFFFFFFFFFFFF AND PUSH20 0xFFFFFFFFFFFFFFFFFFFFFFFFFFFFFFFFFFFFFFFF AND PUSH4 0x23B872DD ADDRESS DUP4 PUSH1 0x1 PUSH1 0x40 MLOAD DUP5 PUSH4 0xFFFFFFFF AND PUSH1 0xE0 SHL DUP2 MSTORE PUSH1 0x4 ADD PUSH2 0x74E SWAP4 SWAP3 SWAP2 SWAP1 PUSH2 0xEEE JUMP JUMPDEST PUSH1 0x20 PUSH1 0x40 MLOAD DUP1 DUP4 SUB DUP2 PUSH1 0x0 DUP8 GAS CALL ISZERO DUP1 ISZERO PUSH2 0x76D JUMPI RETURNDATASIZE PUSH1 0x0 DUP1 RETURNDATACOPY RETURNDATASIZE PUSH1 0x0 REVERT JUMPDEST POP POP POP POP PUSH1 0x40 MLOAD RETURNDATASIZE PUSH1 0x1F NOT PUSH1 0x1F DUP3 ADD AND DUP3 ADD DUP1 PUSH1 0x40 MSTORE POP DUP2 ADD SWAP1 PUSH2 0x791 SWAP2 SWAP1 PUSH2 0xCCB JUMP JUMPDEST POP POP JUMP JUMPDEST PUSH1 0x0 DUP1 PUSH1 0x0 SWAP1 SLOAD SWAP1 PUSH2 0x100 EXP SWAP1 DIV PUSH20 0xFFFFFFFFFFFFFFFFFFFFFFFFFFFFFFFFFFFFFFFF AND PUSH20 0xFFFFFFFFFFFFFFFFFFFFFFFFFFFFFFFFFFFFFFFF AND PUSH4 0x95EA7B3 CALLER DUP5 PUSH1 0x40 MLOAD DUP4 PUSH4 0xFFFFFFFF AND PUSH1 0xE0 SHL DUP2 MSTORE PUSH1 0x4 ADD PUSH2 0x7F3 SWAP3 SWAP2 SWAP1 PUSH2 0xC76 JUMP JUMPDEST PUSH1 0x20 PUSH1 0x40 MLOAD DUP1 DUP4 SUB DUP2 PUSH1 0x0 DUP8 GAS CALL ISZERO DUP1 ISZERO PUSH2 0x812 JUMPI RETURNDATASIZE PUSH1 0x0 DUP1 RETURNDATACOPY RETURNDATASIZE PUSH1 0x0 REVERT JUMPDEST POP POP POP POP PUSH1 0x40 MLOAD RETURNDATASIZE PUSH1 0x1F NOT PUSH1 0x1F DUP3 ADD AND DUP3 ADD DUP1 PUSH1 0x40 MSTORE POP DUP2 ADD SWAP1 PUSH2 0x836 SWAP2 SWAP1 PUSH2 0xCCB JUMP JUMPDEST POP PUSH1 0x0 DUP1 SLOAD SWAP1 PUSH2 0x100 EXP SWAP1 DIV PUSH20 0xFFFFFFFFFFFFFFFFFFFFFFFFFFFFFFFFFFFFFFFF AND PUSH20 0xFFFFFFFFFFFFFFFFFFFFFFFFFFFFFFFFFFFFFFFF AND PUSH4 0xA9059CBB DUP5 DUP5 PUSH1 0x40 MLOAD DUP4 PUSH4 0xFFFFFFFF AND PUSH1 0xE0 SHL DUP2 MSTORE PUSH1 0x4 ADD PUSH2 0x892 SWAP3 SWAP2 SWAP1 PUSH2 0xC76 JUMP JUMPDEST PUSH1 0x20 PUSH1 0x40 MLOAD DUP1 DUP4 SUB DUP2 PUSH1 0x0 DUP8 GAS CALL ISZERO DUP1 ISZERO PUSH2 0x8B1 JUMPI RETURNDATASIZE PUSH1 0x0 DUP1 RETURNDATACOPY RETURNDATASIZE PUSH1 0x0 REVERT JUMPDEST POP POP POP POP PUSH1 0x40 MLOAD RETURNDATASIZE PUSH1 0x1F NOT PUSH1 0x1F DUP3 ADD AND DUP3 ADD DUP1 PUSH1 0x40 MSTORE POP DUP2 ADD SWAP1 PUSH2 0x8D5 SWAP2 SWAP1 PUSH2 0xCCB JUMP JUMPDEST SWAP1 POP SWAP3 SWAP2 POP POP JUMP JUMPDEST PUSH1 0x0 DUP1 PUSH1 0x0 SWAP1 SLOAD SWAP1 PUSH2 0x100 EXP SWAP1 DIV PUSH20 0xFFFFFFFFFFFFFFFFFFFFFFFFFFFFFFFFFFFFFFFF AND PUSH20 0xFFFFFFFFFFFFFFFFFFFFFFFFFFFFFFFFFFFFFFFF AND PUSH4 0x18160DDD PUSH1 0x40 MLOAD DUP2 PUSH4 0xFFFFFFFF AND PUSH1 0xE0 SHL DUP2 MSTORE PUSH1 0x4 ADD PUSH1 0x20 PUSH1 0x40 MLOAD DUP1 DUP4 SUB DUP2 DUP7 GAS STATICCALL ISZERO DUP1 ISZERO PUSH2 0x94B JUMPI RETURNDATASIZE PUSH1 0x0 DUP1 RETURNDATACOPY RETURNDATASIZE PUSH1 0x0 REVERT JUMPDEST POP POP POP POP PUSH1 0x40 MLOAD RETURNDATASIZE PUSH1 0x1F NOT PUSH1 0x1F DUP3 ADD AND DUP3 ADD DUP1 PUSH1 0x40 MSTORE POP DUP2 ADD SWAP1 PUSH2 0x96F SWAP2 SWAP1 PUSH2 0xE7C JUMP JUMPDEST SWAP1 POP SWAP1 JUMP JUMPDEST PUSH1 0x0 DUP1 PUSH1 0x0 SWAP1 SLOAD SWAP1 PUSH2 0x100 EXP SWAP1 DIV PUSH20 0xFFFFFFFFFFFFFFFFFFFFFFFFFFFFFFFFFFFFFFFF AND PUSH20 0xFFFFFFFFFFFFFFFFFFFFFFFFFFFFFFFFFFFFFFFF AND PUSH4 0xDD62ED3E DUP5 DUP5 PUSH1 0x40 MLOAD DUP4 PUSH4 0xFFFFFFFF AND PUSH1 0xE0 SHL DUP2 MSTORE PUSH1 0x4 ADD PUSH2 0x9D2 SWAP3 SWAP2 SWAP1 PUSH2 0xF25 JUMP JUMPDEST PUSH1 0x20 PUSH1 0x40 MLOAD DUP1 DUP4 SUB DUP2 DUP7 GAS STATICCALL ISZERO DUP1 ISZERO PUSH2 0x9EF JUMPI RETURNDATASIZE PUSH1 0x0 DUP1 RETURNDATACOPY RETURNDATASIZE PUSH1 0x0 REVERT JUMPDEST POP POP POP POP PUSH1 0x40 MLOAD RETURNDATASIZE PUSH1 0x1F NOT PUSH1 0x1F DUP3 ADD AND DUP3 ADD DUP1 PUSH1 0x40 MSTORE POP DUP2 ADD SWAP1 PUSH2 0xA13 SWAP2 SWAP1 PUSH2 0xE7C JUMP JUMPDEST SWAP1 POP SWAP3 SWAP2 POP POP JUMP JUMPDEST PUSH1 0x0 DUP1 REVERT JUMPDEST PUSH1 0x0 PUSH20 0xFFFFFFFFFFFFFFFFFFFFFFFFFFFFFFFFFFFFFFFF DUP3 AND SWAP1 POP SWAP2 SWAP1 POP JUMP JUMPDEST PUSH1 0x0 PUSH2 0xA4B DUP3 PUSH2 0xA20 JUMP JUMPDEST SWAP1 POP SWAP2 SWAP1 POP JUMP JUMPDEST PUSH2 0xA5B DUP2 PUSH2 0xA40 JUMP JUMPDEST DUP2 EQ PUSH2 0xA66 JUMPI PUSH1 0x0 DUP1 REVERT JUMPDEST POP JUMP JUMPDEST PUSH1 0x0 DUP2 CALLDATALOAD SWAP1 POP PUSH2 0xA78 DUP2 PUSH2 0xA52 JUMP JUMPDEST SWAP3 SWAP2 POP POP JUMP JUMPDEST PUSH1 0x0 DUP2 SWAP1 POP SWAP2 SWAP1 POP JUMP JUMPDEST PUSH2 0xA91 DUP2 PUSH2 0xA7E JUMP JUMPDEST DUP2 EQ PUSH2 0xA9C JUMPI PUSH1 0x0 DUP1 REVERT JUMPDEST POP JUMP JUMPDEST PUSH1 0x0 DUP2 CALLDATALOAD SWAP1 POP PUSH2 0xAAE DUP2 PUSH2 0xA88 JUMP JUMPDEST SWAP3 SWAP2 POP POP JUMP JUMPDEST PUSH1 0x0 DUP1 PUSH1 0x40 DUP4 DUP6 SUB SLT ISZERO PUSH2 0xACB JUMPI PUSH2 0xACA PUSH2 0xA1B JUMP JUMPDEST JUMPDEST PUSH1 0x0 PUSH2 0xAD9 DUP6 DUP3 DUP7 ADD PUSH2 0xA69 JUMP JUMPDEST SWAP3 POP POP PUSH1 0x20 PUSH2 0xAEA DUP6 DUP3 DUP7 ADD PUSH2 0xA9F JUMP JUMPDEST SWAP2 POP POP SWAP3 POP SWAP3 SWAP1 POP JUMP JUMPDEST PUSH1 0x0 DUP2 ISZERO ISZERO SWAP1 POP SWAP2 SWAP1 POP JUMP JUMPDEST PUSH2 0xB09 DUP2 PUSH2 0xAF4 JUMP JUMPDEST DUP3 MSTORE POP POP JUMP JUMPDEST PUSH1 0x0 PUSH1 0x20 DUP3 ADD SWAP1 POP PUSH2 0xB24 PUSH1 0x0 DUP4 ADD DUP5 PUSH2 0xB00 JUMP JUMPDEST SWAP3 SWAP2 POP POP JUMP JUMPDEST PUSH1 0x0 DUP1 PUSH1 0x0 PUSH1 0x60 DUP5 DUP7 SUB SLT ISZERO PUSH2 0xB43 JUMPI PUSH2 0xB42 PUSH2 0xA1B JUMP JUMPDEST JUMPDEST PUSH1 0x0 PUSH2 0xB51 DUP7 DUP3 DUP8 ADD PUSH2 0xA69 JUMP JUMPDEST SWAP4 POP POP PUSH1 0x20 PUSH2 0xB62 DUP7 DUP3 DUP8 ADD PUSH2 0xA9F JUMP JUMPDEST SWAP3 POP POP PUSH1 0x40 PUSH2 0xB73 DUP7 DUP3 DUP8 ADD PUSH2 0xA9F JUMP JUMPDEST SWAP2 POP POP SWAP3 POP SWAP3 POP SWAP3 JUMP JUMPDEST PUSH1 0x0 DUP1 PUSH1 0x0 PUSH1 0x60 DUP5 DUP7 SUB SLT ISZERO PUSH2 0xB96 JUMPI PUSH2 0xB95 PUSH2 0xA1B JUMP JUMPDEST JUMPDEST PUSH1 0x0 PUSH2 0xBA4 DUP7 DUP3 DUP8 ADD PUSH2 0xA69 JUMP JUMPDEST SWAP4 POP POP PUSH1 0x20 PUSH2 0xBB5 DUP7 DUP3 DUP8 ADD PUSH2 0xA69 JUMP JUMPDEST SWAP3 POP POP PUSH1 0x40 PUSH2 0xBC6 DUP7 DUP3 DUP8 ADD PUSH2 0xA9F JUMP JUMPDEST SWAP2 POP POP SWAP3 POP SWAP3 POP SWAP3 JUMP JUMPDEST PUSH1 0x0 PUSH1 0x20 DUP3 DUP5 SUB SLT ISZERO PUSH2 0xBE6 JUMPI PUSH2 0xBE5 PUSH2 0xA1B JUMP JUMPDEST JUMPDEST PUSH1 0x0 PUSH2 0xBF4 DUP5 DUP3 DUP6 ADD PUSH2 0xA69 JUMP JUMPDEST SWAP2 POP POP SWAP3 SWAP2 POP POP JUMP JUMPDEST PUSH2 0xC06 DUP2 PUSH2 0xA7E JUMP JUMPDEST DUP3 MSTORE POP POP JUMP JUMPDEST PUSH1 0x0 PUSH1 0x20 DUP3 ADD SWAP1 POP PUSH2 0xC21 PUSH1 0x0 DUP4 ADD DUP5 PUSH2 0xBFD JUMP JUMPDEST SWAP3 SWAP2 POP POP JUMP JUMPDEST PUSH1 0x0 DUP1 PUSH1 0x40 DUP4 DUP6 SUB SLT ISZERO PUSH2 0xC3E JUMPI PUSH2 0xC3D PUSH2 0xA1B JUMP JUMPDEST JUMPDEST PUSH1 0x0 PUSH2 0xC4C DUP6 DUP3 DUP7 ADD PUSH2 0xA69 JUMP JUMPDEST SWAP3 POP POP PUSH1 0x20 PUSH2 0xC5D DUP6 DUP3 DUP7 ADD PUSH2 0xA69 JUMP JUMPDEST SWAP2 POP POP SWAP3 POP SWAP3 SWAP1 POP JUMP JUMPDEST PUSH2 0xC70 DUP2 PUSH2 0xA40 JUMP JUMPDEST DUP3 MSTORE POP POP JUMP JUMPDEST PUSH1 0x0 PUSH1 0x40 DUP3 ADD SWAP1 POP PUSH2 0xC8B PUSH1 0x0 DUP4 ADD DUP6 PUSH2 0xC67 JUMP JUMPDEST PUSH2 0xC98 PUSH1 0x20 DUP4 ADD DUP5 PUSH2 0xBFD JUMP JUMPDEST SWAP4 SWAP3 POP POP POP JUMP JUMPDEST PUSH2 0xCA8 DUP2 PUSH2 0xAF4 JUMP JUMPDEST DUP2 EQ PUSH2 0xCB3 JUMPI PUSH1 0x0 DUP1 REVERT JUMPDEST POP JUMP JUMPDEST PUSH1 0x0 DUP2 MLOAD SWAP1 POP PUSH2 0xCC5 DUP2 PUSH2 0xC9F JUMP JUMPDEST SWAP3 SWAP2 POP POP JUMP JUMPDEST PUSH1 0x0 PUSH1 0x20 DUP3 DUP5 SUB SLT ISZERO PUSH2 0xCE1 JUMPI PUSH2 0xCE0 PUSH2 0xA1B JUMP JUMPDEST JUMPDEST PUSH1 0x0 PUSH2 0xCEF DUP5 DUP3 DUP6 ADD PUSH2 0xCB6 JUMP JUMPDEST SWAP2 POP POP SWAP3 SWAP2 POP POP JUMP JUMPDEST PUSH32 0x4E487B7100000000000000000000000000000000000000000000000000000000 PUSH1 0x0 MSTORE PUSH1 0x11 PUSH1 0x4 MSTORE PUSH1 0x24 PUSH1 0x0 REVERT JUMPDEST PUSH1 0x0 PUSH2 0xD32 DUP3 PUSH2 0xA7E JUMP JUMPDEST SWAP2 POP PUSH2 0xD3D DUP4 PUSH2 0xA7E JUMP JUMPDEST SWAP3 POP DUP2 PUSH32 0xFFFFFFFFFFFFFFFFFFFFFFFFFFFFFFFFFFFFFFFFFFFFFFFFFFFFFFFFFFFFFFFF DIV DUP4 GT DUP3 ISZERO ISZERO AND ISZERO PUSH2 0xD76 JUMPI PUSH2 0xD75 PUSH2 0xCF8 JUMP JUMPDEST JUMPDEST DUP3 DUP3 MUL SWAP1 POP SWAP3 SWAP2 POP POP JUMP JUMPDEST PUSH32 0x4E487B7100000000000000000000000000000000000000000000000000000000 PUSH1 0x0 MSTORE PUSH1 0x12 PUSH1 0x4 MSTORE PUSH1 0x24 PUSH1 0x0 REVERT JUMPDEST PUSH1 0x0 PUSH2 0xDBB DUP3 PUSH2 0xA7E JUMP JUMPDEST SWAP2 POP PUSH2 0xDC6 DUP4 PUSH2 0xA7E JUMP JUMPDEST SWAP3 POP DUP3 PUSH2 0xDD6 JUMPI PUSH2 0xDD5 PUSH2 0xD81 JUMP JUMPDEST JUMPDEST DUP3 DUP3 DIV SWAP1 POP SWAP3 SWAP2 POP POP JUMP JUMPDEST PUSH1 0x0 PUSH2 0xDEC DUP3 PUSH2 0xA7E JUMP JUMPDEST SWAP2 POP PUSH2 0xDF7 DUP4 PUSH2 0xA7E JUMP JUMPDEST SWAP3 POP DUP3 DUP3 LT ISZERO PUSH2 0xE0A JUMPI PUSH2 0xE09 PUSH2 0xCF8 JUMP JUMPDEST JUMPDEST DUP3 DUP3 SUB SWAP1 POP SWAP3 SWAP2 POP POP JUMP JUMPDEST PUSH1 0x0 PUSH1 0x60 DUP3 ADD SWAP1 POP PUSH2 0xE2A PUSH1 0x0 DUP4 ADD DUP7 PUSH2 0xC67 JUMP JUMPDEST PUSH2 0xE37 PUSH1 0x20 DUP4 ADD DUP6 PUSH2 0xC67 JUMP JUMPDEST PUSH2 0xE44 PUSH1 0x40 DUP4 ADD DUP5 PUSH2 0xBFD JUMP JUMPDEST SWAP5 SWAP4 POP POP POP POP JUMP JUMPDEST PUSH1 0x0 PUSH1 0x20 DUP3 ADD SWAP1 POP PUSH2 0xE61 PUSH1 0x0 DUP4 ADD DUP5 PUSH2 0xC67 JUMP JUMPDEST SWAP3 SWAP2 POP POP JUMP JUMPDEST PUSH1 0x0 DUP2 MLOAD SWAP1 POP PUSH2 0xE76 DUP2 PUSH2 0xA88 JUMP JUMPDEST SWAP3 SWAP2 POP POP JUMP JUMPDEST PUSH1 0x0 PUSH1 0x20 DUP3 DUP5 SUB SLT ISZERO PUSH2 0xE92 JUMPI PUSH2 0xE91 PUSH2 0xA1B JUMP JUMPDEST JUMPDEST PUSH1 0x0 PUSH2 0xEA0 DUP5 DUP3 DUP6 ADD PUSH2 0xE67 JUMP JUMPDEST SWAP2 POP POP SWAP3 SWAP2 POP POP JUMP JUMPDEST PUSH1 0x0 DUP2 SWAP1 POP SWAP2 SWAP1 POP JUMP JUMPDEST PUSH1 0x0 DUP2 SWAP1 POP SWAP2 SWAP1 POP JUMP JUMPDEST PUSH1 0x0 PUSH2 0xED8 PUSH2 0xED3 PUSH2 0xECE DUP5 PUSH2 0xEA9 JUMP JUMPDEST PUSH2 0xEB3 JUMP JUMPDEST PUSH2 0xA7E JUMP JUMPDEST SWAP1 POP SWAP2 SWAP1 POP JUMP JUMPDEST PUSH2 0xEE8 DUP2 PUSH2 0xEBD JUMP JUMPDEST DUP3 MSTORE POP POP JUMP JUMPDEST PUSH1 0x0 PUSH1 0x60 DUP3 ADD SWAP1 POP PUSH2 0xF03 PUSH1 0x0 DUP4 ADD DUP7 PUSH2 0xC67 JUMP JUMPDEST PUSH2 0xF10 PUSH1 0x20 DUP4 ADD DUP6 PUSH2 0xC67 JUMP JUMPDEST PUSH2 0xF1D PUSH1 0x40 DUP4 ADD DUP5 PUSH2 0xEDF JUMP JUMPDEST SWAP5 SWAP4 POP POP POP POP JUMP JUMPDEST PUSH1 0x0 PUSH1 0x40 DUP3 ADD SWAP1 POP PUSH2 0xF3A PUSH1 0x0 DUP4 ADD DUP6 PUSH2 0xC67 JUMP JUMPDEST PUSH2 0xF47 PUSH1 0x20 DUP4 ADD DUP5 PUSH2 0xC67 JUMP JUMPDEST SWAP4 SWAP3 POP POP POP JUMP INVALID LOG2 PUSH5 0x6970667358 0x22 SLT KECCAK256 SWAP3 0xC0 PUSH31 0x588667E881A934B7AB814E5DDA886C101051B764D102ECB7EE2DC3A16D6473 PUSH16 0x6C634300080E00330000000000000000 "
				},
				"gasEstimates": {
					"creation": {
						"codeDepositCost": "794400",
						"executionCost": "infinite",
						"totalCost": "infinite"
					},
					"external": {
						"allowance(address,address)": "infinite",
						"approve(address,uint256)": "infinite",
						"balanceOf(address)": "infinite",
						"doStuff()": "infinite",
						"self()": "infinite",
						"totalSupply_v1()": "infinite",
						"transfer(address,uint256)": "infinite",
						"transferFee(address,uint256,uint256)": "infinite",
						"transferFrom(address,address,uint256)": "infinite"
					}
				},
				"methodIdentifiers": {
					"allowance(address,address)": "dd62ed3e",
					"approve(address,uint256)": "095ea7b3",
					"balanceOf(address)": "70a08231",
					"doStuff()": "874f33a1",
					"self()": "7104ddb2",
					"totalSupply_v1()": "c007f2d1",
					"transfer(address,uint256)": "a9059cbb",
					"transferFee(address,uint256,uint256)": "22f7335a",
					"transferFrom(address,address,uint256)": "23b872dd"
				}
			},
			"storageLayout": {
				"storage": [
					{
						"astId": 79,
						"contract": "default_workspace/test/sp.sol:sp",
						"label": "SP",
						"offset": 0,
						"slot": "0",
						"type": "t_contract(IERC20)76"
					}
				],
				"types": {
					"t_contract(IERC20)76": {
						"encoding": "inplace",
						"label": "contract IERC20",
						"numberOfBytes": "20"
					}
				}
			},
			"userdoc": {
				"kind": "user",
				"methods": {},
				"version": 1
			}
		}
	}
}