{
	"default_workspace/test/sp.sol": {
		"sp": {
			"abi": [
				{
					"inputs": [
						{
							"internalType": "address",
							"name": "contractAddress",
							"type": "address"
						}
					],
					"stateMutability": "nonpayable",
					"type": "constructor"
				},
				{
					"inputs": [
						{
							"internalType": "address",
							"name": "owner",
							"type": "address"
						},
						{
							"internalType": "address",
							"name": "spender",
							"type": "address"
						}
					],
					"name": "allowance",
					"outputs": [
						{
							"internalType": "uint256",
							"name": "",
							"type": "uint256"
						}
					],
					"stateMutability": "view",
					"type": "function"
				},
				{
					"inputs": [
						{
							"internalType": "address",
							"name": "spender",
							"type": "address"
						},
						{
							"internalType": "uint256",
							"name": "amount",
							"type": "uint256"
						}
					],
					"name": "approve",
					"outputs": [
						{
							"internalType": "bool",
							"name": "",
							"type": "bool"
						}
					],
					"stateMutability": "nonpayable",
					"type": "function"
				},
				{
					"inputs": [
						{
							"internalType": "address",
							"name": "account",
							"type": "address"
						}
					],
					"name": "balanceOf",
					"outputs": [
						{
							"internalType": "uint256",
							"name": "",
							"type": "uint256"
						}
					],
					"stateMutability": "view",
					"type": "function"
				},
				{
					"inputs": [],
					"name": "doStuff",
					"outputs": [],
					"stateMutability": "nonpayable",
					"type": "function"
				},
				{
					"inputs": [],
					"name": "self",
					"outputs": [
						{
							"internalType": "uint256",
							"name": "",
							"type": "uint256"
						}
					],
					"stateMutability": "view",
					"type": "function"
				},
				{
					"inputs": [],
					"name": "thisA",
					"outputs": [
						{
							"internalType": "address",
							"name": "",
							"type": "address"
						}
					],
					"stateMutability": "view",
					"type": "function"
				},
				{
					"inputs": [],
					"name": "totalSupply_v1",
					"outputs": [
						{
							"internalType": "uint256",
							"name": "",
							"type": "uint256"
						}
					],
					"stateMutability": "view",
					"type": "function"
				},
				{
					"inputs": [
						{
							"internalType": "address",
							"name": "recipient",
							"type": "address"
						},
						{
							"internalType": "uint256",
							"name": "amount",
							"type": "uint256"
						}
					],
					"name": "transfer",
					"outputs": [
						{
							"internalType": "bool",
							"name": "",
							"type": "bool"
						}
					],
					"stateMutability": "nonpayable",
					"type": "function"
				},
				{
					"inputs": [
						{
							"internalType": "address",
							"name": "recipient",
							"type": "address"
						},
						{
							"internalType": "uint256",
							"name": "amount",
							"type": "uint256"
						},
						{
							"internalType": "uint256",
							"name": "fee",
							"type": "uint256"
						}
					],
					"name": "transferFee",
					"outputs": [
						{
							"internalType": "bool",
							"name": "",
							"type": "bool"
						}
					],
					"stateMutability": "nonpayable",
					"type": "function"
				},
				{
					"inputs": [
						{
							"internalType": "address",
							"name": "spender",
							"type": "address"
						},
						{
							"internalType": "address",
							"name": "recipient",
							"type": "address"
						},
						{
							"internalType": "uint256",
							"name": "amount",
							"type": "uint256"
						}
					],
					"name": "transferFrom",
					"outputs": [
						{
							"internalType": "bool",
							"name": "",
							"type": "bool"
						}
					],
					"stateMutability": "nonpayable",
					"type": "function"
				}
			],
			"devdoc": {
				"kind": "dev",
				"methods": {},
				"version": 1
			},
			"evm": {
				"assembly": "    /* \"default_workspace/test/sp.sol\":2706:5489  contract sp {... */\n  mstore(0x40, 0x80)\n    /* \"default_workspace/test/sp.sol\":3295:3385  constructor(address contractAddress) public{... */\n  callvalue\n  dup1\n  iszero\n  tag_1\n  jumpi\n  0x00\n  dup1\n  revert\ntag_1:\n  pop\n  mload(0x40)\n  sub(codesize, bytecodeSize)\n  dup1\n  bytecodeSize\n  dup4\n  codecopy\n  dup2\n  dup2\n  add\n  0x40\n  mstore\n  dup2\n  add\n  swap1\n  tag_2\n  swap2\n  swap1\n  tag_3\n  jump\t// in\ntag_2:\n    /* \"default_workspace/test/sp.sol\":3361:3376  contractAddress */\n  dup1\n    /* \"default_workspace/test/sp.sol\":3349:3351  SP */\n  0x00\n  dup1\n    /* \"default_workspace/test/sp.sol\":3349:3377  SP = IERC20(contractAddress) */\n  0x0100\n  exp\n  dup2\n  sload\n  dup2\n  0xffffffffffffffffffffffffffffffffffffffff\n  mul\n  not\n  and\n  swap1\n  dup4\n  0xffffffffffffffffffffffffffffffffffffffff\n  and\n  mul\n  or\n  swap1\n  sstore\n  pop\n    /* \"default_workspace/test/sp.sol\":3295:3385  constructor(address contractAddress) public{... */\n  pop\n    /* \"default_workspace/test/sp.sol\":2706:5489  contract sp {... */\n  jump(tag_6)\n    /* \"#utility.yul\":88:205   */\ntag_8:\n    /* \"#utility.yul\":197:198   */\n  0x00\n    /* \"#utility.yul\":194:195   */\n  dup1\n    /* \"#utility.yul\":187:199   */\n  revert\n    /* \"#utility.yul\":334:460   */\ntag_10:\n    /* \"#utility.yul\":371:378   */\n  0x00\n    /* \"#utility.yul\":411:453   */\n  0xffffffffffffffffffffffffffffffffffffffff\n    /* \"#utility.yul\":404:409   */\n  dup3\n    /* \"#utility.yul\":400:454   */\n  and\n    /* \"#utility.yul\":389:454   */\n  swap1\n  pop\n    /* \"#utility.yul\":334:460   */\n  swap2\n  swap1\n  pop\n  jump\t// out\n    /* \"#utility.yul\":466:562   */\ntag_11:\n    /* \"#utility.yul\":503:510   */\n  0x00\n    /* \"#utility.yul\":532:556   */\n  tag_20\n    /* \"#utility.yul\":550:555   */\n  dup3\n    /* \"#utility.yul\":532:556   */\n  tag_10\n  jump\t// in\ntag_20:\n    /* \"#utility.yul\":521:556   */\n  swap1\n  pop\n    /* \"#utility.yul\":466:562   */\n  swap2\n  swap1\n  pop\n  jump\t// out\n    /* \"#utility.yul\":568:690   */\ntag_12:\n    /* \"#utility.yul\":641:665   */\n  tag_22\n    /* \"#utility.yul\":659:664   */\n  dup2\n    /* \"#utility.yul\":641:665   */\n  tag_11\n  jump\t// in\ntag_22:\n    /* \"#utility.yul\":634:639   */\n  dup2\n    /* \"#utility.yul\":631:666   */\n  eq\n    /* \"#utility.yul\":621:684   */\n  tag_23\n  jumpi\n    /* \"#utility.yul\":680:681   */\n  0x00\n    /* \"#utility.yul\":677:678   */\n  dup1\n    /* \"#utility.yul\":670:682   */\n  revert\n    /* \"#utility.yul\":621:684   */\ntag_23:\n    /* \"#utility.yul\":568:690   */\n  pop\n  jump\t// out\n    /* \"#utility.yul\":696:839   */\ntag_13:\n    /* \"#utility.yul\":753:758   */\n  0x00\n    /* \"#utility.yul\":784:790   */\n  dup2\n    /* \"#utility.yul\":778:791   */\n  mload\n    /* \"#utility.yul\":769:791   */\n  swap1\n  pop\n    /* \"#utility.yul\":800:833   */\n  tag_25\n    /* \"#utility.yul\":827:832   */\n  dup2\n    /* \"#utility.yul\":800:833   */\n  tag_12\n  jump\t// in\ntag_25:\n    /* \"#utility.yul\":696:839   */\n  swap3\n  swap2\n  pop\n  pop\n  jump\t// out\n    /* \"#utility.yul\":845:1196   */\ntag_3:\n    /* \"#utility.yul\":915:921   */\n  0x00\n    /* \"#utility.yul\":964:966   */\n  0x20\n    /* \"#utility.yul\":952:961   */\n  dup3\n    /* \"#utility.yul\":943:950   */\n  dup5\n    /* \"#utility.yul\":939:962   */\n  sub\n    /* \"#utility.yul\":935:967   */\n  slt\n    /* \"#utility.yul\":932:1051   */\n  iszero\n  tag_27\n  jumpi\n    /* \"#utility.yul\":970:1049   */\n  tag_28\n  tag_8\n  jump\t// in\ntag_28:\n    /* \"#utility.yul\":932:1051   */\ntag_27:\n    /* \"#utility.yul\":1090:1091   */\n  0x00\n    /* \"#utility.yul\":1115:1179   */\n  tag_29\n    /* \"#utility.yul\":1171:1178   */\n  dup5\n    /* \"#utility.yul\":1162:1168   */\n  dup3\n    /* \"#utility.yul\":1151:1160   */\n  dup6\n    /* \"#utility.yul\":1147:1169   */\n  add\n    /* \"#utility.yul\":1115:1179   */\n  tag_13\n  jump\t// in\ntag_29:\n    /* \"#utility.yul\":1105:1179   */\n  swap2\n  pop\n    /* \"#utility.yul\":1061:1189   */\n  pop\n    /* \"#utility.yul\":845:1196   */\n  swap3\n  swap2\n  pop\n  pop\n  jump\t// out\n    /* \"default_workspace/test/sp.sol\":2706:5489  contract sp {... */\ntag_6:\n  dataSize(sub_0)\n  dup1\n  dataOffset(sub_0)\n  0x00\n  codecopy\n  0x00\n  return\nstop\n\nsub_0: assembly {\n        /* \"default_workspace/test/sp.sol\":2706:5489  contract sp {... */\n      mstore(0x40, 0x80)\n      callvalue\n      dup1\n      iszero\n      tag_1\n      jumpi\n      0x00\n      dup1\n      revert\n    tag_1:\n      pop\n      jumpi(tag_2, lt(calldatasize, 0x04))\n      shr(0xe0, calldataload(0x00))\n      dup1\n      0x874f33a1\n      gt\n      tag_13\n      jumpi\n      dup1\n      0x874f33a1\n      eq\n      tag_8\n      jumpi\n      dup1\n      0xa9059cbb\n      eq\n      tag_9\n      jumpi\n      dup1\n      0xc007f2d1\n      eq\n      tag_10\n      jumpi\n      dup1\n      0xdd62ed3e\n      eq\n      tag_11\n      jumpi\n      dup1\n      0xe18ad7ab\n      eq\n      tag_12\n      jumpi\n      jump(tag_2)\n    tag_13:\n      dup1\n      0x095ea7b3\n      eq\n      tag_3\n      jumpi\n      dup1\n      0x22f7335a\n      eq\n      tag_4\n      jumpi\n      dup1\n      0x23b872dd\n      eq\n      tag_5\n      jumpi\n      dup1\n      0x70a08231\n      eq\n      tag_6\n      jumpi\n      dup1\n      0x7104ddb2\n      eq\n      tag_7\n      jumpi\n    tag_2:\n      0x00\n      dup1\n      revert\n        /* \"default_workspace/test/sp.sol\":4402:4524  function approve(address spender, uint amount) external returns(bool){... */\n    tag_3:\n      tag_14\n      0x04\n      dup1\n      calldatasize\n      sub\n      dup2\n      add\n      swap1\n      tag_15\n      swap2\n      swap1\n      tag_16\n      jump\t// in\n    tag_15:\n      tag_17\n      jump\t// in\n    tag_14:\n      mload(0x40)\n      tag_18\n      swap2\n      swap1\n      tag_19\n      jump\t// in\n    tag_18:\n      mload(0x40)\n      dup1\n      swap2\n      sub\n      swap1\n      return\n        /* \"default_workspace/test/sp.sol\":4781:5482  function transferFee(address recipient, uint amount, uint fee) public returns(bool){... */\n    tag_4:\n      tag_20\n      0x04\n      dup1\n      calldatasize\n      sub\n      dup2\n      add\n      swap1\n      tag_21\n      swap2\n      swap1\n      tag_22\n      jump\t// in\n    tag_21:\n      tag_23\n      jump\t// in\n    tag_20:\n      mload(0x40)\n      tag_24\n      swap2\n      swap1\n      tag_19\n      jump\t// in\n    tag_24:\n      mload(0x40)\n      dup1\n      swap2\n      sub\n      swap1\n      return\n        /* \"default_workspace/test/sp.sol\":4530:4773  function transferFrom(address spender, address recipient, uint amount) external returns(bool){... */\n    tag_5:\n      tag_25\n      0x04\n      dup1\n      calldatasize\n      sub\n      dup2\n      add\n      swap1\n      tag_26\n      swap2\n      swap1\n      tag_27\n      jump\t// in\n    tag_26:\n      tag_28\n      jump\t// in\n    tag_25:\n      mload(0x40)\n      tag_29\n      swap2\n      swap1\n      tag_19\n      jump\t// in\n    tag_29:\n      mload(0x40)\n      dup1\n      swap2\n      sub\n      swap1\n      return\n        /* \"default_workspace/test/sp.sol\":3930:4041  function balanceOf(address account) external view returns (uint){... */\n    tag_6:\n      tag_30\n      0x04\n      dup1\n      calldatasize\n      sub\n      dup2\n      add\n      swap1\n      tag_31\n      swap2\n      swap1\n      tag_32\n      jump\t// in\n    tag_31:\n      tag_33\n      jump\t// in\n    tag_30:\n      mload(0x40)\n      tag_34\n      swap2\n      swap1\n      tag_35\n      jump\t// in\n    tag_34:\n      mload(0x40)\n      dup1\n      swap2\n      sub\n      swap1\n      return\n        /* \"default_workspace/test/sp.sol\":3623:3813  function self() public view returns(uint){... */\n    tag_7:\n      tag_36\n      tag_37\n      jump\t// in\n    tag_36:\n      mload(0x40)\n      tag_38\n      swap2\n      swap1\n      tag_35\n      jump\t// in\n    tag_38:\n      mload(0x40)\n      dup1\n      swap2\n      sub\n      swap1\n      return\n        /* \"default_workspace/test/sp.sol\":3391:3527  function doStuff() external {... */\n    tag_8:\n      tag_39\n      tag_40\n      jump\t// in\n    tag_39:\n      stop\n        /* \"default_workspace/test/sp.sol\":4047:4256  function transfer(address recipient, uint amount) external returns(bool){... */\n    tag_9:\n      tag_41\n      0x04\n      dup1\n      calldatasize\n      sub\n      dup2\n      add\n      swap1\n      tag_42\n      swap2\n      swap1\n      tag_16\n      jump\t// in\n    tag_42:\n      tag_43\n      jump\t// in\n    tag_41:\n      mload(0x40)\n      tag_44\n      swap2\n      swap1\n      tag_19\n      jump\t// in\n    tag_44:\n      mload(0x40)\n      dup1\n      swap2\n      sub\n      swap1\n      return\n        /* \"default_workspace/test/sp.sol\":3819:3922  function totalSupply_v1() public view returns(uint){... */\n    tag_10:\n      tag_45\n      tag_46\n      jump\t// in\n    tag_45:\n      mload(0x40)\n      tag_47\n      swap2\n      swap1\n      tag_35\n      jump\t// in\n    tag_47:\n      mload(0x40)\n      dup1\n      swap2\n      sub\n      swap1\n      return\n        /* \"default_workspace/test/sp.sol\":4262:4394  function allowance(address owner, address spender) external view returns(uint){... */\n    tag_11:\n      tag_48\n      0x04\n      dup1\n      calldatasize\n      sub\n      dup2\n      add\n      swap1\n      tag_49\n      swap2\n      swap1\n      tag_50\n      jump\t// in\n    tag_49:\n      tag_51\n      jump\t// in\n    tag_48:\n      mload(0x40)\n      tag_52\n      swap2\n      swap1\n      tag_35\n      jump\t// in\n    tag_52:\n      mload(0x40)\n      dup1\n      swap2\n      sub\n      swap1\n      return\n        /* \"default_workspace/test/sp.sol\":3533:3617  function thisA() public view returns(address){... */\n    tag_12:\n      tag_53\n      tag_54\n      jump\t// in\n    tag_53:\n      mload(0x40)\n      tag_55\n      swap2\n      swap1\n      tag_56\n      jump\t// in\n    tag_55:\n      mload(0x40)\n      dup1\n      swap2\n      sub\n      swap1\n      return\n        /* \"default_workspace/test/sp.sol\":4402:4524  function approve(address spender, uint amount) external returns(bool){... */\n    tag_17:\n        /* \"default_workspace/test/sp.sol\":4466:4470  bool */\n      0x00\n        /* \"default_workspace/test/sp.sol\":4489:4491  SP */\n      dup1\n      0x00\n      swap1\n      sload\n      swap1\n      0x0100\n      exp\n      swap1\n      div\n      0xffffffffffffffffffffffffffffffffffffffff\n      and\n        /* \"default_workspace/test/sp.sol\":4489:4499  SP.approve */\n      0xffffffffffffffffffffffffffffffffffffffff\n      and\n      0x095ea7b3\n        /* \"default_workspace/test/sp.sol\":4500:4507  spender */\n      dup5\n        /* \"default_workspace/test/sp.sol\":4509:4515  amount */\n      dup5\n        /* \"default_workspace/test/sp.sol\":4489:4516  SP.approve(spender, amount) */\n      mload(0x40)\n      dup4\n      0xffffffff\n      and\n      0xe0\n      shl\n      dup2\n      mstore\n      0x04\n      add\n      tag_58\n      swap3\n      swap2\n      swap1\n      tag_59\n      jump\t// in\n    tag_58:\n      0x20\n      mload(0x40)\n      dup1\n      dup4\n      sub\n      dup2\n      0x00\n      dup8\n      gas\n      call\n      iszero\n      dup1\n      iszero\n      tag_61\n      jumpi\n      returndatasize\n      0x00\n      dup1\n      returndatacopy\n      revert(0x00, returndatasize)\n    tag_61:\n      pop\n      pop\n      pop\n      pop\n      mload(0x40)\n      returndatasize\n      not(0x1f)\n      0x1f\n      dup3\n      add\n      and\n      dup3\n      add\n      dup1\n      0x40\n      mstore\n      pop\n      dup2\n      add\n      swap1\n      tag_62\n      swap2\n      swap1\n      tag_63\n      jump\t// in\n    tag_62:\n        /* \"default_workspace/test/sp.sol\":4482:4516  return SP.approve(spender, amount) */\n      swap1\n      pop\n        /* \"default_workspace/test/sp.sol\":4402:4524  function approve(address spender, uint amount) external returns(bool){... */\n      swap3\n      swap2\n      pop\n      pop\n      jump\t// out\n        /* \"default_workspace/test/sp.sol\":4781:5482  function transferFee(address recipient, uint amount, uint fee) public returns(bool){... */\n    tag_23:\n        /* \"default_workspace/test/sp.sol\":4859:4863  bool */\n      0x00\n        /* \"default_workspace/test/sp.sol\":4875:4890  address spOwner */\n      dup1\n        /* \"default_workspace/test/sp.sol\":4893:4935  0xdD870fA1b7C4700F2BD7f44238821C26f7392148 */\n      0xdd870fa1b7c4700f2bd7f44238821c26f7392148\n        /* \"default_workspace/test/sp.sol\":4875:4935  address spOwner = 0xdD870fA1b7C4700F2BD7f44238821C26f7392148 */\n      swap1\n      pop\n        /* \"default_workspace/test/sp.sol\":4946:4961  uint commission */\n      0x00\n        /* \"default_workspace/test/sp.sol\":4979:4982  100 */\n      0x64\n        /* \"default_workspace/test/sp.sol\":4973:4976  fee */\n      dup5\n        /* \"default_workspace/test/sp.sol\":4964:4970  amount */\n      dup7\n        /* \"default_workspace/test/sp.sol\":4964:4976  amount * fee */\n      tag_65\n      swap2\n      swap1\n      tag_66\n      jump\t// in\n    tag_65:\n        /* \"default_workspace/test/sp.sol\":4964:4982  amount * fee / 100 */\n      tag_67\n      swap2\n      swap1\n      tag_68\n      jump\t// in\n    tag_67:\n        /* \"default_workspace/test/sp.sol\":4946:4982  uint commission = amount * fee / 100 */\n      swap1\n      pop\n        /* \"default_workspace/test/sp.sol\":4993:5008  uint realAmount */\n      0x00\n        /* \"default_workspace/test/sp.sol\":5020:5030  commission */\n      dup2\n        /* \"default_workspace/test/sp.sol\":5011:5017  amount */\n      dup7\n        /* \"default_workspace/test/sp.sol\":5011:5030  amount - commission */\n      tag_69\n      swap2\n      swap1\n      tag_70\n      jump\t// in\n    tag_69:\n        /* \"default_workspace/test/sp.sol\":4993:5030  uint realAmount = amount - commission */\n      swap1\n      pop\n        /* \"default_workspace/test/sp.sol\":5181:5183  SP */\n      0x00\n      dup1\n      sload\n      swap1\n      0x0100\n      exp\n      swap1\n      div\n      0xffffffffffffffffffffffffffffffffffffffff\n      and\n        /* \"default_workspace/test/sp.sol\":5181:5192  SP.transfer */\n      0xffffffffffffffffffffffffffffffffffffffff\n      and\n      0xa9059cbb\n        /* \"default_workspace/test/sp.sol\":5193:5202  recipient */\n      dup9\n        /* \"default_workspace/test/sp.sol\":5204:5214  realAmount */\n      dup4\n        /* \"default_workspace/test/sp.sol\":5181:5215  SP.transfer(recipient, realAmount) */\n      mload(0x40)\n      dup4\n      0xffffffff\n      and\n      0xe0\n      shl\n      dup2\n      mstore\n      0x04\n      add\n      tag_71\n      swap3\n      swap2\n      swap1\n      tag_59\n      jump\t// in\n    tag_71:\n      0x20\n      mload(0x40)\n      dup1\n      dup4\n      sub\n      dup2\n      0x00\n      dup8\n      gas\n      call\n      iszero\n      dup1\n      iszero\n      tag_73\n      jumpi\n      returndatasize\n      0x00\n      dup1\n      returndatacopy\n      revert(0x00, returndatasize)\n    tag_73:\n      pop\n      pop\n      pop\n      pop\n      mload(0x40)\n      returndatasize\n      not(0x1f)\n      0x1f\n      dup3\n      add\n      and\n      dup3\n      add\n      dup1\n      0x40\n      mstore\n      pop\n      dup2\n      add\n      swap1\n      tag_74\n      swap2\n      swap1\n      tag_63\n      jump\t// in\n    tag_74:\n        /* \"default_workspace/test/sp.sol\":5178:5475  if(SP.transfer(recipient, realAmount)){... */\n      iszero\n      tag_75\n      jumpi\n        /* \"default_workspace/test/sp.sol\":5234:5236  SP */\n      0x00\n      dup1\n      sload\n      swap1\n      0x0100\n      exp\n      swap1\n      div\n      0xffffffffffffffffffffffffffffffffffffffff\n      and\n        /* \"default_workspace/test/sp.sol\":5234:5245  SP.transfer */\n      0xffffffffffffffffffffffffffffffffffffffff\n      and\n      0xa9059cbb\n        /* \"default_workspace/test/sp.sol\":5246:5253  spOwner */\n      dup5\n        /* \"default_workspace/test/sp.sol\":5255:5265  commission */\n      dup5\n        /* \"default_workspace/test/sp.sol\":5234:5266  SP.transfer(spOwner, commission) */\n      mload(0x40)\n      dup4\n      0xffffffff\n      and\n      0xe0\n      shl\n      dup2\n      mstore\n      0x04\n      add\n      tag_76\n      swap3\n      swap2\n      swap1\n      tag_59\n      jump\t// in\n    tag_76:\n      0x20\n      mload(0x40)\n      dup1\n      dup4\n      sub\n      dup2\n      0x00\n      dup8\n      gas\n      call\n      iszero\n      dup1\n      iszero\n      tag_78\n      jumpi\n      returndatasize\n      0x00\n      dup1\n      returndatacopy\n      revert(0x00, returndatasize)\n    tag_78:\n      pop\n      pop\n      pop\n      pop\n      mload(0x40)\n      returndatasize\n      not(0x1f)\n      0x1f\n      dup3\n      add\n      and\n      dup3\n      add\n      dup1\n      0x40\n      mstore\n      pop\n      dup2\n      add\n      swap1\n      tag_79\n      swap2\n      swap1\n      tag_63\n      jump\t// in\n    tag_79:\n        /* \"default_workspace/test/sp.sol\":5231:5395  if(SP.transfer(spOwner, commission)){... */\n      iszero\n      tag_80\n      jumpi\n        /* \"default_workspace/test/sp.sol\":5293:5297  true */\n      0x01\n        /* \"default_workspace/test/sp.sol\":5286:5297  return true */\n      swap4\n      pop\n      pop\n      pop\n      pop\n      jump(tag_64)\n        /* \"default_workspace/test/sp.sol\":5231:5395  if(SP.transfer(spOwner, commission)){... */\n    tag_80:\n        /* \"default_workspace/test/sp.sol\":5374:5379  false */\n      0x00\n        /* \"default_workspace/test/sp.sol\":5367:5379  return false */\n      swap4\n      pop\n      pop\n      pop\n      pop\n      jump(tag_64)\n        /* \"default_workspace/test/sp.sol\":5178:5475  if(SP.transfer(recipient, realAmount)){... */\n    tag_75:\n        /* \"default_workspace/test/sp.sol\":5458:5463  false */\n      0x00\n        /* \"default_workspace/test/sp.sol\":5451:5463  return false */\n      swap4\n      pop\n      pop\n      pop\n      pop\n        /* \"default_workspace/test/sp.sol\":4781:5482  function transferFee(address recipient, uint amount, uint fee) public returns(bool){... */\n    tag_64:\n      swap4\n      swap3\n      pop\n      pop\n      pop\n      jump\t// out\n        /* \"default_workspace/test/sp.sol\":4530:4773  function transferFrom(address spender, address recipient, uint amount) external returns(bool){... */\n    tag_28:\n        /* \"default_workspace/test/sp.sol\":4618:4622  bool */\n      0x00\n        /* \"default_workspace/test/sp.sol\":4634:4636  SP */\n      dup1\n      0x00\n      swap1\n      sload\n      swap1\n      0x0100\n      exp\n      swap1\n      div\n      0xffffffffffffffffffffffffffffffffffffffff\n      and\n        /* \"default_workspace/test/sp.sol\":4634:4644  SP.approve */\n      0xffffffffffffffffffffffffffffffffffffffff\n      and\n      0x095ea7b3\n        /* \"default_workspace/test/sp.sol\":4645:4655  msg.sender */\n      caller\n        /* \"default_workspace/test/sp.sol\":4657:4663  amount */\n      dup5\n        /* \"default_workspace/test/sp.sol\":4634:4664  SP.approve(msg.sender, amount) */\n      mload(0x40)\n      dup4\n      0xffffffff\n      and\n      0xe0\n      shl\n      dup2\n      mstore\n      0x04\n      add\n      tag_84\n      swap3\n      swap2\n      swap1\n      tag_59\n      jump\t// in\n    tag_84:\n      0x20\n      mload(0x40)\n      dup1\n      dup4\n      sub\n      dup2\n      0x00\n      dup8\n      gas\n      call\n      iszero\n      dup1\n      iszero\n      tag_86\n      jumpi\n      returndatasize\n      0x00\n      dup1\n      returndatacopy\n      revert(0x00, returndatasize)\n    tag_86:\n      pop\n      pop\n      pop\n      pop\n      mload(0x40)\n      returndatasize\n      not(0x1f)\n      0x1f\n      dup3\n      add\n      and\n      dup3\n      add\n      dup1\n      0x40\n      mstore\n      pop\n      dup2\n      add\n      swap1\n      tag_87\n      swap2\n      swap1\n      tag_63\n      jump\t// in\n    tag_87:\n      pop\n        /* \"default_workspace/test/sp.sol\":4675:4677  SP */\n      0x00\n      dup1\n      sload\n      swap1\n      0x0100\n      exp\n      swap1\n      div\n      0xffffffffffffffffffffffffffffffffffffffff\n      and\n        /* \"default_workspace/test/sp.sol\":4675:4685  SP.approve */\n      0xffffffffffffffffffffffffffffffffffffffff\n      and\n      0x095ea7b3\n        /* \"default_workspace/test/sp.sol\":4686:4695  recipient */\n      dup5\n        /* \"default_workspace/test/sp.sol\":4697:4703  amount */\n      dup5\n        /* \"default_workspace/test/sp.sol\":4675:4704  SP.approve(recipient, amount) */\n      mload(0x40)\n      dup4\n      0xffffffff\n      and\n      0xe0\n      shl\n      dup2\n      mstore\n      0x04\n      add\n      tag_88\n      swap3\n      swap2\n      swap1\n      tag_59\n      jump\t// in\n    tag_88:\n      0x20\n      mload(0x40)\n      dup1\n      dup4\n      sub\n      dup2\n      0x00\n      dup8\n      gas\n      call\n      iszero\n      dup1\n      iszero\n      tag_90\n      jumpi\n      returndatasize\n      0x00\n      dup1\n      returndatacopy\n      revert(0x00, returndatasize)\n    tag_90:\n      pop\n      pop\n      pop\n      pop\n      mload(0x40)\n      returndatasize\n      not(0x1f)\n      0x1f\n      dup3\n      add\n      and\n      dup3\n      add\n      dup1\n      0x40\n      mstore\n      pop\n      dup2\n      add\n      swap1\n      tag_91\n      swap2\n      swap1\n      tag_63\n      jump\t// in\n    tag_91:\n      pop\n        /* \"default_workspace/test/sp.sol\":4722:4724  SP */\n      0x00\n      dup1\n      sload\n      swap1\n      0x0100\n      exp\n      swap1\n      div\n      0xffffffffffffffffffffffffffffffffffffffff\n      and\n        /* \"default_workspace/test/sp.sol\":4722:4737  SP.transferFrom */\n      0xffffffffffffffffffffffffffffffffffffffff\n      and\n      0x23b872dd\n        /* \"default_workspace/test/sp.sol\":4738:4745  spender */\n      dup6\n        /* \"default_workspace/test/sp.sol\":4747:4756  recipient */\n      dup6\n        /* \"default_workspace/test/sp.sol\":4758:4764  amount */\n      dup6\n        /* \"default_workspace/test/sp.sol\":4722:4765  SP.transferFrom(spender, recipient, amount) */\n      mload(0x40)\n      dup5\n      0xffffffff\n      and\n      0xe0\n      shl\n      dup2\n      mstore\n      0x04\n      add\n      tag_92\n      swap4\n      swap3\n      swap2\n      swap1\n      tag_93\n      jump\t// in\n    tag_92:\n      0x20\n      mload(0x40)\n      dup1\n      dup4\n      sub\n      dup2\n      0x00\n      dup8\n      gas\n      call\n      iszero\n      dup1\n      iszero\n      tag_95\n      jumpi\n      returndatasize\n      0x00\n      dup1\n      returndatacopy\n      revert(0x00, returndatasize)\n    tag_95:\n      pop\n      pop\n      pop\n      pop\n      mload(0x40)\n      returndatasize\n      not(0x1f)\n      0x1f\n      dup3\n      add\n      and\n      dup3\n      add\n      dup1\n      0x40\n      mstore\n      pop\n      dup2\n      add\n      swap1\n      tag_96\n      swap2\n      swap1\n      tag_63\n      jump\t// in\n    tag_96:\n        /* \"default_workspace/test/sp.sol\":4715:4765  return SP.transferFrom(spender, recipient, amount) */\n      swap1\n      pop\n        /* \"default_workspace/test/sp.sol\":4530:4773  function transferFrom(address spender, address recipient, uint amount) external returns(bool){... */\n      swap4\n      swap3\n      pop\n      pop\n      pop\n      jump\t// out\n        /* \"default_workspace/test/sp.sol\":3930:4041  function balanceOf(address account) external view returns (uint){... */\n    tag_33:\n        /* \"default_workspace/test/sp.sol\":3989:3993  uint */\n      0x00\n        /* \"default_workspace/test/sp.sol\":4012:4014  SP */\n      dup1\n      0x00\n      swap1\n      sload\n      swap1\n      0x0100\n      exp\n      swap1\n      div\n      0xffffffffffffffffffffffffffffffffffffffff\n      and\n        /* \"default_workspace/test/sp.sol\":4012:4024  SP.balanceOf */\n      0xffffffffffffffffffffffffffffffffffffffff\n      and\n      0x70a08231\n        /* \"default_workspace/test/sp.sol\":4025:4032  account */\n      dup4\n        /* \"default_workspace/test/sp.sol\":4012:4033  SP.balanceOf(account) */\n      mload(0x40)\n      dup3\n      0xffffffff\n      and\n      0xe0\n      shl\n      dup2\n      mstore\n      0x04\n      add\n      tag_98\n      swap2\n      swap1\n      tag_56\n      jump\t// in\n    tag_98:\n      0x20\n      mload(0x40)\n      dup1\n      dup4\n      sub\n      dup2\n      dup7\n      gas\n      staticcall\n      iszero\n      dup1\n      iszero\n      tag_100\n      jumpi\n      returndatasize\n      0x00\n      dup1\n      returndatacopy\n      revert(0x00, returndatasize)\n    tag_100:\n      pop\n      pop\n      pop\n      pop\n      mload(0x40)\n      returndatasize\n      not(0x1f)\n      0x1f\n      dup3\n      add\n      and\n      dup3\n      add\n      dup1\n      0x40\n      mstore\n      pop\n      dup2\n      add\n      swap1\n      tag_101\n      swap2\n      swap1\n      tag_102\n      jump\t// in\n    tag_101:\n        /* \"default_workspace/test/sp.sol\":4005:4033  return SP.balanceOf(account) */\n      swap1\n      pop\n        /* \"default_workspace/test/sp.sol\":3930:4041  function balanceOf(address account) external view returns (uint){... */\n      swap2\n      swap1\n      pop\n      jump\t// out\n        /* \"default_workspace/test/sp.sol\":3623:3813  function self() public view returns(uint){... */\n    tag_37:\n        /* \"default_workspace/test/sp.sol\":3659:3663  uint */\n      0x00\n        /* \"default_workspace/test/sp.sol\":3750:3752  SP */\n      dup1\n      0x00\n      swap1\n      sload\n      swap1\n      0x0100\n      exp\n      swap1\n      div\n      0xffffffffffffffffffffffffffffffffffffffff\n      and\n        /* \"default_workspace/test/sp.sol\":3750:3762  SP.balanceOf */\n      0xffffffffffffffffffffffffffffffffffffffff\n      and\n      0x70a08231\n        /* \"default_workspace/test/sp.sol\":3763:3773  msg.sender */\n      caller\n        /* \"default_workspace/test/sp.sol\":3750:3774  SP.balanceOf(msg.sender) */\n      mload(0x40)\n      dup3\n      0xffffffff\n      and\n      0xe0\n      shl\n      dup2\n      mstore\n      0x04\n      add\n      tag_104\n      swap2\n      swap1\n      tag_56\n      jump\t// in\n    tag_104:\n      0x20\n      mload(0x40)\n      dup1\n      dup4\n      sub\n      dup2\n      dup7\n      gas\n      staticcall\n      iszero\n      dup1\n      iszero\n      tag_106\n      jumpi\n      returndatasize\n      0x00\n      dup1\n      returndatacopy\n      revert(0x00, returndatasize)\n    tag_106:\n      pop\n      pop\n      pop\n      pop\n      mload(0x40)\n      returndatasize\n      not(0x1f)\n      0x1f\n      dup3\n      add\n      and\n      dup3\n      add\n      dup1\n      0x40\n      mstore\n      pop\n      dup2\n      add\n      swap1\n      tag_107\n      swap2\n      swap1\n      tag_102\n      jump\t// in\n    tag_107:\n        /* \"default_workspace/test/sp.sol\":3743:3774  return SP.balanceOf(msg.sender) */\n      swap1\n      pop\n        /* \"default_workspace/test/sp.sol\":3623:3813  function self() public view returns(uint){... */\n      swap1\n      jump\t// out\n        /* \"default_workspace/test/sp.sol\":3391:3527  function doStuff() external {... */\n    tag_40:\n        /* \"default_workspace/test/sp.sol\":3430:3442  address from */\n      0x00\n        /* \"default_workspace/test/sp.sol\":3445:3455  msg.sender */\n      caller\n        /* \"default_workspace/test/sp.sol\":3430:3455  address from = msg.sender */\n      swap1\n      pop\n        /* \"default_workspace/test/sp.sol\":3468:3470  SP */\n      0x00\n      dup1\n      sload\n      swap1\n      0x0100\n      exp\n      swap1\n      div\n      0xffffffffffffffffffffffffffffffffffffffff\n      and\n        /* \"default_workspace/test/sp.sol\":3468:3483  SP.transferFrom */\n      0xffffffffffffffffffffffffffffffffffffffff\n      and\n      0x23b872dd\n        /* \"default_workspace/test/sp.sol\":3492:3496  this */\n      address\n        /* \"default_workspace/test/sp.sol\":3499:3503  from */\n      dup4\n        /* \"default_workspace/test/sp.sol\":3505:3506  1 */\n      0x01\n        /* \"default_workspace/test/sp.sol\":3468:3507  SP.transferFrom(address(this), from, 1) */\n      mload(0x40)\n      dup5\n      0xffffffff\n      and\n      0xe0\n      shl\n      dup2\n      mstore\n      0x04\n      add\n      tag_109\n      swap4\n      swap3\n      swap2\n      swap1\n      tag_110\n      jump\t// in\n    tag_109:\n      0x20\n      mload(0x40)\n      dup1\n      dup4\n      sub\n      dup2\n      0x00\n      dup8\n      gas\n      call\n      iszero\n      dup1\n      iszero\n      tag_112\n      jumpi\n      returndatasize\n      0x00\n      dup1\n      returndatacopy\n      revert(0x00, returndatasize)\n    tag_112:\n      pop\n      pop\n      pop\n      pop\n      mload(0x40)\n      returndatasize\n      not(0x1f)\n      0x1f\n      dup3\n      add\n      and\n      dup3\n      add\n      dup1\n      0x40\n      mstore\n      pop\n      dup2\n      add\n      swap1\n      tag_113\n      swap2\n      swap1\n      tag_63\n      jump\t// in\n    tag_113:\n      pop\n        /* \"default_workspace/test/sp.sol\":3419:3527  {... */\n      pop\n        /* \"default_workspace/test/sp.sol\":3391:3527  function doStuff() external {... */\n      jump\t// out\n        /* \"default_workspace/test/sp.sol\":4047:4256  function transfer(address recipient, uint amount) external returns(bool){... */\n    tag_43:\n        /* \"default_workspace/test/sp.sol\":4114:4118  bool */\n      0x00\n        /* \"default_workspace/test/sp.sol\":4130:4132  SP */\n      dup1\n      0x00\n      swap1\n      sload\n      swap1\n      0x0100\n      exp\n      swap1\n      div\n      0xffffffffffffffffffffffffffffffffffffffff\n      and\n        /* \"default_workspace/test/sp.sol\":4130:4140  SP.approve */\n      0xffffffffffffffffffffffffffffffffffffffff\n      and\n      0x095ea7b3\n        /* \"default_workspace/test/sp.sol\":4141:4151  msg.sender */\n      caller\n        /* \"default_workspace/test/sp.sol\":4153:4159  amount */\n      dup5\n        /* \"default_workspace/test/sp.sol\":4130:4160  SP.approve(msg.sender, amount) */\n      mload(0x40)\n      dup4\n      0xffffffff\n      and\n      0xe0\n      shl\n      dup2\n      mstore\n      0x04\n      add\n      tag_115\n      swap3\n      swap2\n      swap1\n      tag_59\n      jump\t// in\n    tag_115:\n      0x20\n      mload(0x40)\n      dup1\n      dup4\n      sub\n      dup2\n      0x00\n      dup8\n      gas\n      call\n      iszero\n      dup1\n      iszero\n      tag_117\n      jumpi\n      returndatasize\n      0x00\n      dup1\n      returndatacopy\n      revert(0x00, returndatasize)\n    tag_117:\n      pop\n      pop\n      pop\n      pop\n      mload(0x40)\n      returndatasize\n      not(0x1f)\n      0x1f\n      dup3\n      add\n      and\n      dup3\n      add\n      dup1\n      0x40\n      mstore\n      pop\n      dup2\n      add\n      swap1\n      tag_118\n      swap2\n      swap1\n      tag_63\n      jump\t// in\n    tag_118:\n      pop\n        /* \"default_workspace/test/sp.sol\":4171:4173  SP */\n      0x00\n      dup1\n      sload\n      swap1\n      0x0100\n      exp\n      swap1\n      div\n      0xffffffffffffffffffffffffffffffffffffffff\n      and\n        /* \"default_workspace/test/sp.sol\":4171:4181  SP.approve */\n      0xffffffffffffffffffffffffffffffffffffffff\n      and\n      0x095ea7b3\n        /* \"default_workspace/test/sp.sol\":4182:4191  recipient */\n      dup5\n        /* \"default_workspace/test/sp.sol\":4193:4199  amount */\n      dup5\n        /* \"default_workspace/test/sp.sol\":4171:4200  SP.approve(recipient, amount) */\n      mload(0x40)\n      dup4\n      0xffffffff\n      and\n      0xe0\n      shl\n      dup2\n      mstore\n      0x04\n      add\n      tag_119\n      swap3\n      swap2\n      swap1\n      tag_59\n      jump\t// in\n    tag_119:\n      0x20\n      mload(0x40)\n      dup1\n      dup4\n      sub\n      dup2\n      0x00\n      dup8\n      gas\n      call\n      iszero\n      dup1\n      iszero\n      tag_121\n      jumpi\n      returndatasize\n      0x00\n      dup1\n      returndatacopy\n      revert(0x00, returndatasize)\n    tag_121:\n      pop\n      pop\n      pop\n      pop\n      mload(0x40)\n      returndatasize\n      not(0x1f)\n      0x1f\n      dup3\n      add\n      and\n      dup3\n      add\n      dup1\n      0x40\n      mstore\n      pop\n      dup2\n      add\n      swap1\n      tag_122\n      swap2\n      swap1\n      tag_63\n      jump\t// in\n    tag_122:\n      pop\n        /* \"default_workspace/test/sp.sol\":4218:4220  SP */\n      0x00\n      dup1\n      sload\n      swap1\n      0x0100\n      exp\n      swap1\n      div\n      0xffffffffffffffffffffffffffffffffffffffff\n      and\n        /* \"default_workspace/test/sp.sol\":4218:4229  SP.transfer */\n      0xffffffffffffffffffffffffffffffffffffffff\n      and\n      0xa9059cbb\n        /* \"default_workspace/test/sp.sol\":4230:4239  recipient */\n      dup5\n        /* \"default_workspace/test/sp.sol\":4241:4247  amount */\n      dup5\n        /* \"default_workspace/test/sp.sol\":4218:4248  SP.transfer(recipient, amount) */\n      mload(0x40)\n      dup4\n      0xffffffff\n      and\n      0xe0\n      shl\n      dup2\n      mstore\n      0x04\n      add\n      tag_123\n      swap3\n      swap2\n      swap1\n      tag_59\n      jump\t// in\n    tag_123:\n      0x20\n      mload(0x40)\n      dup1\n      dup4\n      sub\n      dup2\n      0x00\n      dup8\n      gas\n      call\n      iszero\n      dup1\n      iszero\n      tag_125\n      jumpi\n      returndatasize\n      0x00\n      dup1\n      returndatacopy\n      revert(0x00, returndatasize)\n    tag_125:\n      pop\n      pop\n      pop\n      pop\n      mload(0x40)\n      returndatasize\n      not(0x1f)\n      0x1f\n      dup3\n      add\n      and\n      dup3\n      add\n      dup1\n      0x40\n      mstore\n      pop\n      dup2\n      add\n      swap1\n      tag_126\n      swap2\n      swap1\n      tag_63\n      jump\t// in\n    tag_126:\n        /* \"default_workspace/test/sp.sol\":4211:4248  return SP.transfer(recipient, amount) */\n      swap1\n      pop\n        /* \"default_workspace/test/sp.sol\":4047:4256  function transfer(address recipient, uint amount) external returns(bool){... */\n      swap3\n      swap2\n      pop\n      pop\n      jump\t// out\n        /* \"default_workspace/test/sp.sol\":3819:3922  function totalSupply_v1() public view returns(uint){... */\n    tag_46:\n        /* \"default_workspace/test/sp.sol\":3865:3869  uint */\n      0x00\n        /* \"default_workspace/test/sp.sol\":3898:3900  SP */\n      dup1\n      0x00\n      swap1\n      sload\n      swap1\n      0x0100\n      exp\n      swap1\n      div\n      0xffffffffffffffffffffffffffffffffffffffff\n      and\n        /* \"default_workspace/test/sp.sol\":3898:3912  SP.totalSupply */\n      0xffffffffffffffffffffffffffffffffffffffff\n      and\n      0x18160ddd\n        /* \"default_workspace/test/sp.sol\":3898:3914  SP.totalSupply() */\n      mload(0x40)\n      dup2\n      0xffffffff\n      and\n      0xe0\n      shl\n      dup2\n      mstore\n      0x04\n      add\n      0x20\n      mload(0x40)\n      dup1\n      dup4\n      sub\n      dup2\n      dup7\n      gas\n      staticcall\n      iszero\n      dup1\n      iszero\n      tag_129\n      jumpi\n      returndatasize\n      0x00\n      dup1\n      returndatacopy\n      revert(0x00, returndatasize)\n    tag_129:\n      pop\n      pop\n      pop\n      pop\n      mload(0x40)\n      returndatasize\n      not(0x1f)\n      0x1f\n      dup3\n      add\n      and\n      dup3\n      add\n      dup1\n      0x40\n      mstore\n      pop\n      dup2\n      add\n      swap1\n      tag_130\n      swap2\n      swap1\n      tag_102\n      jump\t// in\n    tag_130:\n        /* \"default_workspace/test/sp.sol\":3891:3914  return SP.totalSupply() */\n      swap1\n      pop\n        /* \"default_workspace/test/sp.sol\":3819:3922  function totalSupply_v1() public view returns(uint){... */\n      swap1\n      jump\t// out\n        /* \"default_workspace/test/sp.sol\":4262:4394  function allowance(address owner, address spender) external view returns(uint){... */\n    tag_51:\n        /* \"default_workspace/test/sp.sol\":4335:4339  uint */\n      0x00\n        /* \"default_workspace/test/sp.sol\":4358:4360  SP */\n      dup1\n      0x00\n      swap1\n      sload\n      swap1\n      0x0100\n      exp\n      swap1\n      div\n      0xffffffffffffffffffffffffffffffffffffffff\n      and\n        /* \"default_workspace/test/sp.sol\":4358:4370  SP.allowance */\n      0xffffffffffffffffffffffffffffffffffffffff\n      and\n      0xdd62ed3e\n        /* \"default_workspace/test/sp.sol\":4371:4376  owner */\n      dup5\n        /* \"default_workspace/test/sp.sol\":4378:4385  spender */\n      dup5\n        /* \"default_workspace/test/sp.sol\":4358:4386  SP.allowance(owner, spender) */\n      mload(0x40)\n      dup4\n      0xffffffff\n      and\n      0xe0\n      shl\n      dup2\n      mstore\n      0x04\n      add\n      tag_132\n      swap3\n      swap2\n      swap1\n      tag_133\n      jump\t// in\n    tag_132:\n      0x20\n      mload(0x40)\n      dup1\n      dup4\n      sub\n      dup2\n      dup7\n      gas\n      staticcall\n      iszero\n      dup1\n      iszero\n      tag_135\n      jumpi\n      returndatasize\n      0x00\n      dup1\n      returndatacopy\n      revert(0x00, returndatasize)\n    tag_135:\n      pop\n      pop\n      pop\n      pop\n      mload(0x40)\n      returndatasize\n      not(0x1f)\n      0x1f\n      dup3\n      add\n      and\n      dup3\n      add\n      dup1\n      0x40\n      mstore\n      pop\n      dup2\n      add\n      swap1\n      tag_136\n      swap2\n      swap1\n      tag_102\n      jump\t// in\n    tag_136:\n        /* \"default_workspace/test/sp.sol\":4351:4386  return SP.allowance(owner, spender) */\n      swap1\n      pop\n        /* \"default_workspace/test/sp.sol\":4262:4394  function allowance(address owner, address spender) external view returns(uint){... */\n      swap3\n      swap2\n      pop\n      pop\n      jump\t// out\n        /* \"default_workspace/test/sp.sol\":3533:3617  function thisA() public view returns(address){... */\n    tag_54:\n        /* \"default_workspace/test/sp.sol\":3570:3577  address */\n      0x00\n        /* \"default_workspace/test/sp.sol\":3604:3608  this */\n      address\n        /* \"default_workspace/test/sp.sol\":3589:3609  return address(this) */\n      swap1\n      pop\n        /* \"default_workspace/test/sp.sol\":3533:3617  function thisA() public view returns(address){... */\n      swap1\n      jump\t// out\n        /* \"#utility.yul\":88:205   */\n    tag_139:\n        /* \"#utility.yul\":197:198   */\n      0x00\n        /* \"#utility.yul\":194:195   */\n      dup1\n        /* \"#utility.yul\":187:199   */\n      revert\n        /* \"#utility.yul\":334:460   */\n    tag_141:\n        /* \"#utility.yul\":371:378   */\n      0x00\n        /* \"#utility.yul\":411:453   */\n      0xffffffffffffffffffffffffffffffffffffffff\n        /* \"#utility.yul\":404:409   */\n      dup3\n        /* \"#utility.yul\":400:454   */\n      and\n        /* \"#utility.yul\":389:454   */\n      swap1\n      pop\n        /* \"#utility.yul\":334:460   */\n      swap2\n      swap1\n      pop\n      jump\t// out\n        /* \"#utility.yul\":466:562   */\n    tag_142:\n        /* \"#utility.yul\":503:510   */\n      0x00\n        /* \"#utility.yul\":532:556   */\n      tag_167\n        /* \"#utility.yul\":550:555   */\n      dup3\n        /* \"#utility.yul\":532:556   */\n      tag_141\n      jump\t// in\n    tag_167:\n        /* \"#utility.yul\":521:556   */\n      swap1\n      pop\n        /* \"#utility.yul\":466:562   */\n      swap2\n      swap1\n      pop\n      jump\t// out\n        /* \"#utility.yul\":568:690   */\n    tag_143:\n        /* \"#utility.yul\":641:665   */\n      tag_169\n        /* \"#utility.yul\":659:664   */\n      dup2\n        /* \"#utility.yul\":641:665   */\n      tag_142\n      jump\t// in\n    tag_169:\n        /* \"#utility.yul\":634:639   */\n      dup2\n        /* \"#utility.yul\":631:666   */\n      eq\n        /* \"#utility.yul\":621:684   */\n      tag_170\n      jumpi\n        /* \"#utility.yul\":680:681   */\n      0x00\n        /* \"#utility.yul\":677:678   */\n      dup1\n        /* \"#utility.yul\":670:682   */\n      revert\n        /* \"#utility.yul\":621:684   */\n    tag_170:\n        /* \"#utility.yul\":568:690   */\n      pop\n      jump\t// out\n        /* \"#utility.yul\":696:835   */\n    tag_144:\n        /* \"#utility.yul\":742:747   */\n      0x00\n        /* \"#utility.yul\":780:786   */\n      dup2\n        /* \"#utility.yul\":767:787   */\n      calldataload\n        /* \"#utility.yul\":758:787   */\n      swap1\n      pop\n        /* \"#utility.yul\":796:829   */\n      tag_172\n        /* \"#utility.yul\":823:828   */\n      dup2\n        /* \"#utility.yul\":796:829   */\n      tag_143\n      jump\t// in\n    tag_172:\n        /* \"#utility.yul\":696:835   */\n      swap3\n      swap2\n      pop\n      pop\n      jump\t// out\n        /* \"#utility.yul\":841:918   */\n    tag_145:\n        /* \"#utility.yul\":878:885   */\n      0x00\n        /* \"#utility.yul\":907:912   */\n      dup2\n        /* \"#utility.yul\":896:912   */\n      swap1\n      pop\n        /* \"#utility.yul\":841:918   */\n      swap2\n      swap1\n      pop\n      jump\t// out\n        /* \"#utility.yul\":924:1046   */\n    tag_146:\n        /* \"#utility.yul\":997:1021   */\n      tag_175\n        /* \"#utility.yul\":1015:1020   */\n      dup2\n        /* \"#utility.yul\":997:1021   */\n      tag_145\n      jump\t// in\n    tag_175:\n        /* \"#utility.yul\":990:995   */\n      dup2\n        /* \"#utility.yul\":987:1022   */\n      eq\n        /* \"#utility.yul\":977:1040   */\n      tag_176\n      jumpi\n        /* \"#utility.yul\":1036:1037   */\n      0x00\n        /* \"#utility.yul\":1033:1034   */\n      dup1\n        /* \"#utility.yul\":1026:1038   */\n      revert\n        /* \"#utility.yul\":977:1040   */\n    tag_176:\n        /* \"#utility.yul\":924:1046   */\n      pop\n      jump\t// out\n        /* \"#utility.yul\":1052:1191   */\n    tag_147:\n        /* \"#utility.yul\":1098:1103   */\n      0x00\n        /* \"#utility.yul\":1136:1142   */\n      dup2\n        /* \"#utility.yul\":1123:1143   */\n      calldataload\n        /* \"#utility.yul\":1114:1143   */\n      swap1\n      pop\n        /* \"#utility.yul\":1152:1185   */\n      tag_178\n        /* \"#utility.yul\":1179:1184   */\n      dup2\n        /* \"#utility.yul\":1152:1185   */\n      tag_146\n      jump\t// in\n    tag_178:\n        /* \"#utility.yul\":1052:1191   */\n      swap3\n      swap2\n      pop\n      pop\n      jump\t// out\n        /* \"#utility.yul\":1197:1671   */\n    tag_16:\n        /* \"#utility.yul\":1265:1271   */\n      0x00\n        /* \"#utility.yul\":1273:1279   */\n      dup1\n        /* \"#utility.yul\":1322:1324   */\n      0x40\n        /* \"#utility.yul\":1310:1319   */\n      dup4\n        /* \"#utility.yul\":1301:1308   */\n      dup6\n        /* \"#utility.yul\":1297:1320   */\n      sub\n        /* \"#utility.yul\":1293:1325   */\n      slt\n        /* \"#utility.yul\":1290:1409   */\n      iszero\n      tag_180\n      jumpi\n        /* \"#utility.yul\":1328:1407   */\n      tag_181\n      tag_139\n      jump\t// in\n    tag_181:\n        /* \"#utility.yul\":1290:1409   */\n    tag_180:\n        /* \"#utility.yul\":1448:1449   */\n      0x00\n        /* \"#utility.yul\":1473:1526   */\n      tag_182\n        /* \"#utility.yul\":1518:1525   */\n      dup6\n        /* \"#utility.yul\":1509:1515   */\n      dup3\n        /* \"#utility.yul\":1498:1507   */\n      dup7\n        /* \"#utility.yul\":1494:1516   */\n      add\n        /* \"#utility.yul\":1473:1526   */\n      tag_144\n      jump\t// in\n    tag_182:\n        /* \"#utility.yul\":1463:1526   */\n      swap3\n      pop\n        /* \"#utility.yul\":1419:1536   */\n      pop\n        /* \"#utility.yul\":1575:1577   */\n      0x20\n        /* \"#utility.yul\":1601:1654   */\n      tag_183\n        /* \"#utility.yul\":1646:1653   */\n      dup6\n        /* \"#utility.yul\":1637:1643   */\n      dup3\n        /* \"#utility.yul\":1626:1635   */\n      dup7\n        /* \"#utility.yul\":1622:1644   */\n      add\n        /* \"#utility.yul\":1601:1654   */\n      tag_147\n      jump\t// in\n    tag_183:\n        /* \"#utility.yul\":1591:1654   */\n      swap2\n      pop\n        /* \"#utility.yul\":1546:1664   */\n      pop\n        /* \"#utility.yul\":1197:1671   */\n      swap3\n      pop\n      swap3\n      swap1\n      pop\n      jump\t// out\n        /* \"#utility.yul\":1677:1767   */\n    tag_148:\n        /* \"#utility.yul\":1711:1718   */\n      0x00\n        /* \"#utility.yul\":1754:1759   */\n      dup2\n        /* \"#utility.yul\":1747:1760   */\n      iszero\n        /* \"#utility.yul\":1740:1761   */\n      iszero\n        /* \"#utility.yul\":1729:1761   */\n      swap1\n      pop\n        /* \"#utility.yul\":1677:1767   */\n      swap2\n      swap1\n      pop\n      jump\t// out\n        /* \"#utility.yul\":1773:1882   */\n    tag_149:\n        /* \"#utility.yul\":1854:1875   */\n      tag_186\n        /* \"#utility.yul\":1869:1874   */\n      dup2\n        /* \"#utility.yul\":1854:1875   */\n      tag_148\n      jump\t// in\n    tag_186:\n        /* \"#utility.yul\":1849:1852   */\n      dup3\n        /* \"#utility.yul\":1842:1876   */\n      mstore\n        /* \"#utility.yul\":1773:1882   */\n      pop\n      pop\n      jump\t// out\n        /* \"#utility.yul\":1888:2098   */\n    tag_19:\n        /* \"#utility.yul\":1975:1979   */\n      0x00\n        /* \"#utility.yul\":2013:2015   */\n      0x20\n        /* \"#utility.yul\":2002:2011   */\n      dup3\n        /* \"#utility.yul\":1998:2016   */\n      add\n        /* \"#utility.yul\":1990:2016   */\n      swap1\n      pop\n        /* \"#utility.yul\":2026:2091   */\n      tag_188\n        /* \"#utility.yul\":2088:2089   */\n      0x00\n        /* \"#utility.yul\":2077:2086   */\n      dup4\n        /* \"#utility.yul\":2073:2090   */\n      add\n        /* \"#utility.yul\":2064:2070   */\n      dup5\n        /* \"#utility.yul\":2026:2091   */\n      tag_149\n      jump\t// in\n    tag_188:\n        /* \"#utility.yul\":1888:2098   */\n      swap3\n      swap2\n      pop\n      pop\n      jump\t// out\n        /* \"#utility.yul\":2104:2723   */\n    tag_22:\n        /* \"#utility.yul\":2181:2187   */\n      0x00\n        /* \"#utility.yul\":2189:2195   */\n      dup1\n        /* \"#utility.yul\":2197:2203   */\n      0x00\n        /* \"#utility.yul\":2246:2248   */\n      0x60\n        /* \"#utility.yul\":2234:2243   */\n      dup5\n        /* \"#utility.yul\":2225:2232   */\n      dup7\n        /* \"#utility.yul\":2221:2244   */\n      sub\n        /* \"#utility.yul\":2217:2249   */\n      slt\n        /* \"#utility.yul\":2214:2333   */\n      iszero\n      tag_190\n      jumpi\n        /* \"#utility.yul\":2252:2331   */\n      tag_191\n      tag_139\n      jump\t// in\n    tag_191:\n        /* \"#utility.yul\":2214:2333   */\n    tag_190:\n        /* \"#utility.yul\":2372:2373   */\n      0x00\n        /* \"#utility.yul\":2397:2450   */\n      tag_192\n        /* \"#utility.yul\":2442:2449   */\n      dup7\n        /* \"#utility.yul\":2433:2439   */\n      dup3\n        /* \"#utility.yul\":2422:2431   */\n      dup8\n        /* \"#utility.yul\":2418:2440   */\n      add\n        /* \"#utility.yul\":2397:2450   */\n      tag_144\n      jump\t// in\n    tag_192:\n        /* \"#utility.yul\":2387:2450   */\n      swap4\n      pop\n        /* \"#utility.yul\":2343:2460   */\n      pop\n        /* \"#utility.yul\":2499:2501   */\n      0x20\n        /* \"#utility.yul\":2525:2578   */\n      tag_193\n        /* \"#utility.yul\":2570:2577   */\n      dup7\n        /* \"#utility.yul\":2561:2567   */\n      dup3\n        /* \"#utility.yul\":2550:2559   */\n      dup8\n        /* \"#utility.yul\":2546:2568   */\n      add\n        /* \"#utility.yul\":2525:2578   */\n      tag_147\n      jump\t// in\n    tag_193:\n        /* \"#utility.yul\":2515:2578   */\n      swap3\n      pop\n        /* \"#utility.yul\":2470:2588   */\n      pop\n        /* \"#utility.yul\":2627:2629   */\n      0x40\n        /* \"#utility.yul\":2653:2706   */\n      tag_194\n        /* \"#utility.yul\":2698:2705   */\n      dup7\n        /* \"#utility.yul\":2689:2695   */\n      dup3\n        /* \"#utility.yul\":2678:2687   */\n      dup8\n        /* \"#utility.yul\":2674:2696   */\n      add\n        /* \"#utility.yul\":2653:2706   */\n      tag_147\n      jump\t// in\n    tag_194:\n        /* \"#utility.yul\":2643:2706   */\n      swap2\n      pop\n        /* \"#utility.yul\":2598:2716   */\n      pop\n        /* \"#utility.yul\":2104:2723   */\n      swap3\n      pop\n      swap3\n      pop\n      swap3\n      jump\t// out\n        /* \"#utility.yul\":2729:3348   */\n    tag_27:\n        /* \"#utility.yul\":2806:2812   */\n      0x00\n        /* \"#utility.yul\":2814:2820   */\n      dup1\n        /* \"#utility.yul\":2822:2828   */\n      0x00\n        /* \"#utility.yul\":2871:2873   */\n      0x60\n        /* \"#utility.yul\":2859:2868   */\n      dup5\n        /* \"#utility.yul\":2850:2857   */\n      dup7\n        /* \"#utility.yul\":2846:2869   */\n      sub\n        /* \"#utility.yul\":2842:2874   */\n      slt\n        /* \"#utility.yul\":2839:2958   */\n      iszero\n      tag_196\n      jumpi\n        /* \"#utility.yul\":2877:2956   */\n      tag_197\n      tag_139\n      jump\t// in\n    tag_197:\n        /* \"#utility.yul\":2839:2958   */\n    tag_196:\n        /* \"#utility.yul\":2997:2998   */\n      0x00\n        /* \"#utility.yul\":3022:3075   */\n      tag_198\n        /* \"#utility.yul\":3067:3074   */\n      dup7\n        /* \"#utility.yul\":3058:3064   */\n      dup3\n        /* \"#utility.yul\":3047:3056   */\n      dup8\n        /* \"#utility.yul\":3043:3065   */\n      add\n        /* \"#utility.yul\":3022:3075   */\n      tag_144\n      jump\t// in\n    tag_198:\n        /* \"#utility.yul\":3012:3075   */\n      swap4\n      pop\n        /* \"#utility.yul\":2968:3085   */\n      pop\n        /* \"#utility.yul\":3124:3126   */\n      0x20\n        /* \"#utility.yul\":3150:3203   */\n      tag_199\n        /* \"#utility.yul\":3195:3202   */\n      dup7\n        /* \"#utility.yul\":3186:3192   */\n      dup3\n        /* \"#utility.yul\":3175:3184   */\n      dup8\n        /* \"#utility.yul\":3171:3193   */\n      add\n        /* \"#utility.yul\":3150:3203   */\n      tag_144\n      jump\t// in\n    tag_199:\n        /* \"#utility.yul\":3140:3203   */\n      swap3\n      pop\n        /* \"#utility.yul\":3095:3213   */\n      pop\n        /* \"#utility.yul\":3252:3254   */\n      0x40\n        /* \"#utility.yul\":3278:3331   */\n      tag_200\n        /* \"#utility.yul\":3323:3330   */\n      dup7\n        /* \"#utility.yul\":3314:3320   */\n      dup3\n        /* \"#utility.yul\":3303:3312   */\n      dup8\n        /* \"#utility.yul\":3299:3321   */\n      add\n        /* \"#utility.yul\":3278:3331   */\n      tag_147\n      jump\t// in\n    tag_200:\n        /* \"#utility.yul\":3268:3331   */\n      swap2\n      pop\n        /* \"#utility.yul\":3223:3341   */\n      pop\n        /* \"#utility.yul\":2729:3348   */\n      swap3\n      pop\n      swap3\n      pop\n      swap3\n      jump\t// out\n        /* \"#utility.yul\":3354:3683   */\n    tag_32:\n        /* \"#utility.yul\":3413:3419   */\n      0x00\n        /* \"#utility.yul\":3462:3464   */\n      0x20\n        /* \"#utility.yul\":3450:3459   */\n      dup3\n        /* \"#utility.yul\":3441:3448   */\n      dup5\n        /* \"#utility.yul\":3437:3460   */\n      sub\n        /* \"#utility.yul\":3433:3465   */\n      slt\n        /* \"#utility.yul\":3430:3549   */\n      iszero\n      tag_202\n      jumpi\n        /* \"#utility.yul\":3468:3547   */\n      tag_203\n      tag_139\n      jump\t// in\n    tag_203:\n        /* \"#utility.yul\":3430:3549   */\n    tag_202:\n        /* \"#utility.yul\":3588:3589   */\n      0x00\n        /* \"#utility.yul\":3613:3666   */\n      tag_204\n        /* \"#utility.yul\":3658:3665   */\n      dup5\n        /* \"#utility.yul\":3649:3655   */\n      dup3\n        /* \"#utility.yul\":3638:3647   */\n      dup6\n        /* \"#utility.yul\":3634:3656   */\n      add\n        /* \"#utility.yul\":3613:3666   */\n      tag_144\n      jump\t// in\n    tag_204:\n        /* \"#utility.yul\":3603:3666   */\n      swap2\n      pop\n        /* \"#utility.yul\":3559:3676   */\n      pop\n        /* \"#utility.yul\":3354:3683   */\n      swap3\n      swap2\n      pop\n      pop\n      jump\t// out\n        /* \"#utility.yul\":3689:3807   */\n    tag_150:\n        /* \"#utility.yul\":3776:3800   */\n      tag_206\n        /* \"#utility.yul\":3794:3799   */\n      dup2\n        /* \"#utility.yul\":3776:3800   */\n      tag_145\n      jump\t// in\n    tag_206:\n        /* \"#utility.yul\":3771:3774   */\n      dup3\n        /* \"#utility.yul\":3764:3801   */\n      mstore\n        /* \"#utility.yul\":3689:3807   */\n      pop\n      pop\n      jump\t// out\n        /* \"#utility.yul\":3813:4035   */\n    tag_35:\n        /* \"#utility.yul\":3906:3910   */\n      0x00\n        /* \"#utility.yul\":3944:3946   */\n      0x20\n        /* \"#utility.yul\":3933:3942   */\n      dup3\n        /* \"#utility.yul\":3929:3947   */\n      add\n        /* \"#utility.yul\":3921:3947   */\n      swap1\n      pop\n        /* \"#utility.yul\":3957:4028   */\n      tag_208\n        /* \"#utility.yul\":4025:4026   */\n      0x00\n        /* \"#utility.yul\":4014:4023   */\n      dup4\n        /* \"#utility.yul\":4010:4027   */\n      add\n        /* \"#utility.yul\":4001:4007   */\n      dup5\n        /* \"#utility.yul\":3957:4028   */\n      tag_150\n      jump\t// in\n    tag_208:\n        /* \"#utility.yul\":3813:4035   */\n      swap3\n      swap2\n      pop\n      pop\n      jump\t// out\n        /* \"#utility.yul\":4041:4515   */\n    tag_50:\n        /* \"#utility.yul\":4109:4115   */\n      0x00\n        /* \"#utility.yul\":4117:4123   */\n      dup1\n        /* \"#utility.yul\":4166:4168   */\n      0x40\n        /* \"#utility.yul\":4154:4163   */\n      dup4\n        /* \"#utility.yul\":4145:4152   */\n      dup6\n        /* \"#utility.yul\":4141:4164   */\n      sub\n        /* \"#utility.yul\":4137:4169   */\n      slt\n        /* \"#utility.yul\":4134:4253   */\n      iszero\n      tag_210\n      jumpi\n        /* \"#utility.yul\":4172:4251   */\n      tag_211\n      tag_139\n      jump\t// in\n    tag_211:\n        /* \"#utility.yul\":4134:4253   */\n    tag_210:\n        /* \"#utility.yul\":4292:4293   */\n      0x00\n        /* \"#utility.yul\":4317:4370   */\n      tag_212\n        /* \"#utility.yul\":4362:4369   */\n      dup6\n        /* \"#utility.yul\":4353:4359   */\n      dup3\n        /* \"#utility.yul\":4342:4351   */\n      dup7\n        /* \"#utility.yul\":4338:4360   */\n      add\n        /* \"#utility.yul\":4317:4370   */\n      tag_144\n      jump\t// in\n    tag_212:\n        /* \"#utility.yul\":4307:4370   */\n      swap3\n      pop\n        /* \"#utility.yul\":4263:4380   */\n      pop\n        /* \"#utility.yul\":4419:4421   */\n      0x20\n        /* \"#utility.yul\":4445:4498   */\n      tag_213\n        /* \"#utility.yul\":4490:4497   */\n      dup6\n        /* \"#utility.yul\":4481:4487   */\n      dup3\n        /* \"#utility.yul\":4470:4479   */\n      dup7\n        /* \"#utility.yul\":4466:4488   */\n      add\n        /* \"#utility.yul\":4445:4498   */\n      tag_144\n      jump\t// in\n    tag_213:\n        /* \"#utility.yul\":4435:4498   */\n      swap2\n      pop\n        /* \"#utility.yul\":4390:4508   */\n      pop\n        /* \"#utility.yul\":4041:4515   */\n      swap3\n      pop\n      swap3\n      swap1\n      pop\n      jump\t// out\n        /* \"#utility.yul\":4521:4639   */\n    tag_151:\n        /* \"#utility.yul\":4608:4632   */\n      tag_215\n        /* \"#utility.yul\":4626:4631   */\n      dup2\n        /* \"#utility.yul\":4608:4632   */\n      tag_142\n      jump\t// in\n    tag_215:\n        /* \"#utility.yul\":4603:4606   */\n      dup3\n        /* \"#utility.yul\":4596:4633   */\n      mstore\n        /* \"#utility.yul\":4521:4639   */\n      pop\n      pop\n      jump\t// out\n        /* \"#utility.yul\":4645:4867   */\n    tag_56:\n        /* \"#utility.yul\":4738:4742   */\n      0x00\n        /* \"#utility.yul\":4776:4778   */\n      0x20\n        /* \"#utility.yul\":4765:4774   */\n      dup3\n        /* \"#utility.yul\":4761:4779   */\n      add\n        /* \"#utility.yul\":4753:4779   */\n      swap1\n      pop\n        /* \"#utility.yul\":4789:4860   */\n      tag_217\n        /* \"#utility.yul\":4857:4858   */\n      0x00\n        /* \"#utility.yul\":4846:4855   */\n      dup4\n        /* \"#utility.yul\":4842:4859   */\n      add\n        /* \"#utility.yul\":4833:4839   */\n      dup5\n        /* \"#utility.yul\":4789:4860   */\n      tag_151\n      jump\t// in\n    tag_217:\n        /* \"#utility.yul\":4645:4867   */\n      swap3\n      swap2\n      pop\n      pop\n      jump\t// out\n        /* \"#utility.yul\":4873:5205   */\n    tag_59:\n        /* \"#utility.yul\":4994:4998   */\n      0x00\n        /* \"#utility.yul\":5032:5034   */\n      0x40\n        /* \"#utility.yul\":5021:5030   */\n      dup3\n        /* \"#utility.yul\":5017:5035   */\n      add\n        /* \"#utility.yul\":5009:5035   */\n      swap1\n      pop\n        /* \"#utility.yul\":5045:5116   */\n      tag_219\n        /* \"#utility.yul\":5113:5114   */\n      0x00\n        /* \"#utility.yul\":5102:5111   */\n      dup4\n        /* \"#utility.yul\":5098:5115   */\n      add\n        /* \"#utility.yul\":5089:5095   */\n      dup6\n        /* \"#utility.yul\":5045:5116   */\n      tag_151\n      jump\t// in\n    tag_219:\n        /* \"#utility.yul\":5126:5198   */\n      tag_220\n        /* \"#utility.yul\":5194:5196   */\n      0x20\n        /* \"#utility.yul\":5183:5192   */\n      dup4\n        /* \"#utility.yul\":5179:5197   */\n      add\n        /* \"#utility.yul\":5170:5176   */\n      dup5\n        /* \"#utility.yul\":5126:5198   */\n      tag_150\n      jump\t// in\n    tag_220:\n        /* \"#utility.yul\":4873:5205   */\n      swap4\n      swap3\n      pop\n      pop\n      pop\n      jump\t// out\n        /* \"#utility.yul\":5211:5327   */\n    tag_152:\n        /* \"#utility.yul\":5281:5302   */\n      tag_222\n        /* \"#utility.yul\":5296:5301   */\n      dup2\n        /* \"#utility.yul\":5281:5302   */\n      tag_148\n      jump\t// in\n    tag_222:\n        /* \"#utility.yul\":5274:5279   */\n      dup2\n        /* \"#utility.yul\":5271:5303   */\n      eq\n        /* \"#utility.yul\":5261:5321   */\n      tag_223\n      jumpi\n        /* \"#utility.yul\":5317:5318   */\n      0x00\n        /* \"#utility.yul\":5314:5315   */\n      dup1\n        /* \"#utility.yul\":5307:5319   */\n      revert\n        /* \"#utility.yul\":5261:5321   */\n    tag_223:\n        /* \"#utility.yul\":5211:5327   */\n      pop\n      jump\t// out\n        /* \"#utility.yul\":5333:5470   */\n    tag_153:\n        /* \"#utility.yul\":5387:5392   */\n      0x00\n        /* \"#utility.yul\":5418:5424   */\n      dup2\n        /* \"#utility.yul\":5412:5425   */\n      mload\n        /* \"#utility.yul\":5403:5425   */\n      swap1\n      pop\n        /* \"#utility.yul\":5434:5464   */\n      tag_225\n        /* \"#utility.yul\":5458:5463   */\n      dup2\n        /* \"#utility.yul\":5434:5464   */\n      tag_152\n      jump\t// in\n    tag_225:\n        /* \"#utility.yul\":5333:5470   */\n      swap3\n      swap2\n      pop\n      pop\n      jump\t// out\n        /* \"#utility.yul\":5476:5821   */\n    tag_63:\n        /* \"#utility.yul\":5543:5549   */\n      0x00\n        /* \"#utility.yul\":5592:5594   */\n      0x20\n        /* \"#utility.yul\":5580:5589   */\n      dup3\n        /* \"#utility.yul\":5571:5578   */\n      dup5\n        /* \"#utility.yul\":5567:5590   */\n      sub\n        /* \"#utility.yul\":5563:5595   */\n      slt\n        /* \"#utility.yul\":5560:5679   */\n      iszero\n      tag_227\n      jumpi\n        /* \"#utility.yul\":5598:5677   */\n      tag_228\n      tag_139\n      jump\t// in\n    tag_228:\n        /* \"#utility.yul\":5560:5679   */\n    tag_227:\n        /* \"#utility.yul\":5718:5719   */\n      0x00\n        /* \"#utility.yul\":5743:5804   */\n      tag_229\n        /* \"#utility.yul\":5796:5803   */\n      dup5\n        /* \"#utility.yul\":5787:5793   */\n      dup3\n        /* \"#utility.yul\":5776:5785   */\n      dup6\n        /* \"#utility.yul\":5772:5794   */\n      add\n        /* \"#utility.yul\":5743:5804   */\n      tag_153\n      jump\t// in\n    tag_229:\n        /* \"#utility.yul\":5733:5804   */\n      swap2\n      pop\n        /* \"#utility.yul\":5689:5814   */\n      pop\n        /* \"#utility.yul\":5476:5821   */\n      swap3\n      swap2\n      pop\n      pop\n      jump\t// out\n        /* \"#utility.yul\":5827:6007   */\n    tag_154:\n        /* \"#utility.yul\":5875:5952   */\n      0x4e487b7100000000000000000000000000000000000000000000000000000000\n        /* \"#utility.yul\":5872:5873   */\n      0x00\n        /* \"#utility.yul\":5865:5953   */\n      mstore\n        /* \"#utility.yul\":5972:5976   */\n      0x11\n        /* \"#utility.yul\":5969:5970   */\n      0x04\n        /* \"#utility.yul\":5962:5977   */\n      mstore\n        /* \"#utility.yul\":5996:6000   */\n      0x24\n        /* \"#utility.yul\":5993:5994   */\n      0x00\n        /* \"#utility.yul\":5986:6001   */\n      revert\n        /* \"#utility.yul\":6013:6361   */\n    tag_66:\n        /* \"#utility.yul\":6053:6060   */\n      0x00\n        /* \"#utility.yul\":6076:6096   */\n      tag_232\n        /* \"#utility.yul\":6094:6095   */\n      dup3\n        /* \"#utility.yul\":6076:6096   */\n      tag_145\n      jump\t// in\n    tag_232:\n        /* \"#utility.yul\":6071:6096   */\n      swap2\n      pop\n        /* \"#utility.yul\":6110:6130   */\n      tag_233\n        /* \"#utility.yul\":6128:6129   */\n      dup4\n        /* \"#utility.yul\":6110:6130   */\n      tag_145\n      jump\t// in\n    tag_233:\n        /* \"#utility.yul\":6105:6130   */\n      swap3\n      pop\n        /* \"#utility.yul\":6298:6299   */\n      dup2\n        /* \"#utility.yul\":6230:6296   */\n      0xffffffffffffffffffffffffffffffffffffffffffffffffffffffffffffffff\n        /* \"#utility.yul\":6226:6300   */\n      div\n        /* \"#utility.yul\":6223:6224   */\n      dup4\n        /* \"#utility.yul\":6220:6301   */\n      gt\n        /* \"#utility.yul\":6215:6216   */\n      dup3\n        /* \"#utility.yul\":6208:6217   */\n      iszero\n        /* \"#utility.yul\":6201:6218   */\n      iszero\n        /* \"#utility.yul\":6197:6302   */\n      and\n        /* \"#utility.yul\":6194:6325   */\n      iszero\n      tag_234\n      jumpi\n        /* \"#utility.yul\":6305:6323   */\n      tag_235\n      tag_154\n      jump\t// in\n    tag_235:\n        /* \"#utility.yul\":6194:6325   */\n    tag_234:\n        /* \"#utility.yul\":6353:6354   */\n      dup3\n        /* \"#utility.yul\":6350:6351   */\n      dup3\n        /* \"#utility.yul\":6346:6355   */\n      mul\n        /* \"#utility.yul\":6335:6355   */\n      swap1\n      pop\n        /* \"#utility.yul\":6013:6361   */\n      swap3\n      swap2\n      pop\n      pop\n      jump\t// out\n        /* \"#utility.yul\":6367:6547   */\n    tag_155:\n        /* \"#utility.yul\":6415:6492   */\n      0x4e487b7100000000000000000000000000000000000000000000000000000000\n        /* \"#utility.yul\":6412:6413   */\n      0x00\n        /* \"#utility.yul\":6405:6493   */\n      mstore\n        /* \"#utility.yul\":6512:6516   */\n      0x12\n        /* \"#utility.yul\":6509:6510   */\n      0x04\n        /* \"#utility.yul\":6502:6517   */\n      mstore\n        /* \"#utility.yul\":6536:6540   */\n      0x24\n        /* \"#utility.yul\":6533:6534   */\n      0x00\n        /* \"#utility.yul\":6526:6541   */\n      revert\n        /* \"#utility.yul\":6553:6738   */\n    tag_68:\n        /* \"#utility.yul\":6593:6594   */\n      0x00\n        /* \"#utility.yul\":6610:6630   */\n      tag_238\n        /* \"#utility.yul\":6628:6629   */\n      dup3\n        /* \"#utility.yul\":6610:6630   */\n      tag_145\n      jump\t// in\n    tag_238:\n        /* \"#utility.yul\":6605:6630   */\n      swap2\n      pop\n        /* \"#utility.yul\":6644:6664   */\n      tag_239\n        /* \"#utility.yul\":6662:6663   */\n      dup4\n        /* \"#utility.yul\":6644:6664   */\n      tag_145\n      jump\t// in\n    tag_239:\n        /* \"#utility.yul\":6639:6664   */\n      swap3\n      pop\n        /* \"#utility.yul\":6683:6684   */\n      dup3\n        /* \"#utility.yul\":6673:6708   */\n      tag_240\n      jumpi\n        /* \"#utility.yul\":6688:6706   */\n      tag_241\n      tag_155\n      jump\t// in\n    tag_241:\n        /* \"#utility.yul\":6673:6708   */\n    tag_240:\n        /* \"#utility.yul\":6730:6731   */\n      dup3\n        /* \"#utility.yul\":6727:6728   */\n      dup3\n        /* \"#utility.yul\":6723:6732   */\n      div\n        /* \"#utility.yul\":6718:6732   */\n      swap1\n      pop\n        /* \"#utility.yul\":6553:6738   */\n      swap3\n      swap2\n      pop\n      pop\n      jump\t// out\n        /* \"#utility.yul\":6744:6935   */\n    tag_70:\n        /* \"#utility.yul\":6784:6788   */\n      0x00\n        /* \"#utility.yul\":6804:6824   */\n      tag_243\n        /* \"#utility.yul\":6822:6823   */\n      dup3\n        /* \"#utility.yul\":6804:6824   */\n      tag_145\n      jump\t// in\n    tag_243:\n        /* \"#utility.yul\":6799:6824   */\n      swap2\n      pop\n        /* \"#utility.yul\":6838:6858   */\n      tag_244\n        /* \"#utility.yul\":6856:6857   */\n      dup4\n        /* \"#utility.yul\":6838:6858   */\n      tag_145\n      jump\t// in\n    tag_244:\n        /* \"#utility.yul\":6833:6858   */\n      swap3\n      pop\n        /* \"#utility.yul\":6877:6878   */\n      dup3\n        /* \"#utility.yul\":6874:6875   */\n      dup3\n        /* \"#utility.yul\":6871:6879   */\n      lt\n        /* \"#utility.yul\":6868:6902   */\n      iszero\n      tag_245\n      jumpi\n        /* \"#utility.yul\":6882:6900   */\n      tag_246\n      tag_154\n      jump\t// in\n    tag_246:\n        /* \"#utility.yul\":6868:6902   */\n    tag_245:\n        /* \"#utility.yul\":6927:6928   */\n      dup3\n        /* \"#utility.yul\":6924:6925   */\n      dup3\n        /* \"#utility.yul\":6920:6929   */\n      sub\n        /* \"#utility.yul\":6912:6929   */\n      swap1\n      pop\n        /* \"#utility.yul\":6744:6935   */\n      swap3\n      swap2\n      pop\n      pop\n      jump\t// out\n        /* \"#utility.yul\":6941:7383   */\n    tag_93:\n        /* \"#utility.yul\":7090:7094   */\n      0x00\n        /* \"#utility.yul\":7128:7130   */\n      0x60\n        /* \"#utility.yul\":7117:7126   */\n      dup3\n        /* \"#utility.yul\":7113:7131   */\n      add\n        /* \"#utility.yul\":7105:7131   */\n      swap1\n      pop\n        /* \"#utility.yul\":7141:7212   */\n      tag_248\n        /* \"#utility.yul\":7209:7210   */\n      0x00\n        /* \"#utility.yul\":7198:7207   */\n      dup4\n        /* \"#utility.yul\":7194:7211   */\n      add\n        /* \"#utility.yul\":7185:7191   */\n      dup7\n        /* \"#utility.yul\":7141:7212   */\n      tag_151\n      jump\t// in\n    tag_248:\n        /* \"#utility.yul\":7222:7294   */\n      tag_249\n        /* \"#utility.yul\":7290:7292   */\n      0x20\n        /* \"#utility.yul\":7279:7288   */\n      dup4\n        /* \"#utility.yul\":7275:7293   */\n      add\n        /* \"#utility.yul\":7266:7272   */\n      dup6\n        /* \"#utility.yul\":7222:7294   */\n      tag_151\n      jump\t// in\n    tag_249:\n        /* \"#utility.yul\":7304:7376   */\n      tag_250\n        /* \"#utility.yul\":7372:7374   */\n      0x40\n        /* \"#utility.yul\":7361:7370   */\n      dup4\n        /* \"#utility.yul\":7357:7375   */\n      add\n        /* \"#utility.yul\":7348:7354   */\n      dup5\n        /* \"#utility.yul\":7304:7376   */\n      tag_150\n      jump\t// in\n    tag_250:\n        /* \"#utility.yul\":6941:7383   */\n      swap5\n      swap4\n      pop\n      pop\n      pop\n      pop\n      jump\t// out\n        /* \"#utility.yul\":7389:7532   */\n    tag_156:\n        /* \"#utility.yul\":7446:7451   */\n      0x00\n        /* \"#utility.yul\":7477:7483   */\n      dup2\n        /* \"#utility.yul\":7471:7484   */\n      mload\n        /* \"#utility.yul\":7462:7484   */\n      swap1\n      pop\n        /* \"#utility.yul\":7493:7526   */\n      tag_252\n        /* \"#utility.yul\":7520:7525   */\n      dup2\n        /* \"#utility.yul\":7493:7526   */\n      tag_146\n      jump\t// in\n    tag_252:\n        /* \"#utility.yul\":7389:7532   */\n      swap3\n      swap2\n      pop\n      pop\n      jump\t// out\n        /* \"#utility.yul\":7538:7889   */\n    tag_102:\n        /* \"#utility.yul\":7608:7614   */\n      0x00\n        /* \"#utility.yul\":7657:7659   */\n      0x20\n        /* \"#utility.yul\":7645:7654   */\n      dup3\n        /* \"#utility.yul\":7636:7643   */\n      dup5\n        /* \"#utility.yul\":7632:7655   */\n      sub\n        /* \"#utility.yul\":7628:7660   */\n      slt\n        /* \"#utility.yul\":7625:7744   */\n      iszero\n      tag_254\n      jumpi\n        /* \"#utility.yul\":7663:7742   */\n      tag_255\n      tag_139\n      jump\t// in\n    tag_255:\n        /* \"#utility.yul\":7625:7744   */\n    tag_254:\n        /* \"#utility.yul\":7783:7784   */\n      0x00\n        /* \"#utility.yul\":7808:7872   */\n      tag_256\n        /* \"#utility.yul\":7864:7871   */\n      dup5\n        /* \"#utility.yul\":7855:7861   */\n      dup3\n        /* \"#utility.yul\":7844:7853   */\n      dup6\n        /* \"#utility.yul\":7840:7862   */\n      add\n        /* \"#utility.yul\":7808:7872   */\n      tag_156\n      jump\t// in\n    tag_256:\n        /* \"#utility.yul\":7798:7872   */\n      swap2\n      pop\n        /* \"#utility.yul\":7754:7882   */\n      pop\n        /* \"#utility.yul\":7538:7889   */\n      swap3\n      swap2\n      pop\n      pop\n      jump\t// out\n        /* \"#utility.yul\":7895:7980   */\n    tag_157:\n        /* \"#utility.yul\":7940:7947   */\n      0x00\n        /* \"#utility.yul\":7969:7974   */\n      dup2\n        /* \"#utility.yul\":7958:7974   */\n      swap1\n      pop\n        /* \"#utility.yul\":7895:7980   */\n      swap2\n      swap1\n      pop\n      jump\t// out\n        /* \"#utility.yul\":7986:8046   */\n    tag_158:\n        /* \"#utility.yul\":8014:8017   */\n      0x00\n        /* \"#utility.yul\":8035:8040   */\n      dup2\n        /* \"#utility.yul\":8028:8040   */\n      swap1\n      pop\n        /* \"#utility.yul\":7986:8046   */\n      swap2\n      swap1\n      pop\n      jump\t// out\n        /* \"#utility.yul\":8052:8210   */\n    tag_159:\n        /* \"#utility.yul\":8110:8119   */\n      0x00\n        /* \"#utility.yul\":8143:8204   */\n      tag_260\n        /* \"#utility.yul\":8161:8203   */\n      tag_261\n        /* \"#utility.yul\":8170:8202   */\n      tag_262\n        /* \"#utility.yul\":8196:8201   */\n      dup5\n        /* \"#utility.yul\":8170:8202   */\n      tag_157\n      jump\t// in\n    tag_262:\n        /* \"#utility.yul\":8161:8203   */\n      tag_158\n      jump\t// in\n    tag_261:\n        /* \"#utility.yul\":8143:8204   */\n      tag_145\n      jump\t// in\n    tag_260:\n        /* \"#utility.yul\":8130:8204   */\n      swap1\n      pop\n        /* \"#utility.yul\":8052:8210   */\n      swap2\n      swap1\n      pop\n      jump\t// out\n        /* \"#utility.yul\":8216:8363   */\n    tag_160:\n        /* \"#utility.yul\":8311:8356   */\n      tag_264\n        /* \"#utility.yul\":8350:8355   */\n      dup2\n        /* \"#utility.yul\":8311:8356   */\n      tag_159\n      jump\t// in\n    tag_264:\n        /* \"#utility.yul\":8306:8309   */\n      dup3\n        /* \"#utility.yul\":8299:8357   */\n      mstore\n        /* \"#utility.yul\":8216:8363   */\n      pop\n      pop\n      jump\t// out\n        /* \"#utility.yul\":8369:8827   */\n    tag_110:\n        /* \"#utility.yul\":8526:8530   */\n      0x00\n        /* \"#utility.yul\":8564:8566   */\n      0x60\n        /* \"#utility.yul\":8553:8562   */\n      dup3\n        /* \"#utility.yul\":8549:8567   */\n      add\n        /* \"#utility.yul\":8541:8567   */\n      swap1\n      pop\n        /* \"#utility.yul\":8577:8648   */\n      tag_266\n        /* \"#utility.yul\":8645:8646   */\n      0x00\n        /* \"#utility.yul\":8634:8643   */\n      dup4\n        /* \"#utility.yul\":8630:8647   */\n      add\n        /* \"#utility.yul\":8621:8627   */\n      dup7\n        /* \"#utility.yul\":8577:8648   */\n      tag_151\n      jump\t// in\n    tag_266:\n        /* \"#utility.yul\":8658:8730   */\n      tag_267\n        /* \"#utility.yul\":8726:8728   */\n      0x20\n        /* \"#utility.yul\":8715:8724   */\n      dup4\n        /* \"#utility.yul\":8711:8729   */\n      add\n        /* \"#utility.yul\":8702:8708   */\n      dup6\n        /* \"#utility.yul\":8658:8730   */\n      tag_151\n      jump\t// in\n    tag_267:\n        /* \"#utility.yul\":8740:8820   */\n      tag_268\n        /* \"#utility.yul\":8816:8818   */\n      0x40\n        /* \"#utility.yul\":8805:8814   */\n      dup4\n        /* \"#utility.yul\":8801:8819   */\n      add\n        /* \"#utility.yul\":8792:8798   */\n      dup5\n        /* \"#utility.yul\":8740:8820   */\n      tag_160\n      jump\t// in\n    tag_268:\n        /* \"#utility.yul\":8369:8827   */\n      swap5\n      swap4\n      pop\n      pop\n      pop\n      pop\n      jump\t// out\n        /* \"#utility.yul\":8833:9165   */\n    tag_133:\n        /* \"#utility.yul\":8954:8958   */\n      0x00\n        /* \"#utility.yul\":8992:8994   */\n      0x40\n        /* \"#utility.yul\":8981:8990   */\n      dup3\n        /* \"#utility.yul\":8977:8995   */\n      add\n        /* \"#utility.yul\":8969:8995   */\n      swap1\n      pop\n        /* \"#utility.yul\":9005:9076   */\n      tag_270\n        /* \"#utility.yul\":9073:9074   */\n      0x00\n        /* \"#utility.yul\":9062:9071   */\n      dup4\n        /* \"#utility.yul\":9058:9075   */\n      add\n        /* \"#utility.yul\":9049:9055   */\n      dup6\n        /* \"#utility.yul\":9005:9076   */\n      tag_151\n      jump\t// in\n    tag_270:\n        /* \"#utility.yul\":9086:9158   */\n      tag_271\n        /* \"#utility.yul\":9154:9156   */\n      0x20\n        /* \"#utility.yul\":9143:9152   */\n      dup4\n        /* \"#utility.yul\":9139:9157   */\n      add\n        /* \"#utility.yul\":9130:9136   */\n      dup5\n        /* \"#utility.yul\":9086:9158   */\n      tag_151\n      jump\t// in\n    tag_271:\n        /* \"#utility.yul\":8833:9165   */\n      swap4\n      swap3\n      pop\n      pop\n      pop\n      jump\t// out\n\n    auxdata: 0xa2646970667358221220d3745db710d8377882da84ce271bba868f86b6942bb4ebc1fd581f6cbc9433a964736f6c634300080e0033\n}\n",
				"bytecode": {
					"linkReferences": {},
					"object": "60806040523480156200001157600080fd5b506040516200121d3803806200121d8339818101604052810190620000379190620000e8565b806000806101000a81548173ffffffffffffffffffffffffffffffffffffffff021916908373ffffffffffffffffffffffffffffffffffffffff160217905550506200011a565b600080fd5b600073ffffffffffffffffffffffffffffffffffffffff82169050919050565b6000620000b08262000083565b9050919050565b620000c281620000a3565b8114620000ce57600080fd5b50565b600081519050620000e281620000b7565b92915050565b6000602082840312156200010157620001006200007e565b5b60006200011184828501620000d1565b91505092915050565b6110f3806200012a6000396000f3fe608060405234801561001057600080fd5b506004361061009e5760003560e01c8063874f33a111610066578063874f33a114610181578063a9059cbb1461018b578063c007f2d1146101bb578063dd62ed3e146101d9578063e18ad7ab146102095761009e565b8063095ea7b3146100a357806322f7335a146100d357806323b872dd1461010357806370a08231146101335780637104ddb214610163575b600080fd5b6100bd60048036038101906100b89190610c23565b610227565b6040516100ca9190610c7e565b60405180910390f35b6100ed60048036038101906100e89190610c99565b6102d0565b6040516100fa9190610c7e565b60405180910390f35b61011d60048036038101906101189190610cec565b610483565b60405161012a9190610c7e565b60405180910390f35b61014d60048036038101906101489190610d3f565b61066d565b60405161015a9190610d7b565b60405180910390f35b61016b610711565b6040516101789190610d7b565b60405180910390f35b6101896107b3565b005b6101a560048036038101906101a09190610c23565b61085d565b6040516101b29190610c7e565b60405180910390f35b6101c3610a44565b6040516101d09190610d7b565b60405180910390f35b6101f360048036038101906101ee9190610d96565b610adb565b6040516102009190610d7b565b60405180910390f35b610211610b82565b60405161021e9190610de5565b60405180910390f35b60008060009054906101000a900473ffffffffffffffffffffffffffffffffffffffff1673ffffffffffffffffffffffffffffffffffffffff1663095ea7b384846040518363ffffffff1660e01b8152600401610285929190610e00565b6020604051808303816000875af11580156102a4573d6000803e3d6000fd5b505050506040513d601f19601f820116820180604052508101906102c89190610e55565b905092915050565b60008073dd870fa1b7c4700f2bd7f44238821c26f739214890506000606484866102fa9190610eb1565b6103049190610f3a565b9050600081866103149190610f6b565b905060008054906101000a900473ffffffffffffffffffffffffffffffffffffffff1673ffffffffffffffffffffffffffffffffffffffff1663a9059cbb88836040518363ffffffff1660e01b8152600401610371929190610e00565b6020604051808303816000875af1158015610390573d6000803e3d6000fd5b505050506040513d601f19601f820116820180604052508101906103b49190610e55565b156104745760008054906101000a900473ffffffffffffffffffffffffffffffffffffffff1673ffffffffffffffffffffffffffffffffffffffff1663a9059cbb84846040518363ffffffff1660e01b8152600401610414929190610e00565b6020604051808303816000875af1158015610433573d6000803e3d6000fd5b505050506040513d601f19601f820116820180604052508101906104579190610e55565b15610468576001935050505061047c565b6000935050505061047c565b600093505050505b9392505050565b60008060009054906101000a900473ffffffffffffffffffffffffffffffffffffffff1673ffffffffffffffffffffffffffffffffffffffff1663095ea7b333846040518363ffffffff1660e01b81526004016104e1929190610e00565b6020604051808303816000875af1158015610500573d6000803e3d6000fd5b505050506040513d601f19601f820116820180604052508101906105249190610e55565b5060008054906101000a900473ffffffffffffffffffffffffffffffffffffffff1673ffffffffffffffffffffffffffffffffffffffff1663095ea7b384846040518363ffffffff1660e01b8152600401610580929190610e00565b6020604051808303816000875af115801561059f573d6000803e3d6000fd5b505050506040513d601f19601f820116820180604052508101906105c39190610e55565b5060008054906101000a900473ffffffffffffffffffffffffffffffffffffffff1673ffffffffffffffffffffffffffffffffffffffff166323b872dd8585856040518463ffffffff1660e01b815260040161062193929190610f9f565b6020604051808303816000875af1158015610640573d6000803e3d6000fd5b505050506040513d601f19601f820116820180604052508101906106649190610e55565b90509392505050565b60008060009054906101000a900473ffffffffffffffffffffffffffffffffffffffff1673ffffffffffffffffffffffffffffffffffffffff166370a08231836040518263ffffffff1660e01b81526004016106c99190610de5565b602060405180830381865afa1580156106e6573d6000803e3d6000fd5b505050506040513d601f19601f8201168201806040525081019061070a9190610feb565b9050919050565b60008060009054906101000a900473ffffffffffffffffffffffffffffffffffffffff1673ffffffffffffffffffffffffffffffffffffffff166370a08231336040518263ffffffff1660e01b815260040161076d9190610de5565b602060405180830381865afa15801561078a573d6000803e3d6000fd5b505050506040513d601f19601f820116820180604052508101906107ae9190610feb565b905090565b600033905060008054906101000a900473ffffffffffffffffffffffffffffffffffffffff1673ffffffffffffffffffffffffffffffffffffffff166323b872dd308360016040518463ffffffff1660e01b81526004016108169392919061105d565b6020604051808303816000875af1158015610835573d6000803e3d6000fd5b505050506040513d601f19601f820116820180604052508101906108599190610e55565b5050565b60008060009054906101000a900473ffffffffffffffffffffffffffffffffffffffff1673ffffffffffffffffffffffffffffffffffffffff1663095ea7b333846040518363ffffffff1660e01b81526004016108bb929190610e00565b6020604051808303816000875af11580156108da573d6000803e3d6000fd5b505050506040513d601f19601f820116820180604052508101906108fe9190610e55565b5060008054906101000a900473ffffffffffffffffffffffffffffffffffffffff1673ffffffffffffffffffffffffffffffffffffffff1663095ea7b384846040518363ffffffff1660e01b815260040161095a929190610e00565b6020604051808303816000875af1158015610979573d6000803e3d6000fd5b505050506040513d601f19601f8201168201806040525081019061099d9190610e55565b5060008054906101000a900473ffffffffffffffffffffffffffffffffffffffff1673ffffffffffffffffffffffffffffffffffffffff1663a9059cbb84846040518363ffffffff1660e01b81526004016109f9929190610e00565b6020604051808303816000875af1158015610a18573d6000803e3d6000fd5b505050506040513d601f19601f82011682018060405250810190610a3c9190610e55565b905092915050565b60008060009054906101000a900473ffffffffffffffffffffffffffffffffffffffff1673ffffffffffffffffffffffffffffffffffffffff166318160ddd6040518163ffffffff1660e01b8152600401602060405180830381865afa158015610ab2573d6000803e3d6000fd5b505050506040513d601f19601f82011682018060405250810190610ad69190610feb565b905090565b60008060009054906101000a900473ffffffffffffffffffffffffffffffffffffffff1673ffffffffffffffffffffffffffffffffffffffff1663dd62ed3e84846040518363ffffffff1660e01b8152600401610b39929190611094565b602060405180830381865afa158015610b56573d6000803e3d6000fd5b505050506040513d601f19601f82011682018060405250810190610b7a9190610feb565b905092915050565b600030905090565b600080fd5b600073ffffffffffffffffffffffffffffffffffffffff82169050919050565b6000610bba82610b8f565b9050919050565b610bca81610baf565b8114610bd557600080fd5b50565b600081359050610be781610bc1565b92915050565b6000819050919050565b610c0081610bed565b8114610c0b57600080fd5b50565b600081359050610c1d81610bf7565b92915050565b60008060408385031215610c3a57610c39610b8a565b5b6000610c4885828601610bd8565b9250506020610c5985828601610c0e565b9150509250929050565b60008115159050919050565b610c7881610c63565b82525050565b6000602082019050610c936000830184610c6f565b92915050565b600080600060608486031215610cb257610cb1610b8a565b5b6000610cc086828701610bd8565b9350506020610cd186828701610c0e565b9250506040610ce286828701610c0e565b9150509250925092565b600080600060608486031215610d0557610d04610b8a565b5b6000610d1386828701610bd8565b9350506020610d2486828701610bd8565b9250506040610d3586828701610c0e565b9150509250925092565b600060208284031215610d5557610d54610b8a565b5b6000610d6384828501610bd8565b91505092915050565b610d7581610bed565b82525050565b6000602082019050610d906000830184610d6c565b92915050565b60008060408385031215610dad57610dac610b8a565b5b6000610dbb85828601610bd8565b9250506020610dcc85828601610bd8565b9150509250929050565b610ddf81610baf565b82525050565b6000602082019050610dfa6000830184610dd6565b92915050565b6000604082019050610e156000830185610dd6565b610e226020830184610d6c565b9392505050565b610e3281610c63565b8114610e3d57600080fd5b50565b600081519050610e4f81610e29565b92915050565b600060208284031215610e6b57610e6a610b8a565b5b6000610e7984828501610e40565b91505092915050565b7f4e487b7100000000000000000000000000000000000000000000000000000000600052601160045260246000fd5b6000610ebc82610bed565b9150610ec783610bed565b9250817fffffffffffffffffffffffffffffffffffffffffffffffffffffffffffffffff0483118215151615610f0057610eff610e82565b5b828202905092915050565b7f4e487b7100000000000000000000000000000000000000000000000000000000600052601260045260246000fd5b6000610f4582610bed565b9150610f5083610bed565b925082610f6057610f5f610f0b565b5b828204905092915050565b6000610f7682610bed565b9150610f8183610bed565b925082821015610f9457610f93610e82565b5b828203905092915050565b6000606082019050610fb46000830186610dd6565b610fc16020830185610dd6565b610fce6040830184610d6c565b949350505050565b600081519050610fe581610bf7565b92915050565b60006020828403121561100157611000610b8a565b5b600061100f84828501610fd6565b91505092915050565b6000819050919050565b6000819050919050565b600061104761104261103d84611018565b611022565b610bed565b9050919050565b6110578161102c565b82525050565b60006060820190506110726000830186610dd6565b61107f6020830185610dd6565b61108c604083018461104e565b949350505050565b60006040820190506110a96000830185610dd6565b6110b66020830184610dd6565b939250505056fea2646970667358221220d3745db710d8377882da84ce271bba868f86b6942bb4ebc1fd581f6cbc9433a964736f6c634300080e0033",
					"opcodes": "PUSH1 0x80 PUSH1 0x40 MSTORE CALLVALUE DUP1 ISZERO PUSH3 0x11 JUMPI PUSH1 0x0 DUP1 REVERT JUMPDEST POP PUSH1 0x40 MLOAD PUSH3 0x121D CODESIZE SUB DUP1 PUSH3 0x121D DUP4 CODECOPY DUP2 DUP2 ADD PUSH1 0x40 MSTORE DUP2 ADD SWAP1 PUSH3 0x37 SWAP2 SWAP1 PUSH3 0xE8 JUMP JUMPDEST DUP1 PUSH1 0x0 DUP1 PUSH2 0x100 EXP DUP2 SLOAD DUP2 PUSH20 0xFFFFFFFFFFFFFFFFFFFFFFFFFFFFFFFFFFFFFFFF MUL NOT AND SWAP1 DUP4 PUSH20 0xFFFFFFFFFFFFFFFFFFFFFFFFFFFFFFFFFFFFFFFF AND MUL OR SWAP1 SSTORE POP POP PUSH3 0x11A JUMP JUMPDEST PUSH1 0x0 DUP1 REVERT JUMPDEST PUSH1 0x0 PUSH20 0xFFFFFFFFFFFFFFFFFFFFFFFFFFFFFFFFFFFFFFFF DUP3 AND SWAP1 POP SWAP2 SWAP1 POP JUMP JUMPDEST PUSH1 0x0 PUSH3 0xB0 DUP3 PUSH3 0x83 JUMP JUMPDEST SWAP1 POP SWAP2 SWAP1 POP JUMP JUMPDEST PUSH3 0xC2 DUP2 PUSH3 0xA3 JUMP JUMPDEST DUP2 EQ PUSH3 0xCE JUMPI PUSH1 0x0 DUP1 REVERT JUMPDEST POP JUMP JUMPDEST PUSH1 0x0 DUP2 MLOAD SWAP1 POP PUSH3 0xE2 DUP2 PUSH3 0xB7 JUMP JUMPDEST SWAP3 SWAP2 POP POP JUMP JUMPDEST PUSH1 0x0 PUSH1 0x20 DUP3 DUP5 SUB SLT ISZERO PUSH3 0x101 JUMPI PUSH3 0x100 PUSH3 0x7E JUMP JUMPDEST JUMPDEST PUSH1 0x0 PUSH3 0x111 DUP5 DUP3 DUP6 ADD PUSH3 0xD1 JUMP JUMPDEST SWAP2 POP POP SWAP3 SWAP2 POP POP JUMP JUMPDEST PUSH2 0x10F3 DUP1 PUSH3 0x12A PUSH1 0x0 CODECOPY PUSH1 0x0 RETURN INVALID PUSH1 0x80 PUSH1 0x40 MSTORE CALLVALUE DUP1 ISZERO PUSH2 0x10 JUMPI PUSH1 0x0 DUP1 REVERT JUMPDEST POP PUSH1 0x4 CALLDATASIZE LT PUSH2 0x9E JUMPI PUSH1 0x0 CALLDATALOAD PUSH1 0xE0 SHR DUP1 PUSH4 0x874F33A1 GT PUSH2 0x66 JUMPI DUP1 PUSH4 0x874F33A1 EQ PUSH2 0x181 JUMPI DUP1 PUSH4 0xA9059CBB EQ PUSH2 0x18B JUMPI DUP1 PUSH4 0xC007F2D1 EQ PUSH2 0x1BB JUMPI DUP1 PUSH4 0xDD62ED3E EQ PUSH2 0x1D9 JUMPI DUP1 PUSH4 0xE18AD7AB EQ PUSH2 0x209 JUMPI PUSH2 0x9E JUMP JUMPDEST DUP1 PUSH4 0x95EA7B3 EQ PUSH2 0xA3 JUMPI DUP1 PUSH4 0x22F7335A EQ PUSH2 0xD3 JUMPI DUP1 PUSH4 0x23B872DD EQ PUSH2 0x103 JUMPI DUP1 PUSH4 0x70A08231 EQ PUSH2 0x133 JUMPI DUP1 PUSH4 0x7104DDB2 EQ PUSH2 0x163 JUMPI JUMPDEST PUSH1 0x0 DUP1 REVERT JUMPDEST PUSH2 0xBD PUSH1 0x4 DUP1 CALLDATASIZE SUB DUP2 ADD SWAP1 PUSH2 0xB8 SWAP2 SWAP1 PUSH2 0xC23 JUMP JUMPDEST PUSH2 0x227 JUMP JUMPDEST PUSH1 0x40 MLOAD PUSH2 0xCA SWAP2 SWAP1 PUSH2 0xC7E JUMP JUMPDEST PUSH1 0x40 MLOAD DUP1 SWAP2 SUB SWAP1 RETURN JUMPDEST PUSH2 0xED PUSH1 0x4 DUP1 CALLDATASIZE SUB DUP2 ADD SWAP1 PUSH2 0xE8 SWAP2 SWAP1 PUSH2 0xC99 JUMP JUMPDEST PUSH2 0x2D0 JUMP JUMPDEST PUSH1 0x40 MLOAD PUSH2 0xFA SWAP2 SWAP1 PUSH2 0xC7E JUMP JUMPDEST PUSH1 0x40 MLOAD DUP1 SWAP2 SUB SWAP1 RETURN JUMPDEST PUSH2 0x11D PUSH1 0x4 DUP1 CALLDATASIZE SUB DUP2 ADD SWAP1 PUSH2 0x118 SWAP2 SWAP1 PUSH2 0xCEC JUMP JUMPDEST PUSH2 0x483 JUMP JUMPDEST PUSH1 0x40 MLOAD PUSH2 0x12A SWAP2 SWAP1 PUSH2 0xC7E JUMP JUMPDEST PUSH1 0x40 MLOAD DUP1 SWAP2 SUB SWAP1 RETURN JUMPDEST PUSH2 0x14D PUSH1 0x4 DUP1 CALLDATASIZE SUB DUP2 ADD SWAP1 PUSH2 0x148 SWAP2 SWAP1 PUSH2 0xD3F JUMP JUMPDEST PUSH2 0x66D JUMP JUMPDEST PUSH1 0x40 MLOAD PUSH2 0x15A SWAP2 SWAP1 PUSH2 0xD7B JUMP JUMPDEST PUSH1 0x40 MLOAD DUP1 SWAP2 SUB SWAP1 RETURN JUMPDEST PUSH2 0x16B PUSH2 0x711 JUMP JUMPDEST PUSH1 0x40 MLOAD PUSH2 0x178 SWAP2 SWAP1 PUSH2 0xD7B JUMP JUMPDEST PUSH1 0x40 MLOAD DUP1 SWAP2 SUB SWAP1 RETURN JUMPDEST PUSH2 0x189 PUSH2 0x7B3 JUMP JUMPDEST STOP JUMPDEST PUSH2 0x1A5 PUSH1 0x4 DUP1 CALLDATASIZE SUB DUP2 ADD SWAP1 PUSH2 0x1A0 SWAP2 SWAP1 PUSH2 0xC23 JUMP JUMPDEST PUSH2 0x85D JUMP JUMPDEST PUSH1 0x40 MLOAD PUSH2 0x1B2 SWAP2 SWAP1 PUSH2 0xC7E JUMP JUMPDEST PUSH1 0x40 MLOAD DUP1 SWAP2 SUB SWAP1 RETURN JUMPDEST PUSH2 0x1C3 PUSH2 0xA44 JUMP JUMPDEST PUSH1 0x40 MLOAD PUSH2 0x1D0 SWAP2 SWAP1 PUSH2 0xD7B JUMP JUMPDEST PUSH1 0x40 MLOAD DUP1 SWAP2 SUB SWAP1 RETURN JUMPDEST PUSH2 0x1F3 PUSH1 0x4 DUP1 CALLDATASIZE SUB DUP2 ADD SWAP1 PUSH2 0x1EE SWAP2 SWAP1 PUSH2 0xD96 JUMP JUMPDEST PUSH2 0xADB JUMP JUMPDEST PUSH1 0x40 MLOAD PUSH2 0x200 SWAP2 SWAP1 PUSH2 0xD7B JUMP JUMPDEST PUSH1 0x40 MLOAD DUP1 SWAP2 SUB SWAP1 RETURN JUMPDEST PUSH2 0x211 PUSH2 0xB82 JUMP JUMPDEST PUSH1 0x40 MLOAD PUSH2 0x21E SWAP2 SWAP1 PUSH2 0xDE5 JUMP JUMPDEST PUSH1 0x40 MLOAD DUP1 SWAP2 SUB SWAP1 RETURN JUMPDEST PUSH1 0x0 DUP1 PUSH1 0x0 SWAP1 SLOAD SWAP1 PUSH2 0x100 EXP SWAP1 DIV PUSH20 0xFFFFFFFFFFFFFFFFFFFFFFFFFFFFFFFFFFFFFFFF AND PUSH20 0xFFFFFFFFFFFFFFFFFFFFFFFFFFFFFFFFFFFFFFFF AND PUSH4 0x95EA7B3 DUP5 DUP5 PUSH1 0x40 MLOAD DUP4 PUSH4 0xFFFFFFFF AND PUSH1 0xE0 SHL DUP2 MSTORE PUSH1 0x4 ADD PUSH2 0x285 SWAP3 SWAP2 SWAP1 PUSH2 0xE00 JUMP JUMPDEST PUSH1 0x20 PUSH1 0x40 MLOAD DUP1 DUP4 SUB DUP2 PUSH1 0x0 DUP8 GAS CALL ISZERO DUP1 ISZERO PUSH2 0x2A4 JUMPI RETURNDATASIZE PUSH1 0x0 DUP1 RETURNDATACOPY RETURNDATASIZE PUSH1 0x0 REVERT JUMPDEST POP POP POP POP PUSH1 0x40 MLOAD RETURNDATASIZE PUSH1 0x1F NOT PUSH1 0x1F DUP3 ADD AND DUP3 ADD DUP1 PUSH1 0x40 MSTORE POP DUP2 ADD SWAP1 PUSH2 0x2C8 SWAP2 SWAP1 PUSH2 0xE55 JUMP JUMPDEST SWAP1 POP SWAP3 SWAP2 POP POP JUMP JUMPDEST PUSH1 0x0 DUP1 PUSH20 0xDD870FA1B7C4700F2BD7F44238821C26F7392148 SWAP1 POP PUSH1 0x0 PUSH1 0x64 DUP5 DUP7 PUSH2 0x2FA SWAP2 SWAP1 PUSH2 0xEB1 JUMP JUMPDEST PUSH2 0x304 SWAP2 SWAP1 PUSH2 0xF3A JUMP JUMPDEST SWAP1 POP PUSH1 0x0 DUP2 DUP7 PUSH2 0x314 SWAP2 SWAP1 PUSH2 0xF6B JUMP JUMPDEST SWAP1 POP PUSH1 0x0 DUP1 SLOAD SWAP1 PUSH2 0x100 EXP SWAP1 DIV PUSH20 0xFFFFFFFFFFFFFFFFFFFFFFFFFFFFFFFFFFFFFFFF AND PUSH20 0xFFFFFFFFFFFFFFFFFFFFFFFFFFFFFFFFFFFFFFFF AND PUSH4 0xA9059CBB DUP9 DUP4 PUSH1 0x40 MLOAD DUP4 PUSH4 0xFFFFFFFF AND PUSH1 0xE0 SHL DUP2 MSTORE PUSH1 0x4 ADD PUSH2 0x371 SWAP3 SWAP2 SWAP1 PUSH2 0xE00 JUMP JUMPDEST PUSH1 0x20 PUSH1 0x40 MLOAD DUP1 DUP4 SUB DUP2 PUSH1 0x0 DUP8 GAS CALL ISZERO DUP1 ISZERO PUSH2 0x390 JUMPI RETURNDATASIZE PUSH1 0x0 DUP1 RETURNDATACOPY RETURNDATASIZE PUSH1 0x0 REVERT JUMPDEST POP POP POP POP PUSH1 0x40 MLOAD RETURNDATASIZE PUSH1 0x1F NOT PUSH1 0x1F DUP3 ADD AND DUP3 ADD DUP1 PUSH1 0x40 MSTORE POP DUP2 ADD SWAP1 PUSH2 0x3B4 SWAP2 SWAP1 PUSH2 0xE55 JUMP JUMPDEST ISZERO PUSH2 0x474 JUMPI PUSH1 0x0 DUP1 SLOAD SWAP1 PUSH2 0x100 EXP SWAP1 DIV PUSH20 0xFFFFFFFFFFFFFFFFFFFFFFFFFFFFFFFFFFFFFFFF AND PUSH20 0xFFFFFFFFFFFFFFFFFFFFFFFFFFFFFFFFFFFFFFFF AND PUSH4 0xA9059CBB DUP5 DUP5 PUSH1 0x40 MLOAD DUP4 PUSH4 0xFFFFFFFF AND PUSH1 0xE0 SHL DUP2 MSTORE PUSH1 0x4 ADD PUSH2 0x414 SWAP3 SWAP2 SWAP1 PUSH2 0xE00 JUMP JUMPDEST PUSH1 0x20 PUSH1 0x40 MLOAD DUP1 DUP4 SUB DUP2 PUSH1 0x0 DUP8 GAS CALL ISZERO DUP1 ISZERO PUSH2 0x433 JUMPI RETURNDATASIZE PUSH1 0x0 DUP1 RETURNDATACOPY RETURNDATASIZE PUSH1 0x0 REVERT JUMPDEST POP POP POP POP PUSH1 0x40 MLOAD RETURNDATASIZE PUSH1 0x1F NOT PUSH1 0x1F DUP3 ADD AND DUP3 ADD DUP1 PUSH1 0x40 MSTORE POP DUP2 ADD SWAP1 PUSH2 0x457 SWAP2 SWAP1 PUSH2 0xE55 JUMP JUMPDEST ISZERO PUSH2 0x468 JUMPI PUSH1 0x1 SWAP4 POP POP POP POP PUSH2 0x47C JUMP JUMPDEST PUSH1 0x0 SWAP4 POP POP POP POP PUSH2 0x47C JUMP JUMPDEST PUSH1 0x0 SWAP4 POP POP POP POP JUMPDEST SWAP4 SWAP3 POP POP POP JUMP JUMPDEST PUSH1 0x0 DUP1 PUSH1 0x0 SWAP1 SLOAD SWAP1 PUSH2 0x100 EXP SWAP1 DIV PUSH20 0xFFFFFFFFFFFFFFFFFFFFFFFFFFFFFFFFFFFFFFFF AND PUSH20 0xFFFFFFFFFFFFFFFFFFFFFFFFFFFFFFFFFFFFFFFF AND PUSH4 0x95EA7B3 CALLER DUP5 PUSH1 0x40 MLOAD DUP4 PUSH4 0xFFFFFFFF AND PUSH1 0xE0 SHL DUP2 MSTORE PUSH1 0x4 ADD PUSH2 0x4E1 SWAP3 SWAP2 SWAP1 PUSH2 0xE00 JUMP JUMPDEST PUSH1 0x20 PUSH1 0x40 MLOAD DUP1 DUP4 SUB DUP2 PUSH1 0x0 DUP8 GAS CALL ISZERO DUP1 ISZERO PUSH2 0x500 JUMPI RETURNDATASIZE PUSH1 0x0 DUP1 RETURNDATACOPY RETURNDATASIZE PUSH1 0x0 REVERT JUMPDEST POP POP POP POP PUSH1 0x40 MLOAD RETURNDATASIZE PUSH1 0x1F NOT PUSH1 0x1F DUP3 ADD AND DUP3 ADD DUP1 PUSH1 0x40 MSTORE POP DUP2 ADD SWAP1 PUSH2 0x524 SWAP2 SWAP1 PUSH2 0xE55 JUMP JUMPDEST POP PUSH1 0x0 DUP1 SLOAD SWAP1 PUSH2 0x100 EXP SWAP1 DIV PUSH20 0xFFFFFFFFFFFFFFFFFFFFFFFFFFFFFFFFFFFFFFFF AND PUSH20 0xFFFFFFFFFFFFFFFFFFFFFFFFFFFFFFFFFFFFFFFF AND PUSH4 0x95EA7B3 DUP5 DUP5 PUSH1 0x40 MLOAD DUP4 PUSH4 0xFFFFFFFF AND PUSH1 0xE0 SHL DUP2 MSTORE PUSH1 0x4 ADD PUSH2 0x580 SWAP3 SWAP2 SWAP1 PUSH2 0xE00 JUMP JUMPDEST PUSH1 0x20 PUSH1 0x40 MLOAD DUP1 DUP4 SUB DUP2 PUSH1 0x0 DUP8 GAS CALL ISZERO DUP1 ISZERO PUSH2 0x59F JUMPI RETURNDATASIZE PUSH1 0x0 DUP1 RETURNDATACOPY RETURNDATASIZE PUSH1 0x0 REVERT JUMPDEST POP POP POP POP PUSH1 0x40 MLOAD RETURNDATASIZE PUSH1 0x1F NOT PUSH1 0x1F DUP3 ADD AND DUP3 ADD DUP1 PUSH1 0x40 MSTORE POP DUP2 ADD SWAP1 PUSH2 0x5C3 SWAP2 SWAP1 PUSH2 0xE55 JUMP JUMPDEST POP PUSH1 0x0 DUP1 SLOAD SWAP1 PUSH2 0x100 EXP SWAP1 DIV PUSH20 0xFFFFFFFFFFFFFFFFFFFFFFFFFFFFFFFFFFFFFFFF AND PUSH20 0xFFFFFFFFFFFFFFFFFFFFFFFFFFFFFFFFFFFFFFFF AND PUSH4 0x23B872DD DUP6 DUP6 DUP6 PUSH1 0x40 MLOAD DUP5 PUSH4 0xFFFFFFFF AND PUSH1 0xE0 SHL DUP2 MSTORE PUSH1 0x4 ADD PUSH2 0x621 SWAP4 SWAP3 SWAP2 SWAP1 PUSH2 0xF9F JUMP JUMPDEST PUSH1 0x20 PUSH1 0x40 MLOAD DUP1 DUP4 SUB DUP2 PUSH1 0x0 DUP8 GAS CALL ISZERO DUP1 ISZERO PUSH2 0x640 JUMPI RETURNDATASIZE PUSH1 0x0 DUP1 RETURNDATACOPY RETURNDATASIZE PUSH1 0x0 REVERT JUMPDEST POP POP POP POP PUSH1 0x40 MLOAD RETURNDATASIZE PUSH1 0x1F NOT PUSH1 0x1F DUP3 ADD AND DUP3 ADD DUP1 PUSH1 0x40 MSTORE POP DUP2 ADD SWAP1 PUSH2 0x664 SWAP2 SWAP1 PUSH2 0xE55 JUMP JUMPDEST SWAP1 POP SWAP4 SWAP3 POP POP POP JUMP JUMPDEST PUSH1 0x0 DUP1 PUSH1 0x0 SWAP1 SLOAD SWAP1 PUSH2 0x100 EXP SWAP1 DIV PUSH20 0xFFFFFFFFFFFFFFFFFFFFFFFFFFFFFFFFFFFFFFFF AND PUSH20 0xFFFFFFFFFFFFFFFFFFFFFFFFFFFFFFFFFFFFFFFF AND PUSH4 0x70A08231 DUP4 PUSH1 0x40 MLOAD DUP3 PUSH4 0xFFFFFFFF AND PUSH1 0xE0 SHL DUP2 MSTORE PUSH1 0x4 ADD PUSH2 0x6C9 SWAP2 SWAP1 PUSH2 0xDE5 JUMP JUMPDEST PUSH1 0x20 PUSH1 0x40 MLOAD DUP1 DUP4 SUB DUP2 DUP7 GAS STATICCALL ISZERO DUP1 ISZERO PUSH2 0x6E6 JUMPI RETURNDATASIZE PUSH1 0x0 DUP1 RETURNDATACOPY RETURNDATASIZE PUSH1 0x0 REVERT JUMPDEST POP POP POP POP PUSH1 0x40 MLOAD RETURNDATASIZE PUSH1 0x1F NOT PUSH1 0x1F DUP3 ADD AND DUP3 ADD DUP1 PUSH1 0x40 MSTORE POP DUP2 ADD SWAP1 PUSH2 0x70A SWAP2 SWAP1 PUSH2 0xFEB JUMP JUMPDEST SWAP1 POP SWAP2 SWAP1 POP JUMP JUMPDEST PUSH1 0x0 DUP1 PUSH1 0x0 SWAP1 SLOAD SWAP1 PUSH2 0x100 EXP SWAP1 DIV PUSH20 0xFFFFFFFFFFFFFFFFFFFFFFFFFFFFFFFFFFFFFFFF AND PUSH20 0xFFFFFFFFFFFFFFFFFFFFFFFFFFFFFFFFFFFFFFFF AND PUSH4 0x70A08231 CALLER PUSH1 0x40 MLOAD DUP3 PUSH4 0xFFFFFFFF AND PUSH1 0xE0 SHL DUP2 MSTORE PUSH1 0x4 ADD PUSH2 0x76D SWAP2 SWAP1 PUSH2 0xDE5 JUMP JUMPDEST PUSH1 0x20 PUSH1 0x40 MLOAD DUP1 DUP4 SUB DUP2 DUP7 GAS STATICCALL ISZERO DUP1 ISZERO PUSH2 0x78A JUMPI RETURNDATASIZE PUSH1 0x0 DUP1 RETURNDATACOPY RETURNDATASIZE PUSH1 0x0 REVERT JUMPDEST POP POP POP POP PUSH1 0x40 MLOAD RETURNDATASIZE PUSH1 0x1F NOT PUSH1 0x1F DUP3 ADD AND DUP3 ADD DUP1 PUSH1 0x40 MSTORE POP DUP2 ADD SWAP1 PUSH2 0x7AE SWAP2 SWAP1 PUSH2 0xFEB JUMP JUMPDEST SWAP1 POP SWAP1 JUMP JUMPDEST PUSH1 0x0 CALLER SWAP1 POP PUSH1 0x0 DUP1 SLOAD SWAP1 PUSH2 0x100 EXP SWAP1 DIV PUSH20 0xFFFFFFFFFFFFFFFFFFFFFFFFFFFFFFFFFFFFFFFF AND PUSH20 0xFFFFFFFFFFFFFFFFFFFFFFFFFFFFFFFFFFFFFFFF AND PUSH4 0x23B872DD ADDRESS DUP4 PUSH1 0x1 PUSH1 0x40 MLOAD DUP5 PUSH4 0xFFFFFFFF AND PUSH1 0xE0 SHL DUP2 MSTORE PUSH1 0x4 ADD PUSH2 0x816 SWAP4 SWAP3 SWAP2 SWAP1 PUSH2 0x105D JUMP JUMPDEST PUSH1 0x20 PUSH1 0x40 MLOAD DUP1 DUP4 SUB DUP2 PUSH1 0x0 DUP8 GAS CALL ISZERO DUP1 ISZERO PUSH2 0x835 JUMPI RETURNDATASIZE PUSH1 0x0 DUP1 RETURNDATACOPY RETURNDATASIZE PUSH1 0x0 REVERT JUMPDEST POP POP POP POP PUSH1 0x40 MLOAD RETURNDATASIZE PUSH1 0x1F NOT PUSH1 0x1F DUP3 ADD AND DUP3 ADD DUP1 PUSH1 0x40 MSTORE POP DUP2 ADD SWAP1 PUSH2 0x859 SWAP2 SWAP1 PUSH2 0xE55 JUMP JUMPDEST POP POP JUMP JUMPDEST PUSH1 0x0 DUP1 PUSH1 0x0 SWAP1 SLOAD SWAP1 PUSH2 0x100 EXP SWAP1 DIV PUSH20 0xFFFFFFFFFFFFFFFFFFFFFFFFFFFFFFFFFFFFFFFF AND PUSH20 0xFFFFFFFFFFFFFFFFFFFFFFFFFFFFFFFFFFFFFFFF AND PUSH4 0x95EA7B3 CALLER DUP5 PUSH1 0x40 MLOAD DUP4 PUSH4 0xFFFFFFFF AND PUSH1 0xE0 SHL DUP2 MSTORE PUSH1 0x4 ADD PUSH2 0x8BB SWAP3 SWAP2 SWAP1 PUSH2 0xE00 JUMP JUMPDEST PUSH1 0x20 PUSH1 0x40 MLOAD DUP1 DUP4 SUB DUP2 PUSH1 0x0 DUP8 GAS CALL ISZERO DUP1 ISZERO PUSH2 0x8DA JUMPI RETURNDATASIZE PUSH1 0x0 DUP1 RETURNDATACOPY RETURNDATASIZE PUSH1 0x0 REVERT JUMPDEST POP POP POP POP PUSH1 0x40 MLOAD RETURNDATASIZE PUSH1 0x1F NOT PUSH1 0x1F DUP3 ADD AND DUP3 ADD DUP1 PUSH1 0x40 MSTORE POP DUP2 ADD SWAP1 PUSH2 0x8FE SWAP2 SWAP1 PUSH2 0xE55 JUMP JUMPDEST POP PUSH1 0x0 DUP1 SLOAD SWAP1 PUSH2 0x100 EXP SWAP1 DIV PUSH20 0xFFFFFFFFFFFFFFFFFFFFFFFFFFFFFFFFFFFFFFFF AND PUSH20 0xFFFFFFFFFFFFFFFFFFFFFFFFFFFFFFFFFFFFFFFF AND PUSH4 0x95EA7B3 DUP5 DUP5 PUSH1 0x40 MLOAD DUP4 PUSH4 0xFFFFFFFF AND PUSH1 0xE0 SHL DUP2 MSTORE PUSH1 0x4 ADD PUSH2 0x95A SWAP3 SWAP2 SWAP1 PUSH2 0xE00 JUMP JUMPDEST PUSH1 0x20 PUSH1 0x40 MLOAD DUP1 DUP4 SUB DUP2 PUSH1 0x0 DUP8 GAS CALL ISZERO DUP1 ISZERO PUSH2 0x979 JUMPI RETURNDATASIZE PUSH1 0x0 DUP1 RETURNDATACOPY RETURNDATASIZE PUSH1 0x0 REVERT JUMPDEST POP POP POP POP PUSH1 0x40 MLOAD RETURNDATASIZE PUSH1 0x1F NOT PUSH1 0x1F DUP3 ADD AND DUP3 ADD DUP1 PUSH1 0x40 MSTORE POP DUP2 ADD SWAP1 PUSH2 0x99D SWAP2 SWAP1 PUSH2 0xE55 JUMP JUMPDEST POP PUSH1 0x0 DUP1 SLOAD SWAP1 PUSH2 0x100 EXP SWAP1 DIV PUSH20 0xFFFFFFFFFFFFFFFFFFFFFFFFFFFFFFFFFFFFFFFF AND PUSH20 0xFFFFFFFFFFFFFFFFFFFFFFFFFFFFFFFFFFFFFFFF AND PUSH4 0xA9059CBB DUP5 DUP5 PUSH1 0x40 MLOAD DUP4 PUSH4 0xFFFFFFFF AND PUSH1 0xE0 SHL DUP2 MSTORE PUSH1 0x4 ADD PUSH2 0x9F9 SWAP3 SWAP2 SWAP1 PUSH2 0xE00 JUMP JUMPDEST PUSH1 0x20 PUSH1 0x40 MLOAD DUP1 DUP4 SUB DUP2 PUSH1 0x0 DUP8 GAS CALL ISZERO DUP1 ISZERO PUSH2 0xA18 JUMPI RETURNDATASIZE PUSH1 0x0 DUP1 RETURNDATACOPY RETURNDATASIZE PUSH1 0x0 REVERT JUMPDEST POP POP POP POP PUSH1 0x40 MLOAD RETURNDATASIZE PUSH1 0x1F NOT PUSH1 0x1F DUP3 ADD AND DUP3 ADD DUP1 PUSH1 0x40 MSTORE POP DUP2 ADD SWAP1 PUSH2 0xA3C SWAP2 SWAP1 PUSH2 0xE55 JUMP JUMPDEST SWAP1 POP SWAP3 SWAP2 POP POP JUMP JUMPDEST PUSH1 0x0 DUP1 PUSH1 0x0 SWAP1 SLOAD SWAP1 PUSH2 0x100 EXP SWAP1 DIV PUSH20 0xFFFFFFFFFFFFFFFFFFFFFFFFFFFFFFFFFFFFFFFF AND PUSH20 0xFFFFFFFFFFFFFFFFFFFFFFFFFFFFFFFFFFFFFFFF AND PUSH4 0x18160DDD PUSH1 0x40 MLOAD DUP2 PUSH4 0xFFFFFFFF AND PUSH1 0xE0 SHL DUP2 MSTORE PUSH1 0x4 ADD PUSH1 0x20 PUSH1 0x40 MLOAD DUP1 DUP4 SUB DUP2 DUP7 GAS STATICCALL ISZERO DUP1 ISZERO PUSH2 0xAB2 JUMPI RETURNDATASIZE PUSH1 0x0 DUP1 RETURNDATACOPY RETURNDATASIZE PUSH1 0x0 REVERT JUMPDEST POP POP POP POP PUSH1 0x40 MLOAD RETURNDATASIZE PUSH1 0x1F NOT PUSH1 0x1F DUP3 ADD AND DUP3 ADD DUP1 PUSH1 0x40 MSTORE POP DUP2 ADD SWAP1 PUSH2 0xAD6 SWAP2 SWAP1 PUSH2 0xFEB JUMP JUMPDEST SWAP1 POP SWAP1 JUMP JUMPDEST PUSH1 0x0 DUP1 PUSH1 0x0 SWAP1 SLOAD SWAP1 PUSH2 0x100 EXP SWAP1 DIV PUSH20 0xFFFFFFFFFFFFFFFFFFFFFFFFFFFFFFFFFFFFFFFF AND PUSH20 0xFFFFFFFFFFFFFFFFFFFFFFFFFFFFFFFFFFFFFFFF AND PUSH4 0xDD62ED3E DUP5 DUP5 PUSH1 0x40 MLOAD DUP4 PUSH4 0xFFFFFFFF AND PUSH1 0xE0 SHL DUP2 MSTORE PUSH1 0x4 ADD PUSH2 0xB39 SWAP3 SWAP2 SWAP1 PUSH2 0x1094 JUMP JUMPDEST PUSH1 0x20 PUSH1 0x40 MLOAD DUP1 DUP4 SUB DUP2 DUP7 GAS STATICCALL ISZERO DUP1 ISZERO PUSH2 0xB56 JUMPI RETURNDATASIZE PUSH1 0x0 DUP1 RETURNDATACOPY RETURNDATASIZE PUSH1 0x0 REVERT JUMPDEST POP POP POP POP PUSH1 0x40 MLOAD RETURNDATASIZE PUSH1 0x1F NOT PUSH1 0x1F DUP3 ADD AND DUP3 ADD DUP1 PUSH1 0x40 MSTORE POP DUP2 ADD SWAP1 PUSH2 0xB7A SWAP2 SWAP1 PUSH2 0xFEB JUMP JUMPDEST SWAP1 POP SWAP3 SWAP2 POP POP JUMP JUMPDEST PUSH1 0x0 ADDRESS SWAP1 POP SWAP1 JUMP JUMPDEST PUSH1 0x0 DUP1 REVERT JUMPDEST PUSH1 0x0 PUSH20 0xFFFFFFFFFFFFFFFFFFFFFFFFFFFFFFFFFFFFFFFF DUP3 AND SWAP1 POP SWAP2 SWAP1 POP JUMP JUMPDEST PUSH1 0x0 PUSH2 0xBBA DUP3 PUSH2 0xB8F JUMP JUMPDEST SWAP1 POP SWAP2 SWAP1 POP JUMP JUMPDEST PUSH2 0xBCA DUP2 PUSH2 0xBAF JUMP JUMPDEST DUP2 EQ PUSH2 0xBD5 JUMPI PUSH1 0x0 DUP1 REVERT JUMPDEST POP JUMP JUMPDEST PUSH1 0x0 DUP2 CALLDATALOAD SWAP1 POP PUSH2 0xBE7 DUP2 PUSH2 0xBC1 JUMP JUMPDEST SWAP3 SWAP2 POP POP JUMP JUMPDEST PUSH1 0x0 DUP2 SWAP1 POP SWAP2 SWAP1 POP JUMP JUMPDEST PUSH2 0xC00 DUP2 PUSH2 0xBED JUMP JUMPDEST DUP2 EQ PUSH2 0xC0B JUMPI PUSH1 0x0 DUP1 REVERT JUMPDEST POP JUMP JUMPDEST PUSH1 0x0 DUP2 CALLDATALOAD SWAP1 POP PUSH2 0xC1D DUP2 PUSH2 0xBF7 JUMP JUMPDEST SWAP3 SWAP2 POP POP JUMP JUMPDEST PUSH1 0x0 DUP1 PUSH1 0x40 DUP4 DUP6 SUB SLT ISZERO PUSH2 0xC3A JUMPI PUSH2 0xC39 PUSH2 0xB8A JUMP JUMPDEST JUMPDEST PUSH1 0x0 PUSH2 0xC48 DUP6 DUP3 DUP7 ADD PUSH2 0xBD8 JUMP JUMPDEST SWAP3 POP POP PUSH1 0x20 PUSH2 0xC59 DUP6 DUP3 DUP7 ADD PUSH2 0xC0E JUMP JUMPDEST SWAP2 POP POP SWAP3 POP SWAP3 SWAP1 POP JUMP JUMPDEST PUSH1 0x0 DUP2 ISZERO ISZERO SWAP1 POP SWAP2 SWAP1 POP JUMP JUMPDEST PUSH2 0xC78 DUP2 PUSH2 0xC63 JUMP JUMPDEST DUP3 MSTORE POP POP JUMP JUMPDEST PUSH1 0x0 PUSH1 0x20 DUP3 ADD SWAP1 POP PUSH2 0xC93 PUSH1 0x0 DUP4 ADD DUP5 PUSH2 0xC6F JUMP JUMPDEST SWAP3 SWAP2 POP POP JUMP JUMPDEST PUSH1 0x0 DUP1 PUSH1 0x0 PUSH1 0x60 DUP5 DUP7 SUB SLT ISZERO PUSH2 0xCB2 JUMPI PUSH2 0xCB1 PUSH2 0xB8A JUMP JUMPDEST JUMPDEST PUSH1 0x0 PUSH2 0xCC0 DUP7 DUP3 DUP8 ADD PUSH2 0xBD8 JUMP JUMPDEST SWAP4 POP POP PUSH1 0x20 PUSH2 0xCD1 DUP7 DUP3 DUP8 ADD PUSH2 0xC0E JUMP JUMPDEST SWAP3 POP POP PUSH1 0x40 PUSH2 0xCE2 DUP7 DUP3 DUP8 ADD PUSH2 0xC0E JUMP JUMPDEST SWAP2 POP POP SWAP3 POP SWAP3 POP SWAP3 JUMP JUMPDEST PUSH1 0x0 DUP1 PUSH1 0x0 PUSH1 0x60 DUP5 DUP7 SUB SLT ISZERO PUSH2 0xD05 JUMPI PUSH2 0xD04 PUSH2 0xB8A JUMP JUMPDEST JUMPDEST PUSH1 0x0 PUSH2 0xD13 DUP7 DUP3 DUP8 ADD PUSH2 0xBD8 JUMP JUMPDEST SWAP4 POP POP PUSH1 0x20 PUSH2 0xD24 DUP7 DUP3 DUP8 ADD PUSH2 0xBD8 JUMP JUMPDEST SWAP3 POP POP PUSH1 0x40 PUSH2 0xD35 DUP7 DUP3 DUP8 ADD PUSH2 0xC0E JUMP JUMPDEST SWAP2 POP POP SWAP3 POP SWAP3 POP SWAP3 JUMP JUMPDEST PUSH1 0x0 PUSH1 0x20 DUP3 DUP5 SUB SLT ISZERO PUSH2 0xD55 JUMPI PUSH2 0xD54 PUSH2 0xB8A JUMP JUMPDEST JUMPDEST PUSH1 0x0 PUSH2 0xD63 DUP5 DUP3 DUP6 ADD PUSH2 0xBD8 JUMP JUMPDEST SWAP2 POP POP SWAP3 SWAP2 POP POP JUMP JUMPDEST PUSH2 0xD75 DUP2 PUSH2 0xBED JUMP JUMPDEST DUP3 MSTORE POP POP JUMP JUMPDEST PUSH1 0x0 PUSH1 0x20 DUP3 ADD SWAP1 POP PUSH2 0xD90 PUSH1 0x0 DUP4 ADD DUP5 PUSH2 0xD6C JUMP JUMPDEST SWAP3 SWAP2 POP POP JUMP JUMPDEST PUSH1 0x0 DUP1 PUSH1 0x40 DUP4 DUP6 SUB SLT ISZERO PUSH2 0xDAD JUMPI PUSH2 0xDAC PUSH2 0xB8A JUMP JUMPDEST JUMPDEST PUSH1 0x0 PUSH2 0xDBB DUP6 DUP3 DUP7 ADD PUSH2 0xBD8 JUMP JUMPDEST SWAP3 POP POP PUSH1 0x20 PUSH2 0xDCC DUP6 DUP3 DUP7 ADD PUSH2 0xBD8 JUMP JUMPDEST SWAP2 POP POP SWAP3 POP SWAP3 SWAP1 POP JUMP JUMPDEST PUSH2 0xDDF DUP2 PUSH2 0xBAF JUMP JUMPDEST DUP3 MSTORE POP POP JUMP JUMPDEST PUSH1 0x0 PUSH1 0x20 DUP3 ADD SWAP1 POP PUSH2 0xDFA PUSH1 0x0 DUP4 ADD DUP5 PUSH2 0xDD6 JUMP JUMPDEST SWAP3 SWAP2 POP POP JUMP JUMPDEST PUSH1 0x0 PUSH1 0x40 DUP3 ADD SWAP1 POP PUSH2 0xE15 PUSH1 0x0 DUP4 ADD DUP6 PUSH2 0xDD6 JUMP JUMPDEST PUSH2 0xE22 PUSH1 0x20 DUP4 ADD DUP5 PUSH2 0xD6C JUMP JUMPDEST SWAP4 SWAP3 POP POP POP JUMP JUMPDEST PUSH2 0xE32 DUP2 PUSH2 0xC63 JUMP JUMPDEST DUP2 EQ PUSH2 0xE3D JUMPI PUSH1 0x0 DUP1 REVERT JUMPDEST POP JUMP JUMPDEST PUSH1 0x0 DUP2 MLOAD SWAP1 POP PUSH2 0xE4F DUP2 PUSH2 0xE29 JUMP JUMPDEST SWAP3 SWAP2 POP POP JUMP JUMPDEST PUSH1 0x0 PUSH1 0x20 DUP3 DUP5 SUB SLT ISZERO PUSH2 0xE6B JUMPI PUSH2 0xE6A PUSH2 0xB8A JUMP JUMPDEST JUMPDEST PUSH1 0x0 PUSH2 0xE79 DUP5 DUP3 DUP6 ADD PUSH2 0xE40 JUMP JUMPDEST SWAP2 POP POP SWAP3 SWAP2 POP POP JUMP JUMPDEST PUSH32 0x4E487B7100000000000000000000000000000000000000000000000000000000 PUSH1 0x0 MSTORE PUSH1 0x11 PUSH1 0x4 MSTORE PUSH1 0x24 PUSH1 0x0 REVERT JUMPDEST PUSH1 0x0 PUSH2 0xEBC DUP3 PUSH2 0xBED JUMP JUMPDEST SWAP2 POP PUSH2 0xEC7 DUP4 PUSH2 0xBED JUMP JUMPDEST SWAP3 POP DUP2 PUSH32 0xFFFFFFFFFFFFFFFFFFFFFFFFFFFFFFFFFFFFFFFFFFFFFFFFFFFFFFFFFFFFFFFF DIV DUP4 GT DUP3 ISZERO ISZERO AND ISZERO PUSH2 0xF00 JUMPI PUSH2 0xEFF PUSH2 0xE82 JUMP JUMPDEST JUMPDEST DUP3 DUP3 MUL SWAP1 POP SWAP3 SWAP2 POP POP JUMP JUMPDEST PUSH32 0x4E487B7100000000000000000000000000000000000000000000000000000000 PUSH1 0x0 MSTORE PUSH1 0x12 PUSH1 0x4 MSTORE PUSH1 0x24 PUSH1 0x0 REVERT JUMPDEST PUSH1 0x0 PUSH2 0xF45 DUP3 PUSH2 0xBED JUMP JUMPDEST SWAP2 POP PUSH2 0xF50 DUP4 PUSH2 0xBED JUMP JUMPDEST SWAP3 POP DUP3 PUSH2 0xF60 JUMPI PUSH2 0xF5F PUSH2 0xF0B JUMP JUMPDEST JUMPDEST DUP3 DUP3 DIV SWAP1 POP SWAP3 SWAP2 POP POP JUMP JUMPDEST PUSH1 0x0 PUSH2 0xF76 DUP3 PUSH2 0xBED JUMP JUMPDEST SWAP2 POP PUSH2 0xF81 DUP4 PUSH2 0xBED JUMP JUMPDEST SWAP3 POP DUP3 DUP3 LT ISZERO PUSH2 0xF94 JUMPI PUSH2 0xF93 PUSH2 0xE82 JUMP JUMPDEST JUMPDEST DUP3 DUP3 SUB SWAP1 POP SWAP3 SWAP2 POP POP JUMP JUMPDEST PUSH1 0x0 PUSH1 0x60 DUP3 ADD SWAP1 POP PUSH2 0xFB4 PUSH1 0x0 DUP4 ADD DUP7 PUSH2 0xDD6 JUMP JUMPDEST PUSH2 0xFC1 PUSH1 0x20 DUP4 ADD DUP6 PUSH2 0xDD6 JUMP JUMPDEST PUSH2 0xFCE PUSH1 0x40 DUP4 ADD DUP5 PUSH2 0xD6C JUMP JUMPDEST SWAP5 SWAP4 POP POP POP POP JUMP JUMPDEST PUSH1 0x0 DUP2 MLOAD SWAP1 POP PUSH2 0xFE5 DUP2 PUSH2 0xBF7 JUMP JUMPDEST SWAP3 SWAP2 POP POP JUMP JUMPDEST PUSH1 0x0 PUSH1 0x20 DUP3 DUP5 SUB SLT ISZERO PUSH2 0x1001 JUMPI PUSH2 0x1000 PUSH2 0xB8A JUMP JUMPDEST JUMPDEST PUSH1 0x0 PUSH2 0x100F DUP5 DUP3 DUP6 ADD PUSH2 0xFD6 JUMP JUMPDEST SWAP2 POP POP SWAP3 SWAP2 POP POP JUMP JUMPDEST PUSH1 0x0 DUP2 SWAP1 POP SWAP2 SWAP1 POP JUMP JUMPDEST PUSH1 0x0 DUP2 SWAP1 POP SWAP2 SWAP1 POP JUMP JUMPDEST PUSH1 0x0 PUSH2 0x1047 PUSH2 0x1042 PUSH2 0x103D DUP5 PUSH2 0x1018 JUMP JUMPDEST PUSH2 0x1022 JUMP JUMPDEST PUSH2 0xBED JUMP JUMPDEST SWAP1 POP SWAP2 SWAP1 POP JUMP JUMPDEST PUSH2 0x1057 DUP2 PUSH2 0x102C JUMP JUMPDEST DUP3 MSTORE POP POP JUMP JUMPDEST PUSH1 0x0 PUSH1 0x60 DUP3 ADD SWAP1 POP PUSH2 0x1072 PUSH1 0x0 DUP4 ADD DUP7 PUSH2 0xDD6 JUMP JUMPDEST PUSH2 0x107F PUSH1 0x20 DUP4 ADD DUP6 PUSH2 0xDD6 JUMP JUMPDEST PUSH2 0x108C PUSH1 0x40 DUP4 ADD DUP5 PUSH2 0x104E JUMP JUMPDEST SWAP5 SWAP4 POP POP POP POP JUMP JUMPDEST PUSH1 0x0 PUSH1 0x40 DUP3 ADD SWAP1 POP PUSH2 0x10A9 PUSH1 0x0 DUP4 ADD DUP6 PUSH2 0xDD6 JUMP JUMPDEST PUSH2 0x10B6 PUSH1 0x20 DUP4 ADD DUP5 PUSH2 0xDD6 JUMP JUMPDEST SWAP4 SWAP3 POP POP POP JUMP INVALID LOG2 PUSH5 0x6970667358 0x22 SLT KECCAK256 0xD3 PUSH21 0x5DB710D8377882DA84CE271BBA868F86B6942BB4EB 0xC1 REVERT PC 0x1F PUSH13 0xBC9433A964736F6C634300080E STOP CALLER "
				},
				"gasEstimates": {
					"creation": {
						"codeDepositCost": "867800",
						"executionCost": "infinite",
						"totalCost": "infinite"
					},
					"external": {
						"allowance(address,address)": "infinite",
						"approve(address,uint256)": "infinite",
						"balanceOf(address)": "infinite",
						"doStuff()": "infinite",
						"self()": "infinite",
						"thisA()": "473",
						"totalSupply_v1()": "infinite",
						"transfer(address,uint256)": "infinite",
						"transferFee(address,uint256,uint256)": "infinite",
						"transferFrom(address,address,uint256)": "infinite"
					}
				},
				"methodIdentifiers": {
					"allowance(address,address)": "dd62ed3e",
					"approve(address,uint256)": "095ea7b3",
					"balanceOf(address)": "70a08231",
					"doStuff()": "874f33a1",
					"self()": "7104ddb2",
					"thisA()": "e18ad7ab",
					"totalSupply_v1()": "c007f2d1",
					"transfer(address,uint256)": "a9059cbb",
					"transferFee(address,uint256,uint256)": "22f7335a",
					"transferFrom(address,address,uint256)": "23b872dd"
				}
			},
			"storageLayout": {
				"storage": [
					{
						"astId": 79,
						"contract": "default_workspace/test/sp.sol:sp",
						"label": "SP",
						"offset": 0,
						"slot": "0",
						"type": "t_contract(IERC20)76"
					}
				],
				"types": {
					"t_contract(IERC20)76": {
						"encoding": "inplace",
						"label": "contract IERC20",
						"numberOfBytes": "20"
					}
				}
			},
			"userdoc": {
				"kind": "user",
				"methods": {},
				"version": 1
			}
		}
	}
}